{
  "address": "0x9c65f85425c619A6cB6D29fF8d57ef696323d188",
  "abi": [
    {
      "inputs": [],
      "stateMutability": "nonpayable",
      "type": "constructor"
    },
    {
      "inputs": [
        {
          "internalType": "address",
          "name": "ownershipToken",
          "type": "address"
        }
      ],
      "name": "AV_AlreadyInitialized",
      "type": "error"
    },
    {
      "inputs": [
        {
          "internalType": "address",
          "name": "caller",
          "type": "address"
        }
      ],
      "name": "AV_CallDisallowed",
      "type": "error"
    },
    {
      "inputs": [
        {
          "internalType": "address",
          "name": "to",
          "type": "address"
        },
        {
          "internalType": "bytes4",
          "name": "data",
          "type": "bytes4"
        }
      ],
      "name": "AV_NonWhitelistedCall",
      "type": "error"
    },
    {
      "inputs": [],
      "name": "AV_WithdrawsDisabled",
      "type": "error"
    },
    {
      "inputs": [],
      "name": "AV_WithdrawsEnabled",
      "type": "error"
    },
    {
      "inputs": [
        {
          "internalType": "address",
          "name": "caller",
          "type": "address"
        }
      ],
      "name": "OERC721_CallerNotOwner",
      "type": "error"
    },
    {
      "anonymous": false,
      "inputs": [
        {
          "indexed": true,
          "internalType": "address",
          "name": "operator",
          "type": "address"
        },
        {
          "indexed": true,
          "internalType": "address",
          "name": "to",
          "type": "address"
        },
        {
          "indexed": false,
          "internalType": "bytes",
          "name": "data",
          "type": "bytes"
        }
      ],
      "name": "Call",
      "type": "event"
    },
    {
      "anonymous": false,
      "inputs": [
        {
          "indexed": true,
          "internalType": "address",
          "name": "operator",
          "type": "address"
        },
        {
          "indexed": true,
          "internalType": "address",
          "name": "token",
          "type": "address"
        },
        {
          "indexed": false,
          "internalType": "address",
          "name": "recipient",
          "type": "address"
        },
        {
          "indexed": false,
          "internalType": "uint256",
          "name": "tokenId",
          "type": "uint256"
        },
        {
          "indexed": false,
          "internalType": "uint256",
          "name": "amount",
          "type": "uint256"
        }
      ],
      "name": "WithdrawERC1155",
      "type": "event"
    },
    {
      "anonymous": false,
      "inputs": [
        {
          "indexed": true,
          "internalType": "address",
          "name": "operator",
          "type": "address"
        },
        {
          "indexed": true,
          "internalType": "address",
          "name": "token",
          "type": "address"
        },
        {
          "indexed": false,
          "internalType": "address",
          "name": "recipient",
          "type": "address"
        },
        {
          "indexed": false,
          "internalType": "uint256",
          "name": "amount",
          "type": "uint256"
        }
      ],
      "name": "WithdrawERC20",
      "type": "event"
    },
    {
      "anonymous": false,
      "inputs": [
        {
          "indexed": true,
          "internalType": "address",
          "name": "operator",
          "type": "address"
        },
        {
          "indexed": true,
          "internalType": "address",
          "name": "token",
          "type": "address"
        },
        {
          "indexed": false,
          "internalType": "address",
          "name": "recipient",
          "type": "address"
        },
        {
          "indexed": false,
          "internalType": "uint256",
          "name": "tokenId",
          "type": "uint256"
        }
      ],
      "name": "WithdrawERC721",
      "type": "event"
    },
    {
      "anonymous": false,
      "inputs": [
        {
          "indexed": true,
          "internalType": "address",
          "name": "operator",
          "type": "address"
        },
        {
          "indexed": true,
          "internalType": "address",
          "name": "recipient",
          "type": "address"
        },
        {
          "indexed": false,
          "internalType": "uint256",
          "name": "amount",
          "type": "uint256"
        }
      ],
      "name": "WithdrawETH",
      "type": "event"
    },
    {
      "anonymous": false,
      "inputs": [
        {
          "indexed": false,
          "internalType": "address",
          "name": "operator",
          "type": "address"
        }
      ],
      "name": "WithdrawEnabled",
      "type": "event"
    },
    {
      "inputs": [
        {
          "internalType": "address",
          "name": "to",
          "type": "address"
        },
        {
          "internalType": "bytes",
          "name": "data",
          "type": "bytes"
        }
      ],
      "name": "call",
      "outputs": [],
      "stateMutability": "nonpayable",
      "type": "function"
    },
    {
      "inputs": [],
      "name": "enableWithdraw",
      "outputs": [],
      "stateMutability": "nonpayable",
      "type": "function"
    },
    {
      "inputs": [
        {
          "internalType": "address",
          "name": "_whitelist",
          "type": "address"
        }
      ],
      "name": "initialize",
      "outputs": [],
      "stateMutability": "nonpayable",
      "type": "function"
    },
    {
      "inputs": [
        {
          "internalType": "address",
          "name": "",
          "type": "address"
        },
        {
          "internalType": "address",
          "name": "",
          "type": "address"
        },
        {
          "internalType": "uint256[]",
          "name": "",
          "type": "uint256[]"
        },
        {
          "internalType": "uint256[]",
          "name": "",
          "type": "uint256[]"
        },
        {
          "internalType": "bytes",
          "name": "",
          "type": "bytes"
        }
      ],
      "name": "onERC1155BatchReceived",
      "outputs": [
        {
          "internalType": "bytes4",
          "name": "",
          "type": "bytes4"
        }
      ],
      "stateMutability": "nonpayable",
      "type": "function"
    },
    {
      "inputs": [
        {
          "internalType": "address",
          "name": "",
          "type": "address"
        },
        {
          "internalType": "address",
          "name": "",
          "type": "address"
        },
        {
          "internalType": "uint256",
          "name": "",
          "type": "uint256"
        },
        {
          "internalType": "uint256",
          "name": "",
          "type": "uint256"
        },
        {
          "internalType": "bytes",
          "name": "",
          "type": "bytes"
        }
      ],
      "name": "onERC1155Received",
      "outputs": [
        {
          "internalType": "bytes4",
          "name": "",
          "type": "bytes4"
        }
      ],
      "stateMutability": "nonpayable",
      "type": "function"
    },
    {
      "inputs": [
        {
          "internalType": "address",
          "name": "",
          "type": "address"
        },
        {
          "internalType": "address",
          "name": "",
          "type": "address"
        },
        {
          "internalType": "uint256",
          "name": "",
          "type": "uint256"
        },
        {
          "internalType": "bytes",
          "name": "",
          "type": "bytes"
        }
      ],
      "name": "onERC721Received",
      "outputs": [
        {
          "internalType": "bytes4",
          "name": "",
          "type": "bytes4"
        }
      ],
      "stateMutability": "nonpayable",
      "type": "function"
    },
    {
      "inputs": [],
      "name": "owner",
      "outputs": [
        {
          "internalType": "address",
          "name": "ownerAddress",
          "type": "address"
        }
      ],
      "stateMutability": "view",
      "type": "function"
    },
    {
      "inputs": [],
      "name": "ownershipToken",
      "outputs": [
        {
          "internalType": "address",
          "name": "",
          "type": "address"
        }
      ],
      "stateMutability": "view",
      "type": "function"
    },
    {
      "inputs": [
        {
          "internalType": "bytes4",
          "name": "interfaceId",
          "type": "bytes4"
        }
      ],
      "name": "supportsInterface",
      "outputs": [
        {
          "internalType": "bool",
          "name": "",
          "type": "bool"
        }
      ],
      "stateMutability": "view",
      "type": "function"
    },
    {
      "inputs": [],
      "name": "whitelist",
      "outputs": [
        {
          "internalType": "contract ICallWhitelist",
          "name": "",
          "type": "address"
        }
      ],
      "stateMutability": "view",
      "type": "function"
    },
    {
      "inputs": [
        {
          "internalType": "address",
          "name": "token",
          "type": "address"
        },
        {
          "internalType": "uint256",
          "name": "tokenId",
          "type": "uint256"
        },
        {
          "internalType": "address",
          "name": "to",
          "type": "address"
        }
      ],
      "name": "withdrawERC1155",
      "outputs": [],
      "stateMutability": "nonpayable",
      "type": "function"
    },
    {
      "inputs": [
        {
          "internalType": "address",
          "name": "token",
          "type": "address"
        },
        {
          "internalType": "address",
          "name": "to",
          "type": "address"
        }
      ],
      "name": "withdrawERC20",
      "outputs": [],
      "stateMutability": "nonpayable",
      "type": "function"
    },
    {
      "inputs": [
        {
          "internalType": "address",
          "name": "token",
          "type": "address"
        },
        {
          "internalType": "uint256",
          "name": "tokenId",
          "type": "uint256"
        },
        {
          "internalType": "address",
          "name": "to",
          "type": "address"
        }
      ],
      "name": "withdrawERC721",
      "outputs": [],
      "stateMutability": "nonpayable",
      "type": "function"
    },
    {
      "inputs": [
        {
          "internalType": "address",
          "name": "to",
          "type": "address"
        }
      ],
      "name": "withdrawETH",
      "outputs": [],
      "stateMutability": "nonpayable",
      "type": "function"
    },
    {
      "inputs": [],
      "name": "withdrawEnabled",
      "outputs": [
        {
          "internalType": "bool",
          "name": "",
          "type": "bool"
        }
      ],
      "stateMutability": "view",
      "type": "function"
    },
    {
      "stateMutability": "payable",
      "type": "receive"
    }
  ],
  "transactionHash": "0xc652802b8e71a9b40ec19b830eaad7da06366585554c2972227d979fb6c2ebcf",
  "args": [],
  "numDeployments": 1,
  "solcInputHash": "a1cd719426b304bc168f22b2f267e710",
  "bytecode": "0x608060405234801561001057600080fd5b50600180819055506001600260006101000a81548160ff0219169083151502179055506100463361004b60201b6112931760201c565b61008e565b806000806101000a81548173ffffffffffffffffffffffffffffffffffffffff021916908373ffffffffffffffffffffffffffffffffffffffff16021790555050565b612831806200009e6000396000f3fe6080604052600436106100ec5760003560e01c80637b9f76b51161008a5780639456fbcc116100595780639456fbcc146102d9578063bc197c8114610302578063c4d66de81461033f578063f23a6e6114610368576100f3565b80637b9f76b5146102315780638da5cb5b1461025a57806392e6b3441461028557806393e59dc1146102ae576100f3565b80632287e96a116100c65780632287e96a1461019b5780635b984ff6146101c6578063690d8320146101dd5780637b3d9af714610206576100f3565b806301ffc9a7146100f8578063150b7a02146101355780631b8b921d14610172576100f3565b366100f357005b600080fd5b34801561010457600080fd5b5061011f600480360381019061011a9190611895565b6103a5565b60405161012c91906118dd565b60405180910390f35b34801561014157600080fd5b5061015c60048036038101906101579190611ad2565b61041f565b6040516101699190611b64565b60405180910390f35b34801561017e57600080fd5b5061019960048036038101906101949190611bdf565b610433565b005b3480156101a757600080fd5b506101b06107cb565b6040516101bd91906118dd565b60405180910390f35b3480156101d257600080fd5b506101db6107de565b005b3480156101e957600080fd5b5061020460048036038101906101ff9190611c3f565b6108f0565b005b34801561021257600080fd5b5061021b610a99565b6040516102289190611c7b565b60405180910390f35b34801561023d57600080fd5b5061025860048036038101906102539190611c96565b610abd565b005b34801561026657600080fd5b5061026f610c55565b60405161027c9190611c7b565b60405180910390f35b34801561029157600080fd5b506102ac60048036038101906102a79190611c96565b610c64565b005b3480156102ba57600080fd5b506102c3610e80565b6040516102d09190611d48565b60405180910390f35b3480156102e557600080fd5b5061030060048036038101906102fb9190611d63565b610ea6565b005b34801561030e57600080fd5b5061032960048036038101906103249190611e66565b611078565b6040516103369190611b64565b60405180910390f35b34801561034b57600080fd5b5061036660048036038101906103619190611c3f565b61108d565b005b34801561037457600080fd5b5061038f600480360381019061038a9190611f35565b61127e565b60405161039c9190611b64565b60405180910390f35b60007f4e2312e0000000000000000000000000000000000000000000000000000000007bffffffffffffffffffffffffffffffffffffffffffffffffffffffff1916827bffffffffffffffffffffffffffffffffffffffffffffffffffffffff191614806104185750610417826112d6565b5b9050919050565b600063150b7a0260e01b9050949350505050565b600260009054906101000a900460ff161561047a576040517f200228d600000000000000000000000000000000000000000000000000000000815260040160405180910390fd5b600260015414156104c0576040517f08c379a00000000000000000000000000000000000000000000000000000000081526004016104b790612029565b60405180910390fd5b60026001819055506104d0610c55565b73ffffffffffffffffffffffffffffffffffffffff163373ffffffffffffffffffffffffffffffffffffffff161415801561058b575061050e610c55565b73ffffffffffffffffffffffffffffffffffffffff16632e4f5b6633306040518363ffffffff1660e01b8152600401610548929190612049565b602060405180830381865afa158015610565573d6000803e3d6000fd5b505050506040513d601f19601f82011682018060405250810190610589919061209e565b155b156105cd57336040517f95bb88d30000000000000000000000000000000000000000000000000000000081526004016105c49190611c7b565b60405180910390fd5b600260019054906101000a900473ffffffffffffffffffffffffffffffffffffffff1673ffffffffffffffffffffffffffffffffffffffff16631c0554ba848484600090600492610620939291906120d5565b9061062b9190612128565b6040518363ffffffff1660e01b8152600401610648929190612187565b602060405180830381865afa158015610665573d6000803e3d6000fd5b505050506040513d601f19601f82011682018060405250810190610689919061209e565b6106ea578282826000906004926106a2939291906120d5565b906106ad9190612128565b6040517f290227ae0000000000000000000000000000000000000000000000000000000081526004016106e1929190612187565b60405180910390fd5b61075782828080601f016020809104026020016040519081016040528093929190818152602001838380828437600081840152601f19601f820116905080830192505050505050508473ffffffffffffffffffffffffffffffffffffffff1661134090919063ffffffff16565b508273ffffffffffffffffffffffffffffffffffffffff163373ffffffffffffffffffffffffffffffffffffffff167f2a21062ee9199c2e205622999eeb7c3da73153674f36a0acd3f74fa6af67bde384846040516107b79291906121ee565b60405180910390a360018081905550505050565b600260009054906101000a900460ff1681565b3373ffffffffffffffffffffffffffffffffffffffff166107fd610c55565b73ffffffffffffffffffffffffffffffffffffffff161461085557336040517f5e0f3f5600000000000000000000000000000000000000000000000000000000815260040161084c9190611c7b565b60405180910390fd5b600260009054906101000a900460ff161561089c576040517f200228d600000000000000000000000000000000000000000000000000000000815260040160405180910390fd5b6001600260006101000a81548160ff0219169083151502179055507f791f6d5e6c2e44c825c52599c43037481174b362f3b48772bc1d12b3580375f3336040516108e69190611c7b565b60405180910390a1565b3373ffffffffffffffffffffffffffffffffffffffff1661090f610c55565b73ffffffffffffffffffffffffffffffffffffffff161461096757336040517f5e0f3f5600000000000000000000000000000000000000000000000000000000815260040161095e9190611c7b565b60405180910390fd5b600260009054906101000a900460ff166109ad576040517f4ba56cfd00000000000000000000000000000000000000000000000000000000815260040160405180910390fd5b600260015414156109f3576040517f08c379a00000000000000000000000000000000000000000000000000000000081526004016109ea90612029565b60405180910390fd5b60026001819055506000479050610a29818373ffffffffffffffffffffffffffffffffffffffff1661138a90919063ffffffff16565b8173ffffffffffffffffffffffffffffffffffffffff163373ffffffffffffffffffffffffffffffffffffffff167f6b1f4ce962fec27598edceab6195c77516c3df32025eaf0c38d0d4009ac3bd4883604051610a869190612221565b60405180910390a3506001808190555050565b60008054906101000a900473ffffffffffffffffffffffffffffffffffffffff1681565b3373ffffffffffffffffffffffffffffffffffffffff16610adc610c55565b73ffffffffffffffffffffffffffffffffffffffff1614610b3457336040517f5e0f3f56000000000000000000000000000000000000000000000000000000008152600401610b2b9190611c7b565b60405180910390fd5b600260009054906101000a900460ff16610b7a576040517f4ba56cfd00000000000000000000000000000000000000000000000000000000815260040160405180910390fd5b8273ffffffffffffffffffffffffffffffffffffffff166342842e0e3083856040518463ffffffff1660e01b8152600401610bb79392919061223c565b600060405180830381600087803b158015610bd157600080fd5b505af1158015610be5573d6000803e3d6000fd5b505050508273ffffffffffffffffffffffffffffffffffffffff163373ffffffffffffffffffffffffffffffffffffffff167fdda3c0642e11f394f73a64f4b8ce1ff25619d2bb8ea8dd593966c499ee7e141b8385604051610c48929190612273565b60405180910390a3505050565b6000610c5f61147e565b905090565b3373ffffffffffffffffffffffffffffffffffffffff16610c83610c55565b73ffffffffffffffffffffffffffffffffffffffff1614610cdb57336040517f5e0f3f56000000000000000000000000000000000000000000000000000000008152600401610cd29190611c7b565b60405180910390fd5b600260009054906101000a900460ff16610d21576040517f4ba56cfd00000000000000000000000000000000000000000000000000000000815260040160405180910390fd5b60008373ffffffffffffffffffffffffffffffffffffffff1662fdd58e30856040518363ffffffff1660e01b8152600401610d5d929190612273565b602060405180830381865afa158015610d7a573d6000803e3d6000fd5b505050506040513d601f19601f82011682018060405250810190610d9e91906122b1565b90508373ffffffffffffffffffffffffffffffffffffffff1663f242432a308486856040518563ffffffff1660e01b8152600401610ddf9493929190612304565b600060405180830381600087803b158015610df957600080fd5b505af1158015610e0d573d6000803e3d6000fd5b505050508373ffffffffffffffffffffffffffffffffffffffff163373ffffffffffffffffffffffffffffffffffffffff167f37a31f808d48f07f163b599033008687f07840161063bf57da0e27406ebb0d7e848685604051610e729392919061235c565b60405180910390a350505050565b600260019054906101000a900473ffffffffffffffffffffffffffffffffffffffff1681565b3373ffffffffffffffffffffffffffffffffffffffff16610ec5610c55565b73ffffffffffffffffffffffffffffffffffffffff1614610f1d57336040517f5e0f3f56000000000000000000000000000000000000000000000000000000008152600401610f149190611c7b565b60405180910390fd5b600260009054906101000a900460ff16610f63576040517f4ba56cfd00000000000000000000000000000000000000000000000000000000815260040160405180910390fd5b60008273ffffffffffffffffffffffffffffffffffffffff166370a08231306040518263ffffffff1660e01b8152600401610f9e9190611c7b565b602060405180830381865afa158015610fbb573d6000803e3d6000fd5b505050506040513d601f19601f82011682018060405250810190610fdf91906122b1565b905061100c82828573ffffffffffffffffffffffffffffffffffffffff166115369092919063ffffffff16565b8273ffffffffffffffffffffffffffffffffffffffff163373ffffffffffffffffffffffffffffffffffffffff167f08c1fcaf583c2b413bb27833685230422583405ae651b6d53e2053bf75bd0740848460405161106b929190612273565b60405180910390a3505050565b600063bc197c8160e01b905095945050505050565b600060159054906101000a900460ff16806110b55750600060149054906101000a900460ff16155b6110f4576040517f08c379a00000000000000000000000000000000000000000000000000000000081526004016110eb90612405565b60405180910390fd5b60008060159054906101000a900460ff161590508015611145576001600060156101000a81548160ff0219169083151502179055506001600060146101000a81548160ff0219169083151502179055505b600260009054906101000a900460ff16806111ad5750600073ffffffffffffffffffffffffffffffffffffffff1660008054906101000a900473ffffffffffffffffffffffffffffffffffffffff1673ffffffffffffffffffffffffffffffffffffffff1614155b1561120f5760008054906101000a900473ffffffffffffffffffffffffffffffffffffffff166040517f5a44b77b0000000000000000000000000000000000000000000000000000000081526004016112069190611c7b565b60405180910390fd5b61121833611293565b81600260016101000a81548173ffffffffffffffffffffffffffffffffffffffff021916908373ffffffffffffffffffffffffffffffffffffffff160217905550801561127a5760008060156101000a81548160ff0219169083151502179055505b5050565b600063f23a6e6160e01b905095945050505050565b806000806101000a81548173ffffffffffffffffffffffffffffffffffffffff021916908373ffffffffffffffffffffffffffffffffffffffff16021790555050565b60007f01ffc9a7000000000000000000000000000000000000000000000000000000007bffffffffffffffffffffffffffffffffffffffffffffffffffffffff1916827bffffffffffffffffffffffffffffffffffffffffffffffffffffffff1916149050919050565b606061138283836040518060400160405280601e81526020017f416464726573733a206c6f772d6c6576656c2063616c6c206661696c656400008152506115bc565b905092915050565b804710156113cd576040517f08c379a00000000000000000000000000000000000000000000000000000000081526004016113c490612471565b60405180910390fd5b60008273ffffffffffffffffffffffffffffffffffffffff16826040516113f3906124bf565b60006040518083038185875af1925050503d8060008114611430576040519150601f19603f3d011682016040523d82523d6000602084013e611435565b606091505b5050905080611479576040517f08c379a000000000000000000000000000000000000000000000000000000000815260040161147090612546565b60405180910390fd5b505050565b60008060009054906101000a900473ffffffffffffffffffffffffffffffffffffffff1673ffffffffffffffffffffffffffffffffffffffff16636352211e3073ffffffffffffffffffffffffffffffffffffffff166040518263ffffffff1660e01b81526004016114f09190612221565b602060405180830381865afa15801561150d573d6000803e3d6000fd5b505050506040513d601f19601f82011682018060405250810190611531919061257b565b905090565b6115b78363a9059cbb60e01b8484604051602401611555929190612273565b604051602081830303815290604052907bffffffffffffffffffffffffffffffffffffffffffffffffffffffff19166020820180517bffffffffffffffffffffffffffffffffffffffffffffffffffffffff83818316178352505050506115d4565b505050565b60606115cb848460008561169b565b90509392505050565b6000611636826040518060400160405280602081526020017f5361666545524332303a206c6f772d6c6576656c2063616c6c206661696c65648152508573ffffffffffffffffffffffffffffffffffffffff166115bc9092919063ffffffff16565b90506000815111156116965780806020019051810190611656919061209e565b611695576040517f08c379a000000000000000000000000000000000000000000000000000000000815260040161168c9061261a565b60405180910390fd5b5b505050565b6060824710156116e0576040517f08c379a00000000000000000000000000000000000000000000000000000000081526004016116d7906126ac565b60405180910390fd5b6116e9856117af565b611728576040517f08c379a000000000000000000000000000000000000000000000000000000000815260040161171f90612718565b60405180910390fd5b6000808673ffffffffffffffffffffffffffffffffffffffff16858760405161175191906127a7565b60006040518083038185875af1925050503d806000811461178e576040519150601f19603f3d011682016040523d82523d6000602084013e611793565b606091505b50915091506117a38282866117c2565b92505050949350505050565b600080823b905060008111915050919050565b606083156117d257829050611822565b6000835111156117e55782518084602001fd5b816040517f08c379a00000000000000000000000000000000000000000000000000000000081526004016118199190612802565b60405180910390fd5b9392505050565b6000604051905090565b600080fd5b600080fd5b60007fffffffff0000000000000000000000000000000000000000000000000000000082169050919050565b6118728161183d565b811461187d57600080fd5b50565b60008135905061188f81611869565b92915050565b6000602082840312156118ab576118aa611833565b5b60006118b984828501611880565b91505092915050565b60008115159050919050565b6118d7816118c2565b82525050565b60006020820190506118f260008301846118ce565b92915050565b600073ffffffffffffffffffffffffffffffffffffffff82169050919050565b6000611923826118f8565b9050919050565b61193381611918565b811461193e57600080fd5b50565b6000813590506119508161192a565b92915050565b6000819050919050565b61196981611956565b811461197457600080fd5b50565b60008135905061198681611960565b92915050565b600080fd5b600080fd5b6000601f19601f8301169050919050565b7f4e487b7100000000000000000000000000000000000000000000000000000000600052604160045260246000fd5b6119df82611996565b810181811067ffffffffffffffff821117156119fe576119fd6119a7565b5b80604052505050565b6000611a11611829565b9050611a1d82826119d6565b919050565b600067ffffffffffffffff821115611a3d57611a3c6119a7565b5b611a4682611996565b9050602081019050919050565b82818337600083830152505050565b6000611a75611a7084611a22565b611a07565b905082815260208101848484011115611a9157611a90611991565b5b611a9c848285611a53565b509392505050565b600082601f830112611ab957611ab861198c565b5b8135611ac9848260208601611a62565b91505092915050565b60008060008060808587031215611aec57611aeb611833565b5b6000611afa87828801611941565b9450506020611b0b87828801611941565b9350506040611b1c87828801611977565b925050606085013567ffffffffffffffff811115611b3d57611b3c611838565b5b611b4987828801611aa4565b91505092959194509250565b611b5e8161183d565b82525050565b6000602082019050611b796000830184611b55565b92915050565b600080fd5b600080fd5b60008083601f840112611b9f57611b9e61198c565b5b8235905067ffffffffffffffff811115611bbc57611bbb611b7f565b5b602083019150836001820283011115611bd857611bd7611b84565b5b9250929050565b600080600060408486031215611bf857611bf7611833565b5b6000611c0686828701611941565b935050602084013567ffffffffffffffff811115611c2757611c26611838565b5b611c3386828701611b89565b92509250509250925092565b600060208284031215611c5557611c54611833565b5b6000611c6384828501611941565b91505092915050565b611c7581611918565b82525050565b6000602082019050611c906000830184611c6c565b92915050565b600080600060608486031215611caf57611cae611833565b5b6000611cbd86828701611941565b9350506020611cce86828701611977565b9250506040611cdf86828701611941565b9150509250925092565b6000819050919050565b6000611d0e611d09611d04846118f8565b611ce9565b6118f8565b9050919050565b6000611d2082611cf3565b9050919050565b6000611d3282611d15565b9050919050565b611d4281611d27565b82525050565b6000602082019050611d5d6000830184611d39565b92915050565b60008060408385031215611d7a57611d79611833565b5b6000611d8885828601611941565b9250506020611d9985828601611941565b9150509250929050565b600067ffffffffffffffff821115611dbe57611dbd6119a7565b5b602082029050602081019050919050565b6000611de2611ddd84611da3565b611a07565b90508083825260208201905060208402830185811115611e0557611e04611b84565b5b835b81811015611e2e5780611e1a8882611977565b845260208401935050602081019050611e07565b5050509392505050565b600082601f830112611e4d57611e4c61198c565b5b8135611e5d848260208601611dcf565b91505092915050565b600080600080600060a08688031215611e8257611e81611833565b5b6000611e9088828901611941565b9550506020611ea188828901611941565b945050604086013567ffffffffffffffff811115611ec257611ec1611838565b5b611ece88828901611e38565b935050606086013567ffffffffffffffff811115611eef57611eee611838565b5b611efb88828901611e38565b925050608086013567ffffffffffffffff811115611f1c57611f1b611838565b5b611f2888828901611aa4565b9150509295509295909350565b600080600080600060a08688031215611f5157611f50611833565b5b6000611f5f88828901611941565b9550506020611f7088828901611941565b9450506040611f8188828901611977565b9350506060611f9288828901611977565b925050608086013567ffffffffffffffff811115611fb357611fb2611838565b5b611fbf88828901611aa4565b9150509295509295909350565b600082825260208201905092915050565b7f5265656e7472616e637947756172643a207265656e7472616e742063616c6c00600082015250565b6000612013601f83611fcc565b915061201e82611fdd565b602082019050919050565b6000602082019050818103600083015261204281612006565b9050919050565b600060408201905061205e6000830185611c6c565b61206b6020830184611c6c565b9392505050565b61207b816118c2565b811461208657600080fd5b50565b60008151905061209881612072565b92915050565b6000602082840312156120b4576120b3611833565b5b60006120c284828501612089565b91505092915050565b600080fd5b600080fd5b600080858511156120e9576120e86120cb565b5b838611156120fa576120f96120d0565b5b6001850283019150848603905094509492505050565b600082905092915050565b600082821b905092915050565b60006121348383612110565b8261213f813561183d565b9250600482101561217f5761217a7fffffffff000000000000000000000000000000000000000000000000000000008360040360080261211b565b831692505b505092915050565b600060408201905061219c6000830185611c6c565b6121a96020830184611b55565b9392505050565b600082825260208201905092915050565b60006121cd83856121b0565b93506121da838584611a53565b6121e383611996565b840190509392505050565b600060208201905081810360008301526122098184866121c1565b90509392505050565b61221b81611956565b82525050565b60006020820190506122366000830184612212565b92915050565b60006060820190506122516000830186611c6c565b61225e6020830185611c6c565b61226b6040830184612212565b949350505050565b60006040820190506122886000830185611c6c565b6122956020830184612212565b9392505050565b6000815190506122ab81611960565b92915050565b6000602082840312156122c7576122c6611833565b5b60006122d58482850161229c565b91505092915050565b50565b60006122ee6000836121b0565b91506122f9826122de565b600082019050919050565b600060a0820190506123196000830187611c6c565b6123266020830186611c6c565b6123336040830185612212565b6123406060830184612212565b8181036080830152612351816122e1565b905095945050505050565b60006060820190506123716000830186611c6c565b61237e6020830185612212565b61238b6040830184612212565b949350505050565b7f496e697469616c697a61626c653a20636f6e747261637420697320616c72656160008201527f647920696e697469616c697a6564000000000000000000000000000000000000602082015250565b60006123ef602e83611fcc565b91506123fa82612393565b604082019050919050565b6000602082019050818103600083015261241e816123e2565b9050919050565b7f416464726573733a20696e73756666696369656e742062616c616e6365000000600082015250565b600061245b601d83611fcc565b915061246682612425565b602082019050919050565b6000602082019050818103600083015261248a8161244e565b9050919050565b600081905092915050565b60006124a9600083612491565b91506124b4826122de565b600082019050919050565b60006124ca8261249c565b9150819050919050565b7f416464726573733a20756e61626c6520746f2073656e642076616c75652c207260008201527f6563697069656e74206d61792068617665207265766572746564000000000000602082015250565b6000612530603a83611fcc565b915061253b826124d4565b604082019050919050565b6000602082019050818103600083015261255f81612523565b9050919050565b6000815190506125758161192a565b92915050565b60006020828403121561259157612590611833565b5b600061259f84828501612566565b91505092915050565b7f5361666545524332303a204552433230206f7065726174696f6e20646964206e60008201527f6f74207375636365656400000000000000000000000000000000000000000000602082015250565b6000612604602a83611fcc565b915061260f826125a8565b604082019050919050565b60006020820190508181036000830152612633816125f7565b9050919050565b7f416464726573733a20696e73756666696369656e742062616c616e636520666f60008201527f722063616c6c0000000000000000000000000000000000000000000000000000602082015250565b6000612696602683611fcc565b91506126a18261263a565b604082019050919050565b600060208201905081810360008301526126c581612689565b9050919050565b7f416464726573733a2063616c6c20746f206e6f6e2d636f6e7472616374000000600082015250565b6000612702601d83611fcc565b915061270d826126cc565b602082019050919050565b60006020820190508181036000830152612731816126f5565b9050919050565b600081519050919050565b60005b83811015612761578082015181840152602081019050612746565b83811115612770576000848401525b50505050565b600061278182612738565b61278b8185612491565b935061279b818560208601612743565b80840191505092915050565b60006127b38284612776565b915081905092915050565b600081519050919050565b60006127d4826127be565b6127de8185611fcc565b93506127ee818560208601612743565b6127f781611996565b840191505092915050565b6000602082019050818103600083015261281c81846127c9565b90509291505056fea164736f6c634300080b000a",
  "devdoc": {
    "author": "Non-Fungible Technologies, Inc. The Asset Vault is a vault for the storage of collateralized assets. Designed for one-time use, like a piggy bank. Once withdrawals are enabled, and the bank is broken, the vault can no longer be used or transferred. It starts in a deposit-only state. Funds cannot be withdrawn at this point. When the owner calls \"enableWithdraw()\", the state is set to a withdrawEnabled state. Withdraws cannot be disabled once enabled. This restriction protects integrations and purchasers of AssetVaults from unexpected withdrawal and frontrunning attacks. For exampple: someone buys an AV assuming it contains token X, but I withdraw token X immediately before the sale concludes.",
    "details": "Asset Vaults support arbitrary external calls by either:     - the current owner of the vault     - someone who the current owner \"delegates\" through the ICallDelegator interface This is to enable airdrop claims by borrowers during loans and other forms of NFT utility. In practice, LoanCore delegates to the borrower during the period of an open loan. Arcade.xyz maintains an allowed and restricted list of calls to balance between utility and security.",
    "errors": {
      "AV_AlreadyInitialized(address)": [
        {
          "params": {
            "ownershipToken": "Caller of initialize function in asset vault contract."
          }
        }
      ],
      "AV_CallDisallowed(address)": [
        {
          "params": {
            "caller": "Msg.sender of the function call."
          }
        }
      ],
      "AV_NonWhitelistedCall(address,bytes4)": [
        {
          "params": {
            "data": "The data to call the contract with.",
            "to": "The contract address to call."
          }
        }
      ],
      "OERC721_CallerNotOwner(address)": [
        {
          "params": {
            "caller": "Msg.sender of the function call."
          }
        }
      ]
    },
    "kind": "dev",
    "methods": {
      "call(address,bytes)": {
        "params": {
          "data": "The data to call the contract with.",
          "to": "The contract address to call."
        }
      },
      "constructor": {
        "details": "Initializes values so initialize cannot be called on template."
      },
      "enableWithdraw()": {
        "details": "Any integration should be aware that a withdraw-enabled vault cannot      be transferred (will revert)."
      },
      "initialize(address)": {
        "params": {
          "_whitelist": "The contract maintaing the whitelist of allowed                              arbitrary calls."
        }
      },
      "onERC721Received(address,address,uint256,bytes)": {
        "details": "See {IERC721Receiver-onERC721Received}. Always returns `IERC721Receiver.onERC721Received.selector`."
      },
      "owner()": {
        "returns": {
          "ownerAddress": "        The owner of the underlying token derived from                              the calling address."
        }
      },
      "supportsInterface(bytes4)": {
        "details": "See {IERC165-supportsInterface}."
      },
      "withdrawERC1155(address,uint256,address)": {
        "params": {
          "to": "The recipient of the withdrawn funds.",
          "token": "The ERC1155 token to withdraw.",
          "tokenId": "The ID of the token to withdraw."
        }
      },
      "withdrawERC20(address,address)": {
        "params": {
          "to": "The recipient of the withdrawn funds.",
          "token": "The ERC20 token to withdraw."
        }
      },
      "withdrawERC721(address,uint256,address)": {
        "params": {
          "to": "The recipient of the withdrawn token.",
          "token": "The token to withdraw.",
          "tokenId": "The ID of the NFT to withdraw."
        }
      },
      "withdrawETH(address)": {
        "params": {
          "to": "The recipient of the withdrawn funds."
        }
      }
    },
    "stateVariables": {
      "withdrawEnabled": {
        "details": "Note once set to true, it cannot be reverted back to false."
      }
    },
    "title": "AssetVault",
    "version": 1
  },
  "userdoc": {
    "errors": {
      "AV_AlreadyInitialized(address)": [
        {
          "notice": "Asset vault already initialized."
        }
      ],
      "AV_CallDisallowed(address)": [
        {
          "notice": "Call disallowed."
        }
      ],
      "AV_NonWhitelistedCall(address,bytes4)": [
        {
          "notice": "Call disallowed."
        }
      ],
      "AV_WithdrawsDisabled()": [
        {
          "notice": "Vault withdraws must be enabled."
        }
      ],
      "AV_WithdrawsEnabled()": [
        {
          "notice": "Vault withdraws enabled."
        }
      ],
      "OERC721_CallerNotOwner(address)": [
        {
          "notice": "Function caller is not the owner."
        }
      ]
    },
    "kind": "user",
    "methods": {
      "call(address,bytes)": {
        "notice": "Call a function on an external contract. Intended for claiming airdrops         and other forms of NFT utility. All allowed calls are whitelist by the         \"whitelist\" contract. The vault must have withdrawals disabled, and the caller         must either be the owner, or the owner must have explicitly         delegated this ability to the caller through ICallDelegator interface."
      },
      "enableWithdraw()": {
        "notice": "Enables withdrawals on the vault. Irreversible. Caller must be the         owner of the underlying ownership NFT."
      },
      "initialize(address)": {
        "notice": "Initializes the contract, used on clone deployments. In practice,         always called by the VaultFactory contract."
      },
      "owner()": {
        "notice": "Specifies the owner of the underlying token ID, derived         from the contract address of the contract implementing."
      },
      "whitelist()": {
        "notice": "Whitelist contract to determine if a given external call is allowed."
      },
      "withdrawERC1155(address,uint256,address)": {
        "notice": "Withdraw entire balance of a given ERC1155 token from the vault.         The vault must be in a \"withdrawEnabled\" state (non-transferrable),         and the caller must be the owner."
      },
      "withdrawERC20(address,address)": {
        "notice": "Withdraw entire balance of a given ERC20 token from the vault.         The vault must be in a \"withdrawEnabled\" state (non-transferrable),         and the caller must be the owner."
      },
      "withdrawERC721(address,uint256,address)": {
        "notice": "Withdraw entire balance of a given ERC20 token from the vault.         The vault must be in a \"withdrawEnabled\" state (non-transferrable),         and the caller must be the owner. The specified token must         exist and be owned by this contract."
      },
      "withdrawETH(address)": {
        "notice": "Withdraw entire balance of ETH from the vault.         The vault must be in a \"withdrawEnabled\" state (non-transferrable),         and the caller must be the owner."
      },
      "withdrawEnabled()": {
        "notice": "True if withdrawals are allowed out of this vault."
      }
    },
    "version": 1
  },
  "storageLayout": {
    "storage": [
      {
        "astId": 21153,
        "contract": "contracts/vault/AssetVault.sol:AssetVault",
        "label": "ownershipToken",
        "offset": 0,
        "slot": "0",
        "type": "t_address"
      },
      {
        "astId": 5820,
        "contract": "contracts/vault/AssetVault.sol:AssetVault",
        "label": "_initialized",
        "offset": 20,
        "slot": "0",
        "type": "t_bool"
      },
      {
        "astId": 5823,
        "contract": "contracts/vault/AssetVault.sol:AssetVault",
        "label": "_initializing",
        "offset": 21,
        "slot": "0",
        "type": "t_bool"
      },
      {
        "astId": 5963,
        "contract": "contracts/vault/AssetVault.sol:AssetVault",
        "label": "_status",
        "offset": 0,
        "slot": "1",
        "type": "t_uint256"
      },
      {
        "astId": 20627,
        "contract": "contracts/vault/AssetVault.sol:AssetVault",
        "label": "withdrawEnabled",
        "offset": 0,
        "slot": "2",
        "type": "t_bool"
      },
      {
        "astId": 20632,
        "contract": "contracts/vault/AssetVault.sol:AssetVault",
        "label": "whitelist",
        "offset": 1,
        "slot": "2",
        "type": "t_contract(ICallWhitelist)18651"
      }
    ],
    "types": {
      "t_address": {
        "encoding": "inplace",
        "label": "address",
        "numberOfBytes": "20"
      },
      "t_bool": {
        "encoding": "inplace",
        "label": "bool",
        "numberOfBytes": "1"
      },
      "t_contract(ICallWhitelist)18651": {
        "encoding": "inplace",
        "label": "contract ICallWhitelist",
        "numberOfBytes": "20"
      },
      "t_uint256": {
        "encoding": "inplace",
        "label": "uint256",
        "numberOfBytes": "32"
      }
    }
  }
}