{
  "address": "0x666D0c3da3dBc946D5128D06115bb4eed4595580",
  "abi": [
    {
      "inputs": [
        {
          "internalType": "string",
          "name": "name",
          "type": "string"
        },
        {
          "internalType": "string",
          "name": "symbol",
          "type": "string"
        }
      ],
      "stateMutability": "nonpayable",
      "type": "constructor"
    },
    {
      "inputs": [
        {
          "internalType": "uint256",
          "name": "deadline",
          "type": "uint256"
        }
      ],
      "name": "ERC721P_DeadlineExpired",
      "type": "error"
    },
    {
      "inputs": [
        {
          "internalType": "address",
          "name": "signer",
          "type": "address"
        }
      ],
      "name": "ERC721P_InvalidSignature",
      "type": "error"
    },
    {
      "inputs": [
        {
          "internalType": "address",
          "name": "owner",
          "type": "address"
        }
      ],
      "name": "ERC721P_NotTokenOwner",
      "type": "error"
    },
    {
      "inputs": [],
      "name": "PN_AlreadyInitialized",
      "type": "error"
    },
    {
      "inputs": [
        {
          "internalType": "address",
          "name": "caller",
          "type": "address"
        }
      ],
      "name": "PN_BurningRole",
      "type": "error"
    },
    {
      "inputs": [],
      "name": "PN_CannotInitialize",
      "type": "error"
    },
    {
      "inputs": [],
      "name": "PN_ContractPaused",
      "type": "error"
    },
    {
      "inputs": [
        {
          "internalType": "address",
          "name": "caller",
          "type": "address"
        }
      ],
      "name": "PN_MintingRole",
      "type": "error"
    },
    {
      "anonymous": false,
      "inputs": [
        {
          "indexed": true,
          "internalType": "address",
          "name": "owner",
          "type": "address"
        },
        {
          "indexed": true,
          "internalType": "address",
          "name": "approved",
          "type": "address"
        },
        {
          "indexed": true,
          "internalType": "uint256",
          "name": "tokenId",
          "type": "uint256"
        }
      ],
      "name": "Approval",
      "type": "event"
    },
    {
      "anonymous": false,
      "inputs": [
        {
          "indexed": true,
          "internalType": "address",
          "name": "owner",
          "type": "address"
        },
        {
          "indexed": true,
          "internalType": "address",
          "name": "operator",
          "type": "address"
        },
        {
          "indexed": false,
          "internalType": "bool",
          "name": "approved",
          "type": "bool"
        }
      ],
      "name": "ApprovalForAll",
      "type": "event"
    },
    {
      "anonymous": false,
      "inputs": [
        {
          "indexed": false,
          "internalType": "address",
          "name": "account",
          "type": "address"
        }
      ],
      "name": "Paused",
      "type": "event"
    },
    {
      "anonymous": false,
      "inputs": [
        {
          "indexed": true,
          "internalType": "bytes32",
          "name": "role",
          "type": "bytes32"
        },
        {
          "indexed": true,
          "internalType": "bytes32",
          "name": "previousAdminRole",
          "type": "bytes32"
        },
        {
          "indexed": true,
          "internalType": "bytes32",
          "name": "newAdminRole",
          "type": "bytes32"
        }
      ],
      "name": "RoleAdminChanged",
      "type": "event"
    },
    {
      "anonymous": false,
      "inputs": [
        {
          "indexed": true,
          "internalType": "bytes32",
          "name": "role",
          "type": "bytes32"
        },
        {
          "indexed": true,
          "internalType": "address",
          "name": "account",
          "type": "address"
        },
        {
          "indexed": true,
          "internalType": "address",
          "name": "sender",
          "type": "address"
        }
      ],
      "name": "RoleGranted",
      "type": "event"
    },
    {
      "anonymous": false,
      "inputs": [
        {
          "indexed": true,
          "internalType": "bytes32",
          "name": "role",
          "type": "bytes32"
        },
        {
          "indexed": true,
          "internalType": "address",
          "name": "account",
          "type": "address"
        },
        {
          "indexed": true,
          "internalType": "address",
          "name": "sender",
          "type": "address"
        }
      ],
      "name": "RoleRevoked",
      "type": "event"
    },
    {
      "anonymous": false,
      "inputs": [
        {
          "indexed": true,
          "internalType": "address",
          "name": "from",
          "type": "address"
        },
        {
          "indexed": true,
          "internalType": "address",
          "name": "to",
          "type": "address"
        },
        {
          "indexed": true,
          "internalType": "uint256",
          "name": "tokenId",
          "type": "uint256"
        }
      ],
      "name": "Transfer",
      "type": "event"
    },
    {
      "anonymous": false,
      "inputs": [
        {
          "indexed": false,
          "internalType": "address",
          "name": "account",
          "type": "address"
        }
      ],
      "name": "Unpaused",
      "type": "event"
    },
    {
      "inputs": [],
      "name": "ADMIN_ROLE",
      "outputs": [
        {
          "internalType": "bytes32",
          "name": "",
          "type": "bytes32"
        }
      ],
      "stateMutability": "view",
      "type": "function"
    },
    {
      "inputs": [],
      "name": "DEFAULT_ADMIN_ROLE",
      "outputs": [
        {
          "internalType": "bytes32",
          "name": "",
          "type": "bytes32"
        }
      ],
      "stateMutability": "view",
      "type": "function"
    },
    {
      "inputs": [],
      "name": "DOMAIN_SEPARATOR",
      "outputs": [
        {
          "internalType": "bytes32",
          "name": "",
          "type": "bytes32"
        }
      ],
      "stateMutability": "view",
      "type": "function"
    },
    {
      "inputs": [
        {
          "internalType": "address",
          "name": "to",
          "type": "address"
        },
        {
          "internalType": "uint256",
          "name": "tokenId",
          "type": "uint256"
        }
      ],
      "name": "approve",
      "outputs": [],
      "stateMutability": "nonpayable",
      "type": "function"
    },
    {
      "inputs": [
        {
          "internalType": "address",
          "name": "owner",
          "type": "address"
        }
      ],
      "name": "balanceOf",
      "outputs": [
        {
          "internalType": "uint256",
          "name": "",
          "type": "uint256"
        }
      ],
      "stateMutability": "view",
      "type": "function"
    },
    {
      "inputs": [
        {
          "internalType": "uint256",
          "name": "tokenId",
          "type": "uint256"
        }
      ],
      "name": "burn",
      "outputs": [],
      "stateMutability": "nonpayable",
      "type": "function"
    },
    {
      "inputs": [
        {
          "internalType": "uint256",
          "name": "tokenId",
          "type": "uint256"
        }
      ],
      "name": "getApproved",
      "outputs": [
        {
          "internalType": "address",
          "name": "",
          "type": "address"
        }
      ],
      "stateMutability": "view",
      "type": "function"
    },
    {
      "inputs": [
        {
          "internalType": "bytes32",
          "name": "role",
          "type": "bytes32"
        }
      ],
      "name": "getRoleAdmin",
      "outputs": [
        {
          "internalType": "bytes32",
          "name": "",
          "type": "bytes32"
        }
      ],
      "stateMutability": "view",
      "type": "function"
    },
    {
      "inputs": [
        {
          "internalType": "bytes32",
          "name": "role",
          "type": "bytes32"
        },
        {
          "internalType": "uint256",
          "name": "index",
          "type": "uint256"
        }
      ],
      "name": "getRoleMember",
      "outputs": [
        {
          "internalType": "address",
          "name": "",
          "type": "address"
        }
      ],
      "stateMutability": "view",
      "type": "function"
    },
    {
      "inputs": [
        {
          "internalType": "bytes32",
          "name": "role",
          "type": "bytes32"
        }
      ],
      "name": "getRoleMemberCount",
      "outputs": [
        {
          "internalType": "uint256",
          "name": "",
          "type": "uint256"
        }
      ],
      "stateMutability": "view",
      "type": "function"
    },
    {
      "inputs": [
        {
          "internalType": "bytes32",
          "name": "role",
          "type": "bytes32"
        },
        {
          "internalType": "address",
          "name": "account",
          "type": "address"
        }
      ],
      "name": "grantRole",
      "outputs": [],
      "stateMutability": "nonpayable",
      "type": "function"
    },
    {
      "inputs": [
        {
          "internalType": "bytes32",
          "name": "role",
          "type": "bytes32"
        },
        {
          "internalType": "address",
          "name": "account",
          "type": "address"
        }
      ],
      "name": "hasRole",
      "outputs": [
        {
          "internalType": "bool",
          "name": "",
          "type": "bool"
        }
      ],
      "stateMutability": "view",
      "type": "function"
    },
    {
      "inputs": [
        {
          "internalType": "address",
          "name": "loanCore",
          "type": "address"
        }
      ],
      "name": "initialize",
      "outputs": [],
      "stateMutability": "nonpayable",
      "type": "function"
    },
    {
      "inputs": [
        {
          "internalType": "address",
          "name": "owner",
          "type": "address"
        },
        {
          "internalType": "address",
          "name": "operator",
          "type": "address"
        }
      ],
      "name": "isApprovedForAll",
      "outputs": [
        {
          "internalType": "bool",
          "name": "",
          "type": "bool"
        }
      ],
      "stateMutability": "view",
      "type": "function"
    },
    {
      "inputs": [
        {
          "internalType": "address",
          "name": "to",
          "type": "address"
        },
        {
          "internalType": "uint256",
          "name": "loanId",
          "type": "uint256"
        }
      ],
      "name": "mint",
      "outputs": [
        {
          "internalType": "uint256",
          "name": "",
          "type": "uint256"
        }
      ],
      "stateMutability": "nonpayable",
      "type": "function"
    },
    {
      "inputs": [],
      "name": "name",
      "outputs": [
        {
          "internalType": "string",
          "name": "",
          "type": "string"
        }
      ],
      "stateMutability": "view",
      "type": "function"
    },
    {
      "inputs": [
        {
          "internalType": "address",
          "name": "owner",
          "type": "address"
        }
      ],
      "name": "nonces",
      "outputs": [
        {
          "internalType": "uint256",
          "name": "",
          "type": "uint256"
        }
      ],
      "stateMutability": "view",
      "type": "function"
    },
    {
      "inputs": [],
      "name": "owner",
      "outputs": [
        {
          "internalType": "address",
          "name": "",
          "type": "address"
        }
      ],
      "stateMutability": "view",
      "type": "function"
    },
    {
      "inputs": [
        {
          "internalType": "uint256",
          "name": "tokenId",
          "type": "uint256"
        }
      ],
      "name": "ownerOf",
      "outputs": [
        {
          "internalType": "address",
          "name": "",
          "type": "address"
        }
      ],
      "stateMutability": "view",
      "type": "function"
    },
    {
      "inputs": [],
      "name": "paused",
      "outputs": [
        {
          "internalType": "bool",
          "name": "",
          "type": "bool"
        }
      ],
      "stateMutability": "view",
      "type": "function"
    },
    {
      "inputs": [
        {
          "internalType": "address",
          "name": "owner",
          "type": "address"
        },
        {
          "internalType": "address",
          "name": "spender",
          "type": "address"
        },
        {
          "internalType": "uint256",
          "name": "tokenId",
          "type": "uint256"
        },
        {
          "internalType": "uint256",
          "name": "deadline",
          "type": "uint256"
        },
        {
          "internalType": "uint8",
          "name": "v",
          "type": "uint8"
        },
        {
          "internalType": "bytes32",
          "name": "r",
          "type": "bytes32"
        },
        {
          "internalType": "bytes32",
          "name": "s",
          "type": "bytes32"
        }
      ],
      "name": "permit",
      "outputs": [],
      "stateMutability": "nonpayable",
      "type": "function"
    },
    {
      "inputs": [
        {
          "internalType": "bytes32",
          "name": "role",
          "type": "bytes32"
        },
        {
          "internalType": "address",
          "name": "account",
          "type": "address"
        }
      ],
      "name": "renounceRole",
      "outputs": [],
      "stateMutability": "nonpayable",
      "type": "function"
    },
    {
      "inputs": [
        {
          "internalType": "bytes32",
          "name": "role",
          "type": "bytes32"
        },
        {
          "internalType": "address",
          "name": "account",
          "type": "address"
        }
      ],
      "name": "revokeRole",
      "outputs": [],
      "stateMutability": "nonpayable",
      "type": "function"
    },
    {
      "inputs": [
        {
          "internalType": "address",
          "name": "from",
          "type": "address"
        },
        {
          "internalType": "address",
          "name": "to",
          "type": "address"
        },
        {
          "internalType": "uint256",
          "name": "tokenId",
          "type": "uint256"
        }
      ],
      "name": "safeTransferFrom",
      "outputs": [],
      "stateMutability": "nonpayable",
      "type": "function"
    },
    {
      "inputs": [
        {
          "internalType": "address",
          "name": "from",
          "type": "address"
        },
        {
          "internalType": "address",
          "name": "to",
          "type": "address"
        },
        {
          "internalType": "uint256",
          "name": "tokenId",
          "type": "uint256"
        },
        {
          "internalType": "bytes",
          "name": "_data",
          "type": "bytes"
        }
      ],
      "name": "safeTransferFrom",
      "outputs": [],
      "stateMutability": "nonpayable",
      "type": "function"
    },
    {
      "inputs": [
        {
          "internalType": "address",
          "name": "operator",
          "type": "address"
        },
        {
          "internalType": "bool",
          "name": "approved",
          "type": "bool"
        }
      ],
      "name": "setApprovalForAll",
      "outputs": [],
      "stateMutability": "nonpayable",
      "type": "function"
    },
    {
      "inputs": [
        {
          "internalType": "bool",
          "name": "paused",
          "type": "bool"
        }
      ],
      "name": "setPaused",
      "outputs": [],
      "stateMutability": "nonpayable",
      "type": "function"
    },
    {
      "inputs": [
        {
          "internalType": "bytes4",
          "name": "interfaceId",
          "type": "bytes4"
        }
      ],
      "name": "supportsInterface",
      "outputs": [
        {
          "internalType": "bool",
          "name": "",
          "type": "bool"
        }
      ],
      "stateMutability": "view",
      "type": "function"
    },
    {
      "inputs": [],
      "name": "symbol",
      "outputs": [
        {
          "internalType": "string",
          "name": "",
          "type": "string"
        }
      ],
      "stateMutability": "view",
      "type": "function"
    },
    {
      "inputs": [
        {
          "internalType": "uint256",
          "name": "index",
          "type": "uint256"
        }
      ],
      "name": "tokenByIndex",
      "outputs": [
        {
          "internalType": "uint256",
          "name": "",
          "type": "uint256"
        }
      ],
      "stateMutability": "view",
      "type": "function"
    },
    {
      "inputs": [
        {
          "internalType": "address",
          "name": "owner",
          "type": "address"
        },
        {
          "internalType": "uint256",
          "name": "index",
          "type": "uint256"
        }
      ],
      "name": "tokenOfOwnerByIndex",
      "outputs": [
        {
          "internalType": "uint256",
          "name": "",
          "type": "uint256"
        }
      ],
      "stateMutability": "view",
      "type": "function"
    },
    {
      "inputs": [
        {
          "internalType": "uint256",
          "name": "tokenId",
          "type": "uint256"
        }
      ],
      "name": "tokenURI",
      "outputs": [
        {
          "internalType": "string",
          "name": "",
          "type": "string"
        }
      ],
      "stateMutability": "view",
      "type": "function"
    },
    {
      "inputs": [],
      "name": "totalSupply",
      "outputs": [
        {
          "internalType": "uint256",
          "name": "",
          "type": "uint256"
        }
      ],
      "stateMutability": "view",
      "type": "function"
    },
    {
      "inputs": [
        {
          "internalType": "address",
          "name": "from",
          "type": "address"
        },
        {
          "internalType": "address",
          "name": "to",
          "type": "address"
        },
        {
          "internalType": "uint256",
          "name": "tokenId",
          "type": "uint256"
        }
      ],
      "name": "transferFrom",
      "outputs": [],
      "stateMutability": "nonpayable",
      "type": "function"
    }
  ],
  "transactionHash": "0x5a27f03c374bbb65fcefa8d71d11515dc9a6c6e5db8cb7e6ca4034b9e5fe8664",
  "args": [
    "Arcade.xyz BorrowerNote",
    "aBN"
  ],
  "numDeployments": 1,
  "solcInputHash": "a1cd719426b304bc168f22b2f267e710",
  "bytecode": "0x6101406040527f48d39b37a35214940203bbbd4f383519797769b13d936f387d89430afef27688610120908152503480156200003a57600080fd5b506040516200595338038062005953833981810160405281019062000060919062000466565b81806040518060400160405280600181526020017f310000000000000000000000000000000000000000000000000000000000000081525084848160029080519060200190620000b292919062000219565b508060039080519060200190620000cb92919062000219565b5050506000600c60006101000a81548160ff02191690831515021790555060008280519060200120905060008280519060200120905060007f8b73c3c69bb8fe3d512ecc4cf759cc79239f7b179b0ffacaa9a75d522b39400f90508260c081815250508160e081815250504660a0818152505062000151818484620001c760201b60201c565b608081815250508061010081815250505050505050506200017e600f6200020360201b620016a81760201c565b33600e60006101000a81548173ffffffffffffffffffffffffffffffffffffffff021916908373ffffffffffffffffffffffffffffffffffffffff160217905550505062000628565b60008383834630604051602001620001e495949392919062000566565b6040516020818303038152906040528051906020012090509392505050565b6001816000016000828254019250508190555050565b8280546200022790620005f2565b90600052602060002090601f0160209004810192826200024b576000855562000297565b82601f106200026657805160ff191683800117855562000297565b8280016001018555821562000297579182015b828111156200029657825182559160200191906001019062000279565b5b509050620002a69190620002aa565b5090565b5b80821115620002c5576000816000905550600101620002ab565b5090565b6000604051905090565b600080fd5b600080fd5b600080fd5b600080fd5b6000601f19601f8301169050919050565b7f4e487b7100000000000000000000000000000000000000000000000000000000600052604160045260246000fd5b6200033282620002e7565b810181811067ffffffffffffffff82111715620003545762000353620002f8565b5b80604052505050565b600062000369620002c9565b905062000377828262000327565b919050565b600067ffffffffffffffff8211156200039a5762000399620002f8565b5b620003a582620002e7565b9050602081019050919050565b60005b83811015620003d2578082015181840152602081019050620003b5565b83811115620003e2576000848401525b50505050565b6000620003ff620003f9846200037c565b6200035d565b9050828152602081018484840111156200041e576200041d620002e2565b5b6200042b848285620003b2565b509392505050565b600082601f8301126200044b576200044a620002dd565b5b81516200045d848260208601620003e8565b91505092915050565b6000806040838503121562000480576200047f620002d3565b5b600083015167ffffffffffffffff811115620004a157620004a0620002d8565b5b620004af8582860162000433565b925050602083015167ffffffffffffffff811115620004d357620004d2620002d8565b5b620004e18582860162000433565b9150509250929050565b6000819050919050565b6200050081620004eb565b82525050565b6000819050919050565b6200051b8162000506565b82525050565b600073ffffffffffffffffffffffffffffffffffffffff82169050919050565b60006200054e8262000521565b9050919050565b620005608162000541565b82525050565b600060a0820190506200057d6000830188620004f5565b6200058c6020830187620004f5565b6200059b6040830186620004f5565b620005aa606083018562000510565b620005b9608083018462000555565b9695505050505050565b7f4e487b7100000000000000000000000000000000000000000000000000000000600052602260045260246000fd5b600060028204905060018216806200060b57607f821691505b60208210811415620006225762000621620005c3565b5b50919050565b60805160a05160c05160e05161010051610120516152db6200067860003960006114e401526000611e3101526000611e7301526000611e5201526000611dde01526000611e0601526152db6000f3fe608060405234801561001057600080fd5b50600436106102065760003560e01c80636352211e1161011a578063a217fddf116100ad578063c87b56dd1161007c578063c87b56dd14610623578063ca15c87314610653578063d505accf14610683578063d547741f1461069f578063e985e9c5146106bb57610206565b8063a217fddf146105b1578063a22cb465146105cf578063b88d4fde146105eb578063c4d66de81461060757610206565b80638da5cb5b116100e95780638da5cb5b146105155780639010d07c1461053357806391d148541461056357806395d89b411461059357610206565b80636352211e1461046757806370a082311461049757806375b238fc146104c75780637ecebe00146104e557610206565b80632f2ff15d1161019d57806340c10f191161016c57806340c10f19146103b157806342842e0e146103e157806342966c68146103fd5780634f6ccce7146104195780635c975abb1461044957610206565b80632f2ff15d1461032b5780632f745c59146103475780633644e5151461037757806336568abe1461039557610206565b806316c38b3c116101d957806316c38b3c146102a557806318160ddd146102c157806323b872dd146102df578063248a9ca3146102fb57610206565b806301ffc9a71461020b57806306fdde031461023b578063081812fc14610259578063095ea7b314610289575b600080fd5b6102256004803603810190610220919061378a565b6106eb565b60405161023291906137d2565b60405180910390f35b6102436106fd565b6040516102509190613886565b60405180910390f35b610273600480360381019061026e91906138de565b61078f565b604051610280919061394c565b60405180910390f35b6102a3600480360381019061029e9190613993565b610814565b005b6102bf60048036038101906102ba91906139ff565b61092c565b005b6102c961097e565b6040516102d69190613a3b565b60405180910390f35b6102f960048036038101906102f49190613a56565b61098b565b005b61031560048036038101906103109190613adf565b6109eb565b6040516103229190613b1b565b60405180910390f35b61034560048036038101906103409190613b36565b610a0a565b005b610361600480360381019061035c9190613993565b610a3e565b60405161036e9190613a3b565b60405180910390f35b61037f610ae3565b60405161038c9190613b1b565b60405180910390f35b6103af60048036038101906103aa9190613b36565b610af2565b005b6103cb60048036038101906103c69190613993565b610b26565b6040516103d89190613a3b565b60405180910390f35b6103fb60048036038101906103f69190613a56565b610bb4565b005b610417600480360381019061041291906138de565b610bd4565b005b610433600480360381019061042e91906138de565b610c59565b6040516104409190613a3b565b60405180910390f35b610451610cca565b60405161045e91906137d2565b60405180910390f35b610481600480360381019061047c91906138de565b610ce1565b60405161048e919061394c565b60405180910390f35b6104b160048036038101906104ac9190613b76565b610d93565b6040516104be9190613a3b565b60405180910390f35b6104cf610e4b565b6040516104dc9190613b1b565b60405180910390f35b6104ff60048036038101906104fa9190613b76565b610e6f565b60405161050c9190613a3b565b60405180910390f35b61051d610ebf565b60405161052a919061394c565b60405180910390f35b61054d60048036038101906105489190613ba3565b610ee5565b60405161055a919061394c565b60405180910390f35b61057d60048036038101906105789190613b36565b610f14565b60405161058a91906137d2565b60405180910390f35b61059b610f7e565b6040516105a89190613886565b60405180910390f35b6105b9611010565b6040516105c69190613b1b565b60405180910390f35b6105e960048036038101906105e49190613be3565b611017565b005b61060560048036038101906106009190613d58565b611198565b005b610621600480360381019061061c9190613b76565b6111fa565b005b61063d600480360381019061063891906138de565b611358565b60405161064a9190613886565b60405180910390f35b61066d60048036038101906106689190613adf565b6113ff565b60405161067a9190613a3b565b60405180910390f35b61069d60048036038101906106989190613e14565b611423565b005b6106b960048036038101906106b49190613b36565b6115e0565b005b6106d560048036038101906106d09190613eb6565b611614565b6040516106e291906137d2565b60405180910390f35b60006106f6826116be565b9050919050565b60606002805461070c90613f25565b80601f016020809104026020016040519081016040528092919081815260200182805461073890613f25565b80156107855780601f1061075a57610100808354040283529160200191610785565b820191906000526020600020905b81548152906001019060200180831161076857829003601f168201915b5050505050905090565b600061079a82611738565b6107d9576040517f08c379a00000000000000000000000000000000000000000000000000000000081526004016107d090613fc9565b60405180910390fd5b6006600083815260200190815260200160002060009054906101000a900473ffffffffffffffffffffffffffffffffffffffff169050919050565b600061081f82610ce1565b90508073ffffffffffffffffffffffffffffffffffffffff168373ffffffffffffffffffffffffffffffffffffffff161415610890576040517f08c379a00000000000000000000000000000000000000000000000000000000081526004016108879061405b565b60405180910390fd5b8073ffffffffffffffffffffffffffffffffffffffff166108af6117a4565b73ffffffffffffffffffffffffffffffffffffffff1614806108de57506108dd816108d86117a4565b611614565b5b61091d576040517f08c379a0000000000000000000000000000000000000000000000000000000008152600401610914906140ed565b60405180910390fd5b61092783836117ac565b505050565b7fa49807205ce4d355092ef5a8a18f56e8913cf4a201fbe287825b095693c2177561095e816109596117a4565b611865565b81156109715761096c611902565b61097a565b6109796119a5565b5b5050565b6000600a80549050905090565b61099c6109966117a4565b82611a47565b6109db576040517f08c379a00000000000000000000000000000000000000000000000000000000081526004016109d29061417f565b60405180910390fd5b6109e6838383611b25565b505050565b6000806000838152602001908152602001600020600101549050919050565b610a148282611d81565b610a398160016000858152602001908152602001600020611daa90919063ffffffff16565b505050565b6000610a4983610d93565b8210610a8a576040517f08c379a0000000000000000000000000000000000000000000000000000000008152600401610a8190614211565b60405180910390fd5b600860008473ffffffffffffffffffffffffffffffffffffffff1673ffffffffffffffffffffffffffffffffffffffff168152602001908152602001600020600083815260200190815260200160002054905092915050565b6000610aed611dda565b905090565b610afc8282611e9d565b610b218160016000858152602001908152602001600020611f2090919063ffffffff16565b505050565b6000610b597fa49807205ce4d355092ef5a8a18f56e8913cf4a201fbe287825b095693c21775610b546117a4565b610f14565b610ba157610b656117a4565b6040517fde9717bc000000000000000000000000000000000000000000000000000000008152600401610b98919061394c565b60405180910390fd5b610bab8383611f50565b81905092915050565b610bcf83838360405180602001604052806000815250611198565b505050565b610c057fa49807205ce4d355092ef5a8a18f56e8913cf4a201fbe287825b095693c21775610c006117a4565b610f14565b610c4d57610c116117a4565b6040517fbfc55edc000000000000000000000000000000000000000000000000000000008152600401610c44919061394c565b60405180910390fd5b610c568161211e565b50565b6000610c6361097e565b8210610ca4576040517f08c379a0000000000000000000000000000000000000000000000000000000008152600401610c9b906142a3565b60405180910390fd5b600a8281548110610cb857610cb76142c3565b5b90600052602060002001549050919050565b6000600c60009054906101000a900460ff16905090565b6000806004600084815260200190815260200160002060009054906101000a900473ffffffffffffffffffffffffffffffffffffffff169050600073ffffffffffffffffffffffffffffffffffffffff168173ffffffffffffffffffffffffffffffffffffffff161415610d8a576040517f08c379a0000000000000000000000000000000000000000000000000000000008152600401610d8190614364565b60405180910390fd5b80915050919050565b60008073ffffffffffffffffffffffffffffffffffffffff168273ffffffffffffffffffffffffffffffffffffffff161415610e04576040517f08c379a0000000000000000000000000000000000000000000000000000000008152600401610dfb906143f6565b60405180910390fd5b600560008373ffffffffffffffffffffffffffffffffffffffff1673ffffffffffffffffffffffffffffffffffffffff168152602001908152602001600020549050919050565b7fa49807205ce4d355092ef5a8a18f56e8913cf4a201fbe287825b095693c2177581565b6000610eb8600d60008473ffffffffffffffffffffffffffffffffffffffff1673ffffffffffffffffffffffffffffffffffffffff16815260200190815260200160002061222f565b9050919050565b600e60009054906101000a900473ffffffffffffffffffffffffffffffffffffffff1681565b6000610f0c826001600086815260200190815260200160002061223d90919063ffffffff16565b905092915050565b600080600084815260200190815260200160002060000160008373ffffffffffffffffffffffffffffffffffffffff1673ffffffffffffffffffffffffffffffffffffffff16815260200190815260200160002060009054906101000a900460ff16905092915050565b606060038054610f8d90613f25565b80601f0160208091040260200160405190810160405280929190818152602001828054610fb990613f25565b80156110065780601f10610fdb57610100808354040283529160200191611006565b820191906000526020600020905b815481529060010190602001808311610fe957829003601f168201915b5050505050905090565b6000801b81565b61101f6117a4565b73ffffffffffffffffffffffffffffffffffffffff168273ffffffffffffffffffffffffffffffffffffffff16141561108d576040517f08c379a000000000000000000000000000000000000000000000000000000000815260040161108490614462565b60405180910390fd5b806007600061109a6117a4565b73ffffffffffffffffffffffffffffffffffffffff1673ffffffffffffffffffffffffffffffffffffffff16815260200190815260200160002060008473ffffffffffffffffffffffffffffffffffffffff1673ffffffffffffffffffffffffffffffffffffffff16815260200190815260200160002060006101000a81548160ff0219169083151502179055508173ffffffffffffffffffffffffffffffffffffffff166111476117a4565b73ffffffffffffffffffffffffffffffffffffffff167f17307eab39ab6107e8899845ad3d59bd9653f200f220920489ca2b5937696c318360405161118c91906137d2565b60405180910390a35050565b6111a96111a36117a4565b83611a47565b6111e8576040517f08c379a00000000000000000000000000000000000000000000000000000000081526004016111df9061417f565b60405180910390fd5b6111f484848484612257565b50505050565b600e60149054906101000a900460ff1615611241576040517f8707bbd800000000000000000000000000000000000000000000000000000000815260040160405180910390fd5b600e60009054906101000a900473ffffffffffffffffffffffffffffffffffffffff1673ffffffffffffffffffffffffffffffffffffffff166112826117a4565b73ffffffffffffffffffffffffffffffffffffffff16146112cf576040517f1afde41400000000000000000000000000000000000000000000000000000000815260040160405180910390fd5b6112f97fa49807205ce4d355092ef5a8a18f56e8913cf4a201fbe287825b095693c21775826122b3565b80600e60006101000a81548173ffffffffffffffffffffffffffffffffffffffff021916908373ffffffffffffffffffffffffffffffffffffffff1602179055506001600e60146101000a81548160ff02191690831515021790555050565b606061136382611738565b6113a2576040517f08c379a0000000000000000000000000000000000000000000000000000000008152600401611399906144f4565b60405180910390fd5b60006113ac6122e7565b905060008151116113cc57604051806020016040528060008152506113f7565b806113d6846122fe565b6040516020016113e7929190614550565b6040516020818303038152906040525b915050919050565b600061141c6001600084815260200190815260200160002061245f565b9050919050565b8342111561146857836040517f37c2818800000000000000000000000000000000000000000000000000000000815260040161145f9190613a3b565b60405180910390fd5b61147185610ce1565b73ffffffffffffffffffffffffffffffffffffffff168773ffffffffffffffffffffffffffffffffffffffff16146114e057866040517f285d879e0000000000000000000000000000000000000000000000000000000081526004016114d7919061394c565b60405180910390fd5b60007f000000000000000000000000000000000000000000000000000000000000000088888861150f8c612474565b8960405160200161152596959493929190614574565b6040516020818303038152906040528051906020012090506000611548826124d2565b90506000611558828787876124ec565b90508973ffffffffffffffffffffffffffffffffffffffff168173ffffffffffffffffffffffffffffffffffffffff16146115ca57806040517f5722542f0000000000000000000000000000000000000000000000000000000081526004016115c1919061394c565b60405180910390fd5b6115d489896117ac565b50505050505050505050565b6115ea8282612517565b61160f8160016000858152602001908152602001600020611f2090919063ffffffff16565b505050565b6000600760008473ffffffffffffffffffffffffffffffffffffffff1673ffffffffffffffffffffffffffffffffffffffff16815260200190815260200160002060008373ffffffffffffffffffffffffffffffffffffffff1673ffffffffffffffffffffffffffffffffffffffff16815260200190815260200160002060009054906101000a900460ff16905092915050565b6001816000016000828254019250508190555050565b60007f780e9d63000000000000000000000000000000000000000000000000000000007bffffffffffffffffffffffffffffffffffffffffffffffffffffffff1916827bffffffffffffffffffffffffffffffffffffffffffffffffffffffff19161480611731575061173082612540565b5b9050919050565b60008073ffffffffffffffffffffffffffffffffffffffff166004600084815260200190815260200160002060009054906101000a900473ffffffffffffffffffffffffffffffffffffffff1673ffffffffffffffffffffffffffffffffffffffff1614159050919050565b600033905090565b816006600083815260200190815260200160002060006101000a81548173ffffffffffffffffffffffffffffffffffffffff021916908373ffffffffffffffffffffffffffffffffffffffff160217905550808273ffffffffffffffffffffffffffffffffffffffff1661181f83610ce1565b73ffffffffffffffffffffffffffffffffffffffff167f8c5be1e5ebec7d5bd14f71427d1e84f3dd0314c0f7b2291e5b200ac8c7c3b92560405160405180910390a45050565b61186f8282610f14565b6118fe576118948173ffffffffffffffffffffffffffffffffffffffff166014612622565b6118a28360001c6020612622565b6040516020016118b392919061466d565b6040516020818303038152906040526040517f08c379a00000000000000000000000000000000000000000000000000000000081526004016118f59190613886565b60405180910390fd5b5050565b61190a610cca565b1561194a576040517f08c379a0000000000000000000000000000000000000000000000000000000008152600401611941906146f3565b60405180910390fd5b6001600c60006101000a81548160ff0219169083151502179055507f62e78cea01bee320cd4e420270b5ea74000d11b0c9f74754ebdbfc544b05a25861198e6117a4565b60405161199b919061394c565b60405180910390a1565b6119ad610cca565b6119ec576040517f08c379a00000000000000000000000000000000000000000000000000000000081526004016119e39061475f565b60405180910390fd5b6000600c60006101000a81548160ff0219169083151502179055507f5db9ee0a495bf2e6ff9c91a7834c1ba4fdd244a5e8aa4e537bd38aeae4b073aa611a306117a4565b604051611a3d919061394c565b60405180910390a1565b6000611a5282611738565b611a91576040517f08c379a0000000000000000000000000000000000000000000000000000000008152600401611a88906147f1565b60405180910390fd5b6000611a9c83610ce1565b90508073ffffffffffffffffffffffffffffffffffffffff168473ffffffffffffffffffffffffffffffffffffffff161480611b0b57508373ffffffffffffffffffffffffffffffffffffffff16611af38461078f565b73ffffffffffffffffffffffffffffffffffffffff16145b80611b1c5750611b1b8185611614565b5b91505092915050565b8273ffffffffffffffffffffffffffffffffffffffff16611b4582610ce1565b73ffffffffffffffffffffffffffffffffffffffff1614611b9b576040517f08c379a0000000000000000000000000000000000000000000000000000000008152600401611b9290614883565b60405180910390fd5b600073ffffffffffffffffffffffffffffffffffffffff168273ffffffffffffffffffffffffffffffffffffffff161415611c0b576040517f08c379a0000000000000000000000000000000000000000000000000000000008152600401611c0290614915565b60405180910390fd5b611c1683838361285e565b611c216000826117ac565b6001600560008573ffffffffffffffffffffffffffffffffffffffff1673ffffffffffffffffffffffffffffffffffffffff1681526020019081526020016000206000828254611c719190614964565b925050819055506001600560008473ffffffffffffffffffffffffffffffffffffffff1673ffffffffffffffffffffffffffffffffffffffff1681526020019081526020016000206000828254611cc89190614998565b92505081905550816004600083815260200190815260200160002060006101000a81548173ffffffffffffffffffffffffffffffffffffffff021916908373ffffffffffffffffffffffffffffffffffffffff160217905550808273ffffffffffffffffffffffffffffffffffffffff168473ffffffffffffffffffffffffffffffffffffffff167fddf252ad1be2c89b69c2b068fc378daa952ba7f163c4a11628f55a4df523b3ef60405160405180910390a4505050565b611d8a826109eb565b611d9b81611d966117a4565b611865565b611da583836128ad565b505050565b6000611dd2836000018373ffffffffffffffffffffffffffffffffffffffff1660001b61298d565b905092915050565b60007f0000000000000000000000000000000000000000000000000000000000000000461415611e2c577f00000000000000000000000000000000000000000000000000000000000000009050611e9a565b611e977f00000000000000000000000000000000000000000000000000000000000000007f00000000000000000000000000000000000000000000000000000000000000007f00000000000000000000000000000000000000000000000000000000000000006129fd565b90505b90565b611ea56117a4565b73ffffffffffffffffffffffffffffffffffffffff168173ffffffffffffffffffffffffffffffffffffffff1614611f12576040517f08c379a0000000000000000000000000000000000000000000000000000000008152600401611f0990614a60565b60405180910390fd5b611f1c8282612a37565b5050565b6000611f48836000018373ffffffffffffffffffffffffffffffffffffffff1660001b612b18565b905092915050565b600073ffffffffffffffffffffffffffffffffffffffff168273ffffffffffffffffffffffffffffffffffffffff161415611fc0576040517f08c379a0000000000000000000000000000000000000000000000000000000008152600401611fb790614acc565b60405180910390fd5b611fc981611738565b15612009576040517f08c379a000000000000000000000000000000000000000000000000000000000815260040161200090614b38565b60405180910390fd5b6120156000838361285e565b6001600560008473ffffffffffffffffffffffffffffffffffffffff1673ffffffffffffffffffffffffffffffffffffffff16815260200190815260200160002060008282546120659190614998565b92505081905550816004600083815260200190815260200160002060006101000a81548173ffffffffffffffffffffffffffffffffffffffff021916908373ffffffffffffffffffffffffffffffffffffffff160217905550808273ffffffffffffffffffffffffffffffffffffffff16600073ffffffffffffffffffffffffffffffffffffffff167fddf252ad1be2c89b69c2b068fc378daa952ba7f163c4a11628f55a4df523b3ef60405160405180910390a45050565b600061212982610ce1565b90506121378160008461285e565b6121426000836117ac565b6001600560008373ffffffffffffffffffffffffffffffffffffffff1673ffffffffffffffffffffffffffffffffffffffff16815260200190815260200160002060008282546121929190614964565b925050819055506004600083815260200190815260200160002060006101000a81549073ffffffffffffffffffffffffffffffffffffffff021916905581600073ffffffffffffffffffffffffffffffffffffffff168273ffffffffffffffffffffffffffffffffffffffff167fddf252ad1be2c89b69c2b068fc378daa952ba7f163c4a11628f55a4df523b3ef60405160405180910390a45050565b600081600001549050919050565b600061224c8360000183612c2c565b60001c905092915050565b612262848484611b25565b61226e84848484612c57565b6122ad576040517f08c379a00000000000000000000000000000000000000000000000000000000081526004016122a490614bca565b60405180910390fd5b50505050565b6122bd8282612ddf565b6122e28160016000858152602001908152602001600020611daa90919063ffffffff16565b505050565b606060405180602001604052806000815250905090565b60606000821415612346576040518060400160405280600181526020017f3000000000000000000000000000000000000000000000000000000000000000815250905061245a565b600082905060005b6000821461237857808061236190614bea565b915050600a826123719190614c62565b915061234e565b60008167ffffffffffffffff81111561239457612393613c2d565b5b6040519080825280601f01601f1916602001820160405280156123c65781602001600182028036833780820191505090505b5090505b60008514612453576001826123df9190614964565b9150600a856123ee9190614c93565b60306123fa9190614998565b60f81b8183815181106124105761240f6142c3565b5b60200101907effffffffffffffffffffffffffffffffffffffffffffffffffffffffffffff1916908160001a905350600a8561244c9190614c62565b94506123ca565b8093505050505b919050565b600061246d82600001612ded565b9050919050565b600080600d60008473ffffffffffffffffffffffffffffffffffffffff1673ffffffffffffffffffffffffffffffffffffffff16815260200190815260200160002090506124c18161222f565b91506124cc816116a8565b50919050565b60006124e56124df611dda565b83612dfe565b9050919050565b60008060006124fd87878787612e31565b9150915061250a81612f3e565b8192505050949350505050565b612520826109eb565b6125318161252c6117a4565b611865565b61253b8383612a37565b505050565b60007f80ac58cd000000000000000000000000000000000000000000000000000000007bffffffffffffffffffffffffffffffffffffffffffffffffffffffff1916827bffffffffffffffffffffffffffffffffffffffffffffffffffffffff1916148061260b57507f5b5e139f000000000000000000000000000000000000000000000000000000007bffffffffffffffffffffffffffffffffffffffffffffffffffffffff1916827bffffffffffffffffffffffffffffffffffffffffffffffffffffffff1916145b8061261b575061261a82613113565b5b9050919050565b6060600060028360026126359190614cc4565b61263f9190614998565b67ffffffffffffffff81111561265857612657613c2d565b5b6040519080825280601f01601f19166020018201604052801561268a5781602001600182028036833780820191505090505b5090507f3000000000000000000000000000000000000000000000000000000000000000816000815181106126c2576126c16142c3565b5b60200101907effffffffffffffffffffffffffffffffffffffffffffffffffffffffffffff1916908160001a9053507f780000000000000000000000000000000000000000000000000000000000000081600181518110612726576127256142c3565b5b60200101907effffffffffffffffffffffffffffffffffffffffffffffffffffffffffffff1916908160001a905350600060018460026127669190614cc4565b6127709190614998565b90505b6001811115612810577f3031323334353637383961626364656600000000000000000000000000000000600f8616601081106127b2576127b16142c3565b5b1a60f81b8282815181106127c9576127c86142c3565b5b60200101907effffffffffffffffffffffffffffffffffffffffffffffffffffffffffffff1916908160001a905350600485901c94508061280990614d1e565b9050612773565b5060008414612854576040517f08c379a000000000000000000000000000000000000000000000000000000000815260040161284b90614d94565b60405180910390fd5b8091505092915050565b612866610cca565b1561289d576040517ff396fbc600000000000000000000000000000000000000000000000000000000815260040160405180910390fd5b6128a883838361318d565b505050565b6128b78282610f14565b61298957600160008084815260200190815260200160002060000160008373ffffffffffffffffffffffffffffffffffffffff1673ffffffffffffffffffffffffffffffffffffffff16815260200190815260200160002060006101000a81548160ff02191690831515021790555061292e6117a4565b73ffffffffffffffffffffffffffffffffffffffff168173ffffffffffffffffffffffffffffffffffffffff16837f2f8788117e7eff1d82e926ec794901d17c78024a50270940304540a733656f0d60405160405180910390a45b5050565b600061299983836131e5565b6129f25782600001829080600181540180825580915050600190039060005260206000200160009091909190915055826000018054905083600101600084815260200190815260200160002081905550600190506129f7565b600090505b92915050565b60008383834630604051602001612a18959493929190614db4565b6040516020818303038152906040528051906020012090509392505050565b612a418282610f14565b15612b1457600080600084815260200190815260200160002060000160008373ffffffffffffffffffffffffffffffffffffffff1673ffffffffffffffffffffffffffffffffffffffff16815260200190815260200160002060006101000a81548160ff021916908315150217905550612ab96117a4565b73ffffffffffffffffffffffffffffffffffffffff168173ffffffffffffffffffffffffffffffffffffffff16837ff6391f5c32d9c69d2a47ea670b442974b53935d1edc7fd64eb21e047a839171b60405160405180910390a45b5050565b60008083600101600084815260200190815260200160002054905060008114612c20576000600182612b4a9190614964565b9050600060018660000180549050612b629190614964565b9050818114612bd1576000866000018281548110612b8357612b826142c3565b5b9060005260206000200154905080876000018481548110612ba757612ba66142c3565b5b90600052602060002001819055508387600101600083815260200190815260200160002081905550505b85600001805480612be557612be4614e07565b5b600190038181906000526020600020016000905590558560010160008681526020019081526020016000206000905560019350505050612c26565b60009150505b92915050565b6000826000018281548110612c4457612c436142c3565b5b9060005260206000200154905092915050565b6000612c788473ffffffffffffffffffffffffffffffffffffffff16613208565b15612dd2578373ffffffffffffffffffffffffffffffffffffffff1663150b7a02612ca16117a4565b8786866040518563ffffffff1660e01b8152600401612cc39493929190614e8b565b6020604051808303816000875af1925050508015612cff57506040513d601f19601f82011682018060405250810190612cfc9190614eec565b60015b612d82573d8060008114612d2f576040519150601f19603f3d011682016040523d82523d6000602084013e612d34565b606091505b50600081511415612d7a576040517f08c379a0000000000000000000000000000000000000000000000000000000008152600401612d7190614bca565b60405180910390fd5b805181602001fd5b63150b7a0260e01b7bffffffffffffffffffffffffffffffffffffffffffffffffffffffff1916817bffffffffffffffffffffffffffffffffffffffffffffffffffffffff191614915050612dd7565b600190505b949350505050565b612de982826128ad565b5050565b600081600001805490509050919050565b60008282604051602001612e13929190614f86565b60405160208183030381529060405280519060200120905092915050565b6000807f7fffffffffffffffffffffffffffffff5d576e7357a4501ddfe92f46681b20a08360001c1115612e6c576000600391509150612f35565b601b8560ff1614158015612e845750601c8560ff1614155b15612e96576000600491509150612f35565b600060018787878760405160008152602001604052604051612ebb9493929190614fcc565b6020604051602081039080840390855afa158015612edd573d6000803e3d6000fd5b505050602060405103519050600073ffffffffffffffffffffffffffffffffffffffff168173ffffffffffffffffffffffffffffffffffffffff161415612f2c57600060019250925050612f35565b80600092509250505b94509492505050565b60006004811115612f5257612f51615011565b5b816004811115612f6557612f64615011565b5b1415612f7057613110565b60016004811115612f8457612f83615011565b5b816004811115612f9757612f96615011565b5b1415612fd8576040517f08c379a0000000000000000000000000000000000000000000000000000000008152600401612fcf9061508c565b60405180910390fd5b60026004811115612fec57612feb615011565b5b816004811115612fff57612ffe615011565b5b1415613040576040517f08c379a0000000000000000000000000000000000000000000000000000000008152600401613037906150f8565b60405180910390fd5b6003600481111561305457613053615011565b5b81600481111561306757613066615011565b5b14156130a8576040517f08c379a000000000000000000000000000000000000000000000000000000000815260040161309f9061518a565b60405180910390fd5b6004808111156130bb576130ba615011565b5b8160048111156130ce576130cd615011565b5b141561310f576040517f08c379a00000000000000000000000000000000000000000000000000000000081526004016131069061521c565b60405180910390fd5b5b50565b60007f5a05180f000000000000000000000000000000000000000000000000000000007bffffffffffffffffffffffffffffffffffffffffffffffffffffffff1916827bffffffffffffffffffffffffffffffffffffffffffffffffffffffff1916148061318657506131858261321b565b5b9050919050565b613198838383613295565b6131a0610cca565b156131e0576040517f08c379a00000000000000000000000000000000000000000000000000000000081526004016131d7906152ae565b60405180910390fd5b505050565b600080836001016000848152602001908152602001600020541415905092915050565b600080823b905060008111915050919050565b60007f7965db0b000000000000000000000000000000000000000000000000000000007bffffffffffffffffffffffffffffffffffffffffffffffffffffffff1916827bffffffffffffffffffffffffffffffffffffffffffffffffffffffff1916148061328e575061328d826133a9565b5b9050919050565b6132a0838383613413565b600073ffffffffffffffffffffffffffffffffffffffff168373ffffffffffffffffffffffffffffffffffffffff1614156132e3576132de81613418565b613322565b8173ffffffffffffffffffffffffffffffffffffffff168373ffffffffffffffffffffffffffffffffffffffff1614613321576133208382613461565b5b5b600073ffffffffffffffffffffffffffffffffffffffff168273ffffffffffffffffffffffffffffffffffffffff16141561336557613360816135ce565b6133a4565b8273ffffffffffffffffffffffffffffffffffffffff168273ffffffffffffffffffffffffffffffffffffffff16146133a3576133a2828261369f565b5b5b505050565b60007f01ffc9a7000000000000000000000000000000000000000000000000000000007bffffffffffffffffffffffffffffffffffffffffffffffffffffffff1916827bffffffffffffffffffffffffffffffffffffffffffffffffffffffff1916149050919050565b505050565b600a80549050600b600083815260200190815260200160002081905550600a81908060018154018082558091505060019003906000526020600020016000909190919091505550565b6000600161346e84610d93565b6134789190614964565b905060006009600084815260200190815260200160002054905081811461355d576000600860008673ffffffffffffffffffffffffffffffffffffffff1673ffffffffffffffffffffffffffffffffffffffff168152602001908152602001600020600084815260200190815260200160002054905080600860008773ffffffffffffffffffffffffffffffffffffffff1673ffffffffffffffffffffffffffffffffffffffff168152602001908152602001600020600084815260200190815260200160002081905550816009600083815260200190815260200160002081905550505b6009600084815260200190815260200160002060009055600860008573ffffffffffffffffffffffffffffffffffffffff1673ffffffffffffffffffffffffffffffffffffffff16815260200190815260200160002060008381526020019081526020016000206000905550505050565b60006001600a805490506135e29190614964565b90506000600b60008481526020019081526020016000205490506000600a8381548110613612576136116142c3565b5b9060005260206000200154905080600a8381548110613634576136336142c3565b5b906000526020600020018190555081600b600083815260200190815260200160002081905550600b600085815260200190815260200160002060009055600a80548061368357613682614e07565b5b6001900381819060005260206000200160009055905550505050565b60006136aa83610d93565b905081600860008573ffffffffffffffffffffffffffffffffffffffff1673ffffffffffffffffffffffffffffffffffffffff168152602001908152602001600020600083815260200190815260200160002081905550806009600084815260200190815260200160002081905550505050565b6000604051905090565b600080fd5b600080fd5b60007fffffffff0000000000000000000000000000000000000000000000000000000082169050919050565b61376781613732565b811461377257600080fd5b50565b6000813590506137848161375e565b92915050565b6000602082840312156137a05761379f613728565b5b60006137ae84828501613775565b91505092915050565b60008115159050919050565b6137cc816137b7565b82525050565b60006020820190506137e760008301846137c3565b92915050565b600081519050919050565b600082825260208201905092915050565b60005b8381101561382757808201518184015260208101905061380c565b83811115613836576000848401525b50505050565b6000601f19601f8301169050919050565b6000613858826137ed565b61386281856137f8565b9350613872818560208601613809565b61387b8161383c565b840191505092915050565b600060208201905081810360008301526138a0818461384d565b905092915050565b6000819050919050565b6138bb816138a8565b81146138c657600080fd5b50565b6000813590506138d8816138b2565b92915050565b6000602082840312156138f4576138f3613728565b5b6000613902848285016138c9565b91505092915050565b600073ffffffffffffffffffffffffffffffffffffffff82169050919050565b60006139368261390b565b9050919050565b6139468161392b565b82525050565b6000602082019050613961600083018461393d565b92915050565b6139708161392b565b811461397b57600080fd5b50565b60008135905061398d81613967565b92915050565b600080604083850312156139aa576139a9613728565b5b60006139b88582860161397e565b92505060206139c9858286016138c9565b9150509250929050565b6139dc816137b7565b81146139e757600080fd5b50565b6000813590506139f9816139d3565b92915050565b600060208284031215613a1557613a14613728565b5b6000613a23848285016139ea565b91505092915050565b613a35816138a8565b82525050565b6000602082019050613a506000830184613a2c565b92915050565b600080600060608486031215613a6f57613a6e613728565b5b6000613a7d8682870161397e565b9350506020613a8e8682870161397e565b9250506040613a9f868287016138c9565b9150509250925092565b6000819050919050565b613abc81613aa9565b8114613ac757600080fd5b50565b600081359050613ad981613ab3565b92915050565b600060208284031215613af557613af4613728565b5b6000613b0384828501613aca565b91505092915050565b613b1581613aa9565b82525050565b6000602082019050613b306000830184613b0c565b92915050565b60008060408385031215613b4d57613b4c613728565b5b6000613b5b85828601613aca565b9250506020613b6c8582860161397e565b9150509250929050565b600060208284031215613b8c57613b8b613728565b5b6000613b9a8482850161397e565b91505092915050565b60008060408385031215613bba57613bb9613728565b5b6000613bc885828601613aca565b9250506020613bd9858286016138c9565b9150509250929050565b60008060408385031215613bfa57613bf9613728565b5b6000613c088582860161397e565b9250506020613c19858286016139ea565b9150509250929050565b600080fd5b600080fd5b7f4e487b7100000000000000000000000000000000000000000000000000000000600052604160045260246000fd5b613c658261383c565b810181811067ffffffffffffffff82111715613c8457613c83613c2d565b5b80604052505050565b6000613c9761371e565b9050613ca38282613c5c565b919050565b600067ffffffffffffffff821115613cc357613cc2613c2d565b5b613ccc8261383c565b9050602081019050919050565b82818337600083830152505050565b6000613cfb613cf684613ca8565b613c8d565b905082815260208101848484011115613d1757613d16613c28565b5b613d22848285613cd9565b509392505050565b600082601f830112613d3f57613d3e613c23565b5b8135613d4f848260208601613ce8565b91505092915050565b60008060008060808587031215613d7257613d71613728565b5b6000613d808782880161397e565b9450506020613d918782880161397e565b9350506040613da2878288016138c9565b925050606085013567ffffffffffffffff811115613dc357613dc261372d565b5b613dcf87828801613d2a565b91505092959194509250565b600060ff82169050919050565b613df181613ddb565b8114613dfc57600080fd5b50565b600081359050613e0e81613de8565b92915050565b600080600080600080600060e0888a031215613e3357613e32613728565b5b6000613e418a828b0161397e565b9750506020613e528a828b0161397e565b9650506040613e638a828b016138c9565b9550506060613e748a828b016138c9565b9450506080613e858a828b01613dff565b93505060a0613e968a828b01613aca565b92505060c0613ea78a828b01613aca565b91505092959891949750929550565b60008060408385031215613ecd57613ecc613728565b5b6000613edb8582860161397e565b9250506020613eec8582860161397e565b9150509250929050565b7f4e487b7100000000000000000000000000000000000000000000000000000000600052602260045260246000fd5b60006002820490506001821680613f3d57607f821691505b60208210811415613f5157613f50613ef6565b5b50919050565b7f4552433732313a20617070726f76656420717565727920666f72206e6f6e657860008201527f697374656e7420746f6b656e0000000000000000000000000000000000000000602082015250565b6000613fb3602c836137f8565b9150613fbe82613f57565b604082019050919050565b60006020820190508181036000830152613fe281613fa6565b9050919050565b7f4552433732313a20617070726f76616c20746f2063757272656e74206f776e6560008201527f7200000000000000000000000000000000000000000000000000000000000000602082015250565b60006140456021836137f8565b915061405082613fe9565b604082019050919050565b6000602082019050818103600083015261407481614038565b9050919050565b7f4552433732313a20617070726f76652063616c6c6572206973206e6f74206f7760008201527f6e6572206e6f7220617070726f76656420666f7220616c6c0000000000000000602082015250565b60006140d76038836137f8565b91506140e28261407b565b604082019050919050565b60006020820190508181036000830152614106816140ca565b9050919050565b7f4552433732313a207472616e736665722063616c6c6572206973206e6f74206f60008201527f776e6572206e6f7220617070726f766564000000000000000000000000000000602082015250565b60006141696031836137f8565b91506141748261410d565b604082019050919050565b600060208201905081810360008301526141988161415c565b9050919050565b7f455243373231456e756d657261626c653a206f776e657220696e646578206f7560008201527f74206f6620626f756e6473000000000000000000000000000000000000000000602082015250565b60006141fb602b836137f8565b91506142068261419f565b604082019050919050565b6000602082019050818103600083015261422a816141ee565b9050919050565b7f455243373231456e756d657261626c653a20676c6f62616c20696e646578206f60008201527f7574206f6620626f756e64730000000000000000000000000000000000000000602082015250565b600061428d602c836137f8565b915061429882614231565b604082019050919050565b600060208201905081810360008301526142bc81614280565b9050919050565b7f4e487b7100000000000000000000000000000000000000000000000000000000600052603260045260246000fd5b7f4552433732313a206f776e657220717565727920666f72206e6f6e657869737460008201527f656e7420746f6b656e0000000000000000000000000000000000000000000000602082015250565b600061434e6029836137f8565b9150614359826142f2565b604082019050919050565b6000602082019050818103600083015261437d81614341565b9050919050565b7f4552433732313a2062616c616e636520717565727920666f7220746865207a6560008201527f726f206164647265737300000000000000000000000000000000000000000000602082015250565b60006143e0602a836137f8565b91506143eb82614384565b604082019050919050565b6000602082019050818103600083015261440f816143d3565b9050919050565b7f4552433732313a20617070726f766520746f2063616c6c657200000000000000600082015250565b600061444c6019836137f8565b915061445782614416565b602082019050919050565b6000602082019050818103600083015261447b8161443f565b9050919050565b7f4552433732314d657461646174613a2055524920717565727920666f72206e6f60008201527f6e6578697374656e7420746f6b656e0000000000000000000000000000000000602082015250565b60006144de602f836137f8565b91506144e982614482565b604082019050919050565b6000602082019050818103600083015261450d816144d1565b9050919050565b600081905092915050565b600061452a826137ed565b6145348185614514565b9350614544818560208601613809565b80840191505092915050565b600061455c828561451f565b9150614568828461451f565b91508190509392505050565b600060c0820190506145896000830189613b0c565b614596602083018861393d565b6145a3604083018761393d565b6145b06060830186613a2c565b6145bd6080830185613a2c565b6145ca60a0830184613a2c565b979650505050505050565b7f416363657373436f6e74726f6c3a206163636f756e7420000000000000000000600082015250565b600061460b601783614514565b9150614616826145d5565b601782019050919050565b7f206973206d697373696e6720726f6c6520000000000000000000000000000000600082015250565b6000614657601183614514565b915061466282614621565b601182019050919050565b6000614678826145fe565b9150614684828561451f565b915061468f8261464a565b915061469b828461451f565b91508190509392505050565b7f5061757361626c653a2070617573656400000000000000000000000000000000600082015250565b60006146dd6010836137f8565b91506146e8826146a7565b602082019050919050565b6000602082019050818103600083015261470c816146d0565b9050919050565b7f5061757361626c653a206e6f7420706175736564000000000000000000000000600082015250565b60006147496014836137f8565b915061475482614713565b602082019050919050565b600060208201905081810360008301526147788161473c565b9050919050565b7f4552433732313a206f70657261746f7220717565727920666f72206e6f6e657860008201527f697374656e7420746f6b656e0000000000000000000000000000000000000000602082015250565b60006147db602c836137f8565b91506147e68261477f565b604082019050919050565b6000602082019050818103600083015261480a816147ce565b9050919050565b7f4552433732313a207472616e73666572206f6620746f6b656e2074686174206960008201527f73206e6f74206f776e0000000000000000000000000000000000000000000000602082015250565b600061486d6029836137f8565b915061487882614811565b604082019050919050565b6000602082019050818103600083015261489c81614860565b9050919050565b7f4552433732313a207472616e7366657220746f20746865207a65726f2061646460008201527f7265737300000000000000000000000000000000000000000000000000000000602082015250565b60006148ff6024836137f8565b915061490a826148a3565b604082019050919050565b6000602082019050818103600083015261492e816148f2565b9050919050565b7f4e487b7100000000000000000000000000000000000000000000000000000000600052601160045260246000fd5b600061496f826138a8565b915061497a836138a8565b92508282101561498d5761498c614935565b5b828203905092915050565b60006149a3826138a8565b91506149ae836138a8565b9250827fffffffffffffffffffffffffffffffffffffffffffffffffffffffffffffffff038211156149e3576149e2614935565b5b828201905092915050565b7f416363657373436f6e74726f6c3a2063616e206f6e6c792072656e6f756e636560008201527f20726f6c657320666f722073656c660000000000000000000000000000000000602082015250565b6000614a4a602f836137f8565b9150614a55826149ee565b604082019050919050565b60006020820190508181036000830152614a7981614a3d565b9050919050565b7f4552433732313a206d696e7420746f20746865207a65726f2061646472657373600082015250565b6000614ab66020836137f8565b9150614ac182614a80565b602082019050919050565b60006020820190508181036000830152614ae581614aa9565b9050919050565b7f4552433732313a20746f6b656e20616c7265616479206d696e74656400000000600082015250565b6000614b22601c836137f8565b9150614b2d82614aec565b602082019050919050565b60006020820190508181036000830152614b5181614b15565b9050919050565b7f4552433732313a207472616e7366657220746f206e6f6e20455243373231526560008201527f63656976657220696d706c656d656e7465720000000000000000000000000000602082015250565b6000614bb46032836137f8565b9150614bbf82614b58565b604082019050919050565b60006020820190508181036000830152614be381614ba7565b9050919050565b6000614bf5826138a8565b91507fffffffffffffffffffffffffffffffffffffffffffffffffffffffffffffffff821415614c2857614c27614935565b5b600182019050919050565b7f4e487b7100000000000000000000000000000000000000000000000000000000600052601260045260246000fd5b6000614c6d826138a8565b9150614c78836138a8565b925082614c8857614c87614c33565b5b828204905092915050565b6000614c9e826138a8565b9150614ca9836138a8565b925082614cb957614cb8614c33565b5b828206905092915050565b6000614ccf826138a8565b9150614cda836138a8565b9250817fffffffffffffffffffffffffffffffffffffffffffffffffffffffffffffffff0483118215151615614d1357614d12614935565b5b828202905092915050565b6000614d29826138a8565b91506000821415614d3d57614d3c614935565b5b600182039050919050565b7f537472696e67733a20686578206c656e67746820696e73756666696369656e74600082015250565b6000614d7e6020836137f8565b9150614d8982614d48565b602082019050919050565b60006020820190508181036000830152614dad81614d71565b9050919050565b600060a082019050614dc96000830188613b0c565b614dd66020830187613b0c565b614de36040830186613b0c565b614df06060830185613a2c565b614dfd608083018461393d565b9695505050505050565b7f4e487b7100000000000000000000000000000000000000000000000000000000600052603160045260246000fd5b600081519050919050565b600082825260208201905092915050565b6000614e5d82614e36565b614e678185614e41565b9350614e77818560208601613809565b614e808161383c565b840191505092915050565b6000608082019050614ea0600083018761393d565b614ead602083018661393d565b614eba6040830185613a2c565b8181036060830152614ecc8184614e52565b905095945050505050565b600081519050614ee68161375e565b92915050565b600060208284031215614f0257614f01613728565b5b6000614f1084828501614ed7565b91505092915050565b7f1901000000000000000000000000000000000000000000000000000000000000600082015250565b6000614f4f600283614514565b9150614f5a82614f19565b600282019050919050565b6000819050919050565b614f80614f7b82613aa9565b614f65565b82525050565b6000614f9182614f42565b9150614f9d8285614f6f565b602082019150614fad8284614f6f565b6020820191508190509392505050565b614fc681613ddb565b82525050565b6000608082019050614fe16000830187613b0c565b614fee6020830186614fbd565b614ffb6040830185613b0c565b6150086060830184613b0c565b95945050505050565b7f4e487b7100000000000000000000000000000000000000000000000000000000600052602160045260246000fd5b7f45434453413a20696e76616c6964207369676e61747572650000000000000000600082015250565b60006150766018836137f8565b915061508182615040565b602082019050919050565b600060208201905081810360008301526150a581615069565b9050919050565b7f45434453413a20696e76616c6964207369676e6174757265206c656e67746800600082015250565b60006150e2601f836137f8565b91506150ed826150ac565b602082019050919050565b60006020820190508181036000830152615111816150d5565b9050919050565b7f45434453413a20696e76616c6964207369676e6174757265202773272076616c60008201527f7565000000000000000000000000000000000000000000000000000000000000602082015250565b60006151746022836137f8565b915061517f82615118565b604082019050919050565b600060208201905081810360008301526151a381615167565b9050919050565b7f45434453413a20696e76616c6964207369676e6174757265202776272076616c60008201527f7565000000000000000000000000000000000000000000000000000000000000602082015250565b60006152066022836137f8565b9150615211826151aa565b604082019050919050565b60006020820190508181036000830152615235816151f9565b9050919050565b7f4552433732315061757361626c653a20746f6b656e207472616e73666572207760008201527f68696c6520706175736564000000000000000000000000000000000000000000602082015250565b6000615298602b836137f8565b91506152a38261523c565b604082019050919050565b600060208201905081810360008301526152c78161528b565b905091905056fea164736f6c634300080b000a",
  "devdoc": {
    "author": "Non-Fungible Technologies, Inc. Built off Openzeppelin's ERC721PresetMinterPauserAutoId. Used for representing rights and obligations in the context of a loan - the right to claim collateral for lenders (instantiated as LenderNote), and the right to recover collateral upon repayment for borrowers (instantiated as BorrowerNote).",
    "details": "{ERC721} token, including:  - ability for holders to burn (destroy) their tokens  - a minter role that allows for token minting (creation)  - token ID and URI autogeneration This contract uses {AccessControl} to lock permissioned functions using the different roles - head to its documentation for details. The account that deploys the contract will be granted the minter and pauser roles, as well as the default admin role, which will let it grant both minter and pauser roles to other accounts.",
    "errors": {
      "ERC721P_DeadlineExpired(uint256)": [
        {
          "params": {
            "deadline": "Permit deadline parameter as a timestamp."
          }
        }
      ],
      "ERC721P_InvalidSignature(address)": [
        {
          "params": {
            "signer": "Signer recovered from ECDSA sugnature hash."
          }
        }
      ],
      "ERC721P_NotTokenOwner(address)": [
        {
          "params": {
            "owner": "Owner parameter for the function call."
          }
        }
      ],
      "PN_BurningRole(address)": [
        {
          "params": {
            "caller": "Address of the function caller."
          }
        }
      ],
      "PN_MintingRole(address)": [
        {
          "params": {
            "caller": "Address of the function caller."
          }
        }
      ]
    },
    "kind": "dev",
    "methods": {
      "DOMAIN_SEPARATOR()": {
        "returns": {
          "_0": "separator             The bytes for the domain separator."
        }
      },
      "approve(address,uint256)": {
        "details": "See {IERC721-approve}."
      },
      "balanceOf(address)": {
        "details": "See {IERC721-balanceOf}."
      },
      "burn(uint256)": {
        "details": "See {ERC721-_burn}.",
        "params": {
          "tokenId": "The ID of the token to burn, should match a loan."
        }
      },
      "constructor": {
        "details": "Creates the promissory note contract, granting minter, burner      and pauser roles to the specified owner address (which in practice      will be LoanCore).",
        "params": {
          "name": "The name of the token (see ERC721).",
          "symbol": "The symbol of the token (see ERC721).      "
        }
      },
      "getApproved(uint256)": {
        "details": "See {IERC721-getApproved}."
      },
      "getRoleAdmin(bytes32)": {
        "details": "Returns the admin role that controls `role`. See {grantRole} and {revokeRole}. To change a role's admin, use {_setRoleAdmin}."
      },
      "getRoleMember(bytes32,uint256)": {
        "details": "Returns one of the accounts that have `role`. `index` must be a value between 0 and {getRoleMemberCount}, non-inclusive. Role bearers are not sorted in any particular way, and their ordering may change at any point. WARNING: When using {getRoleMember} and {getRoleMemberCount}, make sure you perform all queries on the same block. See the following https://forum.openzeppelin.com/t/iterating-over-elements-on-enumerableset-in-openzeppelin-contracts/2296[forum post] for more information."
      },
      "getRoleMemberCount(bytes32)": {
        "details": "Returns the number of accounts that have `role`. Can be used together with {getRoleMember} to enumerate all bearers of a role."
      },
      "grantRole(bytes32,address)": {
        "details": "Overload {grantRole} to track enumerable memberships"
      },
      "hasRole(bytes32,address)": {
        "details": "Returns `true` if `account` has been granted `role`."
      },
      "initialize(address)": {
        "params": {
          "loanCore": "The address of the admin."
        }
      },
      "isApprovedForAll(address,address)": {
        "details": "See {IERC721-isApprovedForAll}."
      },
      "mint(address,uint256)": {
        "details": "See {ERC721-_mint}.",
        "params": {
          "loanId": "The ID of the token to mint, should match a loan.",
          "to": "The owner of the minted token."
        },
        "returns": {
          "_0": "tokenId              The newly minted token ID."
        }
      },
      "name()": {
        "details": "See {IERC721Metadata-name}."
      },
      "nonces(address)": {
        "params": {
          "owner": "The given owner to check the nonce for."
        },
        "returns": {
          "_0": "current              The current noonce for the owner."
        }
      },
      "ownerOf(uint256)": {
        "details": "See {IERC721-ownerOf}."
      },
      "paused()": {
        "details": "Returns true if the contract is paused, and false otherwise."
      },
      "permit(address,address,uint256,uint256,uint8,bytes32,bytes32)": {
        "params": {
          "deadline": "The maximum timestamp the signature is valid for.",
          "owner": "The owner of the token being permitted.",
          "r": "Component of the signature.",
          "s": "Component of the signature.",
          "spender": "The address allowed to spend the token.",
          "tokenId": "The token ID of the given asset.",
          "v": "Component of the signature."
        }
      },
      "renounceRole(bytes32,address)": {
        "details": "Overload {renounceRole} to track enumerable memberships"
      },
      "revokeRole(bytes32,address)": {
        "details": "Overload {revokeRole} to track enumerable memberships"
      },
      "safeTransferFrom(address,address,uint256)": {
        "details": "See {IERC721-safeTransferFrom}."
      },
      "safeTransferFrom(address,address,uint256,bytes)": {
        "details": "See {IERC721-safeTransferFrom}."
      },
      "setApprovalForAll(address,bool)": {
        "details": "See {IERC721-setApprovalForAll}."
      },
      "setPaused(bool)": {
        "params": {
          "paused": "Whether the contract should be paused."
        }
      },
      "supportsInterface(bytes4)": {
        "details": "See {IERC165-supportsInterface}."
      },
      "symbol()": {
        "details": "See {IERC721Metadata-symbol}."
      },
      "tokenByIndex(uint256)": {
        "details": "See {IERC721Enumerable-tokenByIndex}."
      },
      "tokenOfOwnerByIndex(address,uint256)": {
        "details": "See {IERC721Enumerable-tokenOfOwnerByIndex}."
      },
      "tokenURI(uint256)": {
        "details": "See {IERC721Metadata-tokenURI}."
      },
      "totalSupply()": {
        "details": "See {IERC721Enumerable-totalSupply}."
      },
      "transferFrom(address,address,uint256)": {
        "details": "See {IERC721-transferFrom}."
      }
    },
    "stateVariables": {
      "owner": {
        "details": "Initially deployer, then account with burn/mint/pause roles (LoanCore)."
      }
    },
    "title": "PromissoryNote",
    "version": 1
  },
  "userdoc": {
    "errors": {
      "ERC721P_DeadlineExpired(uint256)": [
        {
          "notice": "Deadline for the permit has expired."
        }
      ],
      "ERC721P_InvalidSignature(address)": [
        {
          "notice": "Invalid signature."
        }
      ],
      "ERC721P_NotTokenOwner(address)": [
        {
          "notice": "Address of the owner to also be the owner of the tokenId."
        }
      ],
      "PN_AlreadyInitialized()": [
        {
          "notice": "Roles have been initialized."
        }
      ],
      "PN_BurningRole(address)": [
        {
          "notice": "Caller of burn function must have the BURNER_ROLE in AccessControl."
        }
      ],
      "PN_CannotInitialize()": [
        {
          "notice": "Deployer is allowed to initialize roles. Caller is not deployer."
        }
      ],
      "PN_ContractPaused()": [
        {
          "notice": "No token transfers while contract is in paused state."
        }
      ],
      "PN_MintingRole(address)": [
        {
          "notice": "Caller of mint function must have the MINTER_ROLE in AccessControl."
        }
      ]
    },
    "kind": "user",
    "methods": {
      "DOMAIN_SEPARATOR()": {
        "notice": "Returns the domain separator used in the encoding of the signature for {permit}, as defined by {EIP712}."
      },
      "burn(uint256)": {
        "notice": "Create a new token and assign it to a specified owner. The token ID         should match a loan ID, and can only be called by a burner - in practice         LoanCore, which burns notes when a loan ends. Also unserts the mapping to         lookup loan IDs by note IDs."
      },
      "initialize(address)": {
        "notice": "Grants owner access to the specified address, which should be an         instance of LoanCore. Once admin role is set, it is immutable,         and cannot be set again."
      },
      "mint(address,uint256)": {
        "notice": "Create a new token and assign it to a specified owner. The token ID         should match the loan ID, and can only be called by the minter. Also         updates the mapping to lookup loan IDs by note IDs."
      },
      "nonces(address)": {
        "notice": "Returns the current nonce for `owner`. This value must be included whenever a signature is generated. Every successful call to permit increases the owner's nonce by one. This prevents a signature from being used multiple times."
      },
      "permit(address,address,uint256,uint256,uint8,bytes32,bytes32)": {
        "notice": "Allows the spender to spend the token ID which is owned by owner, given owner's signed approval. Emits an {Approval} event. Requirements: - `spender` cannot be the zero address. - `owner` must be the owner of `tokenId`. - `deadline` must be a timestamp in the future. - `v`, `r` and `s` must be a valid `secp256k1` signature from `owner` over the EIP712-formatted function arguments. - the signature must use ``owner``'s current nonce (see {nonces}). For more information on the signature format, see the https://eips.ethereum.org/EIPS/eip-2612#specification[relevant EIP section]."
      },
      "setPaused(bool)": {
        "notice": "Pauses transfers on the note. This essentially blocks all loan lifecycle         operations, since all originations and transfers require transfers of         the note."
      }
    },
    "version": 1
  },
  "storageLayout": {
    "storage": [
      {
        "astId": 5057,
        "contract": "contracts/PromissoryNote.sol:PromissoryNote",
        "label": "_roles",
        "offset": 0,
        "slot": "0",
        "type": "t_mapping(t_bytes32,t_struct(RoleData)5052_storage)"
      },
      {
        "astId": 5358,
        "contract": "contracts/PromissoryNote.sol:PromissoryNote",
        "label": "_roleMembers",
        "offset": 0,
        "slot": "1",
        "type": "t_mapping(t_bytes32,t_struct(AddressSet)12229_storage)"
      },
      {
        "astId": 8785,
        "contract": "contracts/PromissoryNote.sol:PromissoryNote",
        "label": "_name",
        "offset": 0,
        "slot": "2",
        "type": "t_string_storage"
      },
      {
        "astId": 8787,
        "contract": "contracts/PromissoryNote.sol:PromissoryNote",
        "label": "_symbol",
        "offset": 0,
        "slot": "3",
        "type": "t_string_storage"
      },
      {
        "astId": 8791,
        "contract": "contracts/PromissoryNote.sol:PromissoryNote",
        "label": "_owners",
        "offset": 0,
        "slot": "4",
        "type": "t_mapping(t_uint256,t_address)"
      },
      {
        "astId": 8795,
        "contract": "contracts/PromissoryNote.sol:PromissoryNote",
        "label": "_balances",
        "offset": 0,
        "slot": "5",
        "type": "t_mapping(t_address,t_uint256)"
      },
      {
        "astId": 8799,
        "contract": "contracts/PromissoryNote.sol:PromissoryNote",
        "label": "_tokenApprovals",
        "offset": 0,
        "slot": "6",
        "type": "t_mapping(t_uint256,t_address)"
      },
      {
        "astId": 8805,
        "contract": "contracts/PromissoryNote.sol:PromissoryNote",
        "label": "_operatorApprovals",
        "offset": 0,
        "slot": "7",
        "type": "t_mapping(t_address,t_mapping(t_address,t_bool))"
      },
      {
        "astId": 9754,
        "contract": "contracts/PromissoryNote.sol:PromissoryNote",
        "label": "_ownedTokens",
        "offset": 0,
        "slot": "8",
        "type": "t_mapping(t_address,t_mapping(t_uint256,t_uint256))"
      },
      {
        "astId": 9758,
        "contract": "contracts/PromissoryNote.sol:PromissoryNote",
        "label": "_ownedTokensIndex",
        "offset": 0,
        "slot": "9",
        "type": "t_mapping(t_uint256,t_uint256)"
      },
      {
        "astId": 9761,
        "contract": "contracts/PromissoryNote.sol:PromissoryNote",
        "label": "_allTokens",
        "offset": 0,
        "slot": "10",
        "type": "t_array(t_uint256)dyn_storage"
      },
      {
        "astId": 9765,
        "contract": "contracts/PromissoryNote.sol:PromissoryNote",
        "label": "_allTokensIndex",
        "offset": 0,
        "slot": "11",
        "type": "t_mapping(t_uint256,t_uint256)"
      },
      {
        "astId": 5878,
        "contract": "contracts/PromissoryNote.sol:PromissoryNote",
        "label": "_paused",
        "offset": 0,
        "slot": "12",
        "type": "t_bool"
      },
      {
        "astId": 12549,
        "contract": "contracts/PromissoryNote.sol:PromissoryNote",
        "label": "_nonces",
        "offset": 0,
        "slot": "13",
        "type": "t_mapping(t_address,t_struct(Counter)10712_storage)"
      },
      {
        "astId": 16660,
        "contract": "contracts/PromissoryNote.sol:PromissoryNote",
        "label": "owner",
        "offset": 0,
        "slot": "14",
        "type": "t_address"
      },
      {
        "astId": 16662,
        "contract": "contracts/PromissoryNote.sol:PromissoryNote",
        "label": "initialized",
        "offset": 20,
        "slot": "14",
        "type": "t_bool"
      },
      {
        "astId": 16665,
        "contract": "contracts/PromissoryNote.sol:PromissoryNote",
        "label": "_tokenIdTracker",
        "offset": 0,
        "slot": "15",
        "type": "t_struct(Counter)10712_storage"
      }
    ],
    "types": {
      "t_address": {
        "encoding": "inplace",
        "label": "address",
        "numberOfBytes": "20"
      },
      "t_array(t_bytes32)dyn_storage": {
        "base": "t_bytes32",
        "encoding": "dynamic_array",
        "label": "bytes32[]",
        "numberOfBytes": "32"
      },
      "t_array(t_uint256)dyn_storage": {
        "base": "t_uint256",
        "encoding": "dynamic_array",
        "label": "uint256[]",
        "numberOfBytes": "32"
      },
      "t_bool": {
        "encoding": "inplace",
        "label": "bool",
        "numberOfBytes": "1"
      },
      "t_bytes32": {
        "encoding": "inplace",
        "label": "bytes32",
        "numberOfBytes": "32"
      },
      "t_mapping(t_address,t_bool)": {
        "encoding": "mapping",
        "key": "t_address",
        "label": "mapping(address => bool)",
        "numberOfBytes": "32",
        "value": "t_bool"
      },
      "t_mapping(t_address,t_mapping(t_address,t_bool))": {
        "encoding": "mapping",
        "key": "t_address",
        "label": "mapping(address => mapping(address => bool))",
        "numberOfBytes": "32",
        "value": "t_mapping(t_address,t_bool)"
      },
      "t_mapping(t_address,t_mapping(t_uint256,t_uint256))": {
        "encoding": "mapping",
        "key": "t_address",
        "label": "mapping(address => mapping(uint256 => uint256))",
        "numberOfBytes": "32",
        "value": "t_mapping(t_uint256,t_uint256)"
      },
      "t_mapping(t_address,t_struct(Counter)10712_storage)": {
        "encoding": "mapping",
        "key": "t_address",
        "label": "mapping(address => struct Counters.Counter)",
        "numberOfBytes": "32",
        "value": "t_struct(Counter)10712_storage"
      },
      "t_mapping(t_address,t_uint256)": {
        "encoding": "mapping",
        "key": "t_address",
        "label": "mapping(address => uint256)",
        "numberOfBytes": "32",
        "value": "t_uint256"
      },
      "t_mapping(t_bytes32,t_struct(AddressSet)12229_storage)": {
        "encoding": "mapping",
        "key": "t_bytes32",
        "label": "mapping(bytes32 => struct EnumerableSet.AddressSet)",
        "numberOfBytes": "32",
        "value": "t_struct(AddressSet)12229_storage"
      },
      "t_mapping(t_bytes32,t_struct(RoleData)5052_storage)": {
        "encoding": "mapping",
        "key": "t_bytes32",
        "label": "mapping(bytes32 => struct AccessControl.RoleData)",
        "numberOfBytes": "32",
        "value": "t_struct(RoleData)5052_storage"
      },
      "t_mapping(t_bytes32,t_uint256)": {
        "encoding": "mapping",
        "key": "t_bytes32",
        "label": "mapping(bytes32 => uint256)",
        "numberOfBytes": "32",
        "value": "t_uint256"
      },
      "t_mapping(t_uint256,t_address)": {
        "encoding": "mapping",
        "key": "t_uint256",
        "label": "mapping(uint256 => address)",
        "numberOfBytes": "32",
        "value": "t_address"
      },
      "t_mapping(t_uint256,t_uint256)": {
        "encoding": "mapping",
        "key": "t_uint256",
        "label": "mapping(uint256 => uint256)",
        "numberOfBytes": "32",
        "value": "t_uint256"
      },
      "t_string_storage": {
        "encoding": "bytes",
        "label": "string",
        "numberOfBytes": "32"
      },
      "t_struct(AddressSet)12229_storage": {
        "encoding": "inplace",
        "label": "struct EnumerableSet.AddressSet",
        "members": [
          {
            "astId": 12228,
            "contract": "contracts/PromissoryNote.sol:PromissoryNote",
            "label": "_inner",
            "offset": 0,
            "slot": "0",
            "type": "t_struct(Set)11928_storage"
          }
        ],
        "numberOfBytes": "64"
      },
      "t_struct(Counter)10712_storage": {
        "encoding": "inplace",
        "label": "struct Counters.Counter",
        "members": [
          {
            "astId": 10711,
            "contract": "contracts/PromissoryNote.sol:PromissoryNote",
            "label": "_value",
            "offset": 0,
            "slot": "0",
            "type": "t_uint256"
          }
        ],
        "numberOfBytes": "32"
      },
      "t_struct(RoleData)5052_storage": {
        "encoding": "inplace",
        "label": "struct AccessControl.RoleData",
        "members": [
          {
            "astId": 5049,
            "contract": "contracts/PromissoryNote.sol:PromissoryNote",
            "label": "members",
            "offset": 0,
            "slot": "0",
            "type": "t_mapping(t_address,t_bool)"
          },
          {
            "astId": 5051,
            "contract": "contracts/PromissoryNote.sol:PromissoryNote",
            "label": "adminRole",
            "offset": 0,
            "slot": "1",
            "type": "t_bytes32"
          }
        ],
        "numberOfBytes": "64"
      },
      "t_struct(Set)11928_storage": {
        "encoding": "inplace",
        "label": "struct EnumerableSet.Set",
        "members": [
          {
            "astId": 11923,
            "contract": "contracts/PromissoryNote.sol:PromissoryNote",
            "label": "_values",
            "offset": 0,
            "slot": "0",
            "type": "t_array(t_bytes32)dyn_storage"
          },
          {
            "astId": 11927,
            "contract": "contracts/PromissoryNote.sol:PromissoryNote",
            "label": "_indexes",
            "offset": 0,
            "slot": "1",
            "type": "t_mapping(t_bytes32,t_uint256)"
          }
        ],
        "numberOfBytes": "64"
      },
      "t_uint256": {
        "encoding": "inplace",
        "label": "uint256",
        "numberOfBytes": "32"
      }
    }
  }
}