{
  "address": "0xB22C255250d74B0ADD1bfB936676D2a299BF48Bd",
  "abi": [
    {
      "anonymous": false,
      "inputs": [
        {
          "indexed": true,
          "internalType": "address",
          "name": "previousOwner",
          "type": "address"
        },
        {
          "indexed": true,
          "internalType": "address",
          "name": "newOwner",
          "type": "address"
        }
      ],
      "name": "OwnershipTransferred",
      "type": "event"
    },
    {
      "anonymous": false,
      "inputs": [
        {
          "indexed": true,
          "internalType": "bytes32",
          "name": "role",
          "type": "bytes32"
        },
        {
          "indexed": true,
          "internalType": "bytes32",
          "name": "previousAdminRole",
          "type": "bytes32"
        },
        {
          "indexed": true,
          "internalType": "bytes32",
          "name": "newAdminRole",
          "type": "bytes32"
        }
      ],
      "name": "RoleAdminChanged",
      "type": "event"
    },
    {
      "anonymous": false,
      "inputs": [
        {
          "indexed": true,
          "internalType": "bytes32",
          "name": "role",
          "type": "bytes32"
        },
        {
          "indexed": true,
          "internalType": "address",
          "name": "account",
          "type": "address"
        },
        {
          "indexed": true,
          "internalType": "address",
          "name": "sender",
          "type": "address"
        }
      ],
      "name": "RoleGranted",
      "type": "event"
    },
    {
      "anonymous": false,
      "inputs": [
        {
          "indexed": true,
          "internalType": "bytes32",
          "name": "role",
          "type": "bytes32"
        },
        {
          "indexed": true,
          "internalType": "address",
          "name": "account",
          "type": "address"
        },
        {
          "indexed": true,
          "internalType": "address",
          "name": "sender",
          "type": "address"
        }
      ],
      "name": "RoleRevoked",
      "type": "event"
    },
    {
      "anonymous": false,
      "inputs": [
        {
          "indexed": false,
          "internalType": "uint256",
          "name": "_newFee",
          "type": "uint256"
        }
      ],
      "name": "UpdateOriginationFee",
      "type": "event"
    },
    {
      "anonymous": false,
      "inputs": [
        {
          "indexed": false,
          "internalType": "uint256",
          "name": "_newFee",
          "type": "uint256"
        }
      ],
      "name": "UpdateRolloverFee",
      "type": "event"
    },
    {
      "inputs": [],
      "name": "DEFAULT_ADMIN_ROLE",
      "outputs": [
        {
          "internalType": "bytes32",
          "name": "",
          "type": "bytes32"
        }
      ],
      "stateMutability": "view",
      "type": "function"
    },
    {
      "inputs": [],
      "name": "getOriginationFee",
      "outputs": [
        {
          "internalType": "uint256",
          "name": "",
          "type": "uint256"
        }
      ],
      "stateMutability": "view",
      "type": "function"
    },
    {
      "inputs": [
        {
          "internalType": "bytes32",
          "name": "role",
          "type": "bytes32"
        }
      ],
      "name": "getRoleAdmin",
      "outputs": [
        {
          "internalType": "bytes32",
          "name": "",
          "type": "bytes32"
        }
      ],
      "stateMutability": "view",
      "type": "function"
    },
    {
      "inputs": [
        {
          "internalType": "bytes32",
          "name": "role",
          "type": "bytes32"
        },
        {
          "internalType": "uint256",
          "name": "index",
          "type": "uint256"
        }
      ],
      "name": "getRoleMember",
      "outputs": [
        {
          "internalType": "address",
          "name": "",
          "type": "address"
        }
      ],
      "stateMutability": "view",
      "type": "function"
    },
    {
      "inputs": [
        {
          "internalType": "bytes32",
          "name": "role",
          "type": "bytes32"
        }
      ],
      "name": "getRoleMemberCount",
      "outputs": [
        {
          "internalType": "uint256",
          "name": "",
          "type": "uint256"
        }
      ],
      "stateMutability": "view",
      "type": "function"
    },
    {
      "inputs": [],
      "name": "getRolloverFee",
      "outputs": [
        {
          "internalType": "uint256",
          "name": "",
          "type": "uint256"
        }
      ],
      "stateMutability": "view",
      "type": "function"
    },
    {
      "inputs": [
        {
          "internalType": "bytes32",
          "name": "role",
          "type": "bytes32"
        },
        {
          "internalType": "address",
          "name": "account",
          "type": "address"
        }
      ],
      "name": "grantRole",
      "outputs": [],
      "stateMutability": "nonpayable",
      "type": "function"
    },
    {
      "inputs": [
        {
          "internalType": "bytes32",
          "name": "role",
          "type": "bytes32"
        },
        {
          "internalType": "address",
          "name": "account",
          "type": "address"
        }
      ],
      "name": "hasRole",
      "outputs": [
        {
          "internalType": "bool",
          "name": "",
          "type": "bool"
        }
      ],
      "stateMutability": "view",
      "type": "function"
    },
    {
      "inputs": [],
      "name": "owner",
      "outputs": [
        {
          "internalType": "address",
          "name": "",
          "type": "address"
        }
      ],
      "stateMutability": "view",
      "type": "function"
    },
    {
      "inputs": [],
      "name": "renounceOwnership",
      "outputs": [],
      "stateMutability": "nonpayable",
      "type": "function"
    },
    {
      "inputs": [
        {
          "internalType": "bytes32",
          "name": "role",
          "type": "bytes32"
        },
        {
          "internalType": "address",
          "name": "account",
          "type": "address"
        }
      ],
      "name": "renounceRole",
      "outputs": [],
      "stateMutability": "nonpayable",
      "type": "function"
    },
    {
      "inputs": [
        {
          "internalType": "bytes32",
          "name": "role",
          "type": "bytes32"
        },
        {
          "internalType": "address",
          "name": "account",
          "type": "address"
        }
      ],
      "name": "revokeRole",
      "outputs": [],
      "stateMutability": "nonpayable",
      "type": "function"
    },
    {
      "inputs": [
        {
          "internalType": "uint256",
          "name": "_originationFee",
          "type": "uint256"
        }
      ],
      "name": "setOriginationFee",
      "outputs": [],
      "stateMutability": "nonpayable",
      "type": "function"
    },
    {
      "inputs": [
        {
          "internalType": "uint256",
          "name": "_rolloverFee",
          "type": "uint256"
        }
      ],
      "name": "setRolloverFee",
      "outputs": [],
      "stateMutability": "nonpayable",
      "type": "function"
    },
    {
      "inputs": [
        {
          "internalType": "bytes4",
          "name": "interfaceId",
          "type": "bytes4"
        }
      ],
      "name": "supportsInterface",
      "outputs": [
        {
          "internalType": "bool",
          "name": "",
          "type": "bool"
        }
      ],
      "stateMutability": "view",
      "type": "function"
    },
    {
      "inputs": [
        {
          "internalType": "address",
          "name": "newOwner",
          "type": "address"
        }
      ],
      "name": "transferOwnership",
      "outputs": [],
      "stateMutability": "nonpayable",
      "type": "function"
    }
  ],
  "transactionHash": "0x1c42da53d34f0aa26f4bff8ac16e3c4207a3f54b8c1e88d77643a07fe6b6dd5a",
  "args": [],
  "numDeployments": 1,
  "solcInputHash": "a1cd719426b304bc168f22b2f267e710",
  "bytecode": "0x60806040526032600355600a60045534801561001a57600080fd5b5061003761002c61003c60201b60201c565b61004460201b60201c565b61010a565b600033905090565b6000600260009054906101000a900473ffffffffffffffffffffffffffffffffffffffff16905081600260006101000a81548173ffffffffffffffffffffffffffffffffffffffff021916908373ffffffffffffffffffffffffffffffffffffffff1602179055508173ffffffffffffffffffffffffffffffffffffffff168173ffffffffffffffffffffffffffffffffffffffff167f8be0079c531659141344cd1fd0a4f28419497f9722a3daafe3b4186f6b6457e060405160405180910390a35050565b611a8e806101196000396000f3fe608060405234801561001057600080fd5b50600436106101005760003560e01c80639010d07c11610097578063ca15c87311610066578063ca15c87314610299578063d547741f146102c9578063f2fde38b146102e5578063fc2e39a61461030157610100565b80639010d07c146101ff57806391d148541461022f57806396c7c8de1461025f578063a217fddf1461027b57610100565b806336568abe116100d357806336568abe1461019f578063715018a6146101bb5780637f2006a0146101c55780638da5cb5b146101e157610100565b806301ffc9a7146101055780632283487d14610135578063248a9ca3146101535780632f2ff15d14610183575b600080fd5b61011f600480360381019061011a9190611240565b61031f565b60405161012c9190611288565b60405180910390f35b61013d610399565b60405161014a91906112bc565b60405180910390f35b61016d6004803603810190610168919061130d565b6103a3565b60405161017a9190611349565b60405180910390f35b61019d600480360381019061019891906113c2565b6103c2565b005b6101b960048036038101906101b491906113c2565b6103f6565b005b6101c361042a565b005b6101df60048036038101906101da919061142e565b6104b2565b005b6101e961056f565b6040516101f6919061146a565b60405180910390f35b61021960048036038101906102149190611485565b610599565b604051610226919061146a565b60405180910390f35b610249600480360381019061024491906113c2565b6105c8565b6040516102569190611288565b60405180910390f35b6102796004803603810190610274919061142e565b610632565b005b6102836106ef565b6040516102909190611349565b60405180910390f35b6102b360048036038101906102ae919061130d565b6106f6565b6040516102c091906112bc565b60405180910390f35b6102e360048036038101906102de91906113c2565b61071a565b005b6102ff60048036038101906102fa91906114c5565b61074e565b005b610309610846565b60405161031691906112bc565b60405180910390f35b60007f5a05180f000000000000000000000000000000000000000000000000000000007bffffffffffffffffffffffffffffffffffffffffffffffffffffffff1916827bffffffffffffffffffffffffffffffffffffffffffffffffffffffff19161480610392575061039182610850565b5b9050919050565b6000600454905090565b6000806000838152602001908152602001600020600101549050919050565b6103cc82826108ca565b6103f181600160008581526020019081526020016000206108f390919063ffffffff16565b505050565b6104008282610923565b61042581600160008581526020019081526020016000206109a690919063ffffffff16565b505050565b6104326109d6565b73ffffffffffffffffffffffffffffffffffffffff1661045061056f565b73ffffffffffffffffffffffffffffffffffffffff16146104a6576040517f08c379a000000000000000000000000000000000000000000000000000000000815260040161049d9061154f565b60405180910390fd5b6104b060006109de565b565b6104ba6109d6565b73ffffffffffffffffffffffffffffffffffffffff166104d861056f565b73ffffffffffffffffffffffffffffffffffffffff161461052e576040517f08c379a00000000000000000000000000000000000000000000000000000000081526004016105259061154f565b60405180910390fd5b806003819055507f9332eb53f897ef131d22653f075bec7267653c207ce387d80fc8521b878c62968160405161056491906112bc565b60405180910390a150565b6000600260009054906101000a900473ffffffffffffffffffffffffffffffffffffffff16905090565b60006105c08260016000868152602001908152602001600020610aa490919063ffffffff16565b905092915050565b600080600084815260200190815260200160002060000160008373ffffffffffffffffffffffffffffffffffffffff1673ffffffffffffffffffffffffffffffffffffffff16815260200190815260200160002060009054906101000a900460ff16905092915050565b61063a6109d6565b73ffffffffffffffffffffffffffffffffffffffff1661065861056f565b73ffffffffffffffffffffffffffffffffffffffff16146106ae576040517f08c379a00000000000000000000000000000000000000000000000000000000081526004016106a59061154f565b60405180910390fd5b806004819055507f44b0c2cef7e7d9cc2cf577599fce62a2e5429c8d7218d8beddd5a6a00a94e7e9816040516106e491906112bc565b60405180910390a150565b6000801b81565b600061071360016000848152602001908152602001600020610abe565b9050919050565b6107248282610ad3565b61074981600160008581526020019081526020016000206109a690919063ffffffff16565b505050565b6107566109d6565b73ffffffffffffffffffffffffffffffffffffffff1661077461056f565b73ffffffffffffffffffffffffffffffffffffffff16146107ca576040517f08c379a00000000000000000000000000000000000000000000000000000000081526004016107c19061154f565b60405180910390fd5b600073ffffffffffffffffffffffffffffffffffffffff168173ffffffffffffffffffffffffffffffffffffffff16141561083a576040517f08c379a0000000000000000000000000000000000000000000000000000000008152600401610831906115e1565b60405180910390fd5b610843816109de565b50565b6000600354905090565b60007f7965db0b000000000000000000000000000000000000000000000000000000007bffffffffffffffffffffffffffffffffffffffffffffffffffffffff1916827bffffffffffffffffffffffffffffffffffffffffffffffffffffffff191614806108c357506108c282610afc565b5b9050919050565b6108d3826103a3565b6108e4816108df6109d6565b610b66565b6108ee8383610c03565b505050565b600061091b836000018373ffffffffffffffffffffffffffffffffffffffff1660001b610ce3565b905092915050565b61092b6109d6565b73ffffffffffffffffffffffffffffffffffffffff168173ffffffffffffffffffffffffffffffffffffffff1614610998576040517f08c379a000000000000000000000000000000000000000000000000000000000815260040161098f90611673565b60405180910390fd5b6109a28282610d53565b5050565b60006109ce836000018373ffffffffffffffffffffffffffffffffffffffff1660001b610e34565b905092915050565b600033905090565b6000600260009054906101000a900473ffffffffffffffffffffffffffffffffffffffff16905081600260006101000a81548173ffffffffffffffffffffffffffffffffffffffff021916908373ffffffffffffffffffffffffffffffffffffffff1602179055508173ffffffffffffffffffffffffffffffffffffffff168173ffffffffffffffffffffffffffffffffffffffff167f8be0079c531659141344cd1fd0a4f28419497f9722a3daafe3b4186f6b6457e060405160405180910390a35050565b6000610ab38360000183610f48565b60001c905092915050565b6000610acc82600001610f73565b9050919050565b610adc826103a3565b610aed81610ae86109d6565b610b66565b610af78383610d53565b505050565b60007f01ffc9a7000000000000000000000000000000000000000000000000000000007bffffffffffffffffffffffffffffffffffffffffffffffffffffffff1916827bffffffffffffffffffffffffffffffffffffffffffffffffffffffff1916149050919050565b610b7082826105c8565b610bff57610b958173ffffffffffffffffffffffffffffffffffffffff166014610f84565b610ba38360001c6020610f84565b604051602001610bb49291906117a5565b6040516020818303038152906040526040517f08c379a0000000000000000000000000000000000000000000000000000000008152600401610bf69190611829565b60405180910390fd5b5050565b610c0d82826105c8565b610cdf57600160008084815260200190815260200160002060000160008373ffffffffffffffffffffffffffffffffffffffff1673ffffffffffffffffffffffffffffffffffffffff16815260200190815260200160002060006101000a81548160ff021916908315150217905550610c846109d6565b73ffffffffffffffffffffffffffffffffffffffff168173ffffffffffffffffffffffffffffffffffffffff16837f2f8788117e7eff1d82e926ec794901d17c78024a50270940304540a733656f0d60405160405180910390a45b5050565b6000610cef83836111c0565b610d48578260000182908060018154018082558091505060019003906000526020600020016000909190919091505582600001805490508360010160008481526020019081526020016000208190555060019050610d4d565b600090505b92915050565b610d5d82826105c8565b15610e3057600080600084815260200190815260200160002060000160008373ffffffffffffffffffffffffffffffffffffffff1673ffffffffffffffffffffffffffffffffffffffff16815260200190815260200160002060006101000a81548160ff021916908315150217905550610dd56109d6565b73ffffffffffffffffffffffffffffffffffffffff168173ffffffffffffffffffffffffffffffffffffffff16837ff6391f5c32d9c69d2a47ea670b442974b53935d1edc7fd64eb21e047a839171b60405160405180910390a45b5050565b60008083600101600084815260200190815260200160002054905060008114610f3c576000600182610e66919061187a565b9050600060018660000180549050610e7e919061187a565b9050818114610eed576000866000018281548110610e9f57610e9e6118ae565b5b9060005260206000200154905080876000018481548110610ec357610ec26118ae565b5b90600052602060002001819055508387600101600083815260200190815260200160002081905550505b85600001805480610f0157610f006118dd565b5b600190038181906000526020600020016000905590558560010160008681526020019081526020016000206000905560019350505050610f42565b60009150505b92915050565b6000826000018281548110610f6057610f5f6118ae565b5b9060005260206000200154905092915050565b600081600001805490509050919050565b606060006002836002610f97919061190c565b610fa19190611966565b67ffffffffffffffff811115610fba57610fb96119bc565b5b6040519080825280601f01601f191660200182016040528015610fec5781602001600182028036833780820191505090505b5090507f300000000000000000000000000000000000000000000000000000000000000081600081518110611024576110236118ae565b5b60200101907effffffffffffffffffffffffffffffffffffffffffffffffffffffffffffff1916908160001a9053507f780000000000000000000000000000000000000000000000000000000000000081600181518110611088576110876118ae565b5b60200101907effffffffffffffffffffffffffffffffffffffffffffffffffffffffffffff1916908160001a905350600060018460026110c8919061190c565b6110d29190611966565b90505b6001811115611172577f3031323334353637383961626364656600000000000000000000000000000000600f861660108110611114576111136118ae565b5b1a60f81b82828151811061112b5761112a6118ae565b5b60200101907effffffffffffffffffffffffffffffffffffffffffffffffffffffffffffff1916908160001a905350600485901c94508061116b906119eb565b90506110d5565b50600084146111b6576040517f08c379a00000000000000000000000000000000000000000000000000000000081526004016111ad90611a61565b60405180910390fd5b8091505092915050565b600080836001016000848152602001908152602001600020541415905092915050565b600080fd5b60007fffffffff0000000000000000000000000000000000000000000000000000000082169050919050565b61121d816111e8565b811461122857600080fd5b50565b60008135905061123a81611214565b92915050565b600060208284031215611256576112556111e3565b5b60006112648482850161122b565b91505092915050565b60008115159050919050565b6112828161126d565b82525050565b600060208201905061129d6000830184611279565b92915050565b6000819050919050565b6112b6816112a3565b82525050565b60006020820190506112d160008301846112ad565b92915050565b6000819050919050565b6112ea816112d7565b81146112f557600080fd5b50565b600081359050611307816112e1565b92915050565b600060208284031215611323576113226111e3565b5b6000611331848285016112f8565b91505092915050565b611343816112d7565b82525050565b600060208201905061135e600083018461133a565b92915050565b600073ffffffffffffffffffffffffffffffffffffffff82169050919050565b600061138f82611364565b9050919050565b61139f81611384565b81146113aa57600080fd5b50565b6000813590506113bc81611396565b92915050565b600080604083850312156113d9576113d86111e3565b5b60006113e7858286016112f8565b92505060206113f8858286016113ad565b9150509250929050565b61140b816112a3565b811461141657600080fd5b50565b60008135905061142881611402565b92915050565b600060208284031215611444576114436111e3565b5b600061145284828501611419565b91505092915050565b61146481611384565b82525050565b600060208201905061147f600083018461145b565b92915050565b6000806040838503121561149c5761149b6111e3565b5b60006114aa858286016112f8565b92505060206114bb85828601611419565b9150509250929050565b6000602082840312156114db576114da6111e3565b5b60006114e9848285016113ad565b91505092915050565b600082825260208201905092915050565b7f4f776e61626c653a2063616c6c6572206973206e6f7420746865206f776e6572600082015250565b60006115396020836114f2565b915061154482611503565b602082019050919050565b600060208201905081810360008301526115688161152c565b9050919050565b7f4f776e61626c653a206e6577206f776e657220697320746865207a65726f206160008201527f6464726573730000000000000000000000000000000000000000000000000000602082015250565b60006115cb6026836114f2565b91506115d68261156f565b604082019050919050565b600060208201905081810360008301526115fa816115be565b9050919050565b7f416363657373436f6e74726f6c3a2063616e206f6e6c792072656e6f756e636560008201527f20726f6c657320666f722073656c660000000000000000000000000000000000602082015250565b600061165d602f836114f2565b915061166882611601565b604082019050919050565b6000602082019050818103600083015261168c81611650565b9050919050565b600081905092915050565b7f416363657373436f6e74726f6c3a206163636f756e7420000000000000000000600082015250565b60006116d4601783611693565b91506116df8261169e565b601782019050919050565b600081519050919050565b60005b838110156117135780820151818401526020810190506116f8565b83811115611722576000848401525b50505050565b6000611733826116ea565b61173d8185611693565b935061174d8185602086016116f5565b80840191505092915050565b7f206973206d697373696e6720726f6c6520000000000000000000000000000000600082015250565b600061178f601183611693565b915061179a82611759565b601182019050919050565b60006117b0826116c7565b91506117bc8285611728565b91506117c782611782565b91506117d38284611728565b91508190509392505050565b6000601f19601f8301169050919050565b60006117fb826116ea565b61180581856114f2565b93506118158185602086016116f5565b61181e816117df565b840191505092915050565b6000602082019050818103600083015261184381846117f0565b905092915050565b7f4e487b7100000000000000000000000000000000000000000000000000000000600052601160045260246000fd5b6000611885826112a3565b9150611890836112a3565b9250828210156118a3576118a261184b565b5b828203905092915050565b7f4e487b7100000000000000000000000000000000000000000000000000000000600052603260045260246000fd5b7f4e487b7100000000000000000000000000000000000000000000000000000000600052603160045260246000fd5b6000611917826112a3565b9150611922836112a3565b9250817fffffffffffffffffffffffffffffffffffffffffffffffffffffffffffffffff048311821515161561195b5761195a61184b565b5b828202905092915050565b6000611971826112a3565b915061197c836112a3565b9250827fffffffffffffffffffffffffffffffffffffffffffffffffffffffffffffffff038211156119b1576119b061184b565b5b828201905092915050565b7f4e487b7100000000000000000000000000000000000000000000000000000000600052604160045260246000fd5b60006119f6826112a3565b91506000821415611a0a57611a0961184b565b5b600182039050919050565b7f537472696e67733a20686578206c656e67746820696e73756666696369656e74600082015250565b6000611a4b6020836114f2565b9150611a5682611a15565b602082019050919050565b60006020820190508181036000830152611a7a81611a3e565b905091905056fea164736f6c634300080b000a",
  "devdoc": {
    "author": "Non-Fungible Technologies, Inc. The Fee Controller is used by LoanCore to query for fees for different loan lifecycle interactions (origiations, rollovers, etc). All fees should have setters and getters and be expressed in BPs. In the future, this contract could be extended to support more complext logic (introducing a mapping of users who get a discount, e.g.). Since LoanCore can change the fee controller reference, any changes to this contract can be newly deployed on-chain and adopted.",
    "kind": "dev",
    "methods": {
      "getOriginationFee()": {
        "returns": {
          "_0": "originationFee       The current fee in bps."
        }
      },
      "getRoleAdmin(bytes32)": {
        "details": "Returns the admin role that controls `role`. See {grantRole} and {revokeRole}. To change a role's admin, use {_setRoleAdmin}."
      },
      "getRoleMember(bytes32,uint256)": {
        "details": "Returns one of the accounts that have `role`. `index` must be a value between 0 and {getRoleMemberCount}, non-inclusive. Role bearers are not sorted in any particular way, and their ordering may change at any point. WARNING: When using {getRoleMember} and {getRoleMemberCount}, make sure you perform all queries on the same block. See the following https://forum.openzeppelin.com/t/iterating-over-elements-on-enumerableset-in-openzeppelin-contracts/2296[forum post] for more information."
      },
      "getRoleMemberCount(bytes32)": {
        "details": "Returns the number of accounts that have `role`. Can be used together with {getRoleMember} to enumerate all bearers of a role."
      },
      "getRolloverFee()": {
        "returns": {
          "_0": "rolloverFee       The current fee in bps."
        }
      },
      "grantRole(bytes32,address)": {
        "details": "Overload {grantRole} to track enumerable memberships"
      },
      "hasRole(bytes32,address)": {
        "details": "Returns `true` if `account` has been granted `role`."
      },
      "owner()": {
        "details": "Returns the address of the current owner."
      },
      "renounceOwnership()": {
        "details": "Leaves the contract without owner. It will not be possible to call `onlyOwner` functions anymore. Can only be called by the current owner. NOTE: Renouncing ownership will leave the contract without an owner, thereby removing any functionality that is only available to the owner."
      },
      "renounceRole(bytes32,address)": {
        "details": "Overload {renounceRole} to track enumerable memberships"
      },
      "revokeRole(bytes32,address)": {
        "details": "Overload {revokeRole} to track enumerable memberships"
      },
      "setOriginationFee(uint256)": {
        "params": {
          "_originationFee": "The new origination fee, in bps."
        }
      },
      "setRolloverFee(uint256)": {
        "params": {
          "_rolloverFee": "The new rollover fee, in bps."
        }
      },
      "supportsInterface(bytes4)": {
        "details": "See {IERC165-supportsInterface}."
      },
      "transferOwnership(address)": {
        "details": "Transfers ownership of the contract to a new account (`newOwner`). Can only be called by the current owner."
      }
    },
    "stateVariables": {
      "originationFee": {
        "details": "Fee for origination - default is 0.5%"
      },
      "rolloverFee": {
        "details": "Fee for rollovers - default is 0.1%"
      }
    },
    "title": "FeeController",
    "version": 1
  },
  "userdoc": {
    "kind": "user",
    "methods": {
      "getOriginationFee()": {
        "notice": "Get the current origination fee in bps."
      },
      "getRolloverFee()": {
        "notice": "Get the current origination fee in bps."
      },
      "setOriginationFee(uint256)": {
        "notice": "Set the origination fee to the given value. The caller         must be the owner of the contract."
      },
      "setRolloverFee(uint256)": {
        "notice": "Set the origination fee to the given value. The caller         must be the owner of the contract."
      }
    },
    "version": 1
  },
  "storageLayout": {
    "storage": [
      {
        "astId": 5057,
        "contract": "contracts/FeeController.sol:FeeController",
        "label": "_roles",
        "offset": 0,
        "slot": "0",
        "type": "t_mapping(t_bytes32,t_struct(RoleData)5052_storage)"
      },
      {
        "astId": 5358,
        "contract": "contracts/FeeController.sol:FeeController",
        "label": "_roleMembers",
        "offset": 0,
        "slot": "1",
        "type": "t_mapping(t_bytes32,t_struct(AddressSet)12229_storage)"
      },
      {
        "astId": 5624,
        "contract": "contracts/FeeController.sol:FeeController",
        "label": "_owner",
        "offset": 0,
        "slot": "2",
        "type": "t_address"
      },
      {
        "astId": 12953,
        "contract": "contracts/FeeController.sol:FeeController",
        "label": "originationFee",
        "offset": 0,
        "slot": "3",
        "type": "t_uint256"
      },
      {
        "astId": 12957,
        "contract": "contracts/FeeController.sol:FeeController",
        "label": "rolloverFee",
        "offset": 0,
        "slot": "4",
        "type": "t_uint256"
      }
    ],
    "types": {
      "t_address": {
        "encoding": "inplace",
        "label": "address",
        "numberOfBytes": "20"
      },
      "t_array(t_bytes32)dyn_storage": {
        "base": "t_bytes32",
        "encoding": "dynamic_array",
        "label": "bytes32[]",
        "numberOfBytes": "32"
      },
      "t_bool": {
        "encoding": "inplace",
        "label": "bool",
        "numberOfBytes": "1"
      },
      "t_bytes32": {
        "encoding": "inplace",
        "label": "bytes32",
        "numberOfBytes": "32"
      },
      "t_mapping(t_address,t_bool)": {
        "encoding": "mapping",
        "key": "t_address",
        "label": "mapping(address => bool)",
        "numberOfBytes": "32",
        "value": "t_bool"
      },
      "t_mapping(t_bytes32,t_struct(AddressSet)12229_storage)": {
        "encoding": "mapping",
        "key": "t_bytes32",
        "label": "mapping(bytes32 => struct EnumerableSet.AddressSet)",
        "numberOfBytes": "32",
        "value": "t_struct(AddressSet)12229_storage"
      },
      "t_mapping(t_bytes32,t_struct(RoleData)5052_storage)": {
        "encoding": "mapping",
        "key": "t_bytes32",
        "label": "mapping(bytes32 => struct AccessControl.RoleData)",
        "numberOfBytes": "32",
        "value": "t_struct(RoleData)5052_storage"
      },
      "t_mapping(t_bytes32,t_uint256)": {
        "encoding": "mapping",
        "key": "t_bytes32",
        "label": "mapping(bytes32 => uint256)",
        "numberOfBytes": "32",
        "value": "t_uint256"
      },
      "t_struct(AddressSet)12229_storage": {
        "encoding": "inplace",
        "label": "struct EnumerableSet.AddressSet",
        "members": [
          {
            "astId": 12228,
            "contract": "contracts/FeeController.sol:FeeController",
            "label": "_inner",
            "offset": 0,
            "slot": "0",
            "type": "t_struct(Set)11928_storage"
          }
        ],
        "numberOfBytes": "64"
      },
      "t_struct(RoleData)5052_storage": {
        "encoding": "inplace",
        "label": "struct AccessControl.RoleData",
        "members": [
          {
            "astId": 5049,
            "contract": "contracts/FeeController.sol:FeeController",
            "label": "members",
            "offset": 0,
            "slot": "0",
            "type": "t_mapping(t_address,t_bool)"
          },
          {
            "astId": 5051,
            "contract": "contracts/FeeController.sol:FeeController",
            "label": "adminRole",
            "offset": 0,
            "slot": "1",
            "type": "t_bytes32"
          }
        ],
        "numberOfBytes": "64"
      },
      "t_struct(Set)11928_storage": {
        "encoding": "inplace",
        "label": "struct EnumerableSet.Set",
        "members": [
          {
            "astId": 11923,
            "contract": "contracts/FeeController.sol:FeeController",
            "label": "_values",
            "offset": 0,
            "slot": "0",
            "type": "t_array(t_bytes32)dyn_storage"
          },
          {
            "astId": 11927,
            "contract": "contracts/FeeController.sol:FeeController",
            "label": "_indexes",
            "offset": 0,
            "slot": "1",
            "type": "t_mapping(t_bytes32,t_uint256)"
          }
        ],
        "numberOfBytes": "64"
      },
      "t_uint256": {
        "encoding": "inplace",
        "label": "uint256",
        "numberOfBytes": "32"
      }
    }
  }
}