{
  "address": "0x018CAf8f9f5273D9B83d8eec38e0135aE6FC61b2",
  "abi": [
    {
      "inputs": [],
      "stateMutability": "nonpayable",
      "type": "constructor"
    },
    {
      "inputs": [
        {
          "internalType": "address",
          "name": "ownershipToken",
          "type": "address"
        }
      ],
      "name": "AV_AlreadyInitialized",
      "type": "error"
    },
    {
      "inputs": [
        {
          "internalType": "address",
          "name": "caller",
          "type": "address"
        }
      ],
      "name": "AV_CallDisallowed",
      "type": "error"
    },
    {
      "inputs": [
        {
          "internalType": "address",
          "name": "to",
          "type": "address"
        },
        {
          "internalType": "bytes4",
          "name": "data",
          "type": "bytes4"
        }
      ],
      "name": "AV_NonWhitelistedCall",
      "type": "error"
    },
    {
      "inputs": [],
      "name": "AV_WithdrawsDisabled",
      "type": "error"
    },
    {
      "inputs": [],
      "name": "AV_WithdrawsEnabled",
      "type": "error"
    },
    {
      "inputs": [
        {
          "internalType": "address",
          "name": "caller",
          "type": "address"
        }
      ],
      "name": "OERC721_CallerNotOwner",
      "type": "error"
    },
    {
      "anonymous": false,
      "inputs": [
        {
          "indexed": true,
          "internalType": "address",
          "name": "operator",
          "type": "address"
        },
        {
          "indexed": true,
          "internalType": "address",
          "name": "to",
          "type": "address"
        },
        {
          "indexed": false,
          "internalType": "bytes",
          "name": "data",
          "type": "bytes"
        }
      ],
      "name": "Call",
      "type": "event"
    },
    {
      "anonymous": false,
      "inputs": [
        {
          "indexed": true,
          "internalType": "address",
          "name": "operator",
          "type": "address"
        },
        {
          "indexed": true,
          "internalType": "address",
          "name": "token",
          "type": "address"
        },
        {
          "indexed": false,
          "internalType": "address",
          "name": "recipient",
          "type": "address"
        },
        {
          "indexed": false,
          "internalType": "uint256",
          "name": "tokenId",
          "type": "uint256"
        },
        {
          "indexed": false,
          "internalType": "uint256",
          "name": "amount",
          "type": "uint256"
        }
      ],
      "name": "WithdrawERC1155",
      "type": "event"
    },
    {
      "anonymous": false,
      "inputs": [
        {
          "indexed": true,
          "internalType": "address",
          "name": "operator",
          "type": "address"
        },
        {
          "indexed": true,
          "internalType": "address",
          "name": "token",
          "type": "address"
        },
        {
          "indexed": false,
          "internalType": "address",
          "name": "recipient",
          "type": "address"
        },
        {
          "indexed": false,
          "internalType": "uint256",
          "name": "amount",
          "type": "uint256"
        }
      ],
      "name": "WithdrawERC20",
      "type": "event"
    },
    {
      "anonymous": false,
      "inputs": [
        {
          "indexed": true,
          "internalType": "address",
          "name": "operator",
          "type": "address"
        },
        {
          "indexed": true,
          "internalType": "address",
          "name": "token",
          "type": "address"
        },
        {
          "indexed": false,
          "internalType": "address",
          "name": "recipient",
          "type": "address"
        },
        {
          "indexed": false,
          "internalType": "uint256",
          "name": "tokenId",
          "type": "uint256"
        }
      ],
      "name": "WithdrawERC721",
      "type": "event"
    },
    {
      "anonymous": false,
      "inputs": [
        {
          "indexed": true,
          "internalType": "address",
          "name": "operator",
          "type": "address"
        },
        {
          "indexed": true,
          "internalType": "address",
          "name": "recipient",
          "type": "address"
        },
        {
          "indexed": false,
          "internalType": "uint256",
          "name": "amount",
          "type": "uint256"
        }
      ],
      "name": "WithdrawETH",
      "type": "event"
    },
    {
      "anonymous": false,
      "inputs": [
        {
          "indexed": false,
          "internalType": "address",
          "name": "operator",
          "type": "address"
        }
      ],
      "name": "WithdrawEnabled",
      "type": "event"
    },
    {
      "inputs": [
        {
          "internalType": "address",
          "name": "to",
          "type": "address"
        },
        {
          "internalType": "bytes",
          "name": "data",
          "type": "bytes"
        }
      ],
      "name": "call",
      "outputs": [],
      "stateMutability": "nonpayable",
      "type": "function"
    },
    {
      "inputs": [],
      "name": "enableWithdraw",
      "outputs": [],
      "stateMutability": "nonpayable",
      "type": "function"
    },
    {
      "inputs": [
        {
          "internalType": "address",
          "name": "_whitelist",
          "type": "address"
        }
      ],
      "name": "initialize",
      "outputs": [],
      "stateMutability": "nonpayable",
      "type": "function"
    },
    {
      "inputs": [
        {
          "internalType": "address",
          "name": "",
          "type": "address"
        },
        {
          "internalType": "address",
          "name": "",
          "type": "address"
        },
        {
          "internalType": "uint256[]",
          "name": "",
          "type": "uint256[]"
        },
        {
          "internalType": "uint256[]",
          "name": "",
          "type": "uint256[]"
        },
        {
          "internalType": "bytes",
          "name": "",
          "type": "bytes"
        }
      ],
      "name": "onERC1155BatchReceived",
      "outputs": [
        {
          "internalType": "bytes4",
          "name": "",
          "type": "bytes4"
        }
      ],
      "stateMutability": "nonpayable",
      "type": "function"
    },
    {
      "inputs": [
        {
          "internalType": "address",
          "name": "",
          "type": "address"
        },
        {
          "internalType": "address",
          "name": "",
          "type": "address"
        },
        {
          "internalType": "uint256",
          "name": "",
          "type": "uint256"
        },
        {
          "internalType": "uint256",
          "name": "",
          "type": "uint256"
        },
        {
          "internalType": "bytes",
          "name": "",
          "type": "bytes"
        }
      ],
      "name": "onERC1155Received",
      "outputs": [
        {
          "internalType": "bytes4",
          "name": "",
          "type": "bytes4"
        }
      ],
      "stateMutability": "nonpayable",
      "type": "function"
    },
    {
      "inputs": [
        {
          "internalType": "address",
          "name": "",
          "type": "address"
        },
        {
          "internalType": "address",
          "name": "",
          "type": "address"
        },
        {
          "internalType": "uint256",
          "name": "",
          "type": "uint256"
        },
        {
          "internalType": "bytes",
          "name": "",
          "type": "bytes"
        }
      ],
      "name": "onERC721Received",
      "outputs": [
        {
          "internalType": "bytes4",
          "name": "",
          "type": "bytes4"
        }
      ],
      "stateMutability": "nonpayable",
      "type": "function"
    },
    {
      "inputs": [],
      "name": "owner",
      "outputs": [
        {
          "internalType": "address",
          "name": "ownerAddress",
          "type": "address"
        }
      ],
      "stateMutability": "view",
      "type": "function"
    },
    {
      "inputs": [],
      "name": "ownershipToken",
      "outputs": [
        {
          "internalType": "address",
          "name": "",
          "type": "address"
        }
      ],
      "stateMutability": "view",
      "type": "function"
    },
    {
      "inputs": [
        {
          "internalType": "bytes4",
          "name": "interfaceId",
          "type": "bytes4"
        }
      ],
      "name": "supportsInterface",
      "outputs": [
        {
          "internalType": "bool",
          "name": "",
          "type": "bool"
        }
      ],
      "stateMutability": "view",
      "type": "function"
    },
    {
      "inputs": [],
      "name": "whitelist",
      "outputs": [
        {
          "internalType": "contract ICallWhitelist",
          "name": "",
          "type": "address"
        }
      ],
      "stateMutability": "view",
      "type": "function"
    },
    {
      "inputs": [
        {
          "internalType": "address",
          "name": "token",
          "type": "address"
        },
        {
          "internalType": "uint256",
          "name": "tokenId",
          "type": "uint256"
        },
        {
          "internalType": "address",
          "name": "to",
          "type": "address"
        }
      ],
      "name": "withdrawERC1155",
      "outputs": [],
      "stateMutability": "nonpayable",
      "type": "function"
    },
    {
      "inputs": [
        {
          "internalType": "address",
          "name": "token",
          "type": "address"
        },
        {
          "internalType": "address",
          "name": "to",
          "type": "address"
        }
      ],
      "name": "withdrawERC20",
      "outputs": [],
      "stateMutability": "nonpayable",
      "type": "function"
    },
    {
      "inputs": [
        {
          "internalType": "address",
          "name": "token",
          "type": "address"
        },
        {
          "internalType": "uint256",
          "name": "tokenId",
          "type": "uint256"
        },
        {
          "internalType": "address",
          "name": "to",
          "type": "address"
        }
      ],
      "name": "withdrawERC721",
      "outputs": [],
      "stateMutability": "nonpayable",
      "type": "function"
    },
    {
      "inputs": [
        {
          "internalType": "address",
          "name": "to",
          "type": "address"
        }
      ],
      "name": "withdrawETH",
      "outputs": [],
      "stateMutability": "nonpayable",
      "type": "function"
    },
    {
      "inputs": [],
      "name": "withdrawEnabled",
      "outputs": [
        {
          "internalType": "bool",
          "name": "",
          "type": "bool"
        }
      ],
      "stateMutability": "view",
      "type": "function"
    },
    {
      "stateMutability": "payable",
      "type": "receive"
    }
  ],
  "transactionHash": "0x19a3ed11076aeacb22a1ca03a3cabcb7db8b1483413ec6d9da130402e46f1cee",
  "args": [],
  "numDeployments": 1,
  "solcInputHash": "5822da5cdcb5ff1446980bc3993c012a",
  "bytecode": "0x608060405234801561001057600080fd5b5060018080556002805460ff191690911790556100373361003c602090811b610cb117901c565b61005e565b600080546001600160a01b0319166001600160a01b0392909216919091179055565b6116e18061006d6000396000f3fe6080604052600436106100ec5760003560e01c80637b9f76b51161008a5780639456fbcc116100595780639456fbcc14610294578063bc197c81146102b4578063c4d66de8146102e0578063f23a6e611461030057600080fd5b80637b9f76b51461021a5780638da5cb5b1461023a57806392e6b3441461024f57806393e59dc11461026f57600080fd5b80632287e96a116100c65780632287e96a146101935780635b984ff6146101ad578063690d8320146101c25780637b3d9af7146101e257600080fd5b806301ffc9a7146100f8578063150b7a021461012d5780631b8b921d1461017157600080fd5b366100f357005b600080fd5b34801561010457600080fd5b50610118610113366004611143565b61032c565b60405190151581526020015b60405180910390f35b34801561013957600080fd5b5061015861014836600461123c565b630a85bd0160e11b949350505050565b6040516001600160e01b03199091168152602001610124565b34801561017d57600080fd5b5061019161018c3660046112a8565b610363565b005b34801561019f57600080fd5b506002546101189060ff1681565b3480156101b957600080fd5b50610191610606565b3480156101ce57600080fd5b506101916101dd36600461132d565b61069e565b3480156101ee57600080fd5b50600054610202906001600160a01b031681565b6040516001600160a01b039091168152602001610124565b34801561022657600080fd5b5061019161023536600461134a565b6107a7565b34801561024657600080fd5b506102026108b2565b34801561025b57600080fd5b5061019161026a36600461134a565b6108c1565b34801561027b57600080fd5b506002546102029061010090046001600160a01b031681565b3480156102a057600080fd5b506101916102af36600461138c565b610a5e565b3480156102c057600080fd5b506101586102cf36600461143a565b63bc197c8160e01b95945050505050565b3480156102ec57600080fd5b506101916102fb36600461132d565b610b79565b34801561030c57600080fd5b5061015861031b3660046114e8565b63f23a6e6160e01b95945050505050565b60006001600160e01b03198216630271189760e51b148061035d57506301ffc9a760e01b6001600160e01b03198316145b92915050565b60025460ff161561038757604051631001146b60e11b815260040160405180910390fd5b600260015414156103df5760405162461bcd60e51b815260206004820152601f60248201527f5265656e7472616e637947756172643a207265656e7472616e742063616c6c0060448201526064015b60405180910390fd5b60026001556103ec6108b2565b6001600160a01b0316336001600160a01b03161415801561048257506104106108b2565b604051631727adb360e11b81523360048201523060248201526001600160a01b039190911690632e4f5b6690604401602060405180830381865afa15801561045c573d6000803e3d6000fd5b505050506040513d601f19601f820116820180604052508101906104809190611551565b155b156104a2576040516395bb88d360e01b81523360048201526024016103d6565b60025461010090046001600160a01b0316631c0554ba846104c7600460008688611573565b6104d09161159d565b6040518363ffffffff1660e01b81526004016104ed9291906115cd565b602060405180830381865afa15801561050a573d6000803e3d6000fd5b505050506040513d601f19601f8201168201806040525081019061052e9190611551565b6105655782610541600460008486611573565b61054a9161159d565b60405163148113d760e11b81526004016103d69291906115cd565b6105af82828080601f016020809104026020016040519081016040528093929190818152602001838380828437600092019190915250506001600160a01b03871692915050610cd3565b50826001600160a01b0316336001600160a01b03167f2a21062ee9199c2e205622999eeb7c3da73153674f36a0acd3f74fa6af67bde384846040516105f59291906115f0565b60405180910390a350506001805550565b3361060f6108b2565b6001600160a01b03161461063857604051632f079fab60e11b81523360048201526024016103d6565b60025460ff161561065c57604051631001146b60e11b815260040160405180910390fd5b6002805460ff191660011790556040513381527f791f6d5e6c2e44c825c52599c43037481174b362f3b48772bc1d12b3580375f39060200160405180910390a1565b336106a76108b2565b6001600160a01b0316146106d057604051632f079fab60e11b81523360048201526024016103d6565b60025460ff166106f357604051634ba56cfd60e01b815260040160405180910390fd5b600260015414156107465760405162461bcd60e51b815260206004820152601f60248201527f5265656e7472616e637947756172643a207265656e7472616e742063616c6c0060448201526064016103d6565b60026001554761075f6001600160a01b03831682610d1c565b6040518181526001600160a01b0383169033907f6b1f4ce962fec27598edceab6195c77516c3df32025eaf0c38d0d4009ac3bd489060200160405180910390a3505060018055565b336107b06108b2565b6001600160a01b0316146107d957604051632f079fab60e11b81523360048201526024016103d6565b60025460ff166107fc57604051634ba56cfd60e01b815260040160405180910390fd5b604051632142170760e11b81523060048201526001600160a01b038281166024830152604482018490528416906342842e0e90606401600060405180830381600087803b15801561084c57600080fd5b505af1158015610860573d6000803e3d6000fd5b5050604080516001600160a01b03858116825260208201879052871693503392507fdda3c0642e11f394f73a64f4b8ce1ff25619d2bb8ea8dd593966c499ee7e141b91015b60405180910390a3505050565b60006108bc610e3a565b905090565b336108ca6108b2565b6001600160a01b0316146108f357604051632f079fab60e11b81523360048201526024016103d6565b60025460ff1661091657604051634ba56cfd60e01b815260040160405180910390fd5b604051627eeac760e11b8152306004820152602481018390526000906001600160a01b0385169062fdd58e90604401602060405180830381865afa158015610962573d6000803e3d6000fd5b505050506040513d601f19601f82011682018060405250810190610986919061161f565b604051637921219560e11b81523060048201526001600160a01b038481166024830152604482018690526064820183905260a06084830152600060a48301529192509085169063f242432a9060c401600060405180830381600087803b1580156109ef57600080fd5b505af1158015610a03573d6000803e3d6000fd5b5050604080516001600160a01b0386811682526020820188905291810185905290871692503391507f37a31f808d48f07f163b599033008687f07840161063bf57da0e27406ebb0d7e9060600160405180910390a350505050565b33610a676108b2565b6001600160a01b031614610a9057604051632f079fab60e11b81523360048201526024016103d6565b60025460ff16610ab357604051634ba56cfd60e01b815260040160405180910390fd5b6040516370a0823160e01b81523060048201526000906001600160a01b038416906370a0823190602401602060405180830381865afa158015610afa573d6000803e3d6000fd5b505050506040513d601f19601f82011682018060405250810190610b1e919061161f565b9050610b346001600160a01b0384168383610ea7565b604080516001600160a01b0384811682526020820184905285169133917f08c1fcaf583c2b413bb27833685230422583405ae651b6d53e2053bf75bd074091016108a5565b600054600160a81b900460ff1680610b9b5750600054600160a01b900460ff16155b610bfe5760405162461bcd60e51b815260206004820152602e60248201527f496e697469616c697a61626c653a20636f6e747261637420697320616c72656160448201526d191e481a5b9a5d1a585b1a5e995960921b60648201526084016103d6565b600054600160a81b900460ff16158015610c28576000805461ffff60a01b191661010160a01b1790555b60025460ff1680610c4357506000546001600160a01b031615155b15610c7057600054604051635a44b77b60e01b81526001600160a01b0390911660048201526024016103d6565b610c7933610cb1565b60028054610100600160a81b0319166101006001600160a01b038516021790558015610cad576000805460ff60a81b191690555b5050565b600080546001600160a01b0319166001600160a01b0392909216919091179055565b6060610d1583836040518060400160405280601e81526020017f416464726573733a206c6f772d6c6576656c2063616c6c206661696c65640000815250610ef9565b9392505050565b80471015610d6c5760405162461bcd60e51b815260206004820152601d60248201527f416464726573733a20696e73756666696369656e742062616c616e636500000060448201526064016103d6565b6000826001600160a01b03168260405160006040518083038185875af1925050503d8060008114610db9576040519150601f19603f3d011682016040523d82523d6000602084013e610dbe565b606091505b5050905080610e355760405162461bcd60e51b815260206004820152603a60248201527f416464726573733a20756e61626c6520746f2073656e642076616c75652c207260448201527f6563697069656e74206d6179206861766520726576657274656400000000000060648201526084016103d6565b505050565b600080546040516331a9108f60e11b81523060048201526001600160a01b0390911690636352211e90602401602060405180830381865afa158015610e83573d6000803e3d6000fd5b505050506040513d601f19601f820116820180604052508101906108bc9190611638565b604080516001600160a01b038416602482015260448082018490528251808303909101815260649091019091526020810180516001600160e01b031663a9059cbb60e01b179052610e35908490610f10565b6060610f088484600085610fe2565b949350505050565b6000610f65826040518060400160405280602081526020017f5361666545524332303a206c6f772d6c6576656c2063616c6c206661696c6564815250856001600160a01b0316610ef99092919063ffffffff16565b805190915015610e355780806020019051810190610f839190611551565b610e355760405162461bcd60e51b815260206004820152602a60248201527f5361666545524332303a204552433230206f7065726174696f6e20646964206e6044820152691bdd081cdd58d8d9595960b21b60648201526084016103d6565b6060824710156110435760405162461bcd60e51b815260206004820152602660248201527f416464726573733a20696e73756666696369656e742062616c616e636520666f6044820152651c8818d85b1b60d21b60648201526084016103d6565b843b6110915760405162461bcd60e51b815260206004820152601d60248201527f416464726573733a2063616c6c20746f206e6f6e2d636f6e747261637400000060448201526064016103d6565b600080866001600160a01b031685876040516110ad9190611685565b60006040518083038185875af1925050503d80600081146110ea576040519150601f19603f3d011682016040523d82523d6000602084013e6110ef565b606091505b50915091506110ff82828661110a565b979650505050505050565b60608315611119575081610d15565b8251156111295782518084602001fd5b8160405162461bcd60e51b81526004016103d691906116a1565b60006020828403121561115557600080fd5b81356001600160e01b031981168114610d1557600080fd5b6001600160a01b038116811461118257600080fd5b50565b634e487b7160e01b600052604160045260246000fd5b604051601f8201601f1916810167ffffffffffffffff811182821017156111c4576111c4611185565b604052919050565b600082601f8301126111dd57600080fd5b813567ffffffffffffffff8111156111f7576111f7611185565b61120a601f8201601f191660200161119b565b81815284602083860101111561121f57600080fd5b816020850160208301376000918101602001919091529392505050565b6000806000806080858703121561125257600080fd5b843561125d8161116d565b9350602085013561126d8161116d565b925060408501359150606085013567ffffffffffffffff81111561129057600080fd5b61129c878288016111cc565b91505092959194509250565b6000806000604084860312156112bd57600080fd5b83356112c88161116d565b9250602084013567ffffffffffffffff808211156112e557600080fd5b818601915086601f8301126112f957600080fd5b81358181111561130857600080fd5b87602082850101111561131a57600080fd5b6020830194508093505050509250925092565b60006020828403121561133f57600080fd5b8135610d158161116d565b60008060006060848603121561135f57600080fd5b833561136a8161116d565b92506020840135915060408401356113818161116d565b809150509250925092565b6000806040838503121561139f57600080fd5b82356113aa8161116d565b915060208301356113ba8161116d565b809150509250929050565b600082601f8301126113d657600080fd5b8135602067ffffffffffffffff8211156113f2576113f2611185565b8160051b61140182820161119b565b928352848101820192828101908785111561141b57600080fd5b83870192505b848310156110ff57823582529183019190830190611421565b600080600080600060a0868803121561145257600080fd5b853561145d8161116d565b9450602086013561146d8161116d565b9350604086013567ffffffffffffffff8082111561148a57600080fd5b61149689838a016113c5565b945060608801359150808211156114ac57600080fd5b6114b889838a016113c5565b935060808801359150808211156114ce57600080fd5b506114db888289016111cc565b9150509295509295909350565b600080600080600060a0868803121561150057600080fd5b853561150b8161116d565b9450602086013561151b8161116d565b93506040860135925060608601359150608086013567ffffffffffffffff81111561154557600080fd5b6114db888289016111cc565b60006020828403121561156357600080fd5b81518015158114610d1557600080fd5b6000808585111561158357600080fd5b8386111561159057600080fd5b5050820193919092039150565b6001600160e01b031981358181169160048510156115c55780818660040360031b1b83161692505b505092915050565b6001600160a01b039290921682526001600160e01b031916602082015260400190565b60208152816020820152818360408301376000818301604090810191909152601f909201601f19160101919050565b60006020828403121561163157600080fd5b5051919050565b60006020828403121561164a57600080fd5b8151610d158161116d565b60005b83811015611670578181015183820152602001611658565b8381111561167f576000848401525b50505050565b60008251611697818460208701611655565b9190910192915050565b60208152600082518060208401526116c0816040850160208701611655565b601f01601f1916919091016040019291505056fea164736f6c634300080b000a",
  "devdoc": {
    "author": "Non-Fungible Technologies, Inc. The Asset Vault is a vault for the storage of collateralized assets. Designed for one-time use, like a piggy bank. Once withdrawals are enabled, and the bank is broken, the vault can no longer be used or transferred. It starts in a deposit-only state. Funds cannot be withdrawn at this point. When the owner calls \"enableWithdraw()\", the state is set to a withdrawEnabled state. Withdraws cannot be disabled once enabled. This restriction protects integrations and purchasers of AssetVaults from unexpected withdrawal and frontrunning attacks. For exampple: someone buys an AV assuming it contains token X, but I withdraw token X immediately before the sale concludes.",
    "details": "Asset Vaults support arbitrary external calls by either:     - the current owner of the vault     - someone who the current owner \"delegates\" through the ICallDelegator interface This is to enable airdrop claims by borrowers during loans and other forms of NFT utility. In practice, LoanCore delegates to the borrower during the period of an open loan. Arcade.xyz maintains an allowed and restricted list of calls to balance between utility and security.",
    "errors": {
      "AV_AlreadyInitialized(address)": [
        {
          "params": {
            "ownershipToken": "Caller of initialize function in asset vault contract."
          }
        }
      ],
      "AV_CallDisallowed(address)": [
        {
          "params": {
            "caller": "Msg.sender of the function call."
          }
        }
      ],
      "AV_NonWhitelistedCall(address,bytes4)": [
        {
          "params": {
            "data": "The data to call the contract with.",
            "to": "The contract address to call."
          }
        }
      ],
      "OERC721_CallerNotOwner(address)": [
        {
          "params": {
            "caller": "Msg.sender of the function call."
          }
        }
      ]
    },
    "kind": "dev",
    "methods": {
      "call(address,bytes)": {
        "params": {
          "data": "The data to call the contract with.",
          "to": "The contract address to call."
        }
      },
      "constructor": {
        "details": "Initializes values so initialize cannot be called on template."
      },
      "enableWithdraw()": {
        "details": "Any integration should be aware that a withdraw-enabled vault cannot      be transferred (will revert)."
      },
      "initialize(address)": {
        "params": {
          "_whitelist": "The contract maintaing the whitelist of allowed                              arbitrary calls."
        }
      },
      "onERC721Received(address,address,uint256,bytes)": {
        "details": "See {IERC721Receiver-onERC721Received}. Always returns `IERC721Receiver.onERC721Received.selector`."
      },
      "owner()": {
        "returns": {
          "ownerAddress": "        The owner of the underlying token derived from                              the calling address."
        }
      },
      "supportsInterface(bytes4)": {
        "details": "See {IERC165-supportsInterface}."
      },
      "withdrawERC1155(address,uint256,address)": {
        "params": {
          "to": "The recipient of the withdrawn funds.",
          "token": "The ERC1155 token to withdraw.",
          "tokenId": "The ID of the token to withdraw."
        }
      },
      "withdrawERC20(address,address)": {
        "params": {
          "to": "The recipient of the withdrawn funds.",
          "token": "The ERC20 token to withdraw."
        }
      },
      "withdrawERC721(address,uint256,address)": {
        "params": {
          "to": "The recipient of the withdrawn token.",
          "token": "The token to withdraw.",
          "tokenId": "The ID of the NFT to withdraw."
        }
      },
      "withdrawETH(address)": {
        "params": {
          "to": "The recipient of the withdrawn funds."
        }
      }
    },
    "stateVariables": {
      "withdrawEnabled": {
        "details": "Note once set to true, it cannot be reverted back to false."
      }
    },
    "title": "AssetVault",
    "version": 1
  },
  "userdoc": {
    "errors": {
      "AV_AlreadyInitialized(address)": [
        {
          "notice": "Asset vault already initialized."
        }
      ],
      "AV_CallDisallowed(address)": [
        {
          "notice": "Call disallowed."
        }
      ],
      "AV_NonWhitelistedCall(address,bytes4)": [
        {
          "notice": "Call disallowed."
        }
      ],
      "AV_WithdrawsDisabled()": [
        {
          "notice": "Vault withdraws must be enabled."
        }
      ],
      "AV_WithdrawsEnabled()": [
        {
          "notice": "Vault withdraws enabled."
        }
      ],
      "OERC721_CallerNotOwner(address)": [
        {
          "notice": "Function caller is not the owner."
        }
      ]
    },
    "kind": "user",
    "methods": {
      "call(address,bytes)": {
        "notice": "Call a function on an external contract. Intended for claiming airdrops         and other forms of NFT utility. All allowed calls are whitelist by the         \"whitelist\" contract. The vault must have withdrawals disabled, and the caller         must either be the owner, or the owner must have explicitly         delegated this ability to the caller through ICallDelegator interface."
      },
      "enableWithdraw()": {
        "notice": "Enables withdrawals on the vault. Irreversible. Caller must be the         owner of the underlying ownership NFT."
      },
      "initialize(address)": {
        "notice": "Initializes the contract, used on clone deployments. In practice,         always called by the VaultFactory contract."
      },
      "owner()": {
        "notice": "Specifies the owner of the underlying token ID, derived         from the contract address of the contract implementing."
      },
      "whitelist()": {
        "notice": "Whitelist contract to determine if a given external call is allowed."
      },
      "withdrawERC1155(address,uint256,address)": {
        "notice": "Withdraw entire balance of a given ERC1155 token from the vault.         The vault must be in a \"withdrawEnabled\" state (non-transferrable),         and the caller must be the owner."
      },
      "withdrawERC20(address,address)": {
        "notice": "Withdraw entire balance of a given ERC20 token from the vault.         The vault must be in a \"withdrawEnabled\" state (non-transferrable),         and the caller must be the owner."
      },
      "withdrawERC721(address,uint256,address)": {
        "notice": "Withdraw entire balance of a given ERC20 token from the vault.         The vault must be in a \"withdrawEnabled\" state (non-transferrable),         and the caller must be the owner. The specified token must         exist and be owned by this contract."
      },
      "withdrawETH(address)": {
        "notice": "Withdraw entire balance of ETH from the vault.         The vault must be in a \"withdrawEnabled\" state (non-transferrable),         and the caller must be the owner."
      },
      "withdrawEnabled()": {
        "notice": "True if withdrawals are allowed out of this vault."
      }
    },
    "version": 1
  },
  "storageLayout": {
    "storage": [
      {
        "astId": 21036,
        "contract": "contracts/vault/AssetVault.sol:AssetVault",
        "label": "ownershipToken",
        "offset": 0,
        "slot": "0",
        "type": "t_address"
      },
      {
        "astId": 5820,
        "contract": "contracts/vault/AssetVault.sol:AssetVault",
        "label": "_initialized",
        "offset": 20,
        "slot": "0",
        "type": "t_bool"
      },
      {
        "astId": 5823,
        "contract": "contracts/vault/AssetVault.sol:AssetVault",
        "label": "_initializing",
        "offset": 21,
        "slot": "0",
        "type": "t_bool"
      },
      {
        "astId": 5963,
        "contract": "contracts/vault/AssetVault.sol:AssetVault",
        "label": "_status",
        "offset": 0,
        "slot": "1",
        "type": "t_uint256"
      },
      {
        "astId": 20510,
        "contract": "contracts/vault/AssetVault.sol:AssetVault",
        "label": "withdrawEnabled",
        "offset": 0,
        "slot": "2",
        "type": "t_bool"
      },
      {
        "astId": 20515,
        "contract": "contracts/vault/AssetVault.sol:AssetVault",
        "label": "whitelist",
        "offset": 1,
        "slot": "2",
        "type": "t_contract(ICallWhitelist)18651"
      }
    ],
    "types": {
      "t_address": {
        "encoding": "inplace",
        "label": "address",
        "numberOfBytes": "20"
      },
      "t_bool": {
        "encoding": "inplace",
        "label": "bool",
        "numberOfBytes": "1"
      },
      "t_contract(ICallWhitelist)18651": {
        "encoding": "inplace",
        "label": "contract ICallWhitelist",
        "numberOfBytes": "20"
      },
      "t_uint256": {
        "encoding": "inplace",
        "label": "uint256",
        "numberOfBytes": "32"
      }
    }
  }
}