{
  "address": "0xce948d56C3CD243Eb6aB4Bbf722AD3E672fE3F83",
  "abi": [
    {
      "inputs": [
        {
          "internalType": "string",
          "name": "name",
          "type": "string"
        },
        {
          "internalType": "string",
          "name": "symbol",
          "type": "string"
        }
      ],
      "stateMutability": "nonpayable",
      "type": "constructor"
    },
    {
      "inputs": [
        {
          "internalType": "uint256",
          "name": "deadline",
          "type": "uint256"
        }
      ],
      "name": "ERC721P_DeadlineExpired",
      "type": "error"
    },
    {
      "inputs": [
        {
          "internalType": "address",
          "name": "signer",
          "type": "address"
        }
      ],
      "name": "ERC721P_InvalidSignature",
      "type": "error"
    },
    {
      "inputs": [
        {
          "internalType": "address",
          "name": "owner",
          "type": "address"
        }
      ],
      "name": "ERC721P_NotTokenOwner",
      "type": "error"
    },
    {
      "inputs": [],
      "name": "PN_AlreadyInitialized",
      "type": "error"
    },
    {
      "inputs": [
        {
          "internalType": "address",
          "name": "caller",
          "type": "address"
        }
      ],
      "name": "PN_BurningRole",
      "type": "error"
    },
    {
      "inputs": [],
      "name": "PN_CannotInitialize",
      "type": "error"
    },
    {
      "inputs": [],
      "name": "PN_ContractPaused",
      "type": "error"
    },
    {
      "inputs": [
        {
          "internalType": "address",
          "name": "caller",
          "type": "address"
        }
      ],
      "name": "PN_MintingRole",
      "type": "error"
    },
    {
      "anonymous": false,
      "inputs": [
        {
          "indexed": true,
          "internalType": "address",
          "name": "owner",
          "type": "address"
        },
        {
          "indexed": true,
          "internalType": "address",
          "name": "approved",
          "type": "address"
        },
        {
          "indexed": true,
          "internalType": "uint256",
          "name": "tokenId",
          "type": "uint256"
        }
      ],
      "name": "Approval",
      "type": "event"
    },
    {
      "anonymous": false,
      "inputs": [
        {
          "indexed": true,
          "internalType": "address",
          "name": "owner",
          "type": "address"
        },
        {
          "indexed": true,
          "internalType": "address",
          "name": "operator",
          "type": "address"
        },
        {
          "indexed": false,
          "internalType": "bool",
          "name": "approved",
          "type": "bool"
        }
      ],
      "name": "ApprovalForAll",
      "type": "event"
    },
    {
      "anonymous": false,
      "inputs": [
        {
          "indexed": false,
          "internalType": "address",
          "name": "account",
          "type": "address"
        }
      ],
      "name": "Paused",
      "type": "event"
    },
    {
      "anonymous": false,
      "inputs": [
        {
          "indexed": true,
          "internalType": "bytes32",
          "name": "role",
          "type": "bytes32"
        },
        {
          "indexed": true,
          "internalType": "bytes32",
          "name": "previousAdminRole",
          "type": "bytes32"
        },
        {
          "indexed": true,
          "internalType": "bytes32",
          "name": "newAdminRole",
          "type": "bytes32"
        }
      ],
      "name": "RoleAdminChanged",
      "type": "event"
    },
    {
      "anonymous": false,
      "inputs": [
        {
          "indexed": true,
          "internalType": "bytes32",
          "name": "role",
          "type": "bytes32"
        },
        {
          "indexed": true,
          "internalType": "address",
          "name": "account",
          "type": "address"
        },
        {
          "indexed": true,
          "internalType": "address",
          "name": "sender",
          "type": "address"
        }
      ],
      "name": "RoleGranted",
      "type": "event"
    },
    {
      "anonymous": false,
      "inputs": [
        {
          "indexed": true,
          "internalType": "bytes32",
          "name": "role",
          "type": "bytes32"
        },
        {
          "indexed": true,
          "internalType": "address",
          "name": "account",
          "type": "address"
        },
        {
          "indexed": true,
          "internalType": "address",
          "name": "sender",
          "type": "address"
        }
      ],
      "name": "RoleRevoked",
      "type": "event"
    },
    {
      "anonymous": false,
      "inputs": [
        {
          "indexed": true,
          "internalType": "address",
          "name": "from",
          "type": "address"
        },
        {
          "indexed": true,
          "internalType": "address",
          "name": "to",
          "type": "address"
        },
        {
          "indexed": true,
          "internalType": "uint256",
          "name": "tokenId",
          "type": "uint256"
        }
      ],
      "name": "Transfer",
      "type": "event"
    },
    {
      "anonymous": false,
      "inputs": [
        {
          "indexed": false,
          "internalType": "address",
          "name": "account",
          "type": "address"
        }
      ],
      "name": "Unpaused",
      "type": "event"
    },
    {
      "inputs": [],
      "name": "ADMIN_ROLE",
      "outputs": [
        {
          "internalType": "bytes32",
          "name": "",
          "type": "bytes32"
        }
      ],
      "stateMutability": "view",
      "type": "function"
    },
    {
      "inputs": [],
      "name": "DEFAULT_ADMIN_ROLE",
      "outputs": [
        {
          "internalType": "bytes32",
          "name": "",
          "type": "bytes32"
        }
      ],
      "stateMutability": "view",
      "type": "function"
    },
    {
      "inputs": [],
      "name": "DOMAIN_SEPARATOR",
      "outputs": [
        {
          "internalType": "bytes32",
          "name": "",
          "type": "bytes32"
        }
      ],
      "stateMutability": "view",
      "type": "function"
    },
    {
      "inputs": [
        {
          "internalType": "address",
          "name": "to",
          "type": "address"
        },
        {
          "internalType": "uint256",
          "name": "tokenId",
          "type": "uint256"
        }
      ],
      "name": "approve",
      "outputs": [],
      "stateMutability": "nonpayable",
      "type": "function"
    },
    {
      "inputs": [
        {
          "internalType": "address",
          "name": "owner",
          "type": "address"
        }
      ],
      "name": "balanceOf",
      "outputs": [
        {
          "internalType": "uint256",
          "name": "",
          "type": "uint256"
        }
      ],
      "stateMutability": "view",
      "type": "function"
    },
    {
      "inputs": [
        {
          "internalType": "uint256",
          "name": "tokenId",
          "type": "uint256"
        }
      ],
      "name": "burn",
      "outputs": [],
      "stateMutability": "nonpayable",
      "type": "function"
    },
    {
      "inputs": [
        {
          "internalType": "uint256",
          "name": "tokenId",
          "type": "uint256"
        }
      ],
      "name": "getApproved",
      "outputs": [
        {
          "internalType": "address",
          "name": "",
          "type": "address"
        }
      ],
      "stateMutability": "view",
      "type": "function"
    },
    {
      "inputs": [
        {
          "internalType": "bytes32",
          "name": "role",
          "type": "bytes32"
        }
      ],
      "name": "getRoleAdmin",
      "outputs": [
        {
          "internalType": "bytes32",
          "name": "",
          "type": "bytes32"
        }
      ],
      "stateMutability": "view",
      "type": "function"
    },
    {
      "inputs": [
        {
          "internalType": "bytes32",
          "name": "role",
          "type": "bytes32"
        },
        {
          "internalType": "uint256",
          "name": "index",
          "type": "uint256"
        }
      ],
      "name": "getRoleMember",
      "outputs": [
        {
          "internalType": "address",
          "name": "",
          "type": "address"
        }
      ],
      "stateMutability": "view",
      "type": "function"
    },
    {
      "inputs": [
        {
          "internalType": "bytes32",
          "name": "role",
          "type": "bytes32"
        }
      ],
      "name": "getRoleMemberCount",
      "outputs": [
        {
          "internalType": "uint256",
          "name": "",
          "type": "uint256"
        }
      ],
      "stateMutability": "view",
      "type": "function"
    },
    {
      "inputs": [
        {
          "internalType": "bytes32",
          "name": "role",
          "type": "bytes32"
        },
        {
          "internalType": "address",
          "name": "account",
          "type": "address"
        }
      ],
      "name": "grantRole",
      "outputs": [],
      "stateMutability": "nonpayable",
      "type": "function"
    },
    {
      "inputs": [
        {
          "internalType": "bytes32",
          "name": "role",
          "type": "bytes32"
        },
        {
          "internalType": "address",
          "name": "account",
          "type": "address"
        }
      ],
      "name": "hasRole",
      "outputs": [
        {
          "internalType": "bool",
          "name": "",
          "type": "bool"
        }
      ],
      "stateMutability": "view",
      "type": "function"
    },
    {
      "inputs": [
        {
          "internalType": "address",
          "name": "loanCore",
          "type": "address"
        }
      ],
      "name": "initialize",
      "outputs": [],
      "stateMutability": "nonpayable",
      "type": "function"
    },
    {
      "inputs": [
        {
          "internalType": "address",
          "name": "owner",
          "type": "address"
        },
        {
          "internalType": "address",
          "name": "operator",
          "type": "address"
        }
      ],
      "name": "isApprovedForAll",
      "outputs": [
        {
          "internalType": "bool",
          "name": "",
          "type": "bool"
        }
      ],
      "stateMutability": "view",
      "type": "function"
    },
    {
      "inputs": [
        {
          "internalType": "address",
          "name": "to",
          "type": "address"
        },
        {
          "internalType": "uint256",
          "name": "loanId",
          "type": "uint256"
        }
      ],
      "name": "mint",
      "outputs": [
        {
          "internalType": "uint256",
          "name": "",
          "type": "uint256"
        }
      ],
      "stateMutability": "nonpayable",
      "type": "function"
    },
    {
      "inputs": [],
      "name": "name",
      "outputs": [
        {
          "internalType": "string",
          "name": "",
          "type": "string"
        }
      ],
      "stateMutability": "view",
      "type": "function"
    },
    {
      "inputs": [
        {
          "internalType": "address",
          "name": "owner",
          "type": "address"
        }
      ],
      "name": "nonces",
      "outputs": [
        {
          "internalType": "uint256",
          "name": "",
          "type": "uint256"
        }
      ],
      "stateMutability": "view",
      "type": "function"
    },
    {
      "inputs": [],
      "name": "owner",
      "outputs": [
        {
          "internalType": "address",
          "name": "",
          "type": "address"
        }
      ],
      "stateMutability": "view",
      "type": "function"
    },
    {
      "inputs": [
        {
          "internalType": "uint256",
          "name": "tokenId",
          "type": "uint256"
        }
      ],
      "name": "ownerOf",
      "outputs": [
        {
          "internalType": "address",
          "name": "",
          "type": "address"
        }
      ],
      "stateMutability": "view",
      "type": "function"
    },
    {
      "inputs": [],
      "name": "paused",
      "outputs": [
        {
          "internalType": "bool",
          "name": "",
          "type": "bool"
        }
      ],
      "stateMutability": "view",
      "type": "function"
    },
    {
      "inputs": [
        {
          "internalType": "address",
          "name": "owner",
          "type": "address"
        },
        {
          "internalType": "address",
          "name": "spender",
          "type": "address"
        },
        {
          "internalType": "uint256",
          "name": "tokenId",
          "type": "uint256"
        },
        {
          "internalType": "uint256",
          "name": "deadline",
          "type": "uint256"
        },
        {
          "internalType": "uint8",
          "name": "v",
          "type": "uint8"
        },
        {
          "internalType": "bytes32",
          "name": "r",
          "type": "bytes32"
        },
        {
          "internalType": "bytes32",
          "name": "s",
          "type": "bytes32"
        }
      ],
      "name": "permit",
      "outputs": [],
      "stateMutability": "nonpayable",
      "type": "function"
    },
    {
      "inputs": [
        {
          "internalType": "bytes32",
          "name": "role",
          "type": "bytes32"
        },
        {
          "internalType": "address",
          "name": "account",
          "type": "address"
        }
      ],
      "name": "renounceRole",
      "outputs": [],
      "stateMutability": "nonpayable",
      "type": "function"
    },
    {
      "inputs": [
        {
          "internalType": "bytes32",
          "name": "role",
          "type": "bytes32"
        },
        {
          "internalType": "address",
          "name": "account",
          "type": "address"
        }
      ],
      "name": "revokeRole",
      "outputs": [],
      "stateMutability": "nonpayable",
      "type": "function"
    },
    {
      "inputs": [
        {
          "internalType": "address",
          "name": "from",
          "type": "address"
        },
        {
          "internalType": "address",
          "name": "to",
          "type": "address"
        },
        {
          "internalType": "uint256",
          "name": "tokenId",
          "type": "uint256"
        }
      ],
      "name": "safeTransferFrom",
      "outputs": [],
      "stateMutability": "nonpayable",
      "type": "function"
    },
    {
      "inputs": [
        {
          "internalType": "address",
          "name": "from",
          "type": "address"
        },
        {
          "internalType": "address",
          "name": "to",
          "type": "address"
        },
        {
          "internalType": "uint256",
          "name": "tokenId",
          "type": "uint256"
        },
        {
          "internalType": "bytes",
          "name": "_data",
          "type": "bytes"
        }
      ],
      "name": "safeTransferFrom",
      "outputs": [],
      "stateMutability": "nonpayable",
      "type": "function"
    },
    {
      "inputs": [
        {
          "internalType": "address",
          "name": "operator",
          "type": "address"
        },
        {
          "internalType": "bool",
          "name": "approved",
          "type": "bool"
        }
      ],
      "name": "setApprovalForAll",
      "outputs": [],
      "stateMutability": "nonpayable",
      "type": "function"
    },
    {
      "inputs": [
        {
          "internalType": "bool",
          "name": "paused",
          "type": "bool"
        }
      ],
      "name": "setPaused",
      "outputs": [],
      "stateMutability": "nonpayable",
      "type": "function"
    },
    {
      "inputs": [
        {
          "internalType": "bytes4",
          "name": "interfaceId",
          "type": "bytes4"
        }
      ],
      "name": "supportsInterface",
      "outputs": [
        {
          "internalType": "bool",
          "name": "",
          "type": "bool"
        }
      ],
      "stateMutability": "view",
      "type": "function"
    },
    {
      "inputs": [],
      "name": "symbol",
      "outputs": [
        {
          "internalType": "string",
          "name": "",
          "type": "string"
        }
      ],
      "stateMutability": "view",
      "type": "function"
    },
    {
      "inputs": [
        {
          "internalType": "uint256",
          "name": "index",
          "type": "uint256"
        }
      ],
      "name": "tokenByIndex",
      "outputs": [
        {
          "internalType": "uint256",
          "name": "",
          "type": "uint256"
        }
      ],
      "stateMutability": "view",
      "type": "function"
    },
    {
      "inputs": [
        {
          "internalType": "address",
          "name": "owner",
          "type": "address"
        },
        {
          "internalType": "uint256",
          "name": "index",
          "type": "uint256"
        }
      ],
      "name": "tokenOfOwnerByIndex",
      "outputs": [
        {
          "internalType": "uint256",
          "name": "",
          "type": "uint256"
        }
      ],
      "stateMutability": "view",
      "type": "function"
    },
    {
      "inputs": [
        {
          "internalType": "uint256",
          "name": "tokenId",
          "type": "uint256"
        }
      ],
      "name": "tokenURI",
      "outputs": [
        {
          "internalType": "string",
          "name": "",
          "type": "string"
        }
      ],
      "stateMutability": "view",
      "type": "function"
    },
    {
      "inputs": [],
      "name": "totalSupply",
      "outputs": [
        {
          "internalType": "uint256",
          "name": "",
          "type": "uint256"
        }
      ],
      "stateMutability": "view",
      "type": "function"
    },
    {
      "inputs": [
        {
          "internalType": "address",
          "name": "from",
          "type": "address"
        },
        {
          "internalType": "address",
          "name": "to",
          "type": "address"
        },
        {
          "internalType": "uint256",
          "name": "tokenId",
          "type": "uint256"
        }
      ],
      "name": "transferFrom",
      "outputs": [],
      "stateMutability": "nonpayable",
      "type": "function"
    }
  ],
  "transactionHash": "0xad3e760dfcbb1b6f9a8f96b9bc722e761dece077dc876d7f10b6b92d4ca27119",
  "args": [
    "Arcade.xyz BorrowerNote",
    "aBN"
  ],
  "numDeployments": 1,
  "solcInputHash": "f8d88f69c17aa23c4805e0fc29994ffd",
  "bytecode": "0x6101606040527f48d39b37a35214940203bbbd4f383519797769b13d936f387d89430afef27688610140523480156200003757600080fd5b5060405162002f7738038062002f778339810160408190526200005a91620002f1565b8180604051806040016040528060018152602001603160f81b81525084848160029080519060200190620000909291906200017e565b508051620000a69060039060208401906200017e565b5050600c805460ff1916905550815160209283012081519183019190912060e08290526101008190524660a0818152604080517f8b73c3c69bb8fe3d512ecc4cf759cc79239f7b179b0ffacaa9a75d522b39400f818801819052818301969096526060810194909452608080850193909352308483018190528151808603909301835260c09485019091528151918601919091209091529052610120526200015b9150600f9062000ef462000175821b17901c565b5050600e80546001600160a01b0319163317905562000398565b80546001019055565b8280546200018c906200035b565b90600052602060002090601f016020900481019282620001b05760008555620001fb565b82601f10620001cb57805160ff1916838001178555620001fb565b82800160010185558215620001fb579182015b82811115620001fb578251825591602001919060010190620001de565b50620002099291506200020d565b5090565b5b808211156200020957600081556001016200020e565b634e487b7160e01b600052604160045260246000fd5b600082601f8301126200024c57600080fd5b81516001600160401b038082111562000269576200026962000224565b604051601f8301601f19908116603f0116810190828211818310171562000294576200029462000224565b81604052838152602092508683858801011115620002b157600080fd5b600091505b83821015620002d55785820183015181830184015290820190620002b6565b83821115620002e75760008385830101525b9695505050505050565b600080604083850312156200030557600080fd5b82516001600160401b03808211156200031d57600080fd5b6200032b868387016200023a565b935060208501519150808211156200034257600080fd5b5062000351858286016200023a565b9150509250929050565b600181811c908216806200037057607f821691505b602082108114156200039257634e487b7160e01b600052602260045260246000fd5b50919050565b60805160a05160c05160e051610100516101205161014051612b84620003f36000396000610dc6015260006113f6015260006114450152600061142001526000611379015260006113a3015260006113cd0152612b846000f3fe608060405234801561001057600080fd5b50600436106102065760003560e01c80636352211e1161011a578063a217fddf116100ad578063c87b56dd1161007c578063c87b56dd1461044b578063ca15c8731461045e578063d505accf14610471578063d547741f14610484578063e985e9c51461049757600080fd5b8063a217fddf1461040a578063a22cb46514610412578063b88d4fde14610425578063c4d66de81461043857600080fd5b80638da5cb5b116100e95780638da5cb5b146103c95780639010d07c146103dc57806391d14854146103ef57806395d89b411461040257600080fd5b80636352211e1461037b57806370a082311461038e57806375b238fc146103a15780637ecebe00146103b657600080fd5b80632f2ff15d1161019d57806340c10f191161016c57806340c10f191461032457806342842e0e1461033757806342966c681461034a5780634f6ccce71461035d5780635c975abb1461037057600080fd5b80632f2ff15d146102e35780632f745c59146102f65780633644e5151461030957806336568abe1461031157600080fd5b806316c38b3c116101d957806316c38b3c1461028857806318160ddd1461029b57806323b872dd146102ad578063248a9ca3146102c057600080fd5b806301ffc9a71461020b57806306fdde0314610233578063081812fc14610248578063095ea7b314610273575b600080fd5b61021e6102193660046124fb565b6104d3565b60405190151581526020015b60405180910390f35b61023b6104e4565b60405161022a9190612570565b61025b610256366004612583565b610576565b6040516001600160a01b03909116815260200161022a565b6102866102813660046125b8565b610610565b005b6102866102963660046125f2565b610726565b600a545b60405190815260200161022a565b6102866102bb36600461260d565b610758565b61029f6102ce366004612583565b60009081526020819052604090206001015490565b6102866102f1366004612649565b610789565b61029f6103043660046125b8565b6107ae565b61029f610844565b61028661031f366004612649565b610853565b61029f6103323660046125b8565b6108cd565b61028661034536600461260d565b610916565b610286610358366004612583565b610931565b61029f61036b366004612583565b610974565b600c5460ff1661021e565b61025b610389366004612583565b610a07565b61029f61039c366004612675565b610a7e565b61029f600080516020612b5883398151915281565b61029f6103c4366004612675565b610b05565b600e5461025b906001600160a01b031681565b61025b6103ea366004612690565b610b23565b61021e6103fd366004612649565b610b42565b61023b610b6b565b61029f600081565b6102866104203660046126b2565b610b7a565b6102866104333660046126f2565b610b85565b610286610446366004612675565b610bbd565b61023b610459366004612583565b610c5b565b61029f61046c366004612583565b610d42565b61028661047f3660046127ce565b610d59565b610286610492366004612649565b610ecf565b61021e6104a5366004612841565b6001600160a01b03918216600090815260076020908152604080832093909416825291909152205460ff1690565b60006104de82610efd565b92915050565b6060600280546104f39061286b565b80601f016020809104026020016040519081016040528092919081815260200182805461051f9061286b565b801561056c5780601f106105415761010080835404028352916020019161056c565b820191906000526020600020905b81548152906001019060200180831161054f57829003601f168201915b5050505050905090565b6000818152600460205260408120546001600160a01b03166105f45760405162461bcd60e51b815260206004820152602c60248201527f4552433732313a20617070726f76656420717565727920666f72206e6f6e657860448201526b34b9ba32b73a103a37b5b2b760a11b60648201526084015b60405180910390fd5b506000908152600660205260409020546001600160a01b031690565b600061061b82610a07565b9050806001600160a01b0316836001600160a01b031614156106895760405162461bcd60e51b815260206004820152602160248201527f4552433732313a20617070726f76616c20746f2063757272656e74206f776e656044820152603960f91b60648201526084016105eb565b336001600160a01b03821614806106a557506106a581336104a5565b6107175760405162461bcd60e51b815260206004820152603860248201527f4552433732313a20617070726f76652063616c6c6572206973206e6f74206f7760448201527f6e6572206e6f7220617070726f76656420666f7220616c6c000000000000000060648201526084016105eb565b6107218383610f22565b505050565b600080516020612b5883398151915261073e81610f90565b81156107505761074c610f9a565b5050565b61074c611032565b61076233826110ac565b61077e5760405162461bcd60e51b81526004016105eb906128a0565b6107218383836111a3565b6000828152602081905260409020600101546107a481610f90565b610721838361134a565b60006107b983610a7e565b821061081b5760405162461bcd60e51b815260206004820152602b60248201527f455243373231456e756d657261626c653a206f776e657220696e646578206f7560448201526a74206f6620626f756e647360a81b60648201526084016105eb565b506001600160a01b03919091166000908152600860209081526040808320938352929052205490565b600061084e61136c565b905090565b6001600160a01b03811633146108c35760405162461bcd60e51b815260206004820152602f60248201527f416363657373436f6e74726f6c3a2063616e206f6e6c792072656e6f756e636560448201526e103937b632b9903337b91039b2b63360891b60648201526084016105eb565b61074c8282611493565b60006108e7600080516020612b5883398151915233610b42565b610906576040516337a5c5ef60e21b81523360048201526024016105eb565b61091083836114b5565b50919050565b61072183838360405180602001604052806000815250610b85565b610949600080516020612b5883398151915233610b42565b61096857604051632ff157b760e21b81523360048201526024016105eb565b61097181611603565b50565b600061097f600a5490565b82106109e25760405162461bcd60e51b815260206004820152602c60248201527f455243373231456e756d657261626c653a20676c6f62616c20696e646578206f60448201526b7574206f6620626f756e647360a01b60648201526084016105eb565b600a82815481106109f5576109f56128f1565b90600052602060002001549050919050565b6000818152600460205260408120546001600160a01b0316806104de5760405162461bcd60e51b815260206004820152602960248201527f4552433732313a206f776e657220717565727920666f72206e6f6e657869737460448201526832b73a103a37b5b2b760b91b60648201526084016105eb565b60006001600160a01b038216610ae95760405162461bcd60e51b815260206004820152602a60248201527f4552433732313a2062616c616e636520717565727920666f7220746865207a65604482015269726f206164647265737360b01b60648201526084016105eb565b506001600160a01b031660009081526005602052604090205490565b6001600160a01b0381166000908152600d60205260408120546104de565b6000828152600160205260408120610b3b90836116aa565b9392505050565b6000918252602082815260408084206001600160a01b0393909316845291905290205460ff1690565b6060600380546104f39061286b565b61074c3383836116b6565b610b8f33836110ac565b610bab5760405162461bcd60e51b81526004016105eb906128a0565b610bb784848484611785565b50505050565b600e54600160a01b900460ff1615610be8576040516310e0f77b60e31b815260040160405180910390fd5b600e546001600160a01b0316336001600160a01b031614610c1c576040516306bf790560e21b815260040160405180910390fd5b610c34600080516020612b58833981519152826117b8565b600e80546001600160a81b0319166001600160a01b0390921691909117600160a01b179055565b6000818152600460205260409020546060906001600160a01b0316610cda5760405162461bcd60e51b815260206004820152602f60248201527f4552433732314d657461646174613a2055524920717565727920666f72206e6f60448201526e3732bc34b9ba32b73a103a37b5b2b760891b60648201526084016105eb565b6000610cf160408051602081019091526000815290565b90506000815111610d115760405180602001604052806000815250610b3b565b80610d1b846117c2565b604051602001610d2c929190612907565b6040516020818303038152906040529392505050565b60008181526001602052604081206104de906118c0565b83421115610d7d576040516306f8503160e31b8152600481018590526024016105eb565b610d8685610a07565b6001600160a01b0316876001600160a01b031614610dc25760405163142ec3cf60e11b81526001600160a01b03881660048201526024016105eb565b60007f0000000000000000000000000000000000000000000000000000000000000000888888610e0f8c6001600160a01b03166000908152600d6020526040902080546001810190915590565b6040805160208101969096526001600160a01b0394851690860152929091166060840152608083015260a082015260c0810186905260e0016040516020818303038152906040528051906020012090506000610e6a826118ca565b90506000610e7a82878787611918565b9050896001600160a01b0316816001600160a01b031614610eb957604051635722542f60e01b81526001600160a01b03821660048201526024016105eb565b610ec38989610f22565b50505050505050505050565b600082815260208190526040902060010154610eea81610f90565b6107218383611493565b80546001019055565b60006001600160e01b0319821663780e9d6360e01b14806104de57506104de82611940565b600081815260066020526040902080546001600160a01b0319166001600160a01b0384169081179091558190610f5782610a07565b6001600160a01b03167f8c5be1e5ebec7d5bd14f71427d1e84f3dd0314c0f7b2291e5b200ac8c7c3b92560405160405180910390a45050565b6109718133611980565b600c5460ff1615610fe05760405162461bcd60e51b815260206004820152601060248201526f14185d5cd8589b194e881c185d5cd95960821b60448201526064016105eb565b600c805460ff191660011790557f62e78cea01bee320cd4e420270b5ea74000d11b0c9f74754ebdbfc544b05a2586110153390565b6040516001600160a01b03909116815260200160405180910390a1565b600c5460ff1661107b5760405162461bcd60e51b815260206004820152601460248201527314185d5cd8589b194e881b9bdd081c185d5cd95960621b60448201526064016105eb565b600c805460ff191690557f5db9ee0a495bf2e6ff9c91a7834c1ba4fdd244a5e8aa4e537bd38aeae4b073aa33611015565b6000818152600460205260408120546001600160a01b03166111255760405162461bcd60e51b815260206004820152602c60248201527f4552433732313a206f70657261746f7220717565727920666f72206e6f6e657860448201526b34b9ba32b73a103a37b5b2b760a11b60648201526084016105eb565b600061113083610a07565b9050806001600160a01b0316846001600160a01b0316148061117757506001600160a01b0380821660009081526007602090815260408083209388168352929052205460ff165b8061119b5750836001600160a01b031661119084610576565b6001600160a01b0316145b949350505050565b826001600160a01b03166111b682610a07565b6001600160a01b03161461121a5760405162461bcd60e51b815260206004820152602560248201527f4552433732313a207472616e736665722066726f6d20696e636f72726563742060448201526437bbb732b960d91b60648201526084016105eb565b6001600160a01b03821661127c5760405162461bcd60e51b8152602060048201526024808201527f4552433732313a207472616e7366657220746f20746865207a65726f206164646044820152637265737360e01b60648201526084016105eb565b6112878383836119e4565b611292600082610f22565b6001600160a01b03831660009081526005602052604081208054600192906112bb90849061294c565b90915550506001600160a01b03821660009081526005602052604081208054600192906112e9908490612963565b909155505060008181526004602052604080822080546001600160a01b0319166001600160a01b0386811691821790925591518493918716917fddf252ad1be2c89b69c2b068fc378daa952ba7f163c4a11628f55a4df523b3ef91a4505050565b6113548282611a13565b60008281526001602052604090206107219082611a97565b6000306001600160a01b037f0000000000000000000000000000000000000000000000000000000000000000161480156113c557507f000000000000000000000000000000000000000000000000000000000000000046145b156113ef57507f000000000000000000000000000000000000000000000000000000000000000090565b50604080517f00000000000000000000000000000000000000000000000000000000000000006020808301919091527f0000000000000000000000000000000000000000000000000000000000000000828401527f000000000000000000000000000000000000000000000000000000000000000060608301524660808301523060a0808401919091528351808403909101815260c0909201909252805191012090565b61149d8282611aac565b60008281526001602052604090206107219082611b11565b6001600160a01b03821661150b5760405162461bcd60e51b815260206004820181905260248201527f4552433732313a206d696e7420746f20746865207a65726f206164647265737360448201526064016105eb565b6000818152600460205260409020546001600160a01b0316156115705760405162461bcd60e51b815260206004820152601c60248201527f4552433732313a20746f6b656e20616c7265616479206d696e7465640000000060448201526064016105eb565b61157c600083836119e4565b6001600160a01b03821660009081526005602052604081208054600192906115a5908490612963565b909155505060008181526004602052604080822080546001600160a01b0319166001600160a01b03861690811790915590518392907fddf252ad1be2c89b69c2b068fc378daa952ba7f163c4a11628f55a4df523b3ef908290a45050565b600061160e82610a07565b905061161c816000846119e4565b611627600083610f22565b6001600160a01b038116600090815260056020526040812080546001929061165090849061294c565b909155505060008281526004602052604080822080546001600160a01b0319169055518391906001600160a01b038416907fddf252ad1be2c89b69c2b068fc378daa952ba7f163c4a11628f55a4df523b3ef908390a45050565b6000610b3b8383611b26565b816001600160a01b0316836001600160a01b031614156117185760405162461bcd60e51b815260206004820152601960248201527f4552433732313a20617070726f766520746f2063616c6c65720000000000000060448201526064016105eb565b6001600160a01b03838116600081815260076020908152604080832094871680845294825291829020805460ff191686151590811790915591519182527f17307eab39ab6107e8899845ad3d59bd9653f200f220920489ca2b5937696c31910160405180910390a3505050565b6117908484846111a3565b61179c84848484611b50565b610bb75760405162461bcd60e51b81526004016105eb9061297b565b61074c828261134a565b6060816117e65750506040805180820190915260018152600360fc1b602082015290565b8160005b811561181057806117fa816129cd565b91506118099050600a836129fe565b91506117ea565b60008167ffffffffffffffff81111561182b5761182b6126dc565b6040519080825280601f01601f191660200182016040528015611855576020820181803683370190505b5090505b841561119b5761186a60018361294c565b9150611877600a86612a12565b611882906030612963565b60f81b818381518110611897576118976128f1565b60200101906001600160f81b031916908160001a9053506118b9600a866129fe565b9450611859565b60006104de825490565b60006104de6118d761136c565b8360405161190160f01b6020820152602281018390526042810182905260009060620160405160208183030381529060405280519060200120905092915050565b600080600061192987878787611c4b565b9150915061193681611d38565b5095945050505050565b60006001600160e01b031982166380ac58cd60e01b148061197157506001600160e01b03198216635b5e139f60e01b145b806104de57506104de82611ef3565b61198a8282610b42565b61074c576119a2816001600160a01b03166014611f18565b6119ad836020611f18565b6040516020016119be929190612a26565b60408051601f198184030181529082905262461bcd60e51b82526105eb91600401612570565b600c5460ff1615611a08576040516379cb7de360e11b815260040160405180910390fd5b6107218383836120b4565b611a1d8282610b42565b61074c576000828152602081815260408083206001600160a01b03851684529091529020805460ff19166001179055611a533390565b6001600160a01b0316816001600160a01b0316837f2f8788117e7eff1d82e926ec794901d17c78024a50270940304540a733656f0d60405160405180910390a45050565b6000610b3b836001600160a01b038416612126565b611ab68282610b42565b1561074c576000828152602081815260408083206001600160a01b0385168085529252808320805460ff1916905551339285917ff6391f5c32d9c69d2a47ea670b442974b53935d1edc7fd64eb21e047a839171b9190a45050565b6000610b3b836001600160a01b038416612175565b6000826000018281548110611b3d57611b3d6128f1565b9060005260206000200154905092915050565b60006001600160a01b0384163b15611c4357604051630a85bd0160e11b81526001600160a01b0385169063150b7a0290611b94903390899088908890600401612a9b565b6020604051808303816000875af1925050508015611bcf575060408051601f3d908101601f19168201909252611bcc91810190612ad8565b60015b611c29573d808015611bfd576040519150601f19603f3d011682016040523d82523d6000602084013e611c02565b606091505b508051611c215760405162461bcd60e51b81526004016105eb9061297b565b805181602001fd5b6001600160e01b031916630a85bd0160e11b14905061119b565b50600161119b565b6000807f7fffffffffffffffffffffffffffffff5d576e7357a4501ddfe92f46681b20a0831115611c825750600090506003611d2f565b8460ff16601b14158015611c9a57508460ff16601c14155b15611cab5750600090506004611d2f565b6040805160008082526020820180845289905260ff881692820192909252606081018690526080810185905260019060a0016020604051602081039080840390855afa158015611cff573d6000803e3d6000fd5b5050604051601f1901519150506001600160a01b038116611d2857600060019250925050611d2f565b9150600090505b94509492505050565b6000816004811115611d4c57611d4c612af5565b1415611d555750565b6001816004811115611d6957611d69612af5565b1415611db75760405162461bcd60e51b815260206004820152601860248201527f45434453413a20696e76616c6964207369676e6174757265000000000000000060448201526064016105eb565b6002816004811115611dcb57611dcb612af5565b1415611e195760405162461bcd60e51b815260206004820152601f60248201527f45434453413a20696e76616c6964207369676e6174757265206c656e6774680060448201526064016105eb565b6003816004811115611e2d57611e2d612af5565b1415611e865760405162461bcd60e51b815260206004820152602260248201527f45434453413a20696e76616c6964207369676e6174757265202773272076616c604482015261756560f01b60648201526084016105eb565b6004816004811115611e9a57611e9a612af5565b14156109715760405162461bcd60e51b815260206004820152602260248201527f45434453413a20696e76616c6964207369676e6174757265202776272076616c604482015261756560f01b60648201526084016105eb565b60006001600160e01b03198216635a05180f60e01b14806104de57506104de82612268565b60606000611f27836002612b0b565b611f32906002612963565b67ffffffffffffffff811115611f4a57611f4a6126dc565b6040519080825280601f01601f191660200182016040528015611f74576020820181803683370190505b509050600360fc1b81600081518110611f8f57611f8f6128f1565b60200101906001600160f81b031916908160001a905350600f60fb1b81600181518110611fbe57611fbe6128f1565b60200101906001600160f81b031916908160001a9053506000611fe2846002612b0b565b611fed906001612963565b90505b6001811115612065576f181899199a1a9b1b9c1cb0b131b232b360811b85600f1660108110612021576120216128f1565b1a60f81b828281518110612037576120376128f1565b60200101906001600160f81b031916908160001a90535060049490941c9361205e81612b2a565b9050611ff0565b508315610b3b5760405162461bcd60e51b815260206004820181905260248201527f537472696e67733a20686578206c656e67746820696e73756666696369656e7460448201526064016105eb565b6120bf83838361229d565b600c5460ff16156107215760405162461bcd60e51b815260206004820152602b60248201527f4552433732315061757361626c653a20746f6b656e207472616e73666572207760448201526a1a1a5b19481c185d5cd95960aa1b60648201526084016105eb565b600081815260018301602052604081205461216d575081546001818101845560008481526020808220909301849055845484825282860190935260409020919091556104de565b5060006104de565b6000818152600183016020526040812054801561225e57600061219960018361294c565b85549091506000906121ad9060019061294c565b90508181146122125760008660000182815481106121cd576121cd6128f1565b90600052602060002001549050808760000184815481106121f0576121f06128f1565b6000918252602080832090910192909255918252600188019052604090208390555b855486908061222357612223612b41565b6001900381819060005260206000200160009055905585600101600086815260200190815260200160002060009055600193505050506104de565b60009150506104de565b60006001600160e01b03198216637965db0b60e01b14806104de57506301ffc9a760e01b6001600160e01b03198316146104de565b6001600160a01b0383166122f8576122f381600a80546000838152600b60205260408120829055600182018355919091527fc65a7bb8d6351c1cf70c95a316cc6a92839c986682d98bc35f958f4883f9d2a80155565b61231b565b816001600160a01b0316836001600160a01b03161461231b5761231b8382612355565b6001600160a01b03821661233257610721816123f2565b826001600160a01b0316826001600160a01b0316146107215761072182826124a1565b6000600161236284610a7e565b61236c919061294c565b6000838152600960205260409020549091508082146123bf576001600160a01b03841660009081526008602090815260408083208584528252808320548484528184208190558352600990915290208190555b5060009182526009602090815260408084208490556001600160a01b039094168352600881528383209183525290812055565b600a546000906124049060019061294c565b6000838152600b6020526040812054600a805493945090928490811061242c5761242c6128f1565b9060005260206000200154905080600a838154811061244d5761244d6128f1565b6000918252602080832090910192909255828152600b9091526040808220849055858252812055600a80548061248557612485612b41565b6001900381819060005260206000200160009055905550505050565b60006124ac83610a7e565b6001600160a01b039093166000908152600860209081526040808320868452825280832085905593825260099052919091209190915550565b6001600160e01b03198116811461097157600080fd5b60006020828403121561250d57600080fd5b8135610b3b816124e5565b60005b8381101561253357818101518382015260200161251b565b83811115610bb75750506000910152565b6000815180845261255c816020860160208601612518565b601f01601f19169290920160200192915050565b602081526000610b3b6020830184612544565b60006020828403121561259557600080fd5b5035919050565b80356001600160a01b03811681146125b357600080fd5b919050565b600080604083850312156125cb57600080fd5b6125d48361259c565b946020939093013593505050565b803580151581146125b357600080fd5b60006020828403121561260457600080fd5b610b3b826125e2565b60008060006060848603121561262257600080fd5b61262b8461259c565b92506126396020850161259c565b9150604084013590509250925092565b6000806040838503121561265c57600080fd5b8235915061266c6020840161259c565b90509250929050565b60006020828403121561268757600080fd5b610b3b8261259c565b600080604083850312156126a357600080fd5b50508035926020909101359150565b600080604083850312156126c557600080fd5b6126ce8361259c565b915061266c602084016125e2565b634e487b7160e01b600052604160045260246000fd5b6000806000806080858703121561270857600080fd5b6127118561259c565b935061271f6020860161259c565b925060408501359150606085013567ffffffffffffffff8082111561274357600080fd5b818701915087601f83011261275757600080fd5b813581811115612769576127696126dc565b604051601f8201601f19908116603f01168101908382118183101715612791576127916126dc565b816040528281528a60208487010111156127aa57600080fd5b82602086016020830137600060208483010152809550505050505092959194509250565b600080600080600080600060e0888a0312156127e957600080fd5b6127f28861259c565b96506128006020890161259c565b95506040880135945060608801359350608088013560ff8116811461282457600080fd5b9699959850939692959460a0840135945060c09093013592915050565b6000806040838503121561285457600080fd5b61285d8361259c565b915061266c6020840161259c565b600181811c9082168061287f57607f821691505b6020821081141561091057634e487b7160e01b600052602260045260246000fd5b60208082526031908201527f4552433732313a207472616e736665722063616c6c6572206973206e6f74206f6040820152701ddb995c881b9bdc88185c1c1c9bdd9959607a1b606082015260800190565b634e487b7160e01b600052603260045260246000fd5b60008351612919818460208801612518565b83519083019061292d818360208801612518565b01949350505050565b634e487b7160e01b600052601160045260246000fd5b60008282101561295e5761295e612936565b500390565b6000821982111561297657612976612936565b500190565b60208082526032908201527f4552433732313a207472616e7366657220746f206e6f6e20455243373231526560408201527131b2b4bb32b91034b6b83632b6b2b73a32b960711b606082015260800190565b60006000198214156129e1576129e1612936565b5060010190565b634e487b7160e01b600052601260045260246000fd5b600082612a0d57612a0d6129e8565b500490565b600082612a2157612a216129e8565b500690565b7f416363657373436f6e74726f6c3a206163636f756e7420000000000000000000815260008351612a5e816017850160208801612518565b7001034b99036b4b9b9b4b733903937b6329607d1b6017918401918201528351612a8f816028840160208801612518565b01602801949350505050565b6001600160a01b0385811682528416602082015260408101839052608060608201819052600090612ace90830184612544565b9695505050505050565b600060208284031215612aea57600080fd5b8151610b3b816124e5565b634e487b7160e01b600052602160045260246000fd5b6000816000190483118215151615612b2557612b25612936565b500290565b600081612b3957612b39612936565b506000190190565b634e487b7160e01b600052603160045260246000fdfea49807205ce4d355092ef5a8a18f56e8913cf4a201fbe287825b095693c21775a164736f6c634300080b000a",
  "devdoc": {
    "author": "Non-Fungible Technologies, Inc. Built off Openzeppelin's ERC721PresetMinterPauserAutoId. Used for representing rights and obligations in the context of a loan - the right to claim collateral for lenders (instantiated as LenderNote), and the right to recover collateral upon repayment for borrowers (instantiated as BorrowerNote).",
    "details": "{ERC721} token, including:  - ability for holders to burn (destroy) their tokens  - a minter role that allows for token minting (creation)  - token ID and URI autogeneration This contract uses {AccessControl} to lock permissioned functions using the different roles - head to its documentation for details. The account that deploys the contract will be granted the minter and pauser roles, as well as the default admin role, which will let it grant both minter and pauser roles to other accounts.",
    "errors": {
      "ERC721P_DeadlineExpired(uint256)": [
        {
          "params": {
            "deadline": "Permit deadline parameter as a timestamp."
          }
        }
      ],
      "ERC721P_InvalidSignature(address)": [
        {
          "params": {
            "signer": "Signer recovered from ECDSA sugnature hash."
          }
        }
      ],
      "ERC721P_NotTokenOwner(address)": [
        {
          "params": {
            "owner": "Owner parameter for the function call."
          }
        }
      ],
      "PN_BurningRole(address)": [
        {
          "params": {
            "caller": "Address of the function caller."
          }
        }
      ],
      "PN_MintingRole(address)": [
        {
          "params": {
            "caller": "Address of the function caller."
          }
        }
      ]
    },
    "kind": "dev",
    "methods": {
      "DOMAIN_SEPARATOR()": {
        "returns": {
          "_0": "separator             The bytes for the domain separator."
        }
      },
      "approve(address,uint256)": {
        "details": "See {IERC721-approve}."
      },
      "balanceOf(address)": {
        "details": "See {IERC721-balanceOf}."
      },
      "burn(uint256)": {
        "details": "See {ERC721-_burn}.",
        "params": {
          "tokenId": "The ID of the token to burn, should match a loan."
        }
      },
      "constructor": {
        "details": "Creates the promissory note contract, granting minter, burner      and pauser roles to the specified owner address (which in practice      will be LoanCore).",
        "params": {
          "name": "The name of the token (see ERC721).",
          "symbol": "The symbol of the token (see ERC721).      "
        }
      },
      "getApproved(uint256)": {
        "details": "See {IERC721-getApproved}."
      },
      "getRoleAdmin(bytes32)": {
        "details": "Returns the admin role that controls `role`. See {grantRole} and {revokeRole}. To change a role's admin, use {_setRoleAdmin}."
      },
      "getRoleMember(bytes32,uint256)": {
        "details": "Returns one of the accounts that have `role`. `index` must be a value between 0 and {getRoleMemberCount}, non-inclusive. Role bearers are not sorted in any particular way, and their ordering may change at any point. WARNING: When using {getRoleMember} and {getRoleMemberCount}, make sure you perform all queries on the same block. See the following https://forum.openzeppelin.com/t/iterating-over-elements-on-enumerableset-in-openzeppelin-contracts/2296[forum post] for more information."
      },
      "getRoleMemberCount(bytes32)": {
        "details": "Returns the number of accounts that have `role`. Can be used together with {getRoleMember} to enumerate all bearers of a role."
      },
      "grantRole(bytes32,address)": {
        "details": "Grants `role` to `account`. If `account` had not been already granted `role`, emits a {RoleGranted} event. Requirements: - the caller must have ``role``'s admin role."
      },
      "hasRole(bytes32,address)": {
        "details": "Returns `true` if `account` has been granted `role`."
      },
      "initialize(address)": {
        "params": {
          "loanCore": "The address of the admin."
        }
      },
      "isApprovedForAll(address,address)": {
        "details": "See {IERC721-isApprovedForAll}."
      },
      "mint(address,uint256)": {
        "details": "See {ERC721-_mint}.",
        "params": {
          "loanId": "The ID of the token to mint, should match a loan.",
          "to": "The owner of the minted token."
        },
        "returns": {
          "_0": "tokenId              The newly minted token ID."
        }
      },
      "name()": {
        "details": "See {IERC721Metadata-name}."
      },
      "nonces(address)": {
        "params": {
          "owner": "The given owner to check the nonce for."
        },
        "returns": {
          "_0": "current              The current noonce for the owner."
        }
      },
      "ownerOf(uint256)": {
        "details": "See {IERC721-ownerOf}."
      },
      "paused()": {
        "details": "Returns true if the contract is paused, and false otherwise."
      },
      "permit(address,address,uint256,uint256,uint8,bytes32,bytes32)": {
        "params": {
          "deadline": "The maximum timestamp the signature is valid for.",
          "owner": "The owner of the token being permitted.",
          "r": "Component of the signature.",
          "s": "Component of the signature.",
          "spender": "The address allowed to spend the token.",
          "tokenId": "The token ID of the given asset.",
          "v": "Component of the signature."
        }
      },
      "renounceRole(bytes32,address)": {
        "details": "Revokes `role` from the calling account. Roles are often managed via {grantRole} and {revokeRole}: this function's purpose is to provide a mechanism for accounts to lose their privileges if they are compromised (such as when a trusted device is misplaced). If the calling account had been revoked `role`, emits a {RoleRevoked} event. Requirements: - the caller must be `account`."
      },
      "revokeRole(bytes32,address)": {
        "details": "Revokes `role` from `account`. If `account` had been granted `role`, emits a {RoleRevoked} event. Requirements: - the caller must have ``role``'s admin role."
      },
      "safeTransferFrom(address,address,uint256)": {
        "details": "See {IERC721-safeTransferFrom}."
      },
      "safeTransferFrom(address,address,uint256,bytes)": {
        "details": "See {IERC721-safeTransferFrom}."
      },
      "setApprovalForAll(address,bool)": {
        "details": "See {IERC721-setApprovalForAll}."
      },
      "setPaused(bool)": {
        "params": {
          "paused": "Whether the contract should be paused."
        }
      },
      "supportsInterface(bytes4)": {
        "details": "See {IERC165-supportsInterface}."
      },
      "symbol()": {
        "details": "See {IERC721Metadata-symbol}."
      },
      "tokenByIndex(uint256)": {
        "details": "See {IERC721Enumerable-tokenByIndex}."
      },
      "tokenOfOwnerByIndex(address,uint256)": {
        "details": "See {IERC721Enumerable-tokenOfOwnerByIndex}."
      },
      "tokenURI(uint256)": {
        "details": "See {IERC721Metadata-tokenURI}."
      },
      "totalSupply()": {
        "details": "See {IERC721Enumerable-totalSupply}."
      },
      "transferFrom(address,address,uint256)": {
        "details": "See {IERC721-transferFrom}."
      }
    },
    "stateVariables": {
      "owner": {
        "details": "Initially deployer, then account with burn/mint/pause roles (LoanCore)."
      }
    },
    "title": "PromissoryNote",
    "version": 1
  },
  "userdoc": {
    "errors": {
      "ERC721P_DeadlineExpired(uint256)": [
        {
          "notice": "Deadline for the permit has expired."
        }
      ],
      "ERC721P_InvalidSignature(address)": [
        {
          "notice": "Invalid signature."
        }
      ],
      "ERC721P_NotTokenOwner(address)": [
        {
          "notice": "Address of the owner to also be the owner of the tokenId."
        }
      ],
      "PN_AlreadyInitialized()": [
        {
          "notice": "Roles have been initialized."
        }
      ],
      "PN_BurningRole(address)": [
        {
          "notice": "Caller of burn function must have the BURNER_ROLE in AccessControl."
        }
      ],
      "PN_CannotInitialize()": [
        {
          "notice": "Deployer is allowed to initialize roles. Caller is not deployer."
        }
      ],
      "PN_ContractPaused()": [
        {
          "notice": "No token transfers while contract is in paused state."
        }
      ],
      "PN_MintingRole(address)": [
        {
          "notice": "Caller of mint function must have the MINTER_ROLE in AccessControl."
        }
      ]
    },
    "kind": "user",
    "methods": {
      "DOMAIN_SEPARATOR()": {
        "notice": "Returns the domain separator used in the encoding of the signature for {permit}, as defined by {EIP712}."
      },
      "burn(uint256)": {
        "notice": "Create a new token and assign it to a specified owner. The token ID         should match a loan ID, and can only be called by a burner - in practice         LoanCore, which burns notes when a loan ends. Also unserts the mapping to         lookup loan IDs by note IDs."
      },
      "initialize(address)": {
        "notice": "Grants owner access to the specified address, which should be an         instance of LoanCore. Once admin role is set, it is immutable,         and cannot be set again."
      },
      "mint(address,uint256)": {
        "notice": "Create a new token and assign it to a specified owner. The token ID         should match the loan ID, and can only be called by the minter. Also         updates the mapping to lookup loan IDs by note IDs."
      },
      "nonces(address)": {
        "notice": "Returns the current nonce for `owner`. This value must be included whenever a signature is generated. Every successful call to permit increases the owner's nonce by one. This prevents a signature from being used multiple times."
      },
      "permit(address,address,uint256,uint256,uint8,bytes32,bytes32)": {
        "notice": "Allows the spender to spend the token ID which is owned by owner, given owner's signed approval. Emits an {Approval} event. Requirements: - `spender` cannot be the zero address. - `owner` must be the owner of `tokenId`. - `deadline` must be a timestamp in the future. - `v`, `r` and `s` must be a valid `secp256k1` signature from `owner` over the EIP712-formatted function arguments. - the signature must use ``owner``'s current nonce (see {nonces}). For more information on the signature format, see the https://eips.ethereum.org/EIPS/eip-2612#specification[relevant EIP section]."
      },
      "setPaused(bool)": {
        "notice": "Pauses transfers on the note. This essentially blocks all loan lifecycle         operations, since all originations and transfers require transfers of         the note."
      }
    },
    "version": 1
  },
  "storageLayout": {
    "storage": [
      {
        "astId": 24,
        "contract": "contracts/PromissoryNote.sol:PromissoryNote",
        "label": "_roles",
        "offset": 0,
        "slot": "0",
        "type": "t_mapping(t_bytes32,t_struct(RoleData)19_storage)"
      },
      {
        "astId": 338,
        "contract": "contracts/PromissoryNote.sol:PromissoryNote",
        "label": "_roleMembers",
        "offset": 0,
        "slot": "1",
        "type": "t_mapping(t_bytes32,t_struct(AddressSet)8139_storage)"
      },
      {
        "astId": 4531,
        "contract": "contracts/PromissoryNote.sol:PromissoryNote",
        "label": "_name",
        "offset": 0,
        "slot": "2",
        "type": "t_string_storage"
      },
      {
        "astId": 4533,
        "contract": "contracts/PromissoryNote.sol:PromissoryNote",
        "label": "_symbol",
        "offset": 0,
        "slot": "3",
        "type": "t_string_storage"
      },
      {
        "astId": 4537,
        "contract": "contracts/PromissoryNote.sol:PromissoryNote",
        "label": "_owners",
        "offset": 0,
        "slot": "4",
        "type": "t_mapping(t_uint256,t_address)"
      },
      {
        "astId": 4541,
        "contract": "contracts/PromissoryNote.sol:PromissoryNote",
        "label": "_balances",
        "offset": 0,
        "slot": "5",
        "type": "t_mapping(t_address,t_uint256)"
      },
      {
        "astId": 4545,
        "contract": "contracts/PromissoryNote.sol:PromissoryNote",
        "label": "_tokenApprovals",
        "offset": 0,
        "slot": "6",
        "type": "t_mapping(t_uint256,t_address)"
      },
      {
        "astId": 4551,
        "contract": "contracts/PromissoryNote.sol:PromissoryNote",
        "label": "_operatorApprovals",
        "offset": 0,
        "slot": "7",
        "type": "t_mapping(t_address,t_mapping(t_address,t_bool))"
      },
      {
        "astId": 5550,
        "contract": "contracts/PromissoryNote.sol:PromissoryNote",
        "label": "_ownedTokens",
        "offset": 0,
        "slot": "8",
        "type": "t_mapping(t_address,t_mapping(t_uint256,t_uint256))"
      },
      {
        "astId": 5554,
        "contract": "contracts/PromissoryNote.sol:PromissoryNote",
        "label": "_ownedTokensIndex",
        "offset": 0,
        "slot": "9",
        "type": "t_mapping(t_uint256,t_uint256)"
      },
      {
        "astId": 5557,
        "contract": "contracts/PromissoryNote.sol:PromissoryNote",
        "label": "_allTokens",
        "offset": 0,
        "slot": "10",
        "type": "t_array(t_uint256)dyn_storage"
      },
      {
        "astId": 5561,
        "contract": "contracts/PromissoryNote.sol:PromissoryNote",
        "label": "_allTokensIndex",
        "offset": 0,
        "slot": "11",
        "type": "t_mapping(t_uint256,t_uint256)"
      },
      {
        "astId": 1460,
        "contract": "contracts/PromissoryNote.sol:PromissoryNote",
        "label": "_paused",
        "offset": 0,
        "slot": "12",
        "type": "t_bool"
      },
      {
        "astId": 8459,
        "contract": "contracts/PromissoryNote.sol:PromissoryNote",
        "label": "_nonces",
        "offset": 0,
        "slot": "13",
        "type": "t_mapping(t_address,t_struct(Counter)6506_storage)"
      },
      {
        "astId": 12560,
        "contract": "contracts/PromissoryNote.sol:PromissoryNote",
        "label": "owner",
        "offset": 0,
        "slot": "14",
        "type": "t_address"
      },
      {
        "astId": 12562,
        "contract": "contracts/PromissoryNote.sol:PromissoryNote",
        "label": "initialized",
        "offset": 20,
        "slot": "14",
        "type": "t_bool"
      },
      {
        "astId": 12565,
        "contract": "contracts/PromissoryNote.sol:PromissoryNote",
        "label": "_tokenIdTracker",
        "offset": 0,
        "slot": "15",
        "type": "t_struct(Counter)6506_storage"
      }
    ],
    "types": {
      "t_address": {
        "encoding": "inplace",
        "label": "address",
        "numberOfBytes": "20"
      },
      "t_array(t_bytes32)dyn_storage": {
        "base": "t_bytes32",
        "encoding": "dynamic_array",
        "label": "bytes32[]",
        "numberOfBytes": "32"
      },
      "t_array(t_uint256)dyn_storage": {
        "base": "t_uint256",
        "encoding": "dynamic_array",
        "label": "uint256[]",
        "numberOfBytes": "32"
      },
      "t_bool": {
        "encoding": "inplace",
        "label": "bool",
        "numberOfBytes": "1"
      },
      "t_bytes32": {
        "encoding": "inplace",
        "label": "bytes32",
        "numberOfBytes": "32"
      },
      "t_mapping(t_address,t_bool)": {
        "encoding": "mapping",
        "key": "t_address",
        "label": "mapping(address => bool)",
        "numberOfBytes": "32",
        "value": "t_bool"
      },
      "t_mapping(t_address,t_mapping(t_address,t_bool))": {
        "encoding": "mapping",
        "key": "t_address",
        "label": "mapping(address => mapping(address => bool))",
        "numberOfBytes": "32",
        "value": "t_mapping(t_address,t_bool)"
      },
      "t_mapping(t_address,t_mapping(t_uint256,t_uint256))": {
        "encoding": "mapping",
        "key": "t_address",
        "label": "mapping(address => mapping(uint256 => uint256))",
        "numberOfBytes": "32",
        "value": "t_mapping(t_uint256,t_uint256)"
      },
      "t_mapping(t_address,t_struct(Counter)6506_storage)": {
        "encoding": "mapping",
        "key": "t_address",
        "label": "mapping(address => struct Counters.Counter)",
        "numberOfBytes": "32",
        "value": "t_struct(Counter)6506_storage"
      },
      "t_mapping(t_address,t_uint256)": {
        "encoding": "mapping",
        "key": "t_address",
        "label": "mapping(address => uint256)",
        "numberOfBytes": "32",
        "value": "t_uint256"
      },
      "t_mapping(t_bytes32,t_struct(AddressSet)8139_storage)": {
        "encoding": "mapping",
        "key": "t_bytes32",
        "label": "mapping(bytes32 => struct EnumerableSet.AddressSet)",
        "numberOfBytes": "32",
        "value": "t_struct(AddressSet)8139_storage"
      },
      "t_mapping(t_bytes32,t_struct(RoleData)19_storage)": {
        "encoding": "mapping",
        "key": "t_bytes32",
        "label": "mapping(bytes32 => struct AccessControl.RoleData)",
        "numberOfBytes": "32",
        "value": "t_struct(RoleData)19_storage"
      },
      "t_mapping(t_bytes32,t_uint256)": {
        "encoding": "mapping",
        "key": "t_bytes32",
        "label": "mapping(bytes32 => uint256)",
        "numberOfBytes": "32",
        "value": "t_uint256"
      },
      "t_mapping(t_uint256,t_address)": {
        "encoding": "mapping",
        "key": "t_uint256",
        "label": "mapping(uint256 => address)",
        "numberOfBytes": "32",
        "value": "t_address"
      },
      "t_mapping(t_uint256,t_uint256)": {
        "encoding": "mapping",
        "key": "t_uint256",
        "label": "mapping(uint256 => uint256)",
        "numberOfBytes": "32",
        "value": "t_uint256"
      },
      "t_string_storage": {
        "encoding": "bytes",
        "label": "string",
        "numberOfBytes": "32"
      },
      "t_struct(AddressSet)8139_storage": {
        "encoding": "inplace",
        "label": "struct EnumerableSet.AddressSet",
        "members": [
          {
            "astId": 8138,
            "contract": "contracts/PromissoryNote.sol:PromissoryNote",
            "label": "_inner",
            "offset": 0,
            "slot": "0",
            "type": "t_struct(Set)7838_storage"
          }
        ],
        "numberOfBytes": "64"
      },
      "t_struct(Counter)6506_storage": {
        "encoding": "inplace",
        "label": "struct Counters.Counter",
        "members": [
          {
            "astId": 6505,
            "contract": "contracts/PromissoryNote.sol:PromissoryNote",
            "label": "_value",
            "offset": 0,
            "slot": "0",
            "type": "t_uint256"
          }
        ],
        "numberOfBytes": "32"
      },
      "t_struct(RoleData)19_storage": {
        "encoding": "inplace",
        "label": "struct AccessControl.RoleData",
        "members": [
          {
            "astId": 16,
            "contract": "contracts/PromissoryNote.sol:PromissoryNote",
            "label": "members",
            "offset": 0,
            "slot": "0",
            "type": "t_mapping(t_address,t_bool)"
          },
          {
            "astId": 18,
            "contract": "contracts/PromissoryNote.sol:PromissoryNote",
            "label": "adminRole",
            "offset": 0,
            "slot": "1",
            "type": "t_bytes32"
          }
        ],
        "numberOfBytes": "64"
      },
      "t_struct(Set)7838_storage": {
        "encoding": "inplace",
        "label": "struct EnumerableSet.Set",
        "members": [
          {
            "astId": 7833,
            "contract": "contracts/PromissoryNote.sol:PromissoryNote",
            "label": "_values",
            "offset": 0,
            "slot": "0",
            "type": "t_array(t_bytes32)dyn_storage"
          },
          {
            "astId": 7837,
            "contract": "contracts/PromissoryNote.sol:PromissoryNote",
            "label": "_indexes",
            "offset": 0,
            "slot": "1",
            "type": "t_mapping(t_bytes32,t_uint256)"
          }
        ],
        "numberOfBytes": "64"
      },
      "t_uint256": {
        "encoding": "inplace",
        "label": "uint256",
        "numberOfBytes": "32"
      }
    }
  }
}