{
  "address": "0xF00cfD8dfBfd55A4dEaeF1A4E76C75ACcfcBD03d",
  "abi": [
    {
      "anonymous": false,
      "inputs": [
        {
          "indexed": true,
          "internalType": "address",
          "name": "previousOwner",
          "type": "address"
        },
        {
          "indexed": true,
          "internalType": "address",
          "name": "newOwner",
          "type": "address"
        }
      ],
      "name": "OwnershipTransferred",
      "type": "event"
    },
    {
      "anonymous": false,
      "inputs": [
        {
          "indexed": true,
          "internalType": "bytes32",
          "name": "role",
          "type": "bytes32"
        },
        {
          "indexed": true,
          "internalType": "bytes32",
          "name": "previousAdminRole",
          "type": "bytes32"
        },
        {
          "indexed": true,
          "internalType": "bytes32",
          "name": "newAdminRole",
          "type": "bytes32"
        }
      ],
      "name": "RoleAdminChanged",
      "type": "event"
    },
    {
      "anonymous": false,
      "inputs": [
        {
          "indexed": true,
          "internalType": "bytes32",
          "name": "role",
          "type": "bytes32"
        },
        {
          "indexed": true,
          "internalType": "address",
          "name": "account",
          "type": "address"
        },
        {
          "indexed": true,
          "internalType": "address",
          "name": "sender",
          "type": "address"
        }
      ],
      "name": "RoleGranted",
      "type": "event"
    },
    {
      "anonymous": false,
      "inputs": [
        {
          "indexed": true,
          "internalType": "bytes32",
          "name": "role",
          "type": "bytes32"
        },
        {
          "indexed": true,
          "internalType": "address",
          "name": "account",
          "type": "address"
        },
        {
          "indexed": true,
          "internalType": "address",
          "name": "sender",
          "type": "address"
        }
      ],
      "name": "RoleRevoked",
      "type": "event"
    },
    {
      "anonymous": false,
      "inputs": [
        {
          "indexed": false,
          "internalType": "uint256",
          "name": "_newFee",
          "type": "uint256"
        }
      ],
      "name": "UpdateOriginationFee",
      "type": "event"
    },
    {
      "anonymous": false,
      "inputs": [
        {
          "indexed": false,
          "internalType": "uint256",
          "name": "_newFee",
          "type": "uint256"
        }
      ],
      "name": "UpdateRolloverFee",
      "type": "event"
    },
    {
      "inputs": [],
      "name": "DEFAULT_ADMIN_ROLE",
      "outputs": [
        {
          "internalType": "bytes32",
          "name": "",
          "type": "bytes32"
        }
      ],
      "stateMutability": "view",
      "type": "function"
    },
    {
      "inputs": [],
      "name": "getOriginationFee",
      "outputs": [
        {
          "internalType": "uint256",
          "name": "",
          "type": "uint256"
        }
      ],
      "stateMutability": "view",
      "type": "function"
    },
    {
      "inputs": [
        {
          "internalType": "bytes32",
          "name": "role",
          "type": "bytes32"
        }
      ],
      "name": "getRoleAdmin",
      "outputs": [
        {
          "internalType": "bytes32",
          "name": "",
          "type": "bytes32"
        }
      ],
      "stateMutability": "view",
      "type": "function"
    },
    {
      "inputs": [
        {
          "internalType": "bytes32",
          "name": "role",
          "type": "bytes32"
        },
        {
          "internalType": "uint256",
          "name": "index",
          "type": "uint256"
        }
      ],
      "name": "getRoleMember",
      "outputs": [
        {
          "internalType": "address",
          "name": "",
          "type": "address"
        }
      ],
      "stateMutability": "view",
      "type": "function"
    },
    {
      "inputs": [
        {
          "internalType": "bytes32",
          "name": "role",
          "type": "bytes32"
        }
      ],
      "name": "getRoleMemberCount",
      "outputs": [
        {
          "internalType": "uint256",
          "name": "",
          "type": "uint256"
        }
      ],
      "stateMutability": "view",
      "type": "function"
    },
    {
      "inputs": [],
      "name": "getRolloverFee",
      "outputs": [
        {
          "internalType": "uint256",
          "name": "",
          "type": "uint256"
        }
      ],
      "stateMutability": "view",
      "type": "function"
    },
    {
      "inputs": [
        {
          "internalType": "bytes32",
          "name": "role",
          "type": "bytes32"
        },
        {
          "internalType": "address",
          "name": "account",
          "type": "address"
        }
      ],
      "name": "grantRole",
      "outputs": [],
      "stateMutability": "nonpayable",
      "type": "function"
    },
    {
      "inputs": [
        {
          "internalType": "bytes32",
          "name": "role",
          "type": "bytes32"
        },
        {
          "internalType": "address",
          "name": "account",
          "type": "address"
        }
      ],
      "name": "hasRole",
      "outputs": [
        {
          "internalType": "bool",
          "name": "",
          "type": "bool"
        }
      ],
      "stateMutability": "view",
      "type": "function"
    },
    {
      "inputs": [],
      "name": "owner",
      "outputs": [
        {
          "internalType": "address",
          "name": "",
          "type": "address"
        }
      ],
      "stateMutability": "view",
      "type": "function"
    },
    {
      "inputs": [],
      "name": "renounceOwnership",
      "outputs": [],
      "stateMutability": "nonpayable",
      "type": "function"
    },
    {
      "inputs": [
        {
          "internalType": "bytes32",
          "name": "role",
          "type": "bytes32"
        },
        {
          "internalType": "address",
          "name": "account",
          "type": "address"
        }
      ],
      "name": "renounceRole",
      "outputs": [],
      "stateMutability": "nonpayable",
      "type": "function"
    },
    {
      "inputs": [
        {
          "internalType": "bytes32",
          "name": "role",
          "type": "bytes32"
        },
        {
          "internalType": "address",
          "name": "account",
          "type": "address"
        }
      ],
      "name": "revokeRole",
      "outputs": [],
      "stateMutability": "nonpayable",
      "type": "function"
    },
    {
      "inputs": [
        {
          "internalType": "uint256",
          "name": "_originationFee",
          "type": "uint256"
        }
      ],
      "name": "setOriginationFee",
      "outputs": [],
      "stateMutability": "nonpayable",
      "type": "function"
    },
    {
      "inputs": [
        {
          "internalType": "uint256",
          "name": "_rolloverFee",
          "type": "uint256"
        }
      ],
      "name": "setRolloverFee",
      "outputs": [],
      "stateMutability": "nonpayable",
      "type": "function"
    },
    {
      "inputs": [
        {
          "internalType": "bytes4",
          "name": "interfaceId",
          "type": "bytes4"
        }
      ],
      "name": "supportsInterface",
      "outputs": [
        {
          "internalType": "bool",
          "name": "",
          "type": "bool"
        }
      ],
      "stateMutability": "view",
      "type": "function"
    },
    {
      "inputs": [
        {
          "internalType": "address",
          "name": "newOwner",
          "type": "address"
        }
      ],
      "name": "transferOwnership",
      "outputs": [],
      "stateMutability": "nonpayable",
      "type": "function"
    }
  ],
  "transactionHash": "0x5f15e128f9082771ab1bf83322c7817b114af6e284ebf5c81c54c96ef3b638b2",
  "args": [],
  "numDeployments": 1,
  "solcInputHash": "f8d88f69c17aa23c4805e0fc29994ffd",
  "bytecode": "0x60806040526032600355600a60045534801561001a57600080fd5b5061002433610029565b61007b565b600280546001600160a01b038381166001600160a01b0319831681179093556040519116919082907f8be0079c531659141344cd1fd0a4f28419497f9722a3daafe3b4186f6b6457e090600090a35050565b610d478061008a6000396000f3fe608060405234801561001057600080fd5b50600436106101005760003560e01c80639010d07c11610097578063ca15c87311610066578063ca15c8731461020b578063d547741f1461021e578063f2fde38b14610231578063fc2e39a61461024457600080fd5b80639010d07c146101ca57806391d14854146101dd57806396c7c8de146101f0578063a217fddf1461020357600080fd5b806336568abe116100d357806336568abe14610177578063715018a61461018a5780637f2006a0146101925780638da5cb5b146101a557600080fd5b806301ffc9a7146101055780632283487d1461012d578063248a9ca31461013f5780632f2ff15d14610162575b600080fd5b610118610113366004610aa8565b61024c565b60405190151581526020015b60405180910390f35b6004545b604051908152602001610124565b61013161014d366004610ad2565b60009081526020819052604090206001015490565b610175610170366004610b07565b610277565b005b610175610185366004610b07565b6102a1565b610175610324565b6101756101a0366004610ad2565b61035a565b6002546001600160a01b03165b6040516001600160a01b039091168152602001610124565b6101b26101d8366004610b33565b6103c0565b6101186101eb366004610b07565b6103df565b6101756101fe366004610ad2565b610408565b610131600081565b610131610219366004610ad2565b610467565b61017561022c366004610b07565b61047e565b61017561023f366004610b55565b6104a3565b600354610131565b60006001600160e01b03198216635a05180f60e01b148061027157506102718261053e565b92915050565b60008281526020819052604090206001015461029281610573565b61029c838361057d565b505050565b6001600160a01b03811633146103165760405162461bcd60e51b815260206004820152602f60248201527f416363657373436f6e74726f6c3a2063616e206f6e6c792072656e6f756e636560448201526e103937b632b9903337b91039b2b63360891b60648201526084015b60405180910390fd5b610320828261059f565b5050565b6002546001600160a01b0316331461034e5760405162461bcd60e51b815260040161030d90610b70565b61035860006105c1565b565b6002546001600160a01b031633146103845760405162461bcd60e51b815260040161030d90610b70565b60038190556040518181527f9332eb53f897ef131d22653f075bec7267653c207ce387d80fc8521b878c6296906020015b60405180910390a150565b60008281526001602052604081206103d89083610613565b9392505050565b6000918252602082815260408084206001600160a01b0393909316845291905290205460ff1690565b6002546001600160a01b031633146104325760405162461bcd60e51b815260040161030d90610b70565b60048190556040518181527f44b0c2cef7e7d9cc2cf577599fce62a2e5429c8d7218d8beddd5a6a00a94e7e9906020016103b5565b60008181526001602052604081206102719061061f565b60008281526020819052604090206001015461049981610573565b61029c838361059f565b6002546001600160a01b031633146104cd5760405162461bcd60e51b815260040161030d90610b70565b6001600160a01b0381166105325760405162461bcd60e51b815260206004820152602660248201527f4f776e61626c653a206e6577206f776e657220697320746865207a65726f206160448201526564647265737360d01b606482015260840161030d565b61053b816105c1565b50565b60006001600160e01b03198216637965db0b60e01b148061027157506301ffc9a760e01b6001600160e01b0319831614610271565b61053b8133610629565b610587828261068d565b600082815260016020526040902061029c9082610711565b6105a98282610726565b600082815260016020526040902061029c908261078b565b600280546001600160a01b038381166001600160a01b0319831681179093556040519116919082907f8be0079c531659141344cd1fd0a4f28419497f9722a3daafe3b4186f6b6457e090600090a35050565b60006103d883836107a0565b6000610271825490565b61063382826103df565b6103205761064b816001600160a01b031660146107ca565b6106568360206107ca565b604051602001610667929190610bd5565b60408051601f198184030181529082905262461bcd60e51b825261030d91600401610c4a565b61069782826103df565b610320576000828152602081815260408083206001600160a01b03851684529091529020805460ff191660011790556106cd3390565b6001600160a01b0316816001600160a01b0316837f2f8788117e7eff1d82e926ec794901d17c78024a50270940304540a733656f0d60405160405180910390a45050565b60006103d8836001600160a01b038416610966565b61073082826103df565b15610320576000828152602081815260408083206001600160a01b0385168085529252808320805460ff1916905551339285917ff6391f5c32d9c69d2a47ea670b442974b53935d1edc7fd64eb21e047a839171b9190a45050565b60006103d8836001600160a01b0384166109b5565b60008260000182815481106107b7576107b7610c7d565b9060005260206000200154905092915050565b606060006107d9836002610ca9565b6107e4906002610cc8565b67ffffffffffffffff8111156107fc576107fc610ce0565b6040519080825280601f01601f191660200182016040528015610826576020820181803683370190505b509050600360fc1b8160008151811061084157610841610c7d565b60200101906001600160f81b031916908160001a905350600f60fb1b8160018151811061087057610870610c7d565b60200101906001600160f81b031916908160001a9053506000610894846002610ca9565b61089f906001610cc8565b90505b6001811115610917576f181899199a1a9b1b9c1cb0b131b232b360811b85600f16601081106108d3576108d3610c7d565b1a60f81b8282815181106108e9576108e9610c7d565b60200101906001600160f81b031916908160001a90535060049490941c9361091081610cf6565b90506108a2565b5083156103d85760405162461bcd60e51b815260206004820181905260248201527f537472696e67733a20686578206c656e67746820696e73756666696369656e74604482015260640161030d565b60008181526001830160205260408120546109ad57508154600181810184556000848152602080822090930184905584548482528286019093526040902091909155610271565b506000610271565b60008181526001830160205260408120548015610a9e5760006109d9600183610d0d565b85549091506000906109ed90600190610d0d565b9050818114610a52576000866000018281548110610a0d57610a0d610c7d565b9060005260206000200154905080876000018481548110610a3057610a30610c7d565b6000918252602080832090910192909255918252600188019052604090208390555b8554869080610a6357610a63610d24565b600190038181906000526020600020016000905590558560010160008681526020019081526020016000206000905560019350505050610271565b6000915050610271565b600060208284031215610aba57600080fd5b81356001600160e01b0319811681146103d857600080fd5b600060208284031215610ae457600080fd5b5035919050565b80356001600160a01b0381168114610b0257600080fd5b919050565b60008060408385031215610b1a57600080fd5b82359150610b2a60208401610aeb565b90509250929050565b60008060408385031215610b4657600080fd5b50508035926020909101359150565b600060208284031215610b6757600080fd5b6103d882610aeb565b6020808252818101527f4f776e61626c653a2063616c6c6572206973206e6f7420746865206f776e6572604082015260600190565b60005b83811015610bc0578181015183820152602001610ba8565b83811115610bcf576000848401525b50505050565b7f416363657373436f6e74726f6c3a206163636f756e7420000000000000000000815260008351610c0d816017850160208801610ba5565b7001034b99036b4b9b9b4b733903937b6329607d1b6017918401918201528351610c3e816028840160208801610ba5565b01602801949350505050565b6020815260008251806020840152610c69816040850160208701610ba5565b601f01601f19169190910160400192915050565b634e487b7160e01b600052603260045260246000fd5b634e487b7160e01b600052601160045260246000fd5b6000816000190483118215151615610cc357610cc3610c93565b500290565b60008219821115610cdb57610cdb610c93565b500190565b634e487b7160e01b600052604160045260246000fd5b600081610d0557610d05610c93565b506000190190565b600082821015610d1f57610d1f610c93565b500390565b634e487b7160e01b600052603160045260246000fdfea164736f6c634300080b000a",
  "devdoc": {
    "author": "Non-Fungible Technologies, Inc. The Fee Controller is used by LoanCore to query for fees for different loan lifecycle interactions (origiations, rollovers, etc). All fees should have setters and getters and be expressed in BPs. In the future, this contract could be extended to support more complext logic (introducing a mapping of users who get a discount, e.g.). Since LoanCore can change the fee controller reference, any changes to this contract can be newly deployed on-chain and adopted.",
    "kind": "dev",
    "methods": {
      "getOriginationFee()": {
        "returns": {
          "_0": "originationFee       The current fee in bps."
        }
      },
      "getRoleAdmin(bytes32)": {
        "details": "Returns the admin role that controls `role`. See {grantRole} and {revokeRole}. To change a role's admin, use {_setRoleAdmin}."
      },
      "getRoleMember(bytes32,uint256)": {
        "details": "Returns one of the accounts that have `role`. `index` must be a value between 0 and {getRoleMemberCount}, non-inclusive. Role bearers are not sorted in any particular way, and their ordering may change at any point. WARNING: When using {getRoleMember} and {getRoleMemberCount}, make sure you perform all queries on the same block. See the following https://forum.openzeppelin.com/t/iterating-over-elements-on-enumerableset-in-openzeppelin-contracts/2296[forum post] for more information."
      },
      "getRoleMemberCount(bytes32)": {
        "details": "Returns the number of accounts that have `role`. Can be used together with {getRoleMember} to enumerate all bearers of a role."
      },
      "getRolloverFee()": {
        "returns": {
          "_0": "rolloverFee       The current fee in bps."
        }
      },
      "grantRole(bytes32,address)": {
        "details": "Grants `role` to `account`. If `account` had not been already granted `role`, emits a {RoleGranted} event. Requirements: - the caller must have ``role``'s admin role."
      },
      "hasRole(bytes32,address)": {
        "details": "Returns `true` if `account` has been granted `role`."
      },
      "owner()": {
        "details": "Returns the address of the current owner."
      },
      "renounceOwnership()": {
        "details": "Leaves the contract without owner. It will not be possible to call `onlyOwner` functions anymore. Can only be called by the current owner. NOTE: Renouncing ownership will leave the contract without an owner, thereby removing any functionality that is only available to the owner."
      },
      "renounceRole(bytes32,address)": {
        "details": "Revokes `role` from the calling account. Roles are often managed via {grantRole} and {revokeRole}: this function's purpose is to provide a mechanism for accounts to lose their privileges if they are compromised (such as when a trusted device is misplaced). If the calling account had been revoked `role`, emits a {RoleRevoked} event. Requirements: - the caller must be `account`."
      },
      "revokeRole(bytes32,address)": {
        "details": "Revokes `role` from `account`. If `account` had been granted `role`, emits a {RoleRevoked} event. Requirements: - the caller must have ``role``'s admin role."
      },
      "setOriginationFee(uint256)": {
        "params": {
          "_originationFee": "The new origination fee, in bps."
        }
      },
      "setRolloverFee(uint256)": {
        "params": {
          "_rolloverFee": "The new rollover fee, in bps."
        }
      },
      "supportsInterface(bytes4)": {
        "details": "See {IERC165-supportsInterface}."
      },
      "transferOwnership(address)": {
        "details": "Transfers ownership of the contract to a new account (`newOwner`). Can only be called by the current owner."
      }
    },
    "stateVariables": {
      "originationFee": {
        "details": "Fee for origination - default is 0.5%"
      },
      "rolloverFee": {
        "details": "Fee for rollovers - default is 0.1%"
      }
    },
    "title": "FeeController",
    "version": 1
  },
  "userdoc": {
    "kind": "user",
    "methods": {
      "getOriginationFee()": {
        "notice": "Get the current origination fee in bps."
      },
      "getRolloverFee()": {
        "notice": "Get the current origination fee in bps."
      },
      "setOriginationFee(uint256)": {
        "notice": "Set the origination fee to the given value. The caller         must be the owner of the contract."
      },
      "setRolloverFee(uint256)": {
        "notice": "Set the origination fee to the given value. The caller         must be the owner of the contract."
      }
    },
    "version": 1
  },
  "storageLayout": {
    "storage": [
      {
        "astId": 24,
        "contract": "contracts/FeeController.sol:FeeController",
        "label": "_roles",
        "offset": 0,
        "slot": "0",
        "type": "t_mapping(t_bytes32,t_struct(RoleData)19_storage)"
      },
      {
        "astId": 338,
        "contract": "contracts/FeeController.sol:FeeController",
        "label": "_roleMembers",
        "offset": 0,
        "slot": "1",
        "type": "t_mapping(t_bytes32,t_struct(AddressSet)8139_storage)"
      },
      {
        "astId": 550,
        "contract": "contracts/FeeController.sol:FeeController",
        "label": "_owner",
        "offset": 0,
        "slot": "2",
        "type": "t_address"
      },
      {
        "astId": 8850,
        "contract": "contracts/FeeController.sol:FeeController",
        "label": "originationFee",
        "offset": 0,
        "slot": "3",
        "type": "t_uint256"
      },
      {
        "astId": 8854,
        "contract": "contracts/FeeController.sol:FeeController",
        "label": "rolloverFee",
        "offset": 0,
        "slot": "4",
        "type": "t_uint256"
      }
    ],
    "types": {
      "t_address": {
        "encoding": "inplace",
        "label": "address",
        "numberOfBytes": "20"
      },
      "t_array(t_bytes32)dyn_storage": {
        "base": "t_bytes32",
        "encoding": "dynamic_array",
        "label": "bytes32[]",
        "numberOfBytes": "32"
      },
      "t_bool": {
        "encoding": "inplace",
        "label": "bool",
        "numberOfBytes": "1"
      },
      "t_bytes32": {
        "encoding": "inplace",
        "label": "bytes32",
        "numberOfBytes": "32"
      },
      "t_mapping(t_address,t_bool)": {
        "encoding": "mapping",
        "key": "t_address",
        "label": "mapping(address => bool)",
        "numberOfBytes": "32",
        "value": "t_bool"
      },
      "t_mapping(t_bytes32,t_struct(AddressSet)8139_storage)": {
        "encoding": "mapping",
        "key": "t_bytes32",
        "label": "mapping(bytes32 => struct EnumerableSet.AddressSet)",
        "numberOfBytes": "32",
        "value": "t_struct(AddressSet)8139_storage"
      },
      "t_mapping(t_bytes32,t_struct(RoleData)19_storage)": {
        "encoding": "mapping",
        "key": "t_bytes32",
        "label": "mapping(bytes32 => struct AccessControl.RoleData)",
        "numberOfBytes": "32",
        "value": "t_struct(RoleData)19_storage"
      },
      "t_mapping(t_bytes32,t_uint256)": {
        "encoding": "mapping",
        "key": "t_bytes32",
        "label": "mapping(bytes32 => uint256)",
        "numberOfBytes": "32",
        "value": "t_uint256"
      },
      "t_struct(AddressSet)8139_storage": {
        "encoding": "inplace",
        "label": "struct EnumerableSet.AddressSet",
        "members": [
          {
            "astId": 8138,
            "contract": "contracts/FeeController.sol:FeeController",
            "label": "_inner",
            "offset": 0,
            "slot": "0",
            "type": "t_struct(Set)7838_storage"
          }
        ],
        "numberOfBytes": "64"
      },
      "t_struct(RoleData)19_storage": {
        "encoding": "inplace",
        "label": "struct AccessControl.RoleData",
        "members": [
          {
            "astId": 16,
            "contract": "contracts/FeeController.sol:FeeController",
            "label": "members",
            "offset": 0,
            "slot": "0",
            "type": "t_mapping(t_address,t_bool)"
          },
          {
            "astId": 18,
            "contract": "contracts/FeeController.sol:FeeController",
            "label": "adminRole",
            "offset": 0,
            "slot": "1",
            "type": "t_bytes32"
          }
        ],
        "numberOfBytes": "64"
      },
      "t_struct(Set)7838_storage": {
        "encoding": "inplace",
        "label": "struct EnumerableSet.Set",
        "members": [
          {
            "astId": 7833,
            "contract": "contracts/FeeController.sol:FeeController",
            "label": "_values",
            "offset": 0,
            "slot": "0",
            "type": "t_array(t_bytes32)dyn_storage"
          },
          {
            "astId": 7837,
            "contract": "contracts/FeeController.sol:FeeController",
            "label": "_indexes",
            "offset": 0,
            "slot": "1",
            "type": "t_mapping(t_bytes32,t_uint256)"
          }
        ],
        "numberOfBytes": "64"
      },
      "t_uint256": {
        "encoding": "inplace",
        "label": "uint256",
        "numberOfBytes": "32"
      }
    }
  }
}