{
  "address": "0xD49425B1F3A6802A98c2cD17279572cabC609567",
  "abi": [
    {
      "inputs": [],
      "stateMutability": "nonpayable",
      "type": "constructor"
    },
    {
      "inputs": [
        {
          "internalType": "uint256",
          "name": "interestRate",
          "type": "uint256"
        }
      ],
      "name": "FIAC_InterestRate",
      "type": "error"
    },
    {
      "inputs": [
        {
          "internalType": "address",
          "name": "collateralAddress",
          "type": "address"
        },
        {
          "internalType": "uint256",
          "name": "collateralId",
          "type": "uint256"
        }
      ],
      "name": "LC_CollateralInUse",
      "type": "error"
    },
    {
      "inputs": [
        {
          "internalType": "enum LoanLibrary.LoanState",
          "name": "state",
          "type": "uint8"
        }
      ],
      "name": "LC_InvalidState",
      "type": "error"
    },
    {
      "inputs": [],
      "name": "LC_LoanNotDefaulted",
      "type": "error"
    },
    {
      "inputs": [
        {
          "internalType": "address",
          "name": "user",
          "type": "address"
        },
        {
          "internalType": "uint160",
          "name": "nonce",
          "type": "uint160"
        }
      ],
      "name": "LC_NonceUsed",
      "type": "error"
    },
    {
      "inputs": [
        {
          "internalType": "uint256",
          "name": "dueDate",
          "type": "uint256"
        }
      ],
      "name": "LC_NotExpired",
      "type": "error"
    },
    {
      "inputs": [],
      "name": "LC_ZeroAddress",
      "type": "error"
    },
    {
      "anonymous": false,
      "inputs": [
        {
          "indexed": false,
          "internalType": "address",
          "name": "previousAdmin",
          "type": "address"
        },
        {
          "indexed": false,
          "internalType": "address",
          "name": "newAdmin",
          "type": "address"
        }
      ],
      "name": "AdminChanged",
      "type": "event"
    },
    {
      "anonymous": false,
      "inputs": [
        {
          "indexed": true,
          "internalType": "address",
          "name": "beacon",
          "type": "address"
        }
      ],
      "name": "BeaconUpgraded",
      "type": "event"
    },
    {
      "anonymous": false,
      "inputs": [
        {
          "indexed": false,
          "internalType": "address",
          "name": "token",
          "type": "address"
        },
        {
          "indexed": false,
          "internalType": "address",
          "name": "to",
          "type": "address"
        },
        {
          "indexed": false,
          "internalType": "uint256",
          "name": "amount",
          "type": "uint256"
        }
      ],
      "name": "FeesClaimed",
      "type": "event"
    },
    {
      "anonymous": false,
      "inputs": [
        {
          "indexed": false,
          "internalType": "uint8",
          "name": "version",
          "type": "uint8"
        }
      ],
      "name": "Initialized",
      "type": "event"
    },
    {
      "anonymous": false,
      "inputs": [
        {
          "indexed": false,
          "internalType": "uint256",
          "name": "loanId",
          "type": "uint256"
        },
        {
          "indexed": false,
          "internalType": "uint256",
          "name": "repaidAmount",
          "type": "uint256"
        },
        {
          "indexed": false,
          "internalType": "uint256",
          "name": "remBalance",
          "type": "uint256"
        }
      ],
      "name": "InstallmentPaymentReceived",
      "type": "event"
    },
    {
      "anonymous": false,
      "inputs": [
        {
          "indexed": false,
          "internalType": "uint256",
          "name": "loanId",
          "type": "uint256"
        }
      ],
      "name": "LoanClaimed",
      "type": "event"
    },
    {
      "anonymous": false,
      "inputs": [
        {
          "components": [
            {
              "internalType": "uint32",
              "name": "durationSecs",
              "type": "uint32"
            },
            {
              "internalType": "uint32",
              "name": "deadline",
              "type": "uint32"
            },
            {
              "internalType": "uint24",
              "name": "numInstallments",
              "type": "uint24"
            },
            {
              "internalType": "uint160",
              "name": "interestRate",
              "type": "uint160"
            },
            {
              "internalType": "uint256",
              "name": "principal",
              "type": "uint256"
            },
            {
              "internalType": "address",
              "name": "collateralAddress",
              "type": "address"
            },
            {
              "internalType": "uint256",
              "name": "collateralId",
              "type": "uint256"
            },
            {
              "internalType": "address",
              "name": "payableCurrency",
              "type": "address"
            }
          ],
          "indexed": false,
          "internalType": "struct LoanLibrary.LoanTerms",
          "name": "terms",
          "type": "tuple"
        },
        {
          "indexed": false,
          "internalType": "uint256",
          "name": "loanId",
          "type": "uint256"
        }
      ],
      "name": "LoanCreated",
      "type": "event"
    },
    {
      "anonymous": false,
      "inputs": [
        {
          "indexed": false,
          "internalType": "uint256",
          "name": "loanId",
          "type": "uint256"
        }
      ],
      "name": "LoanRepaid",
      "type": "event"
    },
    {
      "anonymous": false,
      "inputs": [
        {
          "indexed": false,
          "internalType": "uint256",
          "name": "oldLoanId",
          "type": "uint256"
        },
        {
          "indexed": false,
          "internalType": "uint256",
          "name": "newLoanId",
          "type": "uint256"
        }
      ],
      "name": "LoanRolledOver",
      "type": "event"
    },
    {
      "anonymous": false,
      "inputs": [
        {
          "indexed": false,
          "internalType": "uint256",
          "name": "loanId",
          "type": "uint256"
        },
        {
          "indexed": false,
          "internalType": "address",
          "name": "lender",
          "type": "address"
        },
        {
          "indexed": false,
          "internalType": "address",
          "name": "borrower",
          "type": "address"
        }
      ],
      "name": "LoanStarted",
      "type": "event"
    },
    {
      "anonymous": false,
      "inputs": [
        {
          "indexed": true,
          "internalType": "address",
          "name": "user",
          "type": "address"
        },
        {
          "indexed": false,
          "internalType": "uint160",
          "name": "nonce",
          "type": "uint160"
        }
      ],
      "name": "NonceUsed",
      "type": "event"
    },
    {
      "anonymous": false,
      "inputs": [
        {
          "indexed": false,
          "internalType": "address",
          "name": "account",
          "type": "address"
        }
      ],
      "name": "Paused",
      "type": "event"
    },
    {
      "anonymous": false,
      "inputs": [
        {
          "indexed": true,
          "internalType": "bytes32",
          "name": "role",
          "type": "bytes32"
        },
        {
          "indexed": true,
          "internalType": "bytes32",
          "name": "previousAdminRole",
          "type": "bytes32"
        },
        {
          "indexed": true,
          "internalType": "bytes32",
          "name": "newAdminRole",
          "type": "bytes32"
        }
      ],
      "name": "RoleAdminChanged",
      "type": "event"
    },
    {
      "anonymous": false,
      "inputs": [
        {
          "indexed": true,
          "internalType": "bytes32",
          "name": "role",
          "type": "bytes32"
        },
        {
          "indexed": true,
          "internalType": "address",
          "name": "account",
          "type": "address"
        },
        {
          "indexed": true,
          "internalType": "address",
          "name": "sender",
          "type": "address"
        }
      ],
      "name": "RoleGranted",
      "type": "event"
    },
    {
      "anonymous": false,
      "inputs": [
        {
          "indexed": true,
          "internalType": "bytes32",
          "name": "role",
          "type": "bytes32"
        },
        {
          "indexed": true,
          "internalType": "address",
          "name": "account",
          "type": "address"
        },
        {
          "indexed": true,
          "internalType": "address",
          "name": "sender",
          "type": "address"
        }
      ],
      "name": "RoleRevoked",
      "type": "event"
    },
    {
      "anonymous": false,
      "inputs": [
        {
          "indexed": false,
          "internalType": "address",
          "name": "feeController",
          "type": "address"
        }
      ],
      "name": "SetFeeController",
      "type": "event"
    },
    {
      "anonymous": false,
      "inputs": [
        {
          "indexed": false,
          "internalType": "address",
          "name": "account",
          "type": "address"
        }
      ],
      "name": "Unpaused",
      "type": "event"
    },
    {
      "anonymous": false,
      "inputs": [
        {
          "indexed": true,
          "internalType": "address",
          "name": "implementation",
          "type": "address"
        }
      ],
      "name": "Upgraded",
      "type": "event"
    },
    {
      "inputs": [],
      "name": "BASIS_POINTS_DENOMINATOR",
      "outputs": [
        {
          "internalType": "uint256",
          "name": "",
          "type": "uint256"
        }
      ],
      "stateMutability": "view",
      "type": "function"
    },
    {
      "inputs": [],
      "name": "DEFAULT_ADMIN_ROLE",
      "outputs": [
        {
          "internalType": "bytes32",
          "name": "",
          "type": "bytes32"
        }
      ],
      "stateMutability": "view",
      "type": "function"
    },
    {
      "inputs": [],
      "name": "FEE_CLAIMER_ROLE",
      "outputs": [
        {
          "internalType": "bytes32",
          "name": "",
          "type": "bytes32"
        }
      ],
      "stateMutability": "view",
      "type": "function"
    },
    {
      "inputs": [],
      "name": "INSTALLMENT_PERIOD_MULTIPLIER",
      "outputs": [
        {
          "internalType": "uint256",
          "name": "",
          "type": "uint256"
        }
      ],
      "stateMutability": "view",
      "type": "function"
    },
    {
      "inputs": [],
      "name": "INTEREST_RATE_DENOMINATOR",
      "outputs": [
        {
          "internalType": "uint256",
          "name": "",
          "type": "uint256"
        }
      ],
      "stateMutability": "view",
      "type": "function"
    },
    {
      "inputs": [],
      "name": "LATE_FEE",
      "outputs": [
        {
          "internalType": "uint256",
          "name": "",
          "type": "uint256"
        }
      ],
      "stateMutability": "view",
      "type": "function"
    },
    {
      "inputs": [],
      "name": "ORIGINATOR_ROLE",
      "outputs": [
        {
          "internalType": "bytes32",
          "name": "",
          "type": "bytes32"
        }
      ],
      "stateMutability": "view",
      "type": "function"
    },
    {
      "inputs": [],
      "name": "REPAYER_ROLE",
      "outputs": [
        {
          "internalType": "bytes32",
          "name": "",
          "type": "bytes32"
        }
      ],
      "stateMutability": "view",
      "type": "function"
    },
    {
      "inputs": [],
      "name": "borrowerNote",
      "outputs": [
        {
          "internalType": "contract IPromissoryNote",
          "name": "",
          "type": "address"
        }
      ],
      "stateMutability": "view",
      "type": "function"
    },
    {
      "inputs": [
        {
          "internalType": "address",
          "name": "caller",
          "type": "address"
        },
        {
          "internalType": "address",
          "name": "vault",
          "type": "address"
        }
      ],
      "name": "canCallOn",
      "outputs": [
        {
          "internalType": "bool",
          "name": "",
          "type": "bool"
        }
      ],
      "stateMutability": "view",
      "type": "function"
    },
    {
      "inputs": [
        {
          "internalType": "uint160",
          "name": "nonce",
          "type": "uint160"
        }
      ],
      "name": "cancelNonce",
      "outputs": [],
      "stateMutability": "nonpayable",
      "type": "function"
    },
    {
      "inputs": [
        {
          "internalType": "uint256",
          "name": "loanId",
          "type": "uint256"
        },
        {
          "internalType": "uint256",
          "name": "currentInstallmentPeriod",
          "type": "uint256"
        }
      ],
      "name": "claim",
      "outputs": [],
      "stateMutability": "nonpayable",
      "type": "function"
    },
    {
      "inputs": [
        {
          "internalType": "contract IERC20",
          "name": "token",
          "type": "address"
        }
      ],
      "name": "claimFees",
      "outputs": [],
      "stateMutability": "nonpayable",
      "type": "function"
    },
    {
      "inputs": [
        {
          "internalType": "address",
          "name": "user",
          "type": "address"
        },
        {
          "internalType": "uint160",
          "name": "nonce",
          "type": "uint160"
        }
      ],
      "name": "consumeNonce",
      "outputs": [],
      "stateMutability": "nonpayable",
      "type": "function"
    },
    {
      "inputs": [],
      "name": "feeController",
      "outputs": [
        {
          "internalType": "contract IFeeController",
          "name": "",
          "type": "address"
        }
      ],
      "stateMutability": "view",
      "type": "function"
    },
    {
      "inputs": [
        {
          "internalType": "uint256",
          "name": "principal",
          "type": "uint256"
        },
        {
          "internalType": "uint256",
          "name": "interestRate",
          "type": "uint256"
        }
      ],
      "name": "getFullInterestAmount",
      "outputs": [
        {
          "internalType": "uint256",
          "name": "",
          "type": "uint256"
        }
      ],
      "stateMutability": "pure",
      "type": "function"
    },
    {
      "inputs": [
        {
          "internalType": "uint256",
          "name": "loanId",
          "type": "uint256"
        }
      ],
      "name": "getLoan",
      "outputs": [
        {
          "components": [
            {
              "internalType": "enum LoanLibrary.LoanState",
              "name": "state",
              "type": "uint8"
            },
            {
              "internalType": "uint24",
              "name": "numInstallmentsPaid",
              "type": "uint24"
            },
            {
              "internalType": "uint160",
              "name": "startDate",
              "type": "uint160"
            },
            {
              "components": [
                {
                  "internalType": "uint32",
                  "name": "durationSecs",
                  "type": "uint32"
                },
                {
                  "internalType": "uint32",
                  "name": "deadline",
                  "type": "uint32"
                },
                {
                  "internalType": "uint24",
                  "name": "numInstallments",
                  "type": "uint24"
                },
                {
                  "internalType": "uint160",
                  "name": "interestRate",
                  "type": "uint160"
                },
                {
                  "internalType": "uint256",
                  "name": "principal",
                  "type": "uint256"
                },
                {
                  "internalType": "address",
                  "name": "collateralAddress",
                  "type": "address"
                },
                {
                  "internalType": "uint256",
                  "name": "collateralId",
                  "type": "uint256"
                },
                {
                  "internalType": "address",
                  "name": "payableCurrency",
                  "type": "address"
                }
              ],
              "internalType": "struct LoanLibrary.LoanTerms",
              "name": "terms",
              "type": "tuple"
            },
            {
              "internalType": "uint256",
              "name": "balance",
              "type": "uint256"
            },
            {
              "internalType": "uint256",
              "name": "balancePaid",
              "type": "uint256"
            },
            {
              "internalType": "uint256",
              "name": "lateFeesAccrued",
              "type": "uint256"
            }
          ],
          "internalType": "struct LoanLibrary.LoanData",
          "name": "loanData",
          "type": "tuple"
        }
      ],
      "stateMutability": "view",
      "type": "function"
    },
    {
      "inputs": [
        {
          "internalType": "bytes32",
          "name": "role",
          "type": "bytes32"
        }
      ],
      "name": "getRoleAdmin",
      "outputs": [
        {
          "internalType": "bytes32",
          "name": "",
          "type": "bytes32"
        }
      ],
      "stateMutability": "view",
      "type": "function"
    },
    {
      "inputs": [
        {
          "internalType": "bytes32",
          "name": "role",
          "type": "bytes32"
        },
        {
          "internalType": "address",
          "name": "account",
          "type": "address"
        }
      ],
      "name": "grantRole",
      "outputs": [],
      "stateMutability": "nonpayable",
      "type": "function"
    },
    {
      "inputs": [
        {
          "internalType": "bytes32",
          "name": "role",
          "type": "bytes32"
        },
        {
          "internalType": "address",
          "name": "account",
          "type": "address"
        }
      ],
      "name": "hasRole",
      "outputs": [
        {
          "internalType": "bool",
          "name": "",
          "type": "bool"
        }
      ],
      "stateMutability": "view",
      "type": "function"
    },
    {
      "inputs": [
        {
          "internalType": "address",
          "name": "owner",
          "type": "address"
        },
        {
          "internalType": "contract IFeeController",
          "name": "_feeController",
          "type": "address"
        },
        {
          "internalType": "contract IPromissoryNote",
          "name": "_borrowerNote",
          "type": "address"
        },
        {
          "internalType": "contract IPromissoryNote",
          "name": "_lenderNote",
          "type": "address"
        }
      ],
      "name": "initialize",
      "outputs": [],
      "stateMutability": "nonpayable",
      "type": "function"
    },
    {
      "inputs": [
        {
          "internalType": "address",
          "name": "user",
          "type": "address"
        },
        {
          "internalType": "uint160",
          "name": "nonce",
          "type": "uint160"
        }
      ],
      "name": "isNonceUsed",
      "outputs": [
        {
          "internalType": "bool",
          "name": "",
          "type": "bool"
        }
      ],
      "stateMutability": "view",
      "type": "function"
    },
    {
      "inputs": [],
      "name": "lenderNote",
      "outputs": [
        {
          "internalType": "contract IPromissoryNote",
          "name": "",
          "type": "address"
        }
      ],
      "stateMutability": "view",
      "type": "function"
    },
    {
      "inputs": [],
      "name": "pause",
      "outputs": [],
      "stateMutability": "nonpayable",
      "type": "function"
    },
    {
      "inputs": [],
      "name": "paused",
      "outputs": [
        {
          "internalType": "bool",
          "name": "",
          "type": "bool"
        }
      ],
      "stateMutability": "view",
      "type": "function"
    },
    {
      "inputs": [],
      "name": "proxiableUUID",
      "outputs": [
        {
          "internalType": "bytes32",
          "name": "",
          "type": "bytes32"
        }
      ],
      "stateMutability": "view",
      "type": "function"
    },
    {
      "inputs": [
        {
          "internalType": "bytes32",
          "name": "role",
          "type": "bytes32"
        },
        {
          "internalType": "address",
          "name": "account",
          "type": "address"
        }
      ],
      "name": "renounceRole",
      "outputs": [],
      "stateMutability": "nonpayable",
      "type": "function"
    },
    {
      "inputs": [
        {
          "internalType": "uint256",
          "name": "loanId",
          "type": "uint256"
        }
      ],
      "name": "repay",
      "outputs": [],
      "stateMutability": "nonpayable",
      "type": "function"
    },
    {
      "inputs": [
        {
          "internalType": "uint256",
          "name": "_loanId",
          "type": "uint256"
        },
        {
          "internalType": "uint256",
          "name": "_currentMissedPayments",
          "type": "uint256"
        },
        {
          "internalType": "uint256",
          "name": "_paymentToPrincipal",
          "type": "uint256"
        },
        {
          "internalType": "uint256",
          "name": "_paymentToInterest",
          "type": "uint256"
        },
        {
          "internalType": "uint256",
          "name": "_paymentToLateFees",
          "type": "uint256"
        }
      ],
      "name": "repayPart",
      "outputs": [],
      "stateMutability": "nonpayable",
      "type": "function"
    },
    {
      "inputs": [
        {
          "internalType": "bytes32",
          "name": "role",
          "type": "bytes32"
        },
        {
          "internalType": "address",
          "name": "account",
          "type": "address"
        }
      ],
      "name": "revokeRole",
      "outputs": [],
      "stateMutability": "nonpayable",
      "type": "function"
    },
    {
      "inputs": [
        {
          "internalType": "uint256",
          "name": "oldLoanId",
          "type": "uint256"
        },
        {
          "internalType": "address",
          "name": "borrower",
          "type": "address"
        },
        {
          "internalType": "address",
          "name": "lender",
          "type": "address"
        },
        {
          "components": [
            {
              "internalType": "uint32",
              "name": "durationSecs",
              "type": "uint32"
            },
            {
              "internalType": "uint32",
              "name": "deadline",
              "type": "uint32"
            },
            {
              "internalType": "uint24",
              "name": "numInstallments",
              "type": "uint24"
            },
            {
              "internalType": "uint160",
              "name": "interestRate",
              "type": "uint160"
            },
            {
              "internalType": "uint256",
              "name": "principal",
              "type": "uint256"
            },
            {
              "internalType": "address",
              "name": "collateralAddress",
              "type": "address"
            },
            {
              "internalType": "uint256",
              "name": "collateralId",
              "type": "uint256"
            },
            {
              "internalType": "address",
              "name": "payableCurrency",
              "type": "address"
            }
          ],
          "internalType": "struct LoanLibrary.LoanTerms",
          "name": "terms",
          "type": "tuple"
        },
        {
          "internalType": "uint256",
          "name": "_settledAmount",
          "type": "uint256"
        },
        {
          "internalType": "uint256",
          "name": "_amountToOldLender",
          "type": "uint256"
        },
        {
          "internalType": "uint256",
          "name": "_amountToLender",
          "type": "uint256"
        },
        {
          "internalType": "uint256",
          "name": "_amountToBorrower",
          "type": "uint256"
        }
      ],
      "name": "rollover",
      "outputs": [
        {
          "internalType": "uint256",
          "name": "newLoanId",
          "type": "uint256"
        }
      ],
      "stateMutability": "nonpayable",
      "type": "function"
    },
    {
      "inputs": [
        {
          "internalType": "contract IFeeController",
          "name": "_newController",
          "type": "address"
        }
      ],
      "name": "setFeeController",
      "outputs": [],
      "stateMutability": "nonpayable",
      "type": "function"
    },
    {
      "inputs": [
        {
          "internalType": "address",
          "name": "lender",
          "type": "address"
        },
        {
          "internalType": "address",
          "name": "borrower",
          "type": "address"
        },
        {
          "components": [
            {
              "internalType": "uint32",
              "name": "durationSecs",
              "type": "uint32"
            },
            {
              "internalType": "uint32",
              "name": "deadline",
              "type": "uint32"
            },
            {
              "internalType": "uint24",
              "name": "numInstallments",
              "type": "uint24"
            },
            {
              "internalType": "uint160",
              "name": "interestRate",
              "type": "uint160"
            },
            {
              "internalType": "uint256",
              "name": "principal",
              "type": "uint256"
            },
            {
              "internalType": "address",
              "name": "collateralAddress",
              "type": "address"
            },
            {
              "internalType": "uint256",
              "name": "collateralId",
              "type": "uint256"
            },
            {
              "internalType": "address",
              "name": "payableCurrency",
              "type": "address"
            }
          ],
          "internalType": "struct LoanLibrary.LoanTerms",
          "name": "terms",
          "type": "tuple"
        }
      ],
      "name": "startLoan",
      "outputs": [
        {
          "internalType": "uint256",
          "name": "loanId",
          "type": "uint256"
        }
      ],
      "stateMutability": "nonpayable",
      "type": "function"
    },
    {
      "inputs": [
        {
          "internalType": "bytes4",
          "name": "interfaceId",
          "type": "bytes4"
        }
      ],
      "name": "supportsInterface",
      "outputs": [
        {
          "internalType": "bool",
          "name": "",
          "type": "bool"
        }
      ],
      "stateMutability": "view",
      "type": "function"
    },
    {
      "inputs": [],
      "name": "unpause",
      "outputs": [],
      "stateMutability": "nonpayable",
      "type": "function"
    },
    {
      "inputs": [
        {
          "internalType": "address",
          "name": "newImplementation",
          "type": "address"
        }
      ],
      "name": "upgradeTo",
      "outputs": [],
      "stateMutability": "nonpayable",
      "type": "function"
    },
    {
      "inputs": [
        {
          "internalType": "address",
          "name": "newImplementation",
          "type": "address"
        },
        {
          "internalType": "bytes",
          "name": "data",
          "type": "bytes"
        }
      ],
      "name": "upgradeToAndCall",
      "outputs": [],
      "stateMutability": "payable",
      "type": "function"
    },
    {
      "inputs": [
        {
          "internalType": "address",
          "name": "",
          "type": "address"
        },
        {
          "internalType": "uint160",
          "name": "",
          "type": "uint160"
        }
      ],
      "name": "usedNonces",
      "outputs": [
        {
          "internalType": "bool",
          "name": "",
          "type": "bool"
        }
      ],
      "stateMutability": "view",
      "type": "function"
    }
  ],
  "transactionHash": "0x2caa073a866410563ce76555a5056da6e59a15ed0556ffb981715b30475fc6de",
  "args": [],
  "numDeployments": 1,
  "solcInputHash": "f8d88f69c17aa23c4805e0fc29994ffd",
  "bytecode": "0x60a0604052306080523480156200001557600080fd5b506002805460ff1916905560006200002e600162000095565b9050801562000047576000805461ff0019166101001790555b80156200008e576000805461ff0019169055604051600181527f7f26b83ff96e1f2b6a682f133852f6798a09c465da95921460cefb38474024989060200160405180910390a15b50620001b6565b60008054610100900460ff16156200012e578160ff166001148015620000ce5750620000cc30620001a760201b620027e51760201c565b155b620001265760405162461bcd60e51b815260206004820152602e6024820152600080516020620044f883398151915260448201526d191e481a5b9a5d1a585b1a5e995960921b60648201526084015b60405180910390fd5b506000919050565b60005460ff8084169116106200018d5760405162461bcd60e51b815260206004820152602e6024820152600080516020620044f883398151915260448201526d191e481a5b9a5d1a585b1a5e995960921b60648201526084016200011d565b506000805460ff191660ff92909216919091179055600190565b6001600160a01b03163b151590565b60805161430a620001ee60003960008181610af601528181610b360152818161152a0152818161156a015261179a015261430a6000f3fe6080604052600436106102255760003560e01c80638171ba2711610123578063c3490263116100ab578063d547741f1161006f578063d547741f1461068d578063e2684747146106ad578063f8c8765e146106cf578063f93554ae146106ef578063ff7aab801461071157600080fd5b8063c3490263146105fb578063c836d3411461061b578063cc3266e81461063b578063cfa498a314610657578063d3582ac71461066d57600080fd5b8063a125142b116100f2578063a125142b1461056a578063a217fddf1461058c578063ba762485146105a1578063be74bce4146105c1578063bf848f81146105d657600080fd5b80638171ba27146104fe5780638456cb591461051557806391d148541461052a57806399c994781461054a57600080fd5b80633ed4c678116101b157806352d1902d1161017557806352d1902d146104305780635c975abb1461044557806367fe378e1461045d5780636999b3771461047d578063739d6dd2146104b557600080fd5b80633ed4c6781461039b5780633f4ba83a146103bb578063401b4033146103d05780634f1ef286146103f0578063504006ca1461040357600080fd5b80632e4f5b66116101f85780632e4f5b66146102fb5780632f2ff15d1461031b57806336568abe1461033b5780633659cfe61461035b578063371fd8e61461037b57600080fd5b806301ffc9a71461022a5780630668445b1461025f57806315a0ea6a1461029a578063248a9ca3146102bc575b600080fd5b34801561023657600080fd5b5061024a610245366004613925565b610731565b60405190151581526020015b60405180910390f35b34801561026b57600080fd5b5061024a61027a36600461396f565b600860209081526000928352604080842090915290825290205460ff1681565b3480156102a657600080fd5b506102ba6102b53660046139a8565b610768565b005b3480156102c857600080fd5b506102ed6102d73660046139c5565b6000908152600160208190526040909120015490565b604051908152602001610256565b34801561030757600080fd5b5061024a61031636600461396f565b610841565b34801561032757600080fd5b506102ba6103363660046139de565b610a3d565b34801561034757600080fd5b506102ba6103563660046139de565b610a68565b34801561036757600080fd5b506102ba6103763660046139a8565b610aeb565b34801561038757600080fd5b506102ba6103963660046139c5565b610bcb565b3480156103a757600080fd5b506102ba6103b63660046139a8565b611013565b3480156103c757600080fd5b506102ba6110a7565b3480156103dc57600080fd5b506102ba6103eb366004613a03565b6110ba565b6102ba6103fe366004613aaf565b61151f565b34801561040f57600080fd5b5061042361041e3660046139c5565b6115ec565b6040516102569190613b8f565b34801561043c57600080fd5b506102ed61178d565b34801561045157600080fd5b5060025460ff1661024a565b34801561046957600080fd5b506102ed610478366004613c8b565b611840565b34801561048957600080fd5b5060045461049d906001600160a01b031681565b6040516001600160a01b039091168152602001610256565b3480156104c157600080fd5b5061024a6104d036600461396f565b6001600160a01b03918216600090815260086020908152604080832093909416825291909152205460ff1690565b34801561050a57600080fd5b506102ed620f424081565b34801561052157600080fd5b506102ba611c26565b34801561053657600080fd5b5061024a6105453660046139de565b611c39565b34801561055657600080fd5b506102ed610565366004613cd4565b611c64565b34801561057657600080fd5b506102ed6000805160206142de83398151915281565b34801561059857600080fd5b506102ed600081565b3480156105ad57600080fd5b506102ed6105bc366004613cf6565b611cd6565b3480156105cd57600080fd5b506102ed603281565b3480156105e257600080fd5b5060025461049d9061010090046001600160a01b031681565b34801561060757600080fd5b506102ba610616366004613cd4565b61219a565b34801561062757600080fd5b506102ba6106363660046139a8565b612556565b34801561064757600080fd5b506102ed670de0b6b3a764000081565b34801561066357600080fd5b506102ed61271081565b34801561067957600080fd5b506102ba61068836600461396f565b612561565b34801561069957600080fd5b506102ba6106a83660046139de565b6125a6565b3480156106b957600080fd5b506102ed6000805160206142be83398151915281565b3480156106db57600080fd5b506102ba6106ea366004613d70565b6125cc565b3480156106fb57600080fd5b506102ed60008051602061425783398151915281565b34801561071d57600080fd5b5060035461049d906001600160a01b031681565b60006001600160e01b03198216637965db0b60e01b148061076257506301ffc9a760e01b6001600160e01b03198316145b92915050565b600080516020614257833981519152610780816127f4565b6040516370a0823160e01b81523060048201526000906001600160a01b038416906370a0823190602401602060405180830381865afa1580156107c7573d6000803e3d6000fd5b505050506040513d601f19601f820116820180604052508101906107eb9190613dcc565b90506108016001600160a01b03841633836127fe565b7ffe3464cd748424446c37877c28ce5b700222c5bc9f90d908afcc4e5cb22707ff83338360405161083493929190613de5565b60405180910390a1505050565b600060076000836001600160a01b0316637b3d9af76040518163ffffffff1660e01b8152600401602060405180830381865afa158015610885573d6000803e3d6000fd5b505050506040513d601f19601f820116820180604052508101906108a99190613e09565b846001600160a01b03166040516020016108c4929190613e26565b60408051601f198184030181529181528151602092830120835290820192909252016000205460ff166108f957506000610762565b60005b6002546040516370a0823160e01b81526001600160a01b038681166004830152610100909204909116906370a0823190602401602060405180830381865afa15801561094c573d6000803e3d6000fd5b505050506040513d601f19601f820116820180604052508101906109709190613dcc565b811015610a3357600254604051632f745c5960e01b815260009161010090046001600160a01b031690632f745c59906109af9088908690600401613e26565b602060405180830381865afa1580156109cc573d6000803e3d6000fd5b505050506040513d601f19601f820116820180604052508101906109f09190613dcc565b6000818152600660205260409020600401549091506001600160a01b0385161415610a2057600192505050610762565b5080610a2b81613e55565b9150506108fc565b5060009392505050565b60008281526001602081905260409091200154610a59816127f4565b610a638383612854565b505050565b6001600160a01b0381163314610add5760405162461bcd60e51b815260206004820152602f60248201527f416363657373436f6e74726f6c3a2063616e206f6e6c792072656e6f756e636560448201526e103937b632b9903337b91039b2b63360891b60648201526084015b60405180910390fd5b610ae782826128bf565b5050565b306001600160a01b037f0000000000000000000000000000000000000000000000000000000000000000161415610b345760405162461bcd60e51b8152600401610ad490613e70565b7f00000000000000000000000000000000000000000000000000000000000000006001600160a01b0316610b7d600080516020614277833981519152546001600160a01b031690565b6001600160a01b031614610ba35760405162461bcd60e51b8152600401610ad490613ebc565b610bac81612926565b60408051600080825260208201909252610bc891839190612931565b50565b6000805160206142be833981519152610be3816127f4565b600082815260066020526040808220815160e081019092528054829060ff166003811115610c1357610c13613b57565b6003811115610c2457610c24613b57565b8152815462ffffff61010080830482166020808601919091526001600160a01b036401000000009485900481166040808801919091528051938401815260018089015463ffffffff808216875297810490971693850193909352600160401b860490941693830193909352600160581b909304821660608281019190915260028601546080808401919091526003870154841660a080850191909152600488015460c080860191909152600589015490951660e085015291860192909252600686015491850191909152600785015490840152600890930154929091019190915290915081516003811115610d1b57610d1b613b57565b14610d3c578051604051631b2b1be960e11b8152610ad49190600401613f08565b6000610d618260600151608001518360600151606001516001600160a01b0316611c64565b9050610d8133606084015160e001516001600160a01b0316903084612a9c565b6003546040516331a9108f60e11b8152600481018690526000916001600160a01b031690636352211e90602401602060405180830381865afa158015610dcb573d6000803e3d6000fd5b505050506040513d601f19601f82011682018060405250810190610def9190613e09565b6002546040516331a9108f60e11b8152600481018890529192506000916101009091046001600160a01b031690636352211e90602401602060405180830381865afa158015610e42573d6000803e3d6000fd5b505050506040513d601f19601f82011682018060405250810190610e669190613e09565b6000878152600660209081526040808320805460ff19166002179055606088015160a081015160c090910151915194955092936007938593610eaa93919201613e26565b60408051808303601f19018152918152815160209283012083529082019290925201600020805460ff1916911515919091179055610ee786612ac3565b836060015160e001516001600160a01b031663a9059cbb83856040518363ffffffff1660e01b8152600401610f1d929190613e26565b6020604051808303816000875af1158015610f3c573d6000803e3d6000fd5b505050506040513d601f19601f82011682018060405250810190610f609190613f16565b50606084015160a081015160c0909101516040516323b872dd60e01b81526001600160a01b03909216916323b872dd91610fa09130918691600401613de5565b600060405180830381600087803b158015610fba57600080fd5b505af1158015610fce573d6000803e3d6000fd5b505050507f9a7851747cd7ffb3fe0a32caf3da48b31f27cebe131267051640f8b72fc471868660405161100391815260200190565b60405180910390a1505050505050565b60008051602061425783398151915261102b816127f4565b6001600160a01b0382166110525760405163083295a160e31b815260040160405180910390fd5b600480546001600160a01b0319166001600160a01b0384169081179091556040519081527f77cd89d9a753707a59c1380846044dcfbb4f291c6735b99fea2f894604ba01639060200160405180910390a15050565b60006110b2816127f4565b610bc8612b7f565b6000805160206142be8339815191526110d2816127f4565b60008681526006602052604090206001815460ff1660038111156110f8576110f8613b57565b1461111c578054604051631b2b1be960e11b8152610ad49160ff1690600401613f08565b6000846111298588613f38565b6111339190613f38565b905061114f3360058401546001600160a01b0316903084612a9c565b6003546040516331a9108f60e11b8152600481018a90526000916001600160a01b031690636352211e90602401602060405180830381865afa158015611199573d6000803e3d6000fd5b505050506040513d601f19601f820116820180604052508101906111bd9190613e09565b6002546040516331a9108f60e11b8152600481018c90529192506000916101009091046001600160a01b031690636352211e90602401602060405180830381865afa158015611210573d6000803e3d6000fd5b505050506040513d601f19601f820116820180604052508101906112349190613e09565b6006850154909150889081106112be57506006840154845460ff19166002178555600385015460048601546040516000926007928492611281926001600160a01b03169190602001613e26565b60408051808303601f19018152918152815160209283012083529082019290925201600020805460ff19169115159190911790556112be8b612ac3565b6000886112cb8984613f38565b6112d59190613f38565b9050878660080160008282546112eb9190613f38565b909155506112fc90508b6001613f50565b86548790600190611318908490610100900462ffffff16613f50565b92506101000a81548162ffffff021916908362ffffff160217905550818660060160008282546113489190613f77565b92505081905550808660070160008282546113639190613f38565b9091555050600586015460405163a9059cbb60e01b81526001600160a01b039091169063a9059cbb9061139c9087908590600401613e26565b6020604051808303816000875af11580156113bb573d6000803e3d6000fd5b505050506040513d601f19601f820116820180604052508101906113df9190613f16565b506002865460ff1660038111156113f8576113f8613b57565b14156114cb5760038601546004808801546040516323b872dd60e01b81526001600160a01b03909316926323b872dd92611436923092899201613de5565b600060405180830381600087803b15801561145057600080fd5b505af1158015611464573d6000803e3d6000fd5b50505050818a1115611493576114938361147e848d613f77565b60058901546001600160a01b031691906127fe565b6040518c81527f9a7851747cd7ffb3fe0a32caf3da48b31f27cebe131267051640f8b72fc471869060200160405180910390a1611511565b6006860154604080518e8152602081018d905280820192909252517f752889971423c6991b24ae2805cfd10348b18df3541c604c00dfd576b9766d0a9181900360600190a15b505050505050505050505050565b306001600160a01b037f00000000000000000000000000000000000000000000000000000000000000001614156115685760405162461bcd60e51b8152600401610ad490613e70565b7f00000000000000000000000000000000000000000000000000000000000000006001600160a01b03166115b1600080516020614277833981519152546001600160a01b031690565b6001600160a01b0316146115d75760405162461bcd60e51b8152600401610ad490613ebc565b6115e082612926565b610ae782826001612931565b61166b6040805160e081019091528060008152600060208083018290526040808401839052805161010081018252838152918201839052810182905260608181018390526080820183905260a0820183905260c0820183905260e082019290925291019081526020016000815260200160008152602001600081525090565b60008281526006602052604090819020815160e081019092528054829060ff16600381111561169c5761169c613b57565b60038111156116ad576116ad613b57565b8152815461010080820462ffffff908116602080860191909152640100000000938490046001600160a01b0390811660408088019190915280519485018152600188015463ffffffff808216875296810490961692850192909252600160401b850490921690830152600160581b909204821660608083019190915260028501546080808401919091526003860154841660a080850191909152600487015460c080860191909152600588015490951660e08501529185019290925260068501549184019190915260078401549083015260089092015491015292915050565b6000306001600160a01b037f0000000000000000000000000000000000000000000000000000000000000000161461182d5760405162461bcd60e51b815260206004820152603860248201527f555550535570677261646561626c653a206d757374206e6f742062652063616c60448201527f6c6564207468726f7567682064656c656761746563616c6c00000000000000006064820152608401610ad4565b5060008051602061427783398151915290565b600061184e60025460ff1690565b1561186b5760405162461bcd60e51b8152600401610ad490613f8e565b6000805160206142de833981519152611883816127f4565b600061189560c0850160a086016139a8565b8460c001356040516020016118ab929190613e26565b60408051601f1981840301815291815281516020928301206000818152600790935291205490915060ff161561190b576118eb60c0850160a086016139a8565b8460c00135604051632c9f07db60e11b8152600401610ad4929190613e26565b600554925061191e600580546001019055565b6040805160e081019091528060018152600060208201526001600160a01b034216604082015260600161195636879003870187613fcc565b8152608086013560208083019190915260006040808401829052606090930181905286815260069091522081518154829060ff1916600183600381111561199f5761199f613b57565b021790555060208281015182546040808601516001600160a01b03908116640100000000908102640100000000600160c01b031962ffffff9687166101000216610100600160c01b03199095169490941793909317865560608088015180516001808a018054848b015185890151968601518816600160581b02600160581b600160f81b031997909b16600160401b0296909616600160401b600160f81b031963ffffffff978816909a0267ffffffffffffffff199092169690941695909517949094179690961617959095179055608080850151600288015560a0808601516003890180549185166001600160a01b031992831617905560c08088015160048b015560e09097015160058a01805491909516911617909255870151600687015586015160078087019190915592909501516008909401939093556000858152915291909120805460ff19169091179055611afb838688612c12565b611b0b60c0850160a086016139a8565b6001600160a01b03166323b872dd33308760c001356040518463ffffffff1660e01b8152600401611b3e93929190613de5565b600060405180830381600087803b158015611b5857600080fd5b505af1158015611b6c573d6000803e3d6000fd5b50505050611ba2611b7a3390565b306080870135611b91610100890160e08a016139a8565b6001600160a01b0316929190612a9c565b611bd485611bb38660800135612d01565b611bc4610100880160e089016139a8565b6001600160a01b031691906127fe565b604080518481526001600160a01b03888116602083015287168183015290517f80058ebfadf3969c68465e37d0ca6f1647cd2ef5b7a73f5bd388f25be77ed9819181900360600190a150509392505050565b6000611c31816127f4565b610bc8612d8e565b60009182526001602090815260408084206001600160a01b0393909316845291905290205460ff1690565b60006001611c7a670de0b6b3a764000084614082565b1015611c9c57604051637759d63560e01b815260048101839052602401610ad4565b612710611cb1670de0b6b3a764000084614082565b611cbb9085614096565b611cc59190614082565b611ccf9084613f38565b9392505050565b6000611ce460025460ff1690565b15611d015760405162461bcd60e51b8152600401610ad490613f8e565b6000805160206142de833981519152611d19816127f4565b60008a815260066020526040808220805460ff1916600217815560035491516331a9108f60e11b8152600481018e90529092916001600160a01b031690636352211e90602401602060405180830381865afa158015611d7c573d6000803e3d6000fd5b505050506040513d601f19601f82011682018060405250810190611da09190613e09565b600583015460018401549192506001600160a01b031690600160401b900462ffffff1615611ec25760068301548354600185015460009283928392611e1e92916001600160a01b03640100000000820481169263ffffffff81169262ffffff600160401b83048116936101009092041691600160581b900416612de6565b92509250925081866008016000828254611e389190613f38565b90915550611e499050816001613f50565b86548790600190611e65908490610100900462ffffff16613f50565b92506101000a81548162ffffff021916908362ffffff1602179055506000866006018190555081838760060154611e9c9190613f38565b611ea69190613f38565b866007016000828254611eb99190613f38565b90915550505050505b611ecb8d612ac3565b6005549450611ede600580546001019055565b6040805160e081019091528060018152600060208201526001600160a01b0342166040820152606001611f16368d90038d018d613fcc565b815260808c013560208083019190915260006040808401829052606090930181905288815260069091522081518154829060ff19166001836003811115611f5f57611f5f613b57565b021790555060208281015182546040808601516001600160a01b03908116640100000000908102640100000000600160c01b031962ffffff9687166101000216610100600160c01b03199095169490941793909317865560608088015180516001890180549883015195830151938301518516600160581b02600160581b600160f81b031994909816600160401b0293909316600160401b600160f81b031963ffffffff96871690970267ffffffffffffffff199099169590911694909417969096179390931691909117929092179055608080830151600285015560a0808401516003860180549185166001600160a01b031992831617905560c080860151600488015560e09095015160058701805491909516911617909255840151600684015583015160078301559091015160089091015561209f858d8d612c12565b6120b46001600160a01b03821633308c612a9c565b6120bf81838a612ec6565b6120ca818c89612ec6565b6120d5818d88612ec6565b6040518d81527f9a7851747cd7ffb3fe0a32caf3da48b31f27cebe131267051640f8b72fc471869060200160405180910390a1604080518681526001600160a01b038d811660208301528e168183015290517f80058ebfadf3969c68465e37d0ca6f1647cd2ef5b7a73f5bd388f25be77ed9819181900360600190a1604080518e8152602081018790527ff9ba18ac9881b970234f34498341fa7e0570e645d2bc4505691214fd9720a26d910160405180910390a15050505098975050505050505050565b60025460ff16156121bd5760405162461bcd60e51b8152600401610ad490613f8e565b6000805160206142be8339815191526121d5816127f4565b600083815260066020526040808220815160e081019092528054829060ff16600381111561220557612205613b57565b600381111561221657612216613b57565b8152815462ffffff61010080830482166020808601919091526001600160a01b036401000000009485900481166040808801919091528051938401815260018089015463ffffffff808216875297810490971693850193909352600160401b860490941693830193909352600160581b909304821660608281019190915260028601546080808401919091526003870154841660a080850191909152600488015460c080860191909152600589015490951660e08501529186019290925260068601549185019190915260078501549084015260089093015492909101919091529091508151600381111561230d5761230d613b57565b1461232e578051604051631b2b1be960e11b8152610ad49190600401613f08565b60608101516040015162ffffff1661239557600081606001516000015163ffffffff16826040015161236091906140b5565b6001600160a01b031690504281111561238f57604051631eb05a5360e21b815260048101829052602401610ad4565b506123b6565b6123b681606001516040015162ffffff16826020015162ffffff1685612ee0565b6003546040516331a9108f60e11b8152600481018690526000916001600160a01b031690636352211e90602401602060405180830381865afa158015612400573d6000803e3d6000fd5b505050506040513d601f19601f820116820180604052508101906124249190613e09565b6000868152600660209081526040808320805460ff19166003179055606086015160a081015160c09091015191519495509293600793859361246893919201613e26565b60408051808303601f19018152918152815160209283012083529082019290925201600020805460ff19169115159190911790556124a585612ac3565b606082015160a081015160c0909101516040516323b872dd60e01b81526001600160a01b03909216916323b872dd916124e49130918691600401613de5565b600060405180830381600087803b1580156124fe57600080fd5b505af1158015612512573d6000803e3d6000fd5b505050507fb15e438728b48d46c9a5505713e60ff50c80559f4523c8f99a246a2069a8684a8560405161254791815260200190565b60405180910390a15050505050565b33610ae78183612f7c565b60025460ff16156125845760405162461bcd60e51b8152600401610ad490613f8e565b6000805160206142de83398151915261259c816127f4565b610a638383612f7c565b600082815260016020819052604090912001546125c2816127f4565b610a6383836128bf565b60006125d86001613040565b905080156125f0576000805461ff0019166101001790555b600061261a7fb53127684a568b3173ae13b9f8a6016e243e63b6e8ee1178d6a717850b5d61035490565b90506001600160a01b038116612659576001600160a01b037fb53127684a568b3173ae13b9f8a6016e243e63b6e8ee1178d6a717850b5d61035561266e565b336001600160a01b0382161461266e57600080fd5b6001600160a01b0385166126955760405163083295a160e31b815260040160405180910390fd5b6001600160a01b0384166126bc5760405163083295a160e31b815260040160405180910390fd5b6001600160a01b0383166126e35760405163083295a160e31b815260040160405180910390fd5b7fb53127684a568b3173ae13b9f8a6016e243e63b6e8ee1178d6a717850b5d61038690556127126000336130cd565b61272a600080516020614257833981519152336130cd565b612742600080516020614257833981519152806130d7565b600480546001600160a01b038088166001600160a01b0319928316179092556002805487841661010002610100600160a81b0319909116179055600380549286169290911691909117905561279b600580546001019055565b5080156127de576000805461ff0019169055604051600181527f7f26b83ff96e1f2b6a682f133852f6798a09c465da95921460cefb384740249890602001612547565b5050505050565b6001600160a01b03163b151590565b610bc88133613124565b610a638363a9059cbb60e01b848460405160240161281d929190613e26565b60408051601f198184030181529190526020810180516001600160e01b03166001600160e01b031990931692909217909152613188565b61285e8282611c39565b610ae75760008281526001602081815260408084206001600160a01b0386168086529252808420805460ff19169093179092559051339285917f2f8788117e7eff1d82e926ec794901d17c78024a50270940304540a733656f0d9190a45050565b6128c98282611c39565b15610ae75760008281526001602090815260408083206001600160a01b0385168085529252808320805460ff1916905551339285917ff6391f5c32d9c69d2a47ea670b442974b53935d1edc7fd64eb21e047a839171b9190a45050565b6000610ae7816127f4565b7f4910fdfa16fed3260ed0e7147f7cc6da11a60208b5b9406d12a635614ffd91435460ff161561296457610a638361325a565b826001600160a01b03166352d1902d6040518163ffffffff1660e01b8152600401602060405180830381865afa9250505080156129be575060408051601f3d908101601f191682019092526129bb91810190613dcc565b60015b612a215760405162461bcd60e51b815260206004820152602e60248201527f45524331393637557067726164653a206e657720696d706c656d656e7461746960448201526d6f6e206973206e6f74205555505360901b6064820152608401610ad4565b6000805160206142778339815191528114612a905760405162461bcd60e51b815260206004820152602960248201527f45524331393637557067726164653a20756e737570706f727465642070726f786044820152681a58589b195555525160ba1b6064820152608401610ad4565b50610a638383836132f6565b612abd846323b872dd60e01b85858560405160240161281d93929190613de5565b50505050565b600354604051630852cd8d60e31b8152600481018390526001600160a01b03909116906342966c6890602401600060405180830381600087803b158015612b0957600080fd5b505af1158015612b1d573d6000803e3d6000fd5b5050600254604051630852cd8d60e31b8152600481018590526101009091046001600160a01b031692506342966c689150602401600060405180830381600087803b158015612b6b57600080fd5b505af11580156127de573d6000803e3d6000fd5b60025460ff16612bc85760405162461bcd60e51b815260206004820152601460248201527314185d5cd8589b194e881b9bdd081c185d5cd95960621b6044820152606401610ad4565b6002805460ff191690557f5db9ee0a495bf2e6ff9c91a7834c1ba4fdd244a5e8aa4e537bd38aeae4b073aa335b6040516001600160a01b03909116815260200160405180910390a1565b6002546040516340c10f1960e01b81526101009091046001600160a01b0316906340c10f1990612c489085908790600401613e26565b6020604051808303816000875af1158015612c67573d6000803e3d6000fd5b505050506040513d601f19601f82011682018060405250810190612c8b9190613dcc565b506003546040516340c10f1960e01b81526001600160a01b03909116906340c10f1990612cbe9084908790600401613e26565b6020604051808303816000875af1158015612cdd573d6000803e3d6000fd5b505050506040513d601f19601f82011682018060405250810190612abd9190613dcc565b6004805460408051637e171cd360e11b81529051600093612710936001600160a01b03169263fc2e39a692818301926020928290030181865afa158015612d4c573d6000803e3d6000fd5b505050506040513d601f19601f82011682018060405250810190612d709190613dcc565b612d7a9084614096565b612d849190614082565b6107629083613f77565b60025460ff1615612db15760405162461bcd60e51b8152600401610ad490613f8e565b6002805460ff191660011790557f62e78cea01bee320cd4e420270b5ea74000d11b0c9f74754ebdbfc544b05a258612bf53390565b600080600080612df789898961331b565b9050808610612e1157600080600093509350935050612eba565b6000612e1e876001613f38565b612e289083613f77565b9050600088620f4240612e43670de0b6b3a76400008a614082565b612e4d9190614096565b612e579190614082565b905081612e9a576000612710620f4240838f612e739190614096565b612e7d9190614082565b612e879190614082565b965060009550859450612eba9350505050565b600080612ea88e84866133f6565b9098509650929450612eba9350505050565b96509650969350505050565b8015610a6357610a636001600160a01b03841683836127fe565b80821415612f0157604051631e502f5960e31b815260040160405180910390fd5b6000612710612f12610fa086614096565b612f1e906103e8614096565b612f289190614082565b90506000612f37846001613f38565b612f43906103e8614096565b612f4f846103e8614096565b612f599190613f77565b9050818110156127de57604051631e502f5960e31b815260040160405180910390fd5b6001600160a01b0380831660009081526008602090815260408083209385168352929052205460ff1615612fd657604051630bf65ee760e11b81526001600160a01b03808416600483015282166024820152604401610ad4565b6001600160a01b03828116600081815260086020908152604080832094861680845294825291829020805460ff19166001179055905192835290917f94307d29ec5ae0d8d8a9c5e8a03194264f6a9a15ab14d2472869784f32c01ce7910160405180910390a25050565b60008054610100900460ff1615613087578160ff1660011480156130635750303b155b61307f5760405162461bcd60e51b8152600401610ad4906140d7565b506000919050565b60005460ff8084169116106130ae5760405162461bcd60e51b8152600401610ad4906140d7565b506000805460ff191660ff92909216919091179055600190565b919050565b610ae78282612854565b6000828152600160208190526040808320909101805490849055905190918391839186917fbd79b86ffe0ab8e8776151514217cd7cacd52c909f66475c3af44e129f0b00ff9190a4505050565b61312e8282611c39565b610ae757613146816001600160a01b031660146134c6565b6131518360206134c6565b604051602001613162929190614151565b60408051601f198184030181529082905262461bcd60e51b8252610ad4916004016141c6565b60006131dd826040518060400160405280602081526020017f5361666545524332303a206c6f772d6c6576656c2063616c6c206661696c6564815250856001600160a01b03166136629092919063ffffffff16565b805190915015610a6357808060200190518101906131fb9190613f16565b610a635760405162461bcd60e51b815260206004820152602a60248201527f5361666545524332303a204552433230206f7065726174696f6e20646964206e6044820152691bdd081cdd58d8d9595960b21b6064820152608401610ad4565b6001600160a01b0381163b6132c75760405162461bcd60e51b815260206004820152602d60248201527f455243313936373a206e657720696d706c656d656e746174696f6e206973206e60448201526c1bdd08184818dbdb9d1c9858dd609a1b6064820152608401610ad4565b60008051602061427783398151915280546001600160a01b0319166001600160a01b0392909216919091179055565b6132ff83613679565b60008251118061330c5750805b15610a6357612abd83836136b9565b60004260018268056bc75e2d63100000670de0b6b3a76400005b600a8110613385578761334882826141f9565b14613373578168056bc75e2d6310000014156133735761337081670de0b6b3a7640000614082565b91505b61337e600a82614082565b9050613335565b5060006133928789614082565b90508161339f8a87613f77565b6133a99190614096565b925060015b83836133ba8385614096565b6133c49190614096565b116133e8576133d4816001613f38565b9450806133e081613e55565b9150506133ae565b509298975050505050505050565b600080808581805b86811015613489576000612710620f42406134198b87614096565b6134239190614082565b61342d9190614082565b90506134398186613f38565b9450612710613449603286614096565b6134539190614082565b61345d9084613f38565b92506134698382613f38565b6134739085613f38565b935050808061348190613e55565b9150506133fe565b50612710620f424061349b8985614096565b6134a59190614082565b6134af9190614082565b6134b99084613f38565b9890975095505050505050565b606060006134d5836002614096565b6134e0906002613f38565b67ffffffffffffffff8111156134f8576134f8613a3e565b6040519080825280601f01601f191660200182016040528015613522576020820181803683370190505b509050600360fc1b8160008151811061353d5761353d61420d565b60200101906001600160f81b031916908160001a905350600f60fb1b8160018151811061356c5761356c61420d565b60200101906001600160f81b031916908160001a9053506000613590846002614096565b61359b906001613f38565b90505b6001811115613613576f181899199a1a9b1b9c1cb0b131b232b360811b85600f16601081106135cf576135cf61420d565b1a60f81b8282815181106135e5576135e561420d565b60200101906001600160f81b031916908160001a90535060049490941c9361360c81614223565b905061359e565b508315611ccf5760405162461bcd60e51b815260206004820181905260248201527f537472696e67733a20686578206c656e67746820696e73756666696369656e746044820152606401610ad4565b606061367184846000856136de565b949350505050565b6136828161325a565b6040516001600160a01b038216907fbc7cd75a20ee27fd9adebab32041f755214dbc6bffa90cc0225b39da2e5c2d3b90600090a250565b6060611ccf83836040518060600160405280602781526020016142976027913961380f565b60608247101561373f5760405162461bcd60e51b815260206004820152602660248201527f416464726573733a20696e73756666696369656e742062616c616e636520666f6044820152651c8818d85b1b60d21b6064820152608401610ad4565b6001600160a01b0385163b6137965760405162461bcd60e51b815260206004820152601d60248201527f416464726573733a2063616c6c20746f206e6f6e2d636f6e74726163740000006044820152606401610ad4565b600080866001600160a01b031685876040516137b2919061423a565b60006040518083038185875af1925050503d80600081146137ef576040519150601f19603f3d011682016040523d82523d6000602084013e6137f4565b606091505b50915091506138048282866138ec565b979650505050505050565b60606001600160a01b0384163b6138775760405162461bcd60e51b815260206004820152602660248201527f416464726573733a2064656c65676174652063616c6c20746f206e6f6e2d636f6044820152651b9d1c9858dd60d21b6064820152608401610ad4565b600080856001600160a01b031685604051613892919061423a565b600060405180830381855af49150503d80600081146138cd576040519150601f19603f3d011682016040523d82523d6000602084013e6138d2565b606091505b50915091506138e28282866138ec565b9695505050505050565b606083156138fb575081611ccf565b82511561390b5782518084602001fd5b8160405162461bcd60e51b8152600401610ad491906141c6565b60006020828403121561393757600080fd5b81356001600160e01b031981168114611ccf57600080fd5b6001600160a01b0381168114610bc857600080fd5b80356130c88161394f565b6000806040838503121561398257600080fd5b823561398d8161394f565b9150602083013561399d8161394f565b809150509250929050565b6000602082840312156139ba57600080fd5b8135611ccf8161394f565b6000602082840312156139d757600080fd5b5035919050565b600080604083850312156139f157600080fd5b82359150602083013561399d8161394f565b600080600080600060a08688031215613a1b57600080fd5b505083359560208501359550604085013594606081013594506080013592509050565b634e487b7160e01b600052604160045260246000fd5b604051610100810167ffffffffffffffff81118282101715613a7857613a78613a3e565b60405290565b604051601f8201601f1916810167ffffffffffffffff81118282101715613aa757613aa7613a3e565b604052919050565b60008060408385031215613ac257600080fd5b8235613acd8161394f565b915060208381013567ffffffffffffffff80821115613aeb57600080fd5b818601915086601f830112613aff57600080fd5b813581811115613b1157613b11613a3e565b613b23601f8201601f19168501613a7e565b91508082528784828501011115613b3957600080fd5b80848401858401376000848284010152508093505050509250929050565b634e487b7160e01b600052602160045260246000fd5b60048110613b8b57634e487b7160e01b600052602160045260246000fd5b9052565b60006101c082019050613ba3828451613b6d565b60208381015162ffffff908116848301526040808601516001600160a01b031681860152606080870151805163ffffffff908116838901529481015190941660808701529083015190911660a0850152810151613c0b60c08501826001600160a01b03169052565b50608081015160e084015260a08101516001600160a01b0381166101008501525060c081015161012084015260e001516001600160a01b03811661014084015250608083015161016083015260a083015161018083015260c0909201516101a09091015290565b60006101008284031215613c8557600080fd5b50919050565b60008060006101408486031215613ca157600080fd5b8335613cac8161394f565b92506020840135613cbc8161394f565b9150613ccb8560408601613c72565b90509250925092565b60008060408385031215613ce757600080fd5b50508035926020909101359150565b6000806000806000806000806101e0898b031215613d1357600080fd5b883597506020890135613d258161394f565b96506040890135613d358161394f565b9550613d448a60608b01613c72565b979a96995094976101608101359661018082013596506101a082013595506101c0909101359350915050565b60008060008060808587031215613d8657600080fd5b8435613d918161394f565b93506020850135613da18161394f565b92506040850135613db18161394f565b91506060850135613dc18161394f565b939692955090935050565b600060208284031215613dde57600080fd5b5051919050565b6001600160a01b039384168152919092166020820152604081019190915260600190565b600060208284031215613e1b57600080fd5b8151611ccf8161394f565b6001600160a01b03929092168252602082015260400190565b634e487b7160e01b600052601160045260246000fd5b6000600019821415613e6957613e69613e3f565b5060010190565b6020808252602c908201527f46756e6374696f6e206d7573742062652063616c6c6564207468726f7567682060408201526b19195b1959d85d1958d85b1b60a21b606082015260800190565b6020808252602c908201527f46756e6374696f6e206d7573742062652063616c6c6564207468726f7567682060408201526b6163746976652070726f787960a01b606082015260800190565b602081016107628284613b6d565b600060208284031215613f2857600080fd5b81518015158114611ccf57600080fd5b60008219821115613f4b57613f4b613e3f565b500190565b600062ffffff808316818516808303821115613f6e57613f6e613e3f565b01949350505050565b600082821015613f8957613f89613e3f565b500390565b60208082526010908201526f14185d5cd8589b194e881c185d5cd95960821b604082015260600190565b803563ffffffff811681146130c857600080fd5b60006101008284031215613fdf57600080fd5b613fe7613a54565b613ff083613fb8565b8152613ffe60208401613fb8565b6020820152604083013562ffffff8116811461401957600080fd5b604082015261402a60608401613964565b60608201526080830135608082015261404560a08401613964565b60a082015260c083013560c082015261406060e08401613964565b60e08201529392505050565b634e487b7160e01b600052601260045260246000fd5b6000826140915761409161406c565b500490565b60008160001904831182151516156140b0576140b0613e3f565b500290565b60006001600160a01b03828116848216808303821115613f6e57613f6e613e3f565b6020808252602e908201527f496e697469616c697a61626c653a20636f6e747261637420697320616c72656160408201526d191e481a5b9a5d1a585b1a5e995960921b606082015260800190565b60005b83811015614140578181015183820152602001614128565b83811115612abd5750506000910152565b7f416363657373436f6e74726f6c3a206163636f756e7420000000000000000000815260008351614189816017850160208801614125565b7001034b99036b4b9b9b4b733903937b6329607d1b60179184019182015283516141ba816028840160208801614125565b01602801949350505050565b60208152600082518060208401526141e5816040850160208701614125565b601f01601f19169190910160400192915050565b6000826142085761420861406c565b500690565b634e487b7160e01b600052603260045260246000fd5b60008161423257614232613e3f565b506000190190565b6000825161424c818460208701614125565b919091019291505056fe8dd046eb6fe22791cf064df41dbfc76ef240a563550f519aac88255bd8c2d3bb360894a13ba1a3210667c828492db98dca3e2076cc3735a920a3ca505d382bbc416464726573733a206c6f772d6c6576656c2064656c65676174652063616c6c206661696c65649c60024347074fd9de2c1e36003080d22dbc76a41ef87444d21e361bcb39118e59abfac6520ec36a6556b2a4dd949cc40007459bcd5cd2507f1e5cc77b6bc97ea164736f6c634300080b000a496e697469616c697a61626c653a20636f6e747261637420697320616c726561",
  "devdoc": {
    "author": "Non-Fungible Technologies, Inc. The LoanCore lending contract is the heart of the Arcade.xyz lending protocol. It stores and maintains loan state, enforces loan lifecycle invariants, takes escrow of assets during an active loans, governs the release of collateral on repayment or default, and tracks signature nonces for loan consent. Also contains logic for approving Asset Vault calls using the ICallDelegator interface.",
    "errors": {
      "FIAC_InterestRate(uint256)": [
        {
          "params": {
            "interestRate": "InterestRate with 1e18 multiplier."
          }
        }
      ],
      "LC_CollateralInUse(address,uint256)": [
        {
          "params": {
            "collateralAddress": "Address of the collateral.",
            "collateralId": "ID of the collateral token."
          }
        }
      ],
      "LC_InvalidState(uint8)": [
        {
          "params": {
            "state": "Current state of a loan according to LoanState enum."
          }
        }
      ],
      "LC_NonceUsed(address,uint160)": [
        {
          "params": {
            "nonce": "Represents the number of transactions sent by address.",
            "user": "Address of collateral owner."
          }
        }
      ],
      "LC_NotExpired(uint256)": [
        {
          "params": {
            "dueDate": "Timestamp of the end of the loan duration."
          }
        }
      ]
    },
    "kind": "dev",
    "methods": {
      "canCallOn(address,address)": {
        "details": "Implemented as part of the ICallDelegator interface.",
        "params": {
          "caller": "The user that wants to call a function.",
          "vault": "The vault that the caller wants to call a function on."
        },
        "returns": {
          "_0": "allowed              True if the caller is allowed to call on the vault."
        }
      },
      "cancelNonce(uint160)": {
        "params": {
          "nonce": "The nonce to consume."
        }
      },
      "claim(uint256,uint256)": {
        "params": {
          "currentInstallmentPeriod": "The current installment period if                                            installment loan type, else 0.",
          "loanId": "The ID of the loan to claim."
        }
      },
      "claimFees(address)": {
        "params": {
          "token": "The contract address of the token to claim fees for."
        }
      },
      "constructor": {
        "custom:oz-upgrades-unsafe-allow": "constructor"
      },
      "consumeNonce(address,uint160)": {
        "params": {
          "nonce": "The nonce to consume.",
          "user": "The user for whom to consume a nonce."
        }
      },
      "getFullInterestAmount(uint256,uint256)": {
        "details": "Interest and principal must be entered with 18 units of      precision from the basis point unit (e.g. 1e18 == 0.01%)",
        "params": {
          "interestRate": "Interest rate in the loan terms.",
          "principal": "Principal amount in the loan terms."
        },
        "returns": {
          "_0": "interest                  The amount of interest due."
        }
      },
      "getLoan(uint256)": {
        "params": {
          "loanId": "The ID of the given loan."
        },
        "returns": {
          "loanData": "            The struct containing loan state and terms."
        }
      },
      "getRoleAdmin(bytes32)": {
        "details": "Returns the admin role that controls `role`. See {grantRole} and {revokeRole}. To change a role's admin, use {_setRoleAdmin}."
      },
      "grantRole(bytes32,address)": {
        "details": "Grants `role` to `account`. If `account` had not been already granted `role`, emits a {RoleGranted} event. Requirements: - the caller must have ``role``'s admin role."
      },
      "hasRole(bytes32,address)": {
        "details": "Returns `true` if `account` has been granted `role`."
      },
      "initialize(address,address,address,address)": {
        "params": {
          "_feeController": "The address of the contract governing protocol fees."
        }
      },
      "isNonceUsed(address,uint160)": {
        "params": {
          "nonce": "The nonce to check.",
          "user": "The user to check the nonce for."
        },
        "returns": {
          "_0": "used                 Whether the nonce has been used."
        }
      },
      "paused()": {
        "details": "Returns true if the contract is paused, and false otherwise."
      },
      "proxiableUUID()": {
        "details": "Implementation of the ERC1822 {proxiableUUID} function. This returns the storage slot used by the implementation. It is used to validate that the this implementation remains valid after an upgrade. IMPORTANT: A proxy pointing at a proxiable contract should not be considered proxiable itself, because this risks bricking a proxy that upgrades to it, by delegating to itself until out of gas. Thus it is critical that this function revert if invoked through a proxy. This is guaranteed by the `notDelegated` modifier."
      },
      "renounceRole(bytes32,address)": {
        "details": "Revokes `role` from the calling account. Roles are often managed via {grantRole} and {revokeRole}: this function's purpose is to provide a mechanism for accounts to lose their privileges if they are compromised (such as when a trusted device is misplaced). If the calling account had been revoked `role`, emits a {RoleRevoked} event. Requirements: - the caller must be `account`."
      },
      "repay(uint256)": {
        "params": {
          "loanId": "The ID of the loan to repay."
        }
      },
      "repayPart(uint256,uint256,uint256,uint256,uint256)": {
        "params": {
          "_currentMissedPayments": "Number of payments missed since the last isntallment payment.",
          "_loanId": "The ID of the loan..",
          "_paymentToInterest": "Amount due in interest.",
          "_paymentToLateFees": "Amount due in only late fees.",
          "_paymentToPrincipal": "Amount sent in addition to minimum amount due, used to pay down principal."
        }
      },
      "revokeRole(bytes32,address)": {
        "details": "Revokes `role` from `account`. If `account` had been granted `role`, emits a {RoleRevoked} event. Requirements: - the caller must have ``role``'s admin role."
      },
      "rollover(uint256,address,address,(uint32,uint32,uint24,uint160,uint256,address,uint256,address),uint256,uint256,uint256,uint256)": {
        "params": {
          "_amountToBorrower": "The payemnt to the borrower (in the case of leftover principal).",
          "_amountToLender": "The payment to the lender (if same as old lender).",
          "_amountToOldLender": "The payment to the old lender (if lenders are changing).",
          "_settledAmount": "The amount LoanCore needs to withdraw to settle.",
          "borrower": "The borrower for the loan.",
          "lender": "The lender for the old loan.",
          "oldLoanId": "The ID of the old loan.",
          "terms": "The terms of the new loan."
        },
        "returns": {
          "newLoanId": "           The ID of the new loan."
        }
      },
      "setFeeController(address)": {
        "params": {
          "_newController": "The new fee controller contract."
        }
      },
      "startLoan(address,address,(uint32,uint32,uint24,uint160,uint256,address,uint256,address))": {
        "params": {
          "borrower": "The borrower for the loan.",
          "lender": "The lender for the loan.",
          "terms": "The terms of the loan."
        },
        "returns": {
          "loanId": "              The ID of the newly created loan."
        }
      },
      "supportsInterface(bytes4)": {
        "details": "See {IERC165-supportsInterface}."
      },
      "upgradeTo(address)": {
        "details": "Upgrade the implementation of the proxy to `newImplementation`. Calls {_authorizeUpgrade}. Emits an {Upgraded} event."
      },
      "upgradeToAndCall(address,bytes)": {
        "details": "Upgrade the implementation of the proxy to `newImplementation`, and subsequently execute the function call encoded in `data`. Calls {_authorizeUpgrade}. Emits an {Upgraded} event."
      }
    },
    "title": "LoanCore",
    "version": 1
  },
  "userdoc": {
    "errors": {
      "FIAC_InterestRate(uint256)": [
        {
          "notice": "Interest must be greater than 0.01%. (interestRate / 1e18 >= 1)"
        }
      ],
      "LC_CollateralInUse(address,uint256)": [
        {
          "notice": "Check collateral is not already used in a active loan."
        }
      ],
      "LC_InvalidState(uint8)": [
        {
          "notice": "Ensure valid loan state for loan lifceycle operations."
        }
      ],
      "LC_LoanNotDefaulted()": [
        {
          "notice": "Installment loan has not defaulted."
        }
      ],
      "LC_NonceUsed(address,uint160)": [
        {
          "notice": "Loan duration has not expired."
        }
      ],
      "LC_NotExpired(uint256)": [
        {
          "notice": "Loan duration has not expired."
        }
      ],
      "LC_ZeroAddress()": [
        {
          "notice": "Zero address passed in where not allowed."
        }
      ]
    },
    "kind": "user",
    "methods": {
      "canCallOn(address,address)": {
        "notice": "Reports if the caller is allowed to call functions on the given vault.         Determined by if they are the borrower for the loan, defined by ownership         of the relevant BorrowerNote."
      },
      "cancelNonce(uint160)": {
        "notice": "Mark a nonce as used in order to invalidate signatures with the nonce.         Does not allow specifying the user, and automatically consumes the nonce         of the caller."
      },
      "claim(uint256,uint256)": {
        "notice": "Claim collateral on a given loan. Can only be called by RepaymentController,         which verifies claim conditions. This method validate that the loan's due         date has passed, and then distribute collateral to the lender. All promissory         notes will be burned and the loan will be marked as complete."
      },
      "claimFees(address)": {
        "notice": "Claim the protocol fees for the given token. Any token used as principal         for a loan will have accumulated fees. Must be called by contract owner."
      },
      "consumeNonce(address,uint160)": {
        "notice": "Mark a nonce as used in the context of starting a loan. Reverts if         nonce has already been used. Can only be called by Origination Controller."
      },
      "getFullInterestAmount(uint256,uint256)": {
        "notice": "Calculate the interest due over a full term."
      },
      "getLoan(uint256)": {
        "notice": "Returns the LoanData struct for the specified loan ID."
      },
      "initialize(address,address,address,address)": {
        "notice": "Initializes tehe loan core contract, by initializing parent         contracts, setting up roles, and setting up contract references."
      },
      "isNonceUsed(address,uint160)": {
        "notice": "Reports whether the given nonce has been previously used by a user. Returning         false does not mean that the nonce will not clash with another potential off-chain         signature that is stored somewhere."
      },
      "pause()": {
        "notice": "Pauses the contract, preventing loan lifecyle operations.         Should only be used in case of emergency. Can only be called         by contract owner."
      },
      "repay(uint256)": {
        "notice": "Repay the given loan. Can only be called by RepaymentController,         which verifies repayment conditions. This method will calculate         the total interest due, collect it from the borrower, and redistribute         principal + interest to he lender, and collateral to the borrower.         All promissory notes will be burned and the loan will be marked as complete."
      },
      "repayPart(uint256,uint256,uint256,uint256,uint256)": {
        "notice": "Called from RepaymentController when paying back an installment loan.         New loan state parameters are calculated in the Repayment Controller.         Based on if the _paymentToPrincipal is greater than the current balance,         the loan state is updated. (0 = minimum payment sent, > 0 pay down principal).         The paymentTotal (_paymentToPrincipal + _paymentToLateFees) is always transferred to the lender."
      },
      "rollover(uint256,address,address,(uint32,uint32,uint24,uint160,uint256,address,uint256,address),uint256,uint256,uint256,uint256)": {
        "notice": "Roll over a loan, atomically closing one and re-opening a new one with the         same collateral. Instead of full repayment, only net payments from each         party are required. Each rolled-over loan is marked as complete, and the new         loan is given a new unique ID and notes. At the time of calling, any needed         net payments have been collected by the RepaymentController for withdrawal."
      },
      "setFeeController(address)": {
        "notice": "Sets the fee controller to a new address. It must implement the         IFeeController interface. Can only be called by the contract owner."
      },
      "startLoan(address,address,(uint32,uint32,uint24,uint160,uint256,address,uint256,address))": {
        "notice": "Start a loan, matching a set of terms, with a given         lender and borrower. Collects collateral and distributes         principal, along with collecting an origination fee for the         protocol. Can only be called by OriginationController."
      },
      "unpause()": {
        "notice": "Unpauses the contract, enabling loan lifecyle operations.         Can be used after pausing due to emergency or during contract         upgrade. Can only be called by contract owner."
      }
    },
    "version": 1
  },
  "storageLayout": {
    "storage": [
      {
        "astId": 1191,
        "contract": "contracts/LoanCore.sol:LoanCore",
        "label": "_initialized",
        "offset": 0,
        "slot": "0",
        "type": "t_uint8"
      },
      {
        "astId": 1194,
        "contract": "contracts/LoanCore.sol:LoanCore",
        "label": "_initializing",
        "offset": 1,
        "slot": "0",
        "type": "t_bool"
      },
      {
        "astId": 24,
        "contract": "contracts/LoanCore.sol:LoanCore",
        "label": "_roles",
        "offset": 0,
        "slot": "1",
        "type": "t_mapping(t_bytes32,t_struct(RoleData)19_storage)"
      },
      {
        "astId": 1460,
        "contract": "contracts/LoanCore.sol:LoanCore",
        "label": "_paused",
        "offset": 0,
        "slot": "2",
        "type": "t_bool"
      },
      {
        "astId": 9336,
        "contract": "contracts/LoanCore.sol:LoanCore",
        "label": "borrowerNote",
        "offset": 1,
        "slot": "2",
        "type": "t_contract(IPromissoryNote)15277"
      },
      {
        "astId": 9340,
        "contract": "contracts/LoanCore.sol:LoanCore",
        "label": "lenderNote",
        "offset": 0,
        "slot": "3",
        "type": "t_contract(IPromissoryNote)15277"
      },
      {
        "astId": 9344,
        "contract": "contracts/LoanCore.sol:LoanCore",
        "label": "feeController",
        "offset": 0,
        "slot": "4",
        "type": "t_contract(IFeeController)14655"
      },
      {
        "astId": 9347,
        "contract": "contracts/LoanCore.sol:LoanCore",
        "label": "loanIdTracker",
        "offset": 0,
        "slot": "5",
        "type": "t_struct(Counter)6506_storage"
      },
      {
        "astId": 9352,
        "contract": "contracts/LoanCore.sol:LoanCore",
        "label": "loans",
        "offset": 0,
        "slot": "6",
        "type": "t_mapping(t_uint256,t_struct(LoanData)15458_storage)"
      },
      {
        "astId": 9356,
        "contract": "contracts/LoanCore.sol:LoanCore",
        "label": "collateralInUse",
        "offset": 0,
        "slot": "7",
        "type": "t_mapping(t_bytes32,t_bool)"
      },
      {
        "astId": 9362,
        "contract": "contracts/LoanCore.sol:LoanCore",
        "label": "usedNonces",
        "offset": 0,
        "slot": "8",
        "type": "t_mapping(t_address,t_mapping(t_uint160,t_bool))"
      }
    ],
    "types": {
      "t_address": {
        "encoding": "inplace",
        "label": "address",
        "numberOfBytes": "20"
      },
      "t_bool": {
        "encoding": "inplace",
        "label": "bool",
        "numberOfBytes": "1"
      },
      "t_bytes32": {
        "encoding": "inplace",
        "label": "bytes32",
        "numberOfBytes": "32"
      },
      "t_contract(IFeeController)14655": {
        "encoding": "inplace",
        "label": "contract IFeeController",
        "numberOfBytes": "20"
      },
      "t_contract(IPromissoryNote)15277": {
        "encoding": "inplace",
        "label": "contract IPromissoryNote",
        "numberOfBytes": "20"
      },
      "t_enum(LoanState)15390": {
        "encoding": "inplace",
        "label": "enum LoanLibrary.LoanState",
        "numberOfBytes": "1"
      },
      "t_mapping(t_address,t_bool)": {
        "encoding": "mapping",
        "key": "t_address",
        "label": "mapping(address => bool)",
        "numberOfBytes": "32",
        "value": "t_bool"
      },
      "t_mapping(t_address,t_mapping(t_uint160,t_bool))": {
        "encoding": "mapping",
        "key": "t_address",
        "label": "mapping(address => mapping(uint160 => bool))",
        "numberOfBytes": "32",
        "value": "t_mapping(t_uint160,t_bool)"
      },
      "t_mapping(t_bytes32,t_bool)": {
        "encoding": "mapping",
        "key": "t_bytes32",
        "label": "mapping(bytes32 => bool)",
        "numberOfBytes": "32",
        "value": "t_bool"
      },
      "t_mapping(t_bytes32,t_struct(RoleData)19_storage)": {
        "encoding": "mapping",
        "key": "t_bytes32",
        "label": "mapping(bytes32 => struct AccessControl.RoleData)",
        "numberOfBytes": "32",
        "value": "t_struct(RoleData)19_storage"
      },
      "t_mapping(t_uint160,t_bool)": {
        "encoding": "mapping",
        "key": "t_uint160",
        "label": "mapping(uint160 => bool)",
        "numberOfBytes": "32",
        "value": "t_bool"
      },
      "t_mapping(t_uint256,t_struct(LoanData)15458_storage)": {
        "encoding": "mapping",
        "key": "t_uint256",
        "label": "mapping(uint256 => struct LoanLibrary.LoanData)",
        "numberOfBytes": "32",
        "value": "t_struct(LoanData)15458_storage"
      },
      "t_struct(Counter)6506_storage": {
        "encoding": "inplace",
        "label": "struct Counters.Counter",
        "members": [
          {
            "astId": 6505,
            "contract": "contracts/LoanCore.sol:LoanCore",
            "label": "_value",
            "offset": 0,
            "slot": "0",
            "type": "t_uint256"
          }
        ],
        "numberOfBytes": "32"
      },
      "t_struct(LoanData)15458_storage": {
        "encoding": "inplace",
        "label": "struct LoanLibrary.LoanData",
        "members": [
          {
            "astId": 15443,
            "contract": "contracts/LoanCore.sol:LoanCore",
            "label": "state",
            "offset": 0,
            "slot": "0",
            "type": "t_enum(LoanState)15390"
          },
          {
            "astId": 15445,
            "contract": "contracts/LoanCore.sol:LoanCore",
            "label": "numInstallmentsPaid",
            "offset": 1,
            "slot": "0",
            "type": "t_uint24"
          },
          {
            "astId": 15447,
            "contract": "contracts/LoanCore.sol:LoanCore",
            "label": "startDate",
            "offset": 4,
            "slot": "0",
            "type": "t_uint160"
          },
          {
            "astId": 15451,
            "contract": "contracts/LoanCore.sol:LoanCore",
            "label": "terms",
            "offset": 0,
            "slot": "1",
            "type": "t_struct(LoanTerms)15412_storage"
          },
          {
            "astId": 15453,
            "contract": "contracts/LoanCore.sol:LoanCore",
            "label": "balance",
            "offset": 0,
            "slot": "6",
            "type": "t_uint256"
          },
          {
            "astId": 15455,
            "contract": "contracts/LoanCore.sol:LoanCore",
            "label": "balancePaid",
            "offset": 0,
            "slot": "7",
            "type": "t_uint256"
          },
          {
            "astId": 15457,
            "contract": "contracts/LoanCore.sol:LoanCore",
            "label": "lateFeesAccrued",
            "offset": 0,
            "slot": "8",
            "type": "t_uint256"
          }
        ],
        "numberOfBytes": "288"
      },
      "t_struct(LoanTerms)15412_storage": {
        "encoding": "inplace",
        "label": "struct LoanLibrary.LoanTerms",
        "members": [
          {
            "astId": 15393,
            "contract": "contracts/LoanCore.sol:LoanCore",
            "label": "durationSecs",
            "offset": 0,
            "slot": "0",
            "type": "t_uint32"
          },
          {
            "astId": 15395,
            "contract": "contracts/LoanCore.sol:LoanCore",
            "label": "deadline",
            "offset": 4,
            "slot": "0",
            "type": "t_uint32"
          },
          {
            "astId": 15398,
            "contract": "contracts/LoanCore.sol:LoanCore",
            "label": "numInstallments",
            "offset": 8,
            "slot": "0",
            "type": "t_uint24"
          },
          {
            "astId": 15401,
            "contract": "contracts/LoanCore.sol:LoanCore",
            "label": "interestRate",
            "offset": 11,
            "slot": "0",
            "type": "t_uint160"
          },
          {
            "astId": 15404,
            "contract": "contracts/LoanCore.sol:LoanCore",
            "label": "principal",
            "offset": 0,
            "slot": "1",
            "type": "t_uint256"
          },
          {
            "astId": 15407,
            "contract": "contracts/LoanCore.sol:LoanCore",
            "label": "collateralAddress",
            "offset": 0,
            "slot": "2",
            "type": "t_address"
          },
          {
            "astId": 15409,
            "contract": "contracts/LoanCore.sol:LoanCore",
            "label": "collateralId",
            "offset": 0,
            "slot": "3",
            "type": "t_uint256"
          },
          {
            "astId": 15411,
            "contract": "contracts/LoanCore.sol:LoanCore",
            "label": "payableCurrency",
            "offset": 0,
            "slot": "4",
            "type": "t_address"
          }
        ],
        "numberOfBytes": "160"
      },
      "t_struct(RoleData)19_storage": {
        "encoding": "inplace",
        "label": "struct AccessControl.RoleData",
        "members": [
          {
            "astId": 16,
            "contract": "contracts/LoanCore.sol:LoanCore",
            "label": "members",
            "offset": 0,
            "slot": "0",
            "type": "t_mapping(t_address,t_bool)"
          },
          {
            "astId": 18,
            "contract": "contracts/LoanCore.sol:LoanCore",
            "label": "adminRole",
            "offset": 0,
            "slot": "1",
            "type": "t_bytes32"
          }
        ],
        "numberOfBytes": "64"
      },
      "t_uint160": {
        "encoding": "inplace",
        "label": "uint160",
        "numberOfBytes": "20"
      },
      "t_uint24": {
        "encoding": "inplace",
        "label": "uint24",
        "numberOfBytes": "3"
      },
      "t_uint256": {
        "encoding": "inplace",
        "label": "uint256",
        "numberOfBytes": "32"
      },
      "t_uint32": {
        "encoding": "inplace",
        "label": "uint32",
        "numberOfBytes": "4"
      },
      "t_uint8": {
        "encoding": "inplace",
        "label": "uint8",
        "numberOfBytes": "1"
      }
    }
  }
}