{
  "address": "0xc7cBA2B98C536c8F6AEe610C97F84BB717b77d6E",
  "abi": [
    {
      "inputs": [],
      "stateMutability": "nonpayable",
      "type": "constructor"
    },
    {
      "inputs": [
        {
          "internalType": "uint256",
          "name": "interestRate",
          "type": "uint256"
        }
      ],
      "name": "FIAC_InterestRate",
      "type": "error"
    },
    {
      "inputs": [
        {
          "internalType": "address",
          "name": "caller",
          "type": "address"
        }
      ],
      "name": "OC_ApprovedOwnLoan",
      "type": "error"
    },
    {
      "inputs": [],
      "name": "OC_BatchLengthMismatch",
      "type": "error"
    },
    {
      "inputs": [
        {
          "internalType": "address",
          "name": "caller",
          "type": "address"
        }
      ],
      "name": "OC_CallerNotParticipant",
      "type": "error"
    },
    {
      "inputs": [
        {
          "internalType": "uint256",
          "name": "interestRate",
          "type": "uint256"
        }
      ],
      "name": "OC_InterestRate",
      "type": "error"
    },
    {
      "inputs": [
        {
          "internalType": "address",
          "name": "target",
          "type": "address"
        },
        {
          "internalType": "address",
          "name": "signer",
          "type": "address"
        }
      ],
      "name": "OC_InvalidSignature",
      "type": "error"
    },
    {
      "inputs": [
        {
          "internalType": "enum LoanLibrary.LoanState",
          "name": "state",
          "type": "uint8"
        }
      ],
      "name": "OC_InvalidState",
      "type": "error"
    },
    {
      "inputs": [
        {
          "internalType": "address",
          "name": "verifier",
          "type": "address"
        }
      ],
      "name": "OC_InvalidVerifier",
      "type": "error"
    },
    {
      "inputs": [
        {
          "internalType": "uint256",
          "name": "durationSecs",
          "type": "uint256"
        }
      ],
      "name": "OC_LoanDuration",
      "type": "error"
    },
    {
      "inputs": [
        {
          "internalType": "uint256",
          "name": "numInstallments",
          "type": "uint256"
        }
      ],
      "name": "OC_NumberInstallments",
      "type": "error"
    },
    {
      "inputs": [
        {
          "internalType": "address",
          "name": "verifier",
          "type": "address"
        },
        {
          "internalType": "bytes",
          "name": "data",
          "type": "bytes"
        },
        {
          "internalType": "address",
          "name": "vault",
          "type": "address"
        }
      ],
      "name": "OC_PredicateFailed",
      "type": "error"
    },
    {
      "inputs": [
        {
          "internalType": "uint256",
          "name": "principal",
          "type": "uint256"
        }
      ],
      "name": "OC_PrincipalTooLow",
      "type": "error"
    },
    {
      "inputs": [
        {
          "internalType": "address",
          "name": "oldCollateralAddress",
          "type": "address"
        },
        {
          "internalType": "uint256",
          "name": "oldCollateralId",
          "type": "uint256"
        },
        {
          "internalType": "address",
          "name": "newCollateralAddress",
          "type": "address"
        },
        {
          "internalType": "uint256",
          "name": "newCollateralId",
          "type": "uint256"
        }
      ],
      "name": "OC_RolloverCollateralMismatch",
      "type": "error"
    },
    {
      "inputs": [
        {
          "internalType": "address",
          "name": "oldCurrency",
          "type": "address"
        },
        {
          "internalType": "address",
          "name": "newCurrency",
          "type": "address"
        }
      ],
      "name": "OC_RolloverCurrencyMismatch",
      "type": "error"
    },
    {
      "inputs": [
        {
          "internalType": "address",
          "name": "caller",
          "type": "address"
        }
      ],
      "name": "OC_SelfApprove",
      "type": "error"
    },
    {
      "inputs": [
        {
          "internalType": "uint256",
          "name": "deadline",
          "type": "uint256"
        }
      ],
      "name": "OC_SignatureIsExpired",
      "type": "error"
    },
    {
      "inputs": [],
      "name": "OC_ZeroAddress",
      "type": "error"
    },
    {
      "anonymous": false,
      "inputs": [
        {
          "indexed": false,
          "internalType": "address",
          "name": "previousAdmin",
          "type": "address"
        },
        {
          "indexed": false,
          "internalType": "address",
          "name": "newAdmin",
          "type": "address"
        }
      ],
      "name": "AdminChanged",
      "type": "event"
    },
    {
      "anonymous": false,
      "inputs": [
        {
          "indexed": true,
          "internalType": "address",
          "name": "owner",
          "type": "address"
        },
        {
          "indexed": true,
          "internalType": "address",
          "name": "signer",
          "type": "address"
        },
        {
          "indexed": false,
          "internalType": "bool",
          "name": "isApproved",
          "type": "bool"
        }
      ],
      "name": "Approval",
      "type": "event"
    },
    {
      "anonymous": false,
      "inputs": [
        {
          "indexed": true,
          "internalType": "address",
          "name": "beacon",
          "type": "address"
        }
      ],
      "name": "BeaconUpgraded",
      "type": "event"
    },
    {
      "anonymous": false,
      "inputs": [
        {
          "indexed": false,
          "internalType": "uint8",
          "name": "version",
          "type": "uint8"
        }
      ],
      "name": "Initialized",
      "type": "event"
    },
    {
      "anonymous": false,
      "inputs": [
        {
          "indexed": true,
          "internalType": "address",
          "name": "previousOwner",
          "type": "address"
        },
        {
          "indexed": true,
          "internalType": "address",
          "name": "newOwner",
          "type": "address"
        }
      ],
      "name": "OwnershipTransferred",
      "type": "event"
    },
    {
      "anonymous": false,
      "inputs": [
        {
          "indexed": true,
          "internalType": "address",
          "name": "verifier",
          "type": "address"
        },
        {
          "indexed": false,
          "internalType": "bool",
          "name": "isAllowed",
          "type": "bool"
        }
      ],
      "name": "SetAllowedVerifier",
      "type": "event"
    },
    {
      "anonymous": false,
      "inputs": [
        {
          "indexed": true,
          "internalType": "address",
          "name": "implementation",
          "type": "address"
        }
      ],
      "name": "Upgraded",
      "type": "event"
    },
    {
      "inputs": [],
      "name": "BASIS_POINTS_DENOMINATOR",
      "outputs": [
        {
          "internalType": "uint256",
          "name": "",
          "type": "uint256"
        }
      ],
      "stateMutability": "view",
      "type": "function"
    },
    {
      "inputs": [],
      "name": "INSTALLMENT_PERIOD_MULTIPLIER",
      "outputs": [
        {
          "internalType": "uint256",
          "name": "",
          "type": "uint256"
        }
      ],
      "stateMutability": "view",
      "type": "function"
    },
    {
      "inputs": [],
      "name": "INTEREST_RATE_DENOMINATOR",
      "outputs": [
        {
          "internalType": "uint256",
          "name": "",
          "type": "uint256"
        }
      ],
      "stateMutability": "view",
      "type": "function"
    },
    {
      "inputs": [],
      "name": "LATE_FEE",
      "outputs": [
        {
          "internalType": "uint256",
          "name": "",
          "type": "uint256"
        }
      ],
      "stateMutability": "view",
      "type": "function"
    },
    {
      "inputs": [
        {
          "internalType": "address",
          "name": "",
          "type": "address"
        }
      ],
      "name": "allowedVerifiers",
      "outputs": [
        {
          "internalType": "bool",
          "name": "",
          "type": "bool"
        }
      ],
      "stateMutability": "view",
      "type": "function"
    },
    {
      "inputs": [
        {
          "internalType": "address",
          "name": "signer",
          "type": "address"
        },
        {
          "internalType": "bool",
          "name": "approved",
          "type": "bool"
        }
      ],
      "name": "approve",
      "outputs": [],
      "stateMutability": "nonpayable",
      "type": "function"
    },
    {
      "inputs": [
        {
          "internalType": "uint256",
          "name": "principal",
          "type": "uint256"
        },
        {
          "internalType": "uint256",
          "name": "interestRate",
          "type": "uint256"
        }
      ],
      "name": "getFullInterestAmount",
      "outputs": [
        {
          "internalType": "uint256",
          "name": "",
          "type": "uint256"
        }
      ],
      "stateMutability": "pure",
      "type": "function"
    },
    {
      "inputs": [
        {
          "internalType": "address",
          "name": "owner",
          "type": "address"
        },
        {
          "internalType": "address",
          "name": "_loanCore",
          "type": "address"
        }
      ],
      "name": "initialize",
      "outputs": [],
      "stateMutability": "nonpayable",
      "type": "function"
    },
    {
      "inputs": [
        {
          "components": [
            {
              "internalType": "uint32",
              "name": "durationSecs",
              "type": "uint32"
            },
            {
              "internalType": "uint32",
              "name": "deadline",
              "type": "uint32"
            },
            {
              "internalType": "uint24",
              "name": "numInstallments",
              "type": "uint24"
            },
            {
              "internalType": "uint160",
              "name": "interestRate",
              "type": "uint160"
            },
            {
              "internalType": "uint256",
              "name": "principal",
              "type": "uint256"
            },
            {
              "internalType": "address",
              "name": "collateralAddress",
              "type": "address"
            },
            {
              "internalType": "uint256",
              "name": "collateralId",
              "type": "uint256"
            },
            {
              "internalType": "address",
              "name": "payableCurrency",
              "type": "address"
            }
          ],
          "internalType": "struct LoanLibrary.LoanTerms",
          "name": "loanTerms",
          "type": "tuple"
        },
        {
          "internalType": "address",
          "name": "borrower",
          "type": "address"
        },
        {
          "internalType": "address",
          "name": "lender",
          "type": "address"
        },
        {
          "components": [
            {
              "internalType": "uint8",
              "name": "v",
              "type": "uint8"
            },
            {
              "internalType": "bytes32",
              "name": "r",
              "type": "bytes32"
            },
            {
              "internalType": "bytes32",
              "name": "s",
              "type": "bytes32"
            }
          ],
          "internalType": "struct IOriginationController.Signature",
          "name": "sig",
          "type": "tuple"
        },
        {
          "internalType": "uint160",
          "name": "nonce",
          "type": "uint160"
        }
      ],
      "name": "initializeLoan",
      "outputs": [
        {
          "internalType": "uint256",
          "name": "loanId",
          "type": "uint256"
        }
      ],
      "stateMutability": "nonpayable",
      "type": "function"
    },
    {
      "inputs": [
        {
          "components": [
            {
              "internalType": "uint32",
              "name": "durationSecs",
              "type": "uint32"
            },
            {
              "internalType": "uint32",
              "name": "deadline",
              "type": "uint32"
            },
            {
              "internalType": "uint24",
              "name": "numInstallments",
              "type": "uint24"
            },
            {
              "internalType": "uint160",
              "name": "interestRate",
              "type": "uint160"
            },
            {
              "internalType": "uint256",
              "name": "principal",
              "type": "uint256"
            },
            {
              "internalType": "address",
              "name": "collateralAddress",
              "type": "address"
            },
            {
              "internalType": "uint256",
              "name": "collateralId",
              "type": "uint256"
            },
            {
              "internalType": "address",
              "name": "payableCurrency",
              "type": "address"
            }
          ],
          "internalType": "struct LoanLibrary.LoanTerms",
          "name": "loanTerms",
          "type": "tuple"
        },
        {
          "internalType": "address",
          "name": "borrower",
          "type": "address"
        },
        {
          "internalType": "address",
          "name": "lender",
          "type": "address"
        },
        {
          "components": [
            {
              "internalType": "uint8",
              "name": "v",
              "type": "uint8"
            },
            {
              "internalType": "bytes32",
              "name": "r",
              "type": "bytes32"
            },
            {
              "internalType": "bytes32",
              "name": "s",
              "type": "bytes32"
            }
          ],
          "internalType": "struct IOriginationController.Signature",
          "name": "sig",
          "type": "tuple"
        },
        {
          "internalType": "uint160",
          "name": "nonce",
          "type": "uint160"
        },
        {
          "components": [
            {
              "internalType": "uint8",
              "name": "v",
              "type": "uint8"
            },
            {
              "internalType": "bytes32",
              "name": "r",
              "type": "bytes32"
            },
            {
              "internalType": "bytes32",
              "name": "s",
              "type": "bytes32"
            }
          ],
          "internalType": "struct IOriginationController.Signature",
          "name": "collateralSig",
          "type": "tuple"
        },
        {
          "internalType": "uint256",
          "name": "permitDeadline",
          "type": "uint256"
        }
      ],
      "name": "initializeLoanWithCollateralPermit",
      "outputs": [
        {
          "internalType": "uint256",
          "name": "loanId",
          "type": "uint256"
        }
      ],
      "stateMutability": "nonpayable",
      "type": "function"
    },
    {
      "inputs": [
        {
          "components": [
            {
              "internalType": "uint32",
              "name": "durationSecs",
              "type": "uint32"
            },
            {
              "internalType": "uint32",
              "name": "deadline",
              "type": "uint32"
            },
            {
              "internalType": "uint24",
              "name": "numInstallments",
              "type": "uint24"
            },
            {
              "internalType": "uint160",
              "name": "interestRate",
              "type": "uint160"
            },
            {
              "internalType": "uint256",
              "name": "principal",
              "type": "uint256"
            },
            {
              "internalType": "address",
              "name": "collateralAddress",
              "type": "address"
            },
            {
              "internalType": "uint256",
              "name": "collateralId",
              "type": "uint256"
            },
            {
              "internalType": "address",
              "name": "payableCurrency",
              "type": "address"
            }
          ],
          "internalType": "struct LoanLibrary.LoanTerms",
          "name": "loanTerms",
          "type": "tuple"
        },
        {
          "internalType": "address",
          "name": "borrower",
          "type": "address"
        },
        {
          "internalType": "address",
          "name": "lender",
          "type": "address"
        },
        {
          "components": [
            {
              "internalType": "uint8",
              "name": "v",
              "type": "uint8"
            },
            {
              "internalType": "bytes32",
              "name": "r",
              "type": "bytes32"
            },
            {
              "internalType": "bytes32",
              "name": "s",
              "type": "bytes32"
            }
          ],
          "internalType": "struct IOriginationController.Signature",
          "name": "sig",
          "type": "tuple"
        },
        {
          "internalType": "uint160",
          "name": "nonce",
          "type": "uint160"
        },
        {
          "components": [
            {
              "internalType": "uint8",
              "name": "v",
              "type": "uint8"
            },
            {
              "internalType": "bytes32",
              "name": "r",
              "type": "bytes32"
            },
            {
              "internalType": "bytes32",
              "name": "s",
              "type": "bytes32"
            }
          ],
          "internalType": "struct IOriginationController.Signature",
          "name": "collateralSig",
          "type": "tuple"
        },
        {
          "internalType": "uint256",
          "name": "permitDeadline",
          "type": "uint256"
        },
        {
          "components": [
            {
              "internalType": "bytes",
              "name": "data",
              "type": "bytes"
            },
            {
              "internalType": "address",
              "name": "verifier",
              "type": "address"
            }
          ],
          "internalType": "struct LoanLibrary.Predicate[]",
          "name": "itemPredicates",
          "type": "tuple[]"
        }
      ],
      "name": "initializeLoanWithCollateralPermitAndItems",
      "outputs": [
        {
          "internalType": "uint256",
          "name": "loanId",
          "type": "uint256"
        }
      ],
      "stateMutability": "nonpayable",
      "type": "function"
    },
    {
      "inputs": [
        {
          "components": [
            {
              "internalType": "uint32",
              "name": "durationSecs",
              "type": "uint32"
            },
            {
              "internalType": "uint32",
              "name": "deadline",
              "type": "uint32"
            },
            {
              "internalType": "uint24",
              "name": "numInstallments",
              "type": "uint24"
            },
            {
              "internalType": "uint160",
              "name": "interestRate",
              "type": "uint160"
            },
            {
              "internalType": "uint256",
              "name": "principal",
              "type": "uint256"
            },
            {
              "internalType": "address",
              "name": "collateralAddress",
              "type": "address"
            },
            {
              "internalType": "uint256",
              "name": "collateralId",
              "type": "uint256"
            },
            {
              "internalType": "address",
              "name": "payableCurrency",
              "type": "address"
            }
          ],
          "internalType": "struct LoanLibrary.LoanTerms",
          "name": "loanTerms",
          "type": "tuple"
        },
        {
          "internalType": "address",
          "name": "borrower",
          "type": "address"
        },
        {
          "internalType": "address",
          "name": "lender",
          "type": "address"
        },
        {
          "components": [
            {
              "internalType": "uint8",
              "name": "v",
              "type": "uint8"
            },
            {
              "internalType": "bytes32",
              "name": "r",
              "type": "bytes32"
            },
            {
              "internalType": "bytes32",
              "name": "s",
              "type": "bytes32"
            }
          ],
          "internalType": "struct IOriginationController.Signature",
          "name": "sig",
          "type": "tuple"
        },
        {
          "internalType": "uint160",
          "name": "nonce",
          "type": "uint160"
        },
        {
          "components": [
            {
              "internalType": "bytes",
              "name": "data",
              "type": "bytes"
            },
            {
              "internalType": "address",
              "name": "verifier",
              "type": "address"
            }
          ],
          "internalType": "struct LoanLibrary.Predicate[]",
          "name": "itemPredicates",
          "type": "tuple[]"
        }
      ],
      "name": "initializeLoanWithItems",
      "outputs": [
        {
          "internalType": "uint256",
          "name": "loanId",
          "type": "uint256"
        }
      ],
      "stateMutability": "nonpayable",
      "type": "function"
    },
    {
      "inputs": [
        {
          "internalType": "address",
          "name": "verifier",
          "type": "address"
        }
      ],
      "name": "isAllowedVerifier",
      "outputs": [
        {
          "internalType": "bool",
          "name": "",
          "type": "bool"
        }
      ],
      "stateMutability": "view",
      "type": "function"
    },
    {
      "inputs": [
        {
          "internalType": "address",
          "name": "owner",
          "type": "address"
        },
        {
          "internalType": "address",
          "name": "signer",
          "type": "address"
        }
      ],
      "name": "isApproved",
      "outputs": [
        {
          "internalType": "bool",
          "name": "",
          "type": "bool"
        }
      ],
      "stateMutability": "view",
      "type": "function"
    },
    {
      "inputs": [
        {
          "internalType": "address",
          "name": "target",
          "type": "address"
        },
        {
          "components": [
            {
              "internalType": "uint8",
              "name": "v",
              "type": "uint8"
            },
            {
              "internalType": "bytes32",
              "name": "r",
              "type": "bytes32"
            },
            {
              "internalType": "bytes32",
              "name": "s",
              "type": "bytes32"
            }
          ],
          "internalType": "struct IOriginationController.Signature",
          "name": "sig",
          "type": "tuple"
        },
        {
          "internalType": "bytes32",
          "name": "sighash",
          "type": "bytes32"
        }
      ],
      "name": "isApprovedForContract",
      "outputs": [
        {
          "internalType": "bool",
          "name": "",
          "type": "bool"
        }
      ],
      "stateMutability": "view",
      "type": "function"
    },
    {
      "inputs": [
        {
          "internalType": "address",
          "name": "target",
          "type": "address"
        },
        {
          "internalType": "address",
          "name": "signer",
          "type": "address"
        }
      ],
      "name": "isSelfOrApproved",
      "outputs": [
        {
          "internalType": "bool",
          "name": "",
          "type": "bool"
        }
      ],
      "stateMutability": "view",
      "type": "function"
    },
    {
      "inputs": [],
      "name": "loanCore",
      "outputs": [
        {
          "internalType": "address",
          "name": "",
          "type": "address"
        }
      ],
      "stateMutability": "view",
      "type": "function"
    },
    {
      "inputs": [],
      "name": "owner",
      "outputs": [
        {
          "internalType": "address",
          "name": "",
          "type": "address"
        }
      ],
      "stateMutability": "view",
      "type": "function"
    },
    {
      "inputs": [],
      "name": "proxiableUUID",
      "outputs": [
        {
          "internalType": "bytes32",
          "name": "",
          "type": "bytes32"
        }
      ],
      "stateMutability": "view",
      "type": "function"
    },
    {
      "inputs": [
        {
          "components": [
            {
              "internalType": "uint32",
              "name": "durationSecs",
              "type": "uint32"
            },
            {
              "internalType": "uint32",
              "name": "deadline",
              "type": "uint32"
            },
            {
              "internalType": "uint24",
              "name": "numInstallments",
              "type": "uint24"
            },
            {
              "internalType": "uint160",
              "name": "interestRate",
              "type": "uint160"
            },
            {
              "internalType": "uint256",
              "name": "principal",
              "type": "uint256"
            },
            {
              "internalType": "address",
              "name": "collateralAddress",
              "type": "address"
            },
            {
              "internalType": "uint256",
              "name": "collateralId",
              "type": "uint256"
            },
            {
              "internalType": "address",
              "name": "payableCurrency",
              "type": "address"
            }
          ],
          "internalType": "struct LoanLibrary.LoanTerms",
          "name": "loanTerms",
          "type": "tuple"
        },
        {
          "components": [
            {
              "internalType": "uint8",
              "name": "v",
              "type": "uint8"
            },
            {
              "internalType": "bytes32",
              "name": "r",
              "type": "bytes32"
            },
            {
              "internalType": "bytes32",
              "name": "s",
              "type": "bytes32"
            }
          ],
          "internalType": "struct IOriginationController.Signature",
          "name": "sig",
          "type": "tuple"
        },
        {
          "internalType": "uint160",
          "name": "nonce",
          "type": "uint160"
        },
        {
          "internalType": "enum IOriginationController.Side",
          "name": "side",
          "type": "uint8"
        },
        {
          "internalType": "bytes32",
          "name": "itemsHash",
          "type": "bytes32"
        }
      ],
      "name": "recoverItemsSignature",
      "outputs": [
        {
          "internalType": "bytes32",
          "name": "sighash",
          "type": "bytes32"
        },
        {
          "internalType": "address",
          "name": "signer",
          "type": "address"
        }
      ],
      "stateMutability": "view",
      "type": "function"
    },
    {
      "inputs": [
        {
          "components": [
            {
              "internalType": "uint32",
              "name": "durationSecs",
              "type": "uint32"
            },
            {
              "internalType": "uint32",
              "name": "deadline",
              "type": "uint32"
            },
            {
              "internalType": "uint24",
              "name": "numInstallments",
              "type": "uint24"
            },
            {
              "internalType": "uint160",
              "name": "interestRate",
              "type": "uint160"
            },
            {
              "internalType": "uint256",
              "name": "principal",
              "type": "uint256"
            },
            {
              "internalType": "address",
              "name": "collateralAddress",
              "type": "address"
            },
            {
              "internalType": "uint256",
              "name": "collateralId",
              "type": "uint256"
            },
            {
              "internalType": "address",
              "name": "payableCurrency",
              "type": "address"
            }
          ],
          "internalType": "struct LoanLibrary.LoanTerms",
          "name": "loanTerms",
          "type": "tuple"
        },
        {
          "components": [
            {
              "internalType": "uint8",
              "name": "v",
              "type": "uint8"
            },
            {
              "internalType": "bytes32",
              "name": "r",
              "type": "bytes32"
            },
            {
              "internalType": "bytes32",
              "name": "s",
              "type": "bytes32"
            }
          ],
          "internalType": "struct IOriginationController.Signature",
          "name": "sig",
          "type": "tuple"
        },
        {
          "internalType": "uint160",
          "name": "nonce",
          "type": "uint160"
        },
        {
          "internalType": "enum IOriginationController.Side",
          "name": "side",
          "type": "uint8"
        }
      ],
      "name": "recoverTokenSignature",
      "outputs": [
        {
          "internalType": "bytes32",
          "name": "sighash",
          "type": "bytes32"
        },
        {
          "internalType": "address",
          "name": "signer",
          "type": "address"
        }
      ],
      "stateMutability": "view",
      "type": "function"
    },
    {
      "inputs": [],
      "name": "renounceOwnership",
      "outputs": [],
      "stateMutability": "nonpayable",
      "type": "function"
    },
    {
      "inputs": [
        {
          "internalType": "uint256",
          "name": "oldLoanId",
          "type": "uint256"
        },
        {
          "components": [
            {
              "internalType": "uint32",
              "name": "durationSecs",
              "type": "uint32"
            },
            {
              "internalType": "uint32",
              "name": "deadline",
              "type": "uint32"
            },
            {
              "internalType": "uint24",
              "name": "numInstallments",
              "type": "uint24"
            },
            {
              "internalType": "uint160",
              "name": "interestRate",
              "type": "uint160"
            },
            {
              "internalType": "uint256",
              "name": "principal",
              "type": "uint256"
            },
            {
              "internalType": "address",
              "name": "collateralAddress",
              "type": "address"
            },
            {
              "internalType": "uint256",
              "name": "collateralId",
              "type": "uint256"
            },
            {
              "internalType": "address",
              "name": "payableCurrency",
              "type": "address"
            }
          ],
          "internalType": "struct LoanLibrary.LoanTerms",
          "name": "loanTerms",
          "type": "tuple"
        },
        {
          "internalType": "address",
          "name": "lender",
          "type": "address"
        },
        {
          "components": [
            {
              "internalType": "uint8",
              "name": "v",
              "type": "uint8"
            },
            {
              "internalType": "bytes32",
              "name": "r",
              "type": "bytes32"
            },
            {
              "internalType": "bytes32",
              "name": "s",
              "type": "bytes32"
            }
          ],
          "internalType": "struct IOriginationController.Signature",
          "name": "sig",
          "type": "tuple"
        },
        {
          "internalType": "uint160",
          "name": "nonce",
          "type": "uint160"
        }
      ],
      "name": "rolloverLoan",
      "outputs": [
        {
          "internalType": "uint256",
          "name": "newLoanId",
          "type": "uint256"
        }
      ],
      "stateMutability": "nonpayable",
      "type": "function"
    },
    {
      "inputs": [
        {
          "internalType": "uint256",
          "name": "oldLoanId",
          "type": "uint256"
        },
        {
          "components": [
            {
              "internalType": "uint32",
              "name": "durationSecs",
              "type": "uint32"
            },
            {
              "internalType": "uint32",
              "name": "deadline",
              "type": "uint32"
            },
            {
              "internalType": "uint24",
              "name": "numInstallments",
              "type": "uint24"
            },
            {
              "internalType": "uint160",
              "name": "interestRate",
              "type": "uint160"
            },
            {
              "internalType": "uint256",
              "name": "principal",
              "type": "uint256"
            },
            {
              "internalType": "address",
              "name": "collateralAddress",
              "type": "address"
            },
            {
              "internalType": "uint256",
              "name": "collateralId",
              "type": "uint256"
            },
            {
              "internalType": "address",
              "name": "payableCurrency",
              "type": "address"
            }
          ],
          "internalType": "struct LoanLibrary.LoanTerms",
          "name": "loanTerms",
          "type": "tuple"
        },
        {
          "internalType": "address",
          "name": "lender",
          "type": "address"
        },
        {
          "components": [
            {
              "internalType": "uint8",
              "name": "v",
              "type": "uint8"
            },
            {
              "internalType": "bytes32",
              "name": "r",
              "type": "bytes32"
            },
            {
              "internalType": "bytes32",
              "name": "s",
              "type": "bytes32"
            }
          ],
          "internalType": "struct IOriginationController.Signature",
          "name": "sig",
          "type": "tuple"
        },
        {
          "internalType": "uint160",
          "name": "nonce",
          "type": "uint160"
        },
        {
          "components": [
            {
              "internalType": "bytes",
              "name": "data",
              "type": "bytes"
            },
            {
              "internalType": "address",
              "name": "verifier",
              "type": "address"
            }
          ],
          "internalType": "struct LoanLibrary.Predicate[]",
          "name": "itemPredicates",
          "type": "tuple[]"
        }
      ],
      "name": "rolloverLoanWithItems",
      "outputs": [
        {
          "internalType": "uint256",
          "name": "newLoanId",
          "type": "uint256"
        }
      ],
      "stateMutability": "nonpayable",
      "type": "function"
    },
    {
      "inputs": [
        {
          "internalType": "address",
          "name": "verifier",
          "type": "address"
        },
        {
          "internalType": "bool",
          "name": "isAllowed",
          "type": "bool"
        }
      ],
      "name": "setAllowedVerifier",
      "outputs": [],
      "stateMutability": "nonpayable",
      "type": "function"
    },
    {
      "inputs": [
        {
          "internalType": "address[]",
          "name": "verifiers",
          "type": "address[]"
        },
        {
          "internalType": "bool[]",
          "name": "isAllowed",
          "type": "bool[]"
        }
      ],
      "name": "setAllowedVerifierBatch",
      "outputs": [],
      "stateMutability": "nonpayable",
      "type": "function"
    },
    {
      "inputs": [
        {
          "internalType": "address",
          "name": "newOwner",
          "type": "address"
        }
      ],
      "name": "transferOwnership",
      "outputs": [],
      "stateMutability": "nonpayable",
      "type": "function"
    },
    {
      "inputs": [
        {
          "internalType": "address",
          "name": "newImplementation",
          "type": "address"
        }
      ],
      "name": "upgradeTo",
      "outputs": [],
      "stateMutability": "nonpayable",
      "type": "function"
    },
    {
      "inputs": [
        {
          "internalType": "address",
          "name": "newImplementation",
          "type": "address"
        },
        {
          "internalType": "bytes",
          "name": "data",
          "type": "bytes"
        }
      ],
      "name": "upgradeToAndCall",
      "outputs": [],
      "stateMutability": "payable",
      "type": "function"
    }
  ],
  "transactionHash": "0xe1007de1f38defac528aff25083bb15df08717b5a20f9578d5f1def6d0d9e16d",
  "args": [],
  "numDeployments": 1,
  "solcInputHash": "f8d88f69c17aa23c4805e0fc29994ffd",
  "bytecode": "0x61016060405230610140523480156200001757600080fd5b50604080518082018252601581527f4f726967696e6174696f6e436f6e74726f6c6c657200000000000000000000006020808301918252835180850190945260018452601960f91b908401528151902060e08190527fad7c5bef027816a800da1736444fb58a807ef4c9603b7848673f7e3a68eb14a56101008190524660a0529192917f8b73c3c69bb8fe3d512ecc4cf759cc79239f7b179b0ffacaa9a75d522b39400f6200010b8184846040805160208101859052908101839052606081018290524660808201523060a082015260009060c0016040516020818303038152906040528051906020012090509392505050565b6080523060c05261012052505060018055506200012a9050336200019f565b6000620001386001620001f1565b9050801562000151576000805461ff0019166101001790555b801562000198576000805461ff0019169055604051600181527f7f26b83ff96e1f2b6a682f133852f6798a09c465da95921460cefb38474024989060200160405180910390a15b5062000312565b600280546001600160a01b038381166001600160a01b0319831681179093556040519116919082907f8be0079c531659141344cd1fd0a4f28419497f9722a3daafe3b4186f6b6457e090600090a35050565b60008054610100900460ff16156200028a578160ff1660011480156200022a575062000228306200030360201b62001c371760201c565b155b620002825760405162461bcd60e51b815260206004820152602e602482015260008051602062004add83398151915260448201526d191e481a5b9a5d1a585b1a5e995960921b60648201526084015b60405180910390fd5b506000919050565b60005460ff808416911610620002e95760405162461bcd60e51b815260206004820152602e602482015260008051602062004add83398151915260448201526d191e481a5b9a5d1a585b1a5e995960921b606482015260840162000279565b506000805460ff191660ff92909216919091179055600190565b6001600160a01b03163b151590565b60805160a05160c05160e05161010051610120516101405161475462000389600039600081816109420152818161098b01528181610d2201528181610d620152610df501526000612b8901526000612bd801526000612bb301526000612b0c01526000612b3601526000612b6001526147546000f3fe6080604052600436106101c25760003560e01c806371f5d1c8116100f75780639c5e8e6b11610095578063cd43f63811610064578063cd43f63814610556578063cfa498a314610576578063f2fde38b1461058c578063f61ade83146105ac57600080fd5b80639c5e8e6b146104bc578063a389783e146104dc578063be74bce414610525578063cc3266e81461053a57600080fd5b80637e148502116100d15780637e148502146104375780638171ba27146104675780638da5cb5b1461047e57806399c994781461049c57600080fd5b806371f5d1c8146103d757806373bc4d1a146103f75780637a60f58d1461041757600080fd5b80633d140d211161016457806352d1902d1161013e57806352d1902d146103545780635bc1e507146103695780635cf0685f14610389578063715018a6146103c257600080fd5b80633d140d2114610301578063485cc955146103215780634f1ef2861461034157600080fd5b80632e71b535116101a05780632e71b53514610254578063304fedda146102745780633659cfe6146102a457806336d00bb6146102c457600080fd5b806304b86147146101c75780632434c20c146101e95780632692f36d1461021c575b600080fd5b3480156101d357600080fd5b506101e76101e23660046136f5565b6105cc565b005b3480156101f557600080fd5b506102096102043660046137ac565b610661565b6040519081526020015b60405180910390f35b34801561022857600080fd5b5060035461023c906001600160a01b031681565b6040516001600160a01b039091168152602001610213565b34801561026057600080fd5b5061020961026f366004613820565b610737565b34801561028057600080fd5b5061029461028f3660046138af565b6107e3565b6040519015158152602001610213565b3480156102b057600080fd5b506101e76102bf3660046138ee565b610937565b3480156102d057600080fd5b506102e46102df36600461391a565b610a20565b604080519283526001600160a01b03909116602083015201610213565b34801561030d57600080fd5b506101e761031c366004613984565b610b2b565b34801561032d57600080fd5b506101e761033c3660046139bd565b610bc3565b6101e761034f366004613a5b565b610d17565b34801561036057600080fd5b50610209610de8565b34801561037557600080fd5b50610209610384366004613b03565b610e9b565b34801561039557600080fd5b506102946103a43660046138ee565b6001600160a01b031660009081526005602052604090205460ff1690565b3480156103ce57600080fd5b506101e7610f4b565b3480156103e357600080fd5b506102096103f2366004613bc7565b610f81565b34801561040357600080fd5b506101e7610412366004613984565b6111f9565b34801561042357600080fd5b506102e4610432366004613bf1565b6112a9565b34801561044357600080fd5b506102946104523660046138ee565b60056020526000908152604090205460ff1681565b34801561047357600080fd5b50610209620f424081565b34801561048a57600080fd5b506002546001600160a01b031661023c565b3480156104a857600080fd5b506102096104b7366004613c56565b6113b4565b3480156104c857600080fd5b506102096104d7366004613c78565b61141f565b3480156104e857600080fd5b506102946104f73660046139bd565b6001600160a01b03918216600090815260046020908152604080832093909416825291909152205460ff1690565b34801561053157600080fd5b50610209603281565b34801561054657600080fd5b50610209670de0b6b3a764000081565b34801561056257600080fd5b506102946105713660046139bd565b61172e565b34801561058257600080fd5b5061020961271081565b34801561059857600080fd5b506101e76105a73660046138ee565b611779565b3480156105b857600080fd5b506102096105c7366004613d1d565b611811565b8281146105ec57604051634400101160e01b815260040160405180910390fd5b60005b8381101561065a5761064885858381811061060c5761060c613d4a565b905060200201602081019061062191906138ee565b84848481811061063357610633613d4a565b90506020020160208101906104129190613d60565b8061065281613d93565b9150506105ef565b5050505050565b600061067a61067536889003880188613de7565b611c46565b6000610686863361172e565b610691576000610694565b60015b90506000806106a589878786610a20565b915091506106b8888833848a8789611db3565b60035460405163d3582ac760e01b81526001600160a01b03838116600483015287811660248301529091169063d3582ac790604401600060405180830381600087803b15801561070757600080fd5b505af115801561071b573d6000803e3d6000fd5b5050505061072a898989611ed5565b9998505050505050505050565b600061074960c0890160a08a016138ee565b6001600160a01b031663d505accf883060c08c01358661076c60208a018a613ea3565b89602001358a604001356040518863ffffffff1660e01b81526004016107989796959493929190613ec6565b600060405180830381600087803b1580156107b257600080fd5b505af11580156107c6573d6000803e3d6000fd5b505050506107d78888888888610661565b98975050505050505050565b6040805160418082526080820190925260009182919060208201818036833701905050905060006108176020860186613ea3565b9050600085602001359050600086604001359050816020850152806040850152826060850152600080896001600160a01b0316631626ba7e60e01b8988604051602401610865929190613f5f565b60408051601f198184030181529181526020820180516001600160e01b03166001600160e01b03199094169390931790925290516108a39190613f78565b600060405180830381855afa9150503d80600081146108de576040519150601f19603f3d011682016040523d82523d6000602084013e6108e3565b606091505b50915091508180156108f6575080516020145b801561092757508051630b135d3f60e11b9061091b9083016020908101908401613f94565b6001600160e01b031916145b96505050505050505b9392505050565b306001600160a01b037f00000000000000000000000000000000000000000000000000000000000000001614156109895760405162461bcd60e51b815260040161098090613fbe565b60405180910390fd5b7f00000000000000000000000000000000000000000000000000000000000000006001600160a01b03166109d2600080516020614701833981519152546001600160a01b031690565b6001600160a01b0316146109f85760405162461bcd60e51b81526004016109809061400a565b610a018161215f565b60408051600080825260208201909252610a1d91839190612189565b50565b600080807fd22db81e53f545765b2652496a2f89c945c17690c8927d96e3d22588c319e75a610a526020890189614056565b610a6260408a0160208b01614056565b610a7260608b0160408c01614073565b610a8260808c0160608d016138ee565b60808c0135610a9760c08e0160a08f016138ee565b8d60c001358e60e0016020810190610aaf91906138ee565b8d8d6001811115610ac257610ac2614090565b604051602001610adc9b9a999897969594939291906140a6565b604051602081830303815290604052805190602001209050610afd816122f4565b9250610b1f83610b106020890189613ea3565b88602001358960400135612348565b91505094509492505050565b6001600160a01b038216331415610b575760405163204973fd60e21b8152336004820152602401610980565b3360008181526004602090815260408083206001600160a01b03871680855290835292819020805460ff191686151590811790915590519081529192917f1d3e246ebbc933bf65d3290db9f93d67ab91a12d2b19308a35806e04d1c174c5910160405180910390a35050565b6000610bcf6001612372565b90508015610be7576000805461ff0019166101001790555b6000610c117fb53127684a568b3173ae13b9f8a6016e243e63b6e8ee1178d6a717850b5d61035490565b90506001600160a01b038116610c50576001600160a01b037fb53127684a568b3173ae13b9f8a6016e243e63b6e8ee1178d6a717850b5d610355610c65565b336001600160a01b03821614610c6557600080fd5b6001600160a01b038316610c8c57604051633c7efd1960e21b815260040160405180910390fd5b507fb53127684a568b3173ae13b9f8a6016e243e63b6e8ee1178d6a717850b5d6103839055600380546001600160a01b0319166001600160a01b0384161790558015610d12576000805461ff0019169055604051600181527f7f26b83ff96e1f2b6a682f133852f6798a09c465da95921460cefb38474024989060200160405180910390a15b505050565b306001600160a01b037f0000000000000000000000000000000000000000000000000000000000000000161415610d605760405162461bcd60e51b815260040161098090613fbe565b7f00000000000000000000000000000000000000000000000000000000000000006001600160a01b0316610da9600080516020614701833981519152546001600160a01b031690565b6001600160a01b031614610dcf5760405162461bcd60e51b81526004016109809061400a565b610dd88261215f565b610de482826001612189565b5050565b6000306001600160a01b037f00000000000000000000000000000000000000000000000000000000000000001614610e885760405162461bcd60e51b815260206004820152603860248201527f555550535570677261646561626c653a206d757374206e6f742062652063616c60448201527f6c6564207468726f7567682064656c656761746563616c6c00000000000000006064820152608401610980565b5060008051602061470183398151915290565b6000610ead60c08b0160a08c016138ee565b6001600160a01b031663d505accf8a3060c08e013588610ed060208c018c613ea3565b8b602001358c604001356040518863ffffffff1660e01b8152600401610efc9796959493929190613ec6565b600060405180830381600087803b158015610f1657600080fd5b505af1158015610f2a573d6000803e3d6000fd5b50505050610f3d8a8a8a8a8a888861141f565b9a9950505050505050505050565b6002546001600160a01b03163314610f755760405162461bcd60e51b815260040161098090614112565b610f7f60006123ff565b565b6000610f9561067536879003870187613de7565b600354604051632820036560e11b8152600481018890526000916001600160a01b03169063504006ca906024016101c060405180830381865afa158015610fe0573d6000803e3d6000fd5b505050506040513d601f19601f820116820180604052508101906110049190614227565b905060018151600381111561101b5761101b614090565b1461103c57805160405163539312af60e11b815261098091906004016142af565b6003546040805163bf848f8160e01b815290516000926001600160a01b03169163bf848f81916004808301926020929190829003018187875af1158015611087573d6000803e3d6000fd5b505050506040513d601f19601f820116820180604052508101906110ab91906142d7565b6001600160a01b0316636352211e896040518263ffffffff1660e01b81526004016110d891815260200190565b602060405180830381865afa1580156110f5573d6000803e3d6000fd5b505050506040513d601f19601f8201168201806040525081019061111991906142d7565b90506000611127823361172e565b611132576000611135565b60015b90506111558360600151898036038101906111509190613de7565b612451565b6000806111648a898986610a20565b91509150611177848a33848c8789611db3565b60035460405163d3582ac760e01b81526001600160a01b03838116600483015289811660248301529091169063d3582ac790604401600060405180830381600087803b1580156111c657600080fd5b505af11580156111da573d6000803e3d6000fd5b505050506111ea8b8b868c61252b565b9b9a5050505050505050505050565b6002546001600160a01b031633146112235760405162461bcd60e51b815260040161098090614112565b6001600160a01b03821661124a57604051633c7efd1960e21b815260040160405180910390fd5b6001600160a01b038216600081815260056020908152604091829020805460ff191685151590811790915591519182527f2444ef3f0b0b01a9fcfb3aec13a46d8ae0bfd2d4856166dd9928cc02304d1cac910160405180910390a25050565b600080807fdedafdcf0443db1836c819c3eef46fe5b223c771efc259eedc48cdd4cd35c6c46112db60208a018a614056565b6112eb60408b0160208c01614056565b6112fb60608c0160408d01614073565b61130b60808d0160608e016138ee565b8c608001358d60a001602081019061132391906138ee565b8a8f60e001602081019061133791906138ee565b8e8e600181111561134a5761134a614090565b6040516020016113649b9a999897969594939291906140a6565b604051602081830303815290604052805190602001209050611385816122f4565b92506113a78361139860208a018a613ea3565b89602001358a60400135612348565b9150509550959350505050565b600060016113ca670de0b6b3a76400008461430a565b10156113ec57604051637759d63560e01b815260048101839052602401610980565b612710611401670de0b6b3a76400008461430a565b61140b908561431e565b611415919061430a565b610930908461433d565b6000611433610675368a90038a018a613de7565b600061143f883361172e565b61144a57600061144d565b60015b9050600061146160c08b0160a08c016138ee565b6040516308ec149f60e11b815260c08c013560048201526001600160a01b0391909116906311d8293e90602401602060405180830381865afa1580156114ab573d6000803e3d6000fd5b505050506040513d601f19601f820116820180604052508101906114cf91906142d7565b90506000806115098c8a8a878b8b6040516020016114ee92919061437e565b604051602081830303815290604052805190602001206112a9565b9150915061151c8b8b33848d878a611db3565b60005b868110156116ab57600088888381811061153b5761153b613d4a565b905060200281019061154d9190614457565b61155e9060408101906020016138ee565b9050611582816001600160a01b031660009081526005602052604090205460ff1690565b6115aa57604051636348af6d60e01b81526001600160a01b0382166004820152602401610980565b806001600160a01b03166393197b308a8a858181106115cb576115cb613d4a565b90506020028101906115dd9190614457565b6115e7908061446d565b886040518463ffffffff1660e01b8152600401611606939291906144b4565b602060405180830381865afa158015611623573d6000803e3d6000fd5b505050506040513d601f19601f8201168201806040525081019061164791906144e0565b611698578089898481811061165e5761165e613d4a565b90506020028101906116709190614457565b61167a908061446d565b87604051631b8f61f360e01b815260040161098094939291906144fd565b50806116a381613d93565b91505061151f565b5060035460405163d3582ac760e01b81526001600160a01b0383811660048301528a811660248301529091169063d3582ac790604401600060405180830381600087803b1580156116fb57600080fd5b505af115801561170f573d6000803e3d6000fd5b5050505061171e8c8c8c611ed5565b9c9b505050505050505050505050565b6000816001600160a01b0316836001600160a01b0316148061093057506001600160a01b0380841660009081526004602090815260408083209386168352929052205460ff16610930565b6002546001600160a01b031633146117a35760405162461bcd60e51b815260040161098090614112565b6001600160a01b0381166118085760405162461bcd60e51b815260206004820152602660248201527f4f776e61626c653a206e6577206f776e657220697320746865207a65726f206160448201526564647265737360d01b6064820152608401610980565b610a1d816123ff565b600061182561067536899003890189613de7565b600354604051632820036560e11b8152600481018a90526000916001600160a01b03169063504006ca906024016101c060405180830381865afa158015611870573d6000803e3d6000fd5b505050506040513d601f19601f820116820180604052508101906118949190614227565b90506118af8160600151898036038101906111509190613de7565b6003546040805163bf848f8160e01b815290516000926001600160a01b03169163bf848f81916004808301926020929190829003018187875af11580156118fa573d6000803e3d6000fd5b505050506040513d601f19601f8201168201806040525081019061191e91906142d7565b6001600160a01b0316636352211e8b6040518263ffffffff1660e01b815260040161194b91815260200190565b602060405180830381865afa158015611968573d6000803e3d6000fd5b505050506040513d601f19601f8201168201806040525081019061198c91906142d7565b9050600061199a823361172e565b6119a55760006119a8565b60015b905060006119bc60c08c0160a08d016138ee565b6040516308ec149f60e11b815260c08d013560048201526001600160a01b0391909116906311d8293e90602401602060405180830381865afa158015611a06573d6000803e3d6000fd5b505050506040513d601f19601f82011682018060405250810190611a2a91906142d7565b9050600080611a498d8c8c878d8d6040516020016114ee92919061437e565b91509150611a5c858d33848f878a611db3565b60005b88811015611bb15760008a8a83818110611a7b57611a7b613d4a565b9050602002810190611a8d9190614457565b611a9e9060408101906020016138ee565b9050611ac2816001600160a01b031660009081526005602052604090205460ff1690565b611aea57604051636348af6d60e01b81526001600160a01b0382166004820152602401610980565b806001600160a01b03166393197b308c8c85818110611b0b57611b0b613d4a565b9050602002810190611b1d9190614457565b611b27908061446d565b886040518463ffffffff1660e01b8152600401611b46939291906144b4565b602060405180830381865afa158015611b63573d6000803e3d6000fd5b505050506040513d601f19601f82011682018060405250810190611b8791906144e0565b611b9e57808b8b8481811061165e5761165e613d4a565b5080611ba981613d93565b915050611a5f565b5060035460405163d3582ac760e01b81526001600160a01b0383811660048301528c811660248301529091169063d3582ac790604401600060405180830381600087803b158015611c0157600080fd5b505af1158015611c15573d6000803e3d6000fd5b50505050611c258e8e878f61252b565b9e9d5050505050505050505050505050565b6001600160a01b03163b151590565b61271081608001511015611c7557806080015160405163af08162560e01b815260040161098091815260200190565b610e10816000015163ffffffff161080611c9c57506305a39a80816000015163ffffffff16115b15611cc55780516040516328e1657560e21b815263ffffffff9091166004820152602401610980565b670de0b6b3a764000081606001516001600160a01b03161080611cfe575069d3c21bcecceda100000081606001516001600160a01b0316115b15611d2d57606081015160405163781bfedd60e11b81526001600160a01b039091166004820152602401610980565b806040015162ffffff1660011480611d4f57506103e8816040015162ffffff16115b15611d7a5760408082015190516376323b1b60e11b815262ffffff9091166004820152602401610980565b42816020015163ffffffff161015610a1d576020810151604051630bac0ecf60e11b815263ffffffff9091166004820152602401610980565b836001600160a01b0316856001600160a01b03161415611df157604051637b9ad10560e01b81526001600160a01b0386166004820152602401610980565b60006001826001811115611e0757611e07614090565b14611e125787611e14565b865b90506000876001600160a01b0316826001600160a01b031614611e375787611e39565b885b9050611e45818861172e565b158015611e5a5750611e588186866107e3565b155b15611e7a576040516371f839d960e01b8152336004820152602401610980565b611e84828761172e565b158015611e995750611e978286866107e3565b155b15611eca5760405163f770ff4d60e01b81526001600160a01b03808416600483015287166024820152604401610980565b505050505050505050565b600060026001541415611f2a5760405162461bcd60e51b815260206004820152601f60248201527f5265656e7472616e637947756172643a207265656e7472616e742063616c6c006044820152606401610980565b6002600155611f5b82306080870135611f4a610100890160e08a016138ee565b6001600160a01b03169291906129de565b611f6c610100850160e086016138ee565b60035460405163095ea7b360e01b81526001600160a01b0391821660048201526080870135602482015291169063095ea7b3906044016020604051808303816000875af1158015611fc1573d6000803e3d6000fd5b505050506040513d601f19601f82011682018060405250810190611fe591906144e0565b50611ff660c0850160a086016138ee565b6040516323b872dd60e01b81526001600160a01b03858116600483015230602483015260c0870135604483015291909116906323b872dd90606401600060405180830381600087803b15801561204b57600080fd5b505af115801561205f573d6000803e3d6000fd5b506120749250505060c0850160a086016138ee565b60035460405163095ea7b360e01b81526001600160a01b03918216600482015260c0870135602482015291169063095ea7b390604401600060405180830381600087803b1580156120c457600080fd5b505af11580156120d8573d6000803e3d6000fd5b50506003546040516333ff1bc760e11b81526001600160a01b0390911692506367fe378e9150612110908590879089906004016145e0565b6020604051808303816000875af115801561212f573d6000803e3d6000fd5b505050506040513d601f19601f820116820180604052508101906121539190614606565b60018055949350505050565b6002546001600160a01b03163314610a1d5760405162461bcd60e51b815260040161098090614112565b7f4910fdfa16fed3260ed0e7147f7cc6da11a60208b5b9406d12a635614ffd91435460ff16156121bc57610d1283612a3e565b826001600160a01b03166352d1902d6040518163ffffffff1660e01b8152600401602060405180830381865afa925050508015612216575060408051601f3d908101601f1916820190925261221391810190614606565b60015b6122795760405162461bcd60e51b815260206004820152602e60248201527f45524331393637557067726164653a206e657720696d706c656d656e7461746960448201526d6f6e206973206e6f74205555505360901b6064820152608401610980565b60008051602061470183398151915281146122e85760405162461bcd60e51b815260206004820152602960248201527f45524331393637557067726164653a20756e737570706f727465642070726f786044820152681a58589b195555525160ba1b6064820152608401610980565b50610d12838383612ada565b6000612342612301612aff565b8360405161190160f01b6020820152602281018390526042810182905260009060620160405160208183030381529060405280519060200120905092915050565b92915050565b600080600061235987878787612c26565b9150915061236681612d13565b5090505b949350505050565b60008054610100900460ff16156123b9578160ff1660011480156123955750303b155b6123b15760405162461bcd60e51b81526004016109809061461f565b506000919050565b60005460ff8084169116106123e05760405162461bcd60e51b81526004016109809061461f565b506000805460ff191660ff92909216919091179055600190565b919050565b600280546001600160a01b038381166001600160a01b0319831681179093556040519116919082907f8be0079c531659141344cd1fd0a4f28419497f9722a3daafe3b4186f6b6457e090600090a35050565b8160e001516001600160a01b03168160e001516001600160a01b0316146124a85760e08083015190820151604051631356231560e31b81526001600160a01b03928316600482015291166024820152604401610980565b8160a001516001600160a01b03168160a001516001600160a01b03161415806124d957508160c001518160c0015114155b15610de45760a08083015160c08085015192840151908401516040516323a7cf5360e11b81526001600160a01b0393841660048201526024810194909452911660448301526064820152608401610980565b6000600260015414156125805760405162461bcd60e51b815260206004820152601f60248201527f5265656e7472616e637947756172643a207265656e7472616e742063616c6c006044820152606401610980565b6002600155600354604051632820036560e11b8152600481018790526000916001600160a01b03169063504006ca906024016101c060405180830381865afa1580156125d0573d6000803e3d6000fd5b505050506040513d601f19601f820116820180604052508101906125f49190614227565b90506000816060015190506000600360009054906101000a90046001600160a01b03166001600160a01b031663ff7aab806040518163ffffffff1660e01b81526004016020604051808303816000875af1158015612656573d6000803e3d6000fd5b505050506040513d601f19601f8201168201806040525081019061267a91906142d7565b6001600160a01b0316636352211e896040518263ffffffff1660e01b81526004016126a791815260200190565b602060405180830381865afa1580156126c4573d6000803e3d6000fd5b505050506040513d601f19601f820116820180604052508101906126e891906142d7565b905060008260e0015190506000600360009054906101000a90046001600160a01b03166001600160a01b0316636999b3776040518163ffffffff1660e01b81526004016020604051808303816000875af115801561274a573d6000803e3d6000fd5b505050506040513d601f19601f8201168201806040525081019061276e91906142d7565b6001600160a01b0316632283487d6040518163ffffffff1660e01b8152600401602060405180830381865afa1580156127ab573d6000803e3d6000fd5b505050506040513d601f19601f820116820180604052508101906127cf9190614606565b905060006127e0868b8a8786612ece565b90506000846001600160a01b0316896001600160a01b031614612827576128166001600160a01b0385168a3060808f01356129de565b61282460808c01358261433d565b90505b81511561285b578151612848906001600160a01b038616908c9030906129de565b8151612854908261433d565b90506128b4565b600082602001511180156128805750846001600160a01b0316896001600160a01b0316145b156128b45760208201516128a2906001600160a01b038616908b9030906129de565b60208201516128b1908261433d565b90505b60035460405163095ea7b360e01b81526001600160a01b039182166004820152602481018390529085169063095ea7b3906044016020604051808303816000875af1158015612907573d6000803e3d6000fd5b505050506040513d601f19601f8201168201806040525081019061292b91906144e0565b50600360009054906101000a90046001600160a01b03166001600160a01b031663ba7624858d8c8c8f86886040015189606001518a608001516040518963ffffffff1660e01b815260040161298798979695949392919061466d565b6020604051808303816000875af11580156129a6573d6000803e3d6000fd5b505050506040513d601f19601f820116820180604052508101906129ca9190614606565b600180559c9b505050505050505050505050565b604080516001600160a01b0385811660248301528416604482015260648082018490528251808303909101815260849091019091526020810180516001600160e01b03166323b872dd60e01b179052612a38908590613091565b50505050565b6001600160a01b0381163b612aab5760405162461bcd60e51b815260206004820152602d60248201527f455243313936373a206e657720696d706c656d656e746174696f6e206973206e60448201526c1bdd08184818dbdb9d1c9858dd609a1b6064820152608401610980565b60008051602061470183398151915280546001600160a01b0319166001600160a01b0392909216919091179055565b612ae383613163565b600082511180612af05750805b15610d1257612a3883836131a3565b6000306001600160a01b037f000000000000000000000000000000000000000000000000000000000000000016148015612b5857507f000000000000000000000000000000000000000000000000000000000000000046145b15612b8257507f000000000000000000000000000000000000000000000000000000000000000090565b50604080517f00000000000000000000000000000000000000000000000000000000000000006020808301919091527f0000000000000000000000000000000000000000000000000000000000000000828401527f000000000000000000000000000000000000000000000000000000000000000060608301524660808301523060a0808401919091528351808403909101815260c0909201909252805191012090565b6000807f7fffffffffffffffffffffffffffffff5d576e7357a4501ddfe92f46681b20a0831115612c5d5750600090506003612d0a565b8460ff16601b14158015612c7557508460ff16601c14155b15612c865750600090506004612d0a565b6040805160008082526020820180845289905260ff881692820192909252606081018690526080810185905260019060a0016020604051602081039080840390855afa158015612cda573d6000803e3d6000fd5b5050604051601f1901519150506001600160a01b038116612d0357600060019250925050612d0a565b9150600090505b94509492505050565b6000816004811115612d2757612d27614090565b1415612d305750565b6001816004811115612d4457612d44614090565b1415612d925760405162461bcd60e51b815260206004820152601860248201527f45434453413a20696e76616c6964207369676e617475726500000000000000006044820152606401610980565b6002816004811115612da657612da6614090565b1415612df45760405162461bcd60e51b815260206004820152601f60248201527f45434453413a20696e76616c6964207369676e6174757265206c656e677468006044820152606401610980565b6003816004811115612e0857612e08614090565b1415612e615760405162461bcd60e51b815260206004820152602260248201527f45434453413a20696e76616c6964207369676e6174757265202773272076616c604482015261756560f01b6064820152608401610980565b6004816004811115612e7557612e75614090565b1415610a1d5760405162461bcd60e51b815260206004820152602260248201527f45434453413a20696e76616c6964207369676e6174757265202776272076616c604482015261756560f01b6064820152608401610980565b612f076040518060c001604052806000815260200160008152602001600081526020016000815260200160008152602001600081525090565b6060860151604081015160009062ffffff16612f3f57612f38826080015183606001516001600160a01b03166113b4565b9050612faf565b600080612f8a8a608001518b604001516001600160a01b0316866000015163ffffffff16876040015162ffffff168e6020015162ffffff1689606001516001600160a01b03166131c8565b509150915080828b60800151612fa0919061433d565b612faa919061433d565b925050505b612710612fc08560808a013561431e565b612fca919061430a565b60a08401819052600090612fe29060808a01356146c2565b905080821115612ffd57612ff681836146c2565b8452613026565b61300b8260808a01356146c2565b6020850181905260a0850151613020916146c2565b60808501525b856001600160a01b0316876001600160a01b031614613052576040840182905260006060850152613085565b6000604085015283511580159061306c5750876080013582115b156130855761307f6080890135836146c2565b60608501525b50505095945050505050565b60006130e6826040518060400160405280602081526020017f5361666545524332303a206c6f772d6c6576656c2063616c6c206661696c6564815250856001600160a01b03166132a89092919063ffffffff16565b805190915015610d12578080602001905181019061310491906144e0565b610d125760405162461bcd60e51b815260206004820152602a60248201527f5361666545524332303a204552433230206f7065726174696f6e20646964206e6044820152691bdd081cdd58d8d9595960b21b6064820152608401610980565b61316c81612a3e565b6040516001600160a01b038216907fbc7cd75a20ee27fd9adebab32041f755214dbc6bffa90cc0225b39da2e5c2d3b90600090a250565b60606109308383604051806060016040528060278152602001614721602791396132b7565b6000806000806131d9898989613394565b90508086106131f35760008060009350935093505061329c565b600061320087600161433d565b61320a90836146c2565b9050600088620f4240613225670de0b6b3a76400008a61430a565b61322f919061431e565b613239919061430a565b90508161327c576000612710620f4240838f613255919061431e565b61325f919061430a565b613269919061430a565b96506000955085945061329c9350505050565b60008061328a8e848661346f565b909850965092945061329c9350505050565b96509650969350505050565b606061236a848460008561353f565b60606001600160a01b0384163b61331f5760405162461bcd60e51b815260206004820152602660248201527f416464726573733a2064656c65676174652063616c6c20746f206e6f6e2d636f6044820152651b9d1c9858dd60d21b6064820152608401610980565b600080856001600160a01b03168560405161333a9190613f78565b600060405180830381855af49150503d8060008114613375576040519150601f19603f3d011682016040523d82523d6000602084013e61337a565b606091505b509150915061338a828286613670565b9695505050505050565b60004260018268056bc75e2d63100000670de0b6b3a76400005b600a81106133fe57876133c182826146d9565b146133ec578168056bc75e2d6310000014156133ec576133e981670de0b6b3a764000061430a565b91505b6133f7600a8261430a565b90506133ae565b50600061340b878961430a565b9050816134188a876146c2565b613422919061431e565b925060015b8383613433838561431e565b61343d919061431e565b116134615761344d81600161433d565b94508061345981613d93565b915050613427565b509298975050505050505050565b600080808581805b86811015613502576000612710620f42406134928b8761431e565b61349c919061430a565b6134a6919061430a565b90506134b2818661433d565b94506127106134c260328661431e565b6134cc919061430a565b6134d6908461433d565b92506134e2838261433d565b6134ec908561433d565b93505080806134fa90613d93565b915050613477565b50612710620f4240613514898561431e565b61351e919061430a565b613528919061430a565b613532908461433d565b9890975095505050505050565b6060824710156135a05760405162461bcd60e51b815260206004820152602660248201527f416464726573733a20696e73756666696369656e742062616c616e636520666f6044820152651c8818d85b1b60d21b6064820152608401610980565b6001600160a01b0385163b6135f75760405162461bcd60e51b815260206004820152601d60248201527f416464726573733a2063616c6c20746f206e6f6e2d636f6e74726163740000006044820152606401610980565b600080866001600160a01b031685876040516136139190613f78565b60006040518083038185875af1925050503d8060008114613650576040519150601f19603f3d011682016040523d82523d6000602084013e613655565b606091505b5091509150613665828286613670565b979650505050505050565b6060831561367f575081610930565b82511561368f5782518084602001fd5b8160405162461bcd60e51b815260040161098091906146ed565b60008083601f8401126136bb57600080fd5b50813567ffffffffffffffff8111156136d357600080fd5b6020830191508360208260051b85010111156136ee57600080fd5b9250929050565b6000806000806040858703121561370b57600080fd5b843567ffffffffffffffff8082111561372357600080fd5b61372f888389016136a9565b9096509450602087013591508082111561374857600080fd5b50613755878288016136a9565b95989497509550505050565b6000610100828403121561377457600080fd5b50919050565b6001600160a01b0381168114610a1d57600080fd5b80356123fa8161377a565b60006060828403121561377457600080fd5b60008060008060006101c086880312156137c557600080fd5b6137cf8787613761565b94506101008601356137e08161377a565b93506101208601356137f18161377a565b925061380187610140880161379a565b91506101a08601356138128161377a565b809150509295509295909350565b6000806000806000806000610240888a03121561383c57600080fd5b6138468989613761565b96506101008801356138578161377a565b95506101208801356138688161377a565b9450613878896101408a0161379a565b93506101a08801356138898161377a565b9250613899896101c08a0161379a565b9150610220880135905092959891949750929550565b600080600060a084860312156138c457600080fd5b83356138cf8161377a565b92506138de856020860161379a565b9150608084013590509250925092565b60006020828403121561390057600080fd5b81356109308161377a565b8035600281106123fa57600080fd5b6000806000806101a0858703121561393157600080fd5b61393b8686613761565b935061394b86610100870161379a565b925061016085013561395c8161377a565b915061396b610180860161390b565b905092959194509250565b8015158114610a1d57600080fd5b6000806040838503121561399757600080fd5b82356139a28161377a565b915060208301356139b281613976565b809150509250929050565b600080604083850312156139d057600080fd5b82356139db8161377a565b915060208301356139b28161377a565b634e487b7160e01b600052604160045260246000fd5b60405160e0810167ffffffffffffffff81118282101715613a2457613a246139eb565b60405290565b604051601f8201601f1916810167ffffffffffffffff81118282101715613a5357613a536139eb565b604052919050565b60008060408385031215613a6e57600080fd5b8235613a798161377a565b915060208381013567ffffffffffffffff80821115613a9757600080fd5b818601915086601f830112613aab57600080fd5b813581811115613abd57613abd6139eb565b613acf601f8201601f19168501613a2a565b91508082528784828501011115613ae557600080fd5b80848401858401376000848284010152508093505050509250929050565b60008060008060008060008060006102608a8c031215613b2257600080fd5b613b2c8b8b613761565b98506101008a0135613b3d8161377a565b97506101208a0135613b4e8161377a565b9650613b5e8b6101408c0161379a565b95506101a08a0135613b6f8161377a565b9450613b7f8b6101c08c0161379a565b93506102208a013592506102408a013567ffffffffffffffff811115613ba457600080fd5b613bb08c828d016136a9565b915080935050809150509295985092959850929598565b60008060008060006101c08688031215613be057600080fd5b853594506137e08760208801613761565b60008060008060006101c08688031215613c0a57600080fd5b613c148787613761565b9450613c2487610100880161379a565b9350610160860135613c358161377a565b9250613c44610180870161390b565b949793965091946101a0013592915050565b60008060408385031215613c6957600080fd5b50508035926020909101359150565b60008060008060008060006101e0888a031215613c9457600080fd5b613c9e8989613761565b9650610100880135613caf8161377a565b9550610120880135613cc08161377a565b9450613cd0896101408a0161379a565b93506101a0880135613ce18161377a565b92506101c088013567ffffffffffffffff811115613cfe57600080fd5b613d0a8a828b016136a9565b989b979a50959850939692959293505050565b60008060008060008060006101e0888a031215613d3957600080fd5b87359650613caf8960208a01613761565b634e487b7160e01b600052603260045260246000fd5b600060208284031215613d7257600080fd5b813561093081613976565b634e487b7160e01b600052601160045260246000fd5b6000600019821415613da757613da7613d7d565b5060010190565b63ffffffff81168114610a1d57600080fd5b80356123fa81613dae565b62ffffff81168114610a1d57600080fd5b80356123fa81613dcb565b6000610100808385031215613dfb57600080fd5b6040519081019067ffffffffffffffff82118183101715613e1e57613e1e6139eb565b8160405283359150613e2f82613dae565b818152613e3e60208501613dc0565b6020820152613e4f60408501613ddc565b6040820152613e606060850161378f565b606082015260808401356080820152613e7b60a0850161378f565b60a082015260c084013560c0820152613e9660e0850161378f565b60e0820152949350505050565b600060208284031215613eb557600080fd5b813560ff8116811461093057600080fd5b6001600160a01b0397881681529590961660208601526040850193909352606084019190915260ff16608083015260a082015260c081019190915260e00190565b60005b83811015613f22578181015183820152602001613f0a565b83811115612a385750506000910152565b60008151808452613f4b816020860160208601613f07565b601f01601f19169290920160200192915050565b82815260406020820152600061236a6040830184613f33565b60008251613f8a818460208701613f07565b9190910192915050565b600060208284031215613fa657600080fd5b81516001600160e01b03198116811461093057600080fd5b6020808252602c908201527f46756e6374696f6e206d7573742062652063616c6c6564207468726f7567682060408201526b19195b1959d85d1958d85b1b60a21b606082015260800190565b6020808252602c908201527f46756e6374696f6e206d7573742062652063616c6c6564207468726f7567682060408201526b6163746976652070726f787960a01b606082015260800190565b60006020828403121561406857600080fd5b813561093081613dae565b60006020828403121561408557600080fd5b813561093081613dcb565b634e487b7160e01b600052602160045260246000fd5b9a8b5263ffffffff998a1660208c01529790981660408a015262ffffff9590951660608901526001600160a01b03938416608089015260a0880192909252821660c087015260e086015290811661010085015290911661012083015260ff166101408201526101600190565b6020808252818101527f4f776e61626c653a2063616c6c6572206973206e6f7420746865206f776e6572604082015260600190565b80516123fa81613dcb565b80516123fa8161377a565b80516123fa81613dae565b600061010080838503121561417c57600080fd5b6040519081019067ffffffffffffffff8211818310171561419f5761419f6139eb565b81604052809250835191506141b382613dae565b8181526141c26020850161415d565b60208201526141d360408501614147565b60408201526141e460608501614152565b6060820152608084015160808201526141ff60a08501614152565b60a082015260c084015160c082015261421a60e08501614152565b60e0820152505092915050565b60006101c0828403121561423a57600080fd5b614242613a01565b82516004811061425157600080fd5b815261425f60208401614147565b602082015261427060408401614152565b60408201526142828460608501614168565b6060820152610160830151608082015261018083015160a08201526101a09092015160c083015250919050565b60208101600483106142d157634e487b7160e01b600052602160045260246000fd5b91905290565b6000602082840312156142e957600080fd5b81516109308161377a565b634e487b7160e01b600052601260045260246000fd5b600082614319576143196142f4565b500490565b600081600019048311821515161561433857614338613d7d565b500290565b6000821982111561435057614350613d7d565b500190565b81835281816020850137506000828201602090810191909152601f909101601f19169091010190565b60208082528181018390526000906040808401600586901b8501820187855b8881101561444957878303603f190184528135368b9003603e190181126143c357600080fd5b8a01803536829003601e190181126143da57600080fd5b8101803567ffffffffffffffff8111156143f357600080fd5b80360383131561440257600080fd5b878652614414888701828b8501614355565b9150508782013591506144268261377a565b6001600160a01b039190911693870193909352928501929085019060010161439d565b509098975050505050505050565b60008235603e19833603018112613f8a57600080fd5b6000808335601e1984360301811261448457600080fd5b83018035915067ffffffffffffffff82111561449f57600080fd5b6020019150368190038213156136ee57600080fd5b6040815260006144c8604083018587614355565b905060018060a01b0383166020830152949350505050565b6000602082840312156144f257600080fd5b815161093081613976565b600060018060a01b03808716835260606020840152614520606084018688614355565b915080841660408401525095945050505050565b803561453f81613dae565b63ffffffff908116835260208201359061455882613dae565b166020830152604081013561456c81613dcb565b62ffffff16604083015260608101356145848161377a565b6001600160a01b03166060830152608081810135908301526145a860a0820161378f565b6001600160a01b031660a083015260c081810135908301526145cc60e0820161378f565b6001600160a01b03811660e0840152505050565b6001600160a01b03848116825283166020820152610140810161236a6040830184614534565b60006020828403121561461857600080fd5b5051919050565b6020808252602e908201527f496e697469616c697a61626c653a20636f6e747261637420697320616c72656160408201526d191e481a5b9a5d1a585b1a5e995960921b606082015260800190565b8881526001600160a01b038881166020830152871660408201526101e081016146996060830188614534565b8561016083015284610180830152836101a0830152826101c08301529998505050505050505050565b6000828210156146d4576146d4613d7d565b500390565b6000826146e8576146e86142f4565b500690565b6020815260006109306020830184613f3356fe360894a13ba1a3210667c828492db98dca3e2076cc3735a920a3ca505d382bbc416464726573733a206c6f772d6c6576656c2064656c65676174652063616c6c206661696c6564a164736f6c634300080b000a496e697469616c697a61626c653a20636f6e747261637420697320616c726561",
  "devdoc": {
    "author": "Non-Fungible Technologies, Inc. The Origination Controller is the entry point for all new loans in the Arcade.xyz lending protocol. This contract should have the exclusive responsibility to create new loans in LoanCore. All permissioning, signature verification, and collateral verification takes place in this contract. To originate a loan, the controller also takes custody of both the collateral and loan principal.",
    "errors": {
      "FIAC_InterestRate(uint256)": [
        {
          "params": {
            "interestRate": "InterestRate with 1e18 multiplier."
          }
        }
      ],
      "OC_ApprovedOwnLoan(address)": [
        {
          "params": {
            "caller": "The caller of the approve function, who was also the signer."
          }
        }
      ],
      "OC_CallerNotParticipant(address)": [
        {
          "params": {
            "caller": "The unapproved function caller."
          }
        }
      ],
      "OC_InterestRate(uint256)": [
        {
          "params": {
            "interestRate": "InterestRate with 1e18 multiplier."
          }
        }
      ],
      "OC_InvalidSignature(address,address)": [
        {
          "params": {
            "signer": "The signer determined from ECDSA.recover.",
            "target": "The target party of the signature, which should either be the signer,                                      or someone who has approved the signer."
          }
        }
      ],
      "OC_InvalidState(uint8)": [
        {
          "params": {
            "state": "Current state of a loan according to LoanState enum."
          }
        }
      ],
      "OC_InvalidVerifier(address)": [
        {
          "params": {
            "verifier": "The verifier the caller attempted to use."
          }
        }
      ],
      "OC_LoanDuration(uint256)": [
        {
          "params": {
            "durationSecs": "Total amount of time in seconds."
          }
        }
      ],
      "OC_NumberInstallments(uint256)": [
        {
          "params": {
            "numInstallments": "Number of installment periods in loan."
          }
        }
      ],
      "OC_PredicateFailed(address,bytes,address)": [
        {
          "params": {
            "data": "The verification data (to be parsed by verifier).",
            "vault": "The user's vault subject to verification.",
            "verifier": "The address of the verifier contract."
          }
        }
      ],
      "OC_PrincipalTooLow(uint256)": [
        {
          "params": {
            "principal": "Principal in ether."
          }
        }
      ],
      "OC_RolloverCollateralMismatch(address,uint256,address,uint256)": [
        {
          "params": {
            "newCollateralAddress": "The token ID of the active loan's collateral.",
            "newCollateralId": "The token ID of the new loan's collateral.",
            "oldCollateralAddress": "The address of the active loan's collateral.",
            "oldCollateralId": "The address of the new loan's collateral."
          }
        }
      ],
      "OC_RolloverCurrencyMismatch(address,address)": [
        {
          "params": {
            "newCurrency": "The currency of the new loan.",
            "oldCurrency": "The currency of the active loan."
          }
        }
      ],
      "OC_SelfApprove(address)": [
        {
          "params": {
            "caller": "The caller of the approve function."
          }
        }
      ],
      "OC_SignatureIsExpired(uint256)": [
        {
          "params": {
            "deadline": "Deadline in seconds."
          }
        }
      ]
    },
    "kind": "dev",
    "methods": {
      "approve(address,bool)": {
        "params": {
          "approved": "Whether the party should be approved.",
          "signer": "The party to set approval for."
        }
      },
      "constructor": {
        "custom:oz-upgrades-unsafe-allow": "constructor"
      },
      "getFullInterestAmount(uint256,uint256)": {
        "details": "Interest and principal must be entered with 18 units of      precision from the basis point unit (e.g. 1e18 == 0.01%)",
        "params": {
          "interestRate": "Interest rate in the loan terms.",
          "principal": "Principal amount in the loan terms."
        },
        "returns": {
          "_0": "interest                  The amount of interest due."
        }
      },
      "initialize(address,address)": {
        "details": "For this controller to work, it needs to be granted the ORIGINATOR_ROLE      in loan core after deployment.",
        "params": {
          "_loanCore": "The address of the loan core logic of the protocol."
        }
      },
      "initializeLoan((uint32,uint32,uint24,uint160,uint256,address,uint256,address),address,address,(uint8,bytes32,bytes32),uint160)": {
        "details": "The caller must be a borrower or lender, or approved by a borrower or lender.The external signer must be a borrower or lender, or approved by a borrower or lender.The external signer must come from the opposite side of the loan as the caller.",
        "params": {
          "borrower": "Address of the borrower.",
          "lender": "Address of the lender.",
          "loanTerms": "The terms agreed by the lender and borrower.",
          "nonce": "The signature nonce.",
          "sig": "The loan terms signature, with v, r, s fields, and a nonce."
        },
        "returns": {
          "loanId": "                      The unique ID of the new loan."
        }
      },
      "initializeLoanWithCollateralPermit((uint32,uint32,uint24,uint160,uint256,address,uint256,address),address,address,(uint8,bytes32,bytes32),uint160,(uint8,bytes32,bytes32),uint256)": {
        "details": "The caller must be a borrower or lender, or approved by a borrower or lender.The external signer must be a borrower or lender, or approved by a borrower or lender.The external signer must come from the opposite side of the loan as the caller.",
        "params": {
          "borrower": "Address of the borrower.",
          "collateralSig": "The collateral permit signature, with v, r, s fields.",
          "lender": "Address of the lender.",
          "loanTerms": "The terms agreed by the lender and borrower.",
          "nonce": "The signature nonce for the loan terms signature.",
          "permitDeadline": "The last timestamp for which the signature is valid.",
          "sig": "The loan terms signature, with v, r, s fields."
        },
        "returns": {
          "loanId": "                      The unique ID of the new loan."
        }
      },
      "initializeLoanWithCollateralPermitAndItems((uint32,uint32,uint24,uint160,uint256,address,uint256,address),address,address,(uint8,bytes32,bytes32),uint160,(uint8,bytes32,bytes32),uint256,(bytes,address)[])": {
        "details": "The caller must be a borrower or lender, or approved by a borrower or lender.The external signer must be a borrower or lender, or approved by a borrower or lender.The external signer must come from the opposite side of the loan as the caller.",
        "params": {
          "borrower": "Address of the borrower.",
          "collateralSig": "The collateral permit signature, with v, r, s fields.",
          "itemPredicates": "The predicate rules for the items in the bundle.",
          "lender": "Address of the lender.",
          "loanTerms": "The terms agreed by the lender and borrower.",
          "nonce": "The signature nonce for the loan terms signature.",
          "permitDeadline": "The last timestamp for which the signature is valid.",
          "sig": "The loan terms signature, with v, r, s fields."
        },
        "returns": {
          "loanId": "                      The unique ID of the new loan."
        }
      },
      "initializeLoanWithItems((uint32,uint32,uint24,uint160,uint256,address,uint256,address),address,address,(uint8,bytes32,bytes32),uint160,(bytes,address)[])": {
        "details": "The caller must be a borrower or lender, or approved by a borrower or lender.The external signer must be a borrower or lender, or approved by a borrower or lender.The external signer must come from the opposite side of the loan as the caller.",
        "params": {
          "borrower": "Address of the borrower.",
          "itemPredicates": "The predicate rules for the items in the bundle.",
          "lender": "Address of the lender.",
          "loanTerms": "The terms agreed by the lender and borrower.",
          "nonce": "The signature nonce.",
          "sig": "The loan terms signature, with v, r, s fields, and a nonce."
        },
        "returns": {
          "loanId": "                      The unique ID of the new loan."
        }
      },
      "isAllowedVerifier(address)": {
        "params": {
          "verifier": "The verifier contract to query."
        },
        "returns": {
          "_0": "isVerified          Whether the contract is verified."
        }
      },
      "isApproved(address,address)": {
        "params": {
          "owner": "The grantor of permission.",
          "signer": "The grantee of permission."
        },
        "returns": {
          "_0": "isApproved                   Whether the grantee has been approved by the grantor."
        }
      },
      "isApprovedForContract(address,(uint8,bytes32,bytes32),bytes32)": {
        "params": {
          "sig": "A struct containing the signature data (for checking EIP-1271).",
          "sighash": "The hash of the signature payload (used for EIP-1271 check).",
          "target": "The grantor of permission - should be a smart contract."
        },
        "returns": {
          "_0": "isApprovedForContract        Whether the signer is either the grantor themselves, or approved."
        }
      },
      "isSelfOrApproved(address,address)": {
        "params": {
          "signer": "The grantee of permission.",
          "target": "The grantor of permission."
        },
        "returns": {
          "_0": "isSelfOrApproved             Whether the signer is either the grantor themselves, or approved."
        }
      },
      "owner()": {
        "details": "Returns the address of the current owner."
      },
      "proxiableUUID()": {
        "details": "Implementation of the ERC1822 {proxiableUUID} function. This returns the storage slot used by the implementation. It is used to validate that the this implementation remains valid after an upgrade. IMPORTANT: A proxy pointing at a proxiable contract should not be considered proxiable itself, because this risks bricking a proxy that upgrades to it, by delegating to itself until out of gas. Thus it is critical that this function revert if invoked through a proxy. This is guaranteed by the `notDelegated` modifier."
      },
      "recoverItemsSignature((uint32,uint32,uint24,uint160,uint256,address,uint256,address),(uint8,bytes32,bytes32),uint160,uint8,bytes32)": {
        "details": "Bundle ID should _not_ be included in this signature, because the loan         can be initiated with any arbitrary bundle - as long as the bundle contains the items.",
        "params": {
          "itemsHash": "The required items in the specified bundle.",
          "loanTerms": "The terms of the loan.",
          "nonce": "The signature nonce.",
          "side": "The side of the loan being signed.",
          "sig": "The loan terms signature, with v, r, s fields."
        },
        "returns": {
          "sighash": "                     The hash that was signed.",
          "signer": "                      The address of the recovered signer."
        }
      },
      "recoverTokenSignature((uint32,uint32,uint24,uint160,uint256,address,uint256,address),(uint8,bytes32,bytes32),uint160,uint8)": {
        "params": {
          "loanTerms": "The terms of the loan.",
          "nonce": "The signature nonce.",
          "side": "The side of the loan being signed.",
          "sig": "The signature, with v, r, s fields."
        },
        "returns": {
          "sighash": "                     The hash that was signed.",
          "signer": "                      The address of the recovered signer."
        }
      },
      "renounceOwnership()": {
        "details": "Leaves the contract without owner. It will not be possible to call `onlyOwner` functions anymore. Can only be called by the current owner. NOTE: Renouncing ownership will leave the contract without an owner, thereby removing any functionality that is only available to the owner."
      },
      "rolloverLoan(uint256,(uint32,uint32,uint24,uint160,uint256,address,uint256,address),address,(uint8,bytes32,bytes32),uint160)": {
        "params": {
          "lender": "Address of the lender.",
          "loanTerms": "The terms agreed by the lender and borrower.",
          "nonce": "The signature nonce for the loan terms signature.",
          "oldLoanId": "The ID of the old loan.",
          "sig": "The loan terms signature, with v, r, s fields."
        },
        "returns": {
          "newLoanId": "                   The unique ID of the new loan."
        }
      },
      "rolloverLoanWithItems(uint256,(uint32,uint32,uint24,uint160,uint256,address,uint256,address),address,(uint8,bytes32,bytes32),uint160,(bytes,address)[])": {
        "params": {
          "itemPredicates": "The predicate rules for the items in the bundle.",
          "lender": "Address of the lender.",
          "loanTerms": "The terms agreed by the lender and borrower.",
          "nonce": "The signature nonce for the loan terms signature.",
          "oldLoanId": "The ID of the old loan.",
          "sig": "The loan terms signature, with v, r, s fields."
        },
        "returns": {
          "newLoanId": "                   The unique ID of the new loan."
        }
      },
      "setAllowedVerifier(address,bool)": {
        "params": {
          "isAllowed": "Whether the specified contract should be allowed.",
          "verifier": "The specified verifier contract, should implement IArcadeSignatureVerifier."
        }
      },
      "setAllowedVerifierBatch(address[],bool[])": {
        "params": {
          "isAllowed": "Whether the specified contracts should be allowed, respectively.",
          "verifiers": "The list of specified verifier contracts, should implement IArcadeSignatureVerifier."
        }
      },
      "transferOwnership(address)": {
        "details": "Transfers ownership of the contract to a new account (`newOwner`). Can only be called by the current owner."
      },
      "upgradeTo(address)": {
        "details": "Upgrade the implementation of the proxy to `newImplementation`. Calls {_authorizeUpgrade}. Emits an {Upgraded} event."
      },
      "upgradeToAndCall(address,bytes)": {
        "details": "Upgrade the implementation of the proxy to `newImplementation`, and subsequently execute the function call encoded in `data`. Calls {_authorizeUpgrade}. Emits an {Upgraded} event."
      }
    },
    "title": "OriginationController",
    "version": 1
  },
  "userdoc": {
    "errors": {
      "FIAC_InterestRate(uint256)": [
        {
          "notice": "Interest must be greater than 0.01%. (interestRate / 1e18 >= 1)"
        }
      ],
      "OC_ApprovedOwnLoan(address)": [
        {
          "notice": "A caller attempted to originate a loan with their own signature."
        }
      ],
      "OC_BatchLengthMismatch()": [
        {
          "notice": "Two related parameters for batch operations did not match in length."
        }
      ],
      "OC_CallerNotParticipant(address)": [
        {
          "notice": "The function caller was neither borrower or lender, and was not approved by either."
        }
      ],
      "OC_InterestRate(uint256)": [
        {
          "notice": "Interest must be greater than 0.01%. (interestRate / 1e18 >= 1)"
        }
      ],
      "OC_InvalidSignature(address,address)": [
        {
          "notice": "The signature could not be recovered to the counterparty or approved party."
        }
      ],
      "OC_InvalidState(uint8)": [
        {
          "notice": "Ensure valid loan state for loan lifceycle operations."
        }
      ],
      "OC_InvalidVerifier(address)": [
        {
          "notice": "The verifier contract specified in a predicate has not been whitelisted."
        }
      ],
      "OC_LoanDuration(uint256)": [
        {
          "notice": "Loan duration must be greater than 1hr and less than 3yrs."
        }
      ],
      "OC_NumberInstallments(uint256)": [
        {
          "notice": "Loan terms must have even number of installments and intallment periods must be < 1000000."
        }
      ],
      "OC_PredicateFailed(address,bytes,address)": [
        {
          "notice": "One of the predicates for item verification failed."
        }
      ],
      "OC_PrincipalTooLow(uint256)": [
        {
          "notice": "Principal must be greater than 9999 Wei."
        }
      ],
      "OC_RolloverCollateralMismatch(address,uint256,address,uint256)": [
        {
          "notice": "New currency does not match for a loan rollover request."
        }
      ],
      "OC_RolloverCurrencyMismatch(address,address)": [
        {
          "notice": "New currency does not match for a loan rollover request."
        }
      ],
      "OC_SelfApprove(address)": [
        {
          "notice": "A caller attempted to approve themselves."
        }
      ],
      "OC_SignatureIsExpired(uint256)": [
        {
          "notice": "Signature must not be expired."
        }
      ],
      "OC_ZeroAddress()": [
        {
          "notice": "Zero address passed in where not allowed."
        }
      ]
    },
    "kind": "user",
    "methods": {
      "allowedVerifiers(address)": {
        "notice": "Mapping from address to whether that verifier contract has been whitelisted"
      },
      "approve(address,bool)": {
        "notice": "Approve a third party to sign or initialize loans on a counterparties' behalf.Useful to multisig counterparties (who cannot sign themselves) or third-party integrations."
      },
      "getFullInterestAmount(uint256,uint256)": {
        "notice": "Calculate the interest due over a full term."
      },
      "initialize(address,address)": {
        "notice": "Creates a new origination controller contract, also initializing the parent signature verifier."
      },
      "initializeLoan((uint32,uint32,uint24,uint160,uint256,address,uint256,address),address,address,(uint8,bytes32,bytes32),uint160)": {
        "notice": "Initializes a loan with Loan Core.Works with either wrapped bundles with an ID, or specific ERC721 unwrapped NFTs.         In that case, collateralAddress should be the token contract."
      },
      "initializeLoanWithCollateralPermit((uint32,uint32,uint24,uint160,uint256,address,uint256,address),address,address,(uint8,bytes32,bytes32),uint160,(uint8,bytes32,bytes32),uint256)": {
        "notice": "Initializes a loan with Loan Core, with a permit signature instead of pre-approved collateral."
      },
      "initializeLoanWithCollateralPermitAndItems((uint32,uint32,uint24,uint160,uint256,address,uint256,address),address,address,(uint8,bytes32,bytes32),uint160,(uint8,bytes32,bytes32),uint256,(bytes,address)[])": {
        "notice": "Initializes a loan with Loan Core, with a permit signature instead of pre-approved collateral.Compared to initializeLoanWithCollateralPermit, this verifies the specific items in a bundle."
      },
      "initializeLoanWithItems((uint32,uint32,uint24,uint160,uint256,address,uint256,address),address,address,(uint8,bytes32,bytes32),uint160,(bytes,address)[])": {
        "notice": "Initializes a loan with Loan Core.Compared to initializeLoan, this verifies the specific items in a bundle.Only works with bundles implementing the IVaultFactory interface."
      },
      "isAllowedVerifier(address)": {
        "notice": "Return whether the address can be used as a verifier."
      },
      "isApproved(address,address)": {
        "notice": "Reports whether a party is approved to act on a counterparties' behalf."
      },
      "isApprovedForContract(address,(uint8,bytes32,bytes32),bytes32)": {
        "notice": "Reports whether the signer matches the target or is approved by the target."
      },
      "isSelfOrApproved(address,address)": {
        "notice": "Reports whether the signer matches the target or is approved by the target."
      },
      "recoverItemsSignature((uint32,uint32,uint24,uint160,uint256,address,uint256,address),(uint8,bytes32,bytes32),uint160,uint8,bytes32)": {
        "notice": "Determine the external signer for a signature specifying specific items."
      },
      "recoverTokenSignature((uint32,uint32,uint24,uint160,uint256,address,uint256,address),(uint8,bytes32,bytes32),uint160,uint8)": {
        "notice": "Determine the external signer for a signature specifying only a collateral address and ID."
      },
      "rolloverLoan(uint256,(uint32,uint32,uint24,uint160,uint256,address,uint256,address),address,(uint8,bytes32,bytes32),uint160)": {
        "notice": "Rolls over an existing loan via Loan Core, using a signature         for a new loan to create. The lender can be the same lender as         the loan to be rolled over, or a new lender. The net funding between         the old and new loan is calculated, with funds withdrawn from relevant         parties."
      },
      "rolloverLoanWithItems(uint256,(uint32,uint32,uint24,uint160,uint256,address,uint256,address),address,(uint8,bytes32,bytes32),uint160,(bytes,address)[])": {
        "notice": "Rolls over an existing loan via Loan Core, using a signature         for a new loan to create (of items type). The lender can be the same lender as         the loan to be rolled over, or a new lender. The net funding between         the old and new loan is calculated, with funds withdrawn from relevant         parties."
      },
      "setAllowedVerifier(address,bool)": {
        "notice": "Manage whitelist for contracts that are allowed to act as a predicate verifier.         Prevents counterparties from abusing misleading/obscure verification logic.         The contract owner should take extra care in whitelisting third-party verification contracts:         for instance, an upgradeable third-party verifier controlled by a borrower could be maliciously         upgraded to approve an empty bundle."
      },
      "setAllowedVerifierBatch(address[],bool[])": {
        "notice": "Batch update for verification whitelist, in case of multiple verifiers         active in production."
      }
    },
    "version": 1
  },
  "storageLayout": {
    "storage": [
      {
        "astId": 1191,
        "contract": "contracts/OriginationController.sol:OriginationController",
        "label": "_initialized",
        "offset": 0,
        "slot": "0",
        "type": "t_uint8"
      },
      {
        "astId": 1194,
        "contract": "contracts/OriginationController.sol:OriginationController",
        "label": "_initializing",
        "offset": 1,
        "slot": "0",
        "type": "t_bool"
      },
      {
        "astId": 1545,
        "contract": "contracts/OriginationController.sol:OriginationController",
        "label": "_status",
        "offset": 0,
        "slot": "1",
        "type": "t_uint256"
      },
      {
        "astId": 550,
        "contract": "contracts/OriginationController.sol:OriginationController",
        "label": "_owner",
        "offset": 0,
        "slot": "2",
        "type": "t_address"
      },
      {
        "astId": 10798,
        "contract": "contracts/OriginationController.sol:OriginationController",
        "label": "loanCore",
        "offset": 0,
        "slot": "3",
        "type": "t_address"
      },
      {
        "astId": 10805,
        "contract": "contracts/OriginationController.sol:OriginationController",
        "label": "_signerApprovals",
        "offset": 0,
        "slot": "4",
        "type": "t_mapping(t_address,t_mapping(t_address,t_bool))"
      },
      {
        "astId": 10810,
        "contract": "contracts/OriginationController.sol:OriginationController",
        "label": "allowedVerifiers",
        "offset": 0,
        "slot": "5",
        "type": "t_mapping(t_address,t_bool)"
      }
    ],
    "types": {
      "t_address": {
        "encoding": "inplace",
        "label": "address",
        "numberOfBytes": "20"
      },
      "t_bool": {
        "encoding": "inplace",
        "label": "bool",
        "numberOfBytes": "1"
      },
      "t_mapping(t_address,t_bool)": {
        "encoding": "mapping",
        "key": "t_address",
        "label": "mapping(address => bool)",
        "numberOfBytes": "32",
        "value": "t_bool"
      },
      "t_mapping(t_address,t_mapping(t_address,t_bool))": {
        "encoding": "mapping",
        "key": "t_address",
        "label": "mapping(address => mapping(address => bool))",
        "numberOfBytes": "32",
        "value": "t_mapping(t_address,t_bool)"
      },
      "t_uint256": {
        "encoding": "inplace",
        "label": "uint256",
        "numberOfBytes": "32"
      },
      "t_uint8": {
        "encoding": "inplace",
        "label": "uint8",
        "numberOfBytes": "1"
      }
    }
  }
}