{
  "address": "0x93E7AF3dC979D9ebC31BC0A8991f0e80BD5E1596",
  "abi": [
    {
      "inputs": [
        {
          "internalType": "contract ILoanCore",
          "name": "_loanCore",
          "type": "address"
        },
        {
          "internalType": "contract IPromissoryNote",
          "name": "_borrowerNote",
          "type": "address"
        },
        {
          "internalType": "contract IPromissoryNote",
          "name": "_lenderNote",
          "type": "address"
        }
      ],
      "stateMutability": "nonpayable",
      "type": "constructor"
    },
    {
      "inputs": [
        {
          "internalType": "uint256",
          "name": "interestRate",
          "type": "uint256"
        }
      ],
      "name": "FIAC_InterestRate",
      "type": "error"
    },
    {
      "inputs": [
        {
          "internalType": "uint256",
          "name": "target",
          "type": "uint256"
        }
      ],
      "name": "RC_CannotDereference",
      "type": "error"
    },
    {
      "inputs": [
        {
          "internalType": "uint256",
          "name": "numInstallments",
          "type": "uint256"
        }
      ],
      "name": "RC_HasInstallments",
      "type": "error"
    },
    {
      "inputs": [
        {
          "internalType": "uint256",
          "name": "numInstallments",
          "type": "uint256"
        }
      ],
      "name": "RC_NoInstallments",
      "type": "error"
    },
    {
      "inputs": [],
      "name": "RC_NoPaymentDue",
      "type": "error"
    },
    {
      "inputs": [
        {
          "internalType": "address",
          "name": "caller",
          "type": "address"
        }
      ],
      "name": "RC_OnlyLender",
      "type": "error"
    },
    {
      "inputs": [
        {
          "internalType": "uint256",
          "name": "amount",
          "type": "uint256"
        },
        {
          "internalType": "uint256",
          "name": "minAmount",
          "type": "uint256"
        }
      ],
      "name": "RC_RepayPartLTMin",
      "type": "error"
    },
    {
      "inputs": [],
      "name": "RC_RepayPartZero",
      "type": "error"
    },
    {
      "anonymous": false,
      "inputs": [
        {
          "indexed": true,
          "internalType": "bytes32",
          "name": "role",
          "type": "bytes32"
        },
        {
          "indexed": true,
          "internalType": "bytes32",
          "name": "previousAdminRole",
          "type": "bytes32"
        },
        {
          "indexed": true,
          "internalType": "bytes32",
          "name": "newAdminRole",
          "type": "bytes32"
        }
      ],
      "name": "RoleAdminChanged",
      "type": "event"
    },
    {
      "anonymous": false,
      "inputs": [
        {
          "indexed": true,
          "internalType": "bytes32",
          "name": "role",
          "type": "bytes32"
        },
        {
          "indexed": true,
          "internalType": "address",
          "name": "account",
          "type": "address"
        },
        {
          "indexed": true,
          "internalType": "address",
          "name": "sender",
          "type": "address"
        }
      ],
      "name": "RoleGranted",
      "type": "event"
    },
    {
      "anonymous": false,
      "inputs": [
        {
          "indexed": true,
          "internalType": "bytes32",
          "name": "role",
          "type": "bytes32"
        },
        {
          "indexed": true,
          "internalType": "address",
          "name": "account",
          "type": "address"
        },
        {
          "indexed": true,
          "internalType": "address",
          "name": "sender",
          "type": "address"
        }
      ],
      "name": "RoleRevoked",
      "type": "event"
    },
    {
      "inputs": [],
      "name": "BASIS_POINTS_DENOMINATOR",
      "outputs": [
        {
          "internalType": "uint256",
          "name": "",
          "type": "uint256"
        }
      ],
      "stateMutability": "view",
      "type": "function"
    },
    {
      "inputs": [],
      "name": "DEFAULT_ADMIN_ROLE",
      "outputs": [
        {
          "internalType": "bytes32",
          "name": "",
          "type": "bytes32"
        }
      ],
      "stateMutability": "view",
      "type": "function"
    },
    {
      "inputs": [],
      "name": "GRACE_PERIOD",
      "outputs": [
        {
          "internalType": "uint256",
          "name": "",
          "type": "uint256"
        }
      ],
      "stateMutability": "view",
      "type": "function"
    },
    {
      "inputs": [],
      "name": "INSTALLMENT_PERIOD_MULTIPLIER",
      "outputs": [
        {
          "internalType": "uint256",
          "name": "",
          "type": "uint256"
        }
      ],
      "stateMutability": "view",
      "type": "function"
    },
    {
      "inputs": [],
      "name": "INTEREST_RATE_DENOMINATOR",
      "outputs": [
        {
          "internalType": "uint256",
          "name": "",
          "type": "uint256"
        }
      ],
      "stateMutability": "view",
      "type": "function"
    },
    {
      "inputs": [],
      "name": "LATE_FEE",
      "outputs": [
        {
          "internalType": "uint256",
          "name": "",
          "type": "uint256"
        }
      ],
      "stateMutability": "view",
      "type": "function"
    },
    {
      "inputs": [
        {
          "internalType": "uint256",
          "name": "loanId",
          "type": "uint256"
        }
      ],
      "name": "amountToCloseLoan",
      "outputs": [
        {
          "internalType": "uint256",
          "name": "",
          "type": "uint256"
        },
        {
          "internalType": "uint256",
          "name": "",
          "type": "uint256"
        }
      ],
      "stateMutability": "view",
      "type": "function"
    },
    {
      "inputs": [
        {
          "internalType": "uint256",
          "name": "loanId",
          "type": "uint256"
        }
      ],
      "name": "claim",
      "outputs": [],
      "stateMutability": "nonpayable",
      "type": "function"
    },
    {
      "inputs": [
        {
          "internalType": "uint256",
          "name": "loanId",
          "type": "uint256"
        }
      ],
      "name": "closeLoan",
      "outputs": [],
      "stateMutability": "nonpayable",
      "type": "function"
    },
    {
      "inputs": [
        {
          "internalType": "uint256",
          "name": "principal",
          "type": "uint256"
        },
        {
          "internalType": "uint256",
          "name": "interestRate",
          "type": "uint256"
        }
      ],
      "name": "getFullInterestAmount",
      "outputs": [
        {
          "internalType": "uint256",
          "name": "",
          "type": "uint256"
        }
      ],
      "stateMutability": "pure",
      "type": "function"
    },
    {
      "inputs": [
        {
          "internalType": "uint256",
          "name": "loanId",
          "type": "uint256"
        }
      ],
      "name": "getInstallmentMinPayment",
      "outputs": [
        {
          "internalType": "uint256",
          "name": "",
          "type": "uint256"
        },
        {
          "internalType": "uint256",
          "name": "",
          "type": "uint256"
        },
        {
          "internalType": "uint256",
          "name": "",
          "type": "uint256"
        }
      ],
      "stateMutability": "view",
      "type": "function"
    },
    {
      "inputs": [
        {
          "internalType": "bytes32",
          "name": "role",
          "type": "bytes32"
        }
      ],
      "name": "getRoleAdmin",
      "outputs": [
        {
          "internalType": "bytes32",
          "name": "",
          "type": "bytes32"
        }
      ],
      "stateMutability": "view",
      "type": "function"
    },
    {
      "inputs": [
        {
          "internalType": "bytes32",
          "name": "role",
          "type": "bytes32"
        },
        {
          "internalType": "address",
          "name": "account",
          "type": "address"
        }
      ],
      "name": "grantRole",
      "outputs": [],
      "stateMutability": "nonpayable",
      "type": "function"
    },
    {
      "inputs": [
        {
          "internalType": "bytes32",
          "name": "role",
          "type": "bytes32"
        },
        {
          "internalType": "address",
          "name": "account",
          "type": "address"
        }
      ],
      "name": "hasRole",
      "outputs": [
        {
          "internalType": "bool",
          "name": "",
          "type": "bool"
        }
      ],
      "stateMutability": "view",
      "type": "function"
    },
    {
      "inputs": [
        {
          "internalType": "bytes32",
          "name": "role",
          "type": "bytes32"
        },
        {
          "internalType": "address",
          "name": "account",
          "type": "address"
        }
      ],
      "name": "renounceRole",
      "outputs": [],
      "stateMutability": "nonpayable",
      "type": "function"
    },
    {
      "inputs": [
        {
          "internalType": "uint256",
          "name": "loanId",
          "type": "uint256"
        }
      ],
      "name": "repay",
      "outputs": [],
      "stateMutability": "nonpayable",
      "type": "function"
    },
    {
      "inputs": [
        {
          "internalType": "uint256",
          "name": "loanId",
          "type": "uint256"
        },
        {
          "internalType": "uint256",
          "name": "amount",
          "type": "uint256"
        }
      ],
      "name": "repayPart",
      "outputs": [],
      "stateMutability": "nonpayable",
      "type": "function"
    },
    {
      "inputs": [
        {
          "internalType": "uint256",
          "name": "loanId",
          "type": "uint256"
        }
      ],
      "name": "repayPartMinimum",
      "outputs": [],
      "stateMutability": "nonpayable",
      "type": "function"
    },
    {
      "inputs": [
        {
          "internalType": "bytes32",
          "name": "role",
          "type": "bytes32"
        },
        {
          "internalType": "address",
          "name": "account",
          "type": "address"
        }
      ],
      "name": "revokeRole",
      "outputs": [],
      "stateMutability": "nonpayable",
      "type": "function"
    },
    {
      "inputs": [
        {
          "internalType": "bytes4",
          "name": "interfaceId",
          "type": "bytes4"
        }
      ],
      "name": "supportsInterface",
      "outputs": [
        {
          "internalType": "bool",
          "name": "",
          "type": "bool"
        }
      ],
      "stateMutability": "view",
      "type": "function"
    }
  ],
  "transactionHash": "0x2f81a577fb7ab12460448dec328dae83594fdc1230b50e94b1ceef7ad80fa6a6",
  "args": [
    "0x8AF8196136f5DAF7D5B6388b043D521fc4515Be8",
    "0x8737291c444fe724451fDc2254226eDF77a60F81",
    "0x4aeCEa484CD5774d83A080674DF96f4b8A7d9798"
  ],
  "numDeployments": 3,
  "solcInputHash": "5822da5cdcb5ff1446980bc3993c012a",
  "bytecode": "0x60806040523480156200001157600080fd5b5060405162001dc338038062001dc3833981016040819052620000349162000090565b600180546001600160a01b039485166001600160a01b031991821617909155600280549385169382169390931790925560038054919093169116179055620000e4565b6001600160a01b03811681146200008d57600080fd5b50565b600080600060608486031215620000a657600080fd5b8351620000b38162000077565b6020850151909350620000c68162000077565b6040850151909250620000d98162000077565b809150509250925092565b611ccf80620000f46000396000f3fe608060405234801561001057600080fd5b506004361061012c5760003560e01c806399c99478116100ad578063cfa498a311610071578063cfa498a31461026c578063d05951a014610275578063d547741f14610288578063f416e8fc1461029b578063fd884d99146102ae57600080fd5b806399c9947814610230578063a217fddf14610243578063be74bce41461024b578063c1a287e214610253578063cc3266e81461025d57600080fd5b8063371fd8e6116100f4578063371fd8e6146101da578063379607f5146101ed578063493070b6146102005780638171ba271461021357806391d148541461021d57600080fd5b806301ffc9a714610131578063248a9ca3146101595780632f2ff15d1461018a5780633545ed7f1461019f57806336568abe146101c7575b600080fd5b61014461013f36600461180d565b6102dc565b60405190151581526020015b60405180910390f35b61017c610167366004611837565b60009081526020819052604090206001015490565b604051908152602001610150565b61019d610198366004611868565b610313565b005b6101b26101ad366004611837565b61033e565b60408051928352602083019190915201610150565b61019d6101d5366004611868565b6103f2565b61019d6101e8366004611837565b610475565b61019d6101fb366004611837565b61067f565b61019d61020e366004611898565b610878565b61017c620f424081565b61014461022b366004611868565b610a85565b61017c61023e366004611898565b610aae565b61017c600081565b61017c603281565b61017c62093a8081565b61017c670de0b6b3a764000081565b61017c61271081565b61019d610283366004611837565b610b20565b61019d610296366004611868565b610cef565b61019d6102a9366004611837565b610d15565b6102c16102bc366004611837565b610eb2565b60408051938452602084019290925290820152606001610150565b60006001600160e01b03198216637965db0b60e01b148061030d57506301ffc9a760e01b6001600160e01b03198316145b92915050565b60008281526020819052604090206001015461032f8133610fef565b6103398383611053565b505050565b600080600080600061034f86610eb2565b600154604051632820036560e11b8152600481018b905293965091945092506000916001600160a01b039091169063504006ca906024016101c060405180830381865afa1580156103a4573d6000803e3d6000fd5b505050506040513d601f19601f820116820180604052508101906103c89190611a0b565b9050828482608001516103db9190611aa9565b6103e59190611aa9565b9791965090945050505050565b6001600160a01b03811633146104675760405162461bcd60e51b815260206004820152602f60248201527f416363657373436f6e74726f6c3a2063616e206f6e6c792072656e6f756e636560448201526e103937b632b9903337b91039b2b63360891b60648201526084015b60405180910390fd5b61047182826110d7565b5050565b600154604051632820036560e11b8152600481018390526000916001600160a01b03169063504006ca906024016101c060405180830381865afa1580156104c0573d6000803e3d6000fd5b505050506040513d601f19601f820116820180604052508101906104e49190611a0b565b60600151805190915063ffffffff1661051357604051630fd8a76760e01b81526004810183905260240161045e565b604081015162ffffff1615610548576040808201519051634ea91ce960e11b815262ffffff909116600482015260240161045e565b6000610565826080015183606001516001600160a01b0316610aae565b905080610585576040516368a72ecb60e01b815260040160405180910390fd5b61059f3360e08401516001600160a01b031690308461113c565b60e082015160015460405163095ea7b360e01b81526001600160a01b0391821660048201526024810184905291169063095ea7b3906044016020604051808303816000875af11580156105f6573d6000803e3d6000fd5b505050506040513d601f19601f8201168201806040525081019061061a9190611ac1565b50600154604051631b8fec7360e11b8152600481018590526001600160a01b039091169063371fd8e6906024015b600060405180830381600087803b15801561066257600080fd5b505af1158015610676573d6000803e3d6000fd5b50505050505050565b6003546040516331a9108f60e11b8152600481018390526000916001600160a01b031690636352211e90602401602060405180830381865afa1580156106c9573d6000803e3d6000fd5b505050506040513d601f19601f820116820180604052508101906106ed9190611ae3565b90506001600160a01b038116331461071a5760405163034d539960e01b815233600482015260240161045e565b600154604051632820036560e11b8152600481018490526000916001600160a01b03169063504006ca906024016101c060405180830381865afa158015610765573d6000803e3d6000fd5b505050506040513d601f19601f820116820180604052508101906107899190611a0b565b60608101516040015190915062ffffff16156108405760006107d482604001516001600160a01b031683606001516000015163ffffffff1684606001516040015162ffffff1661119c565b60015460405163c349026360e01b815260048101879052602481018390529192506001600160a01b03169063c349026390604401600060405180830381600087803b15801561082257600080fd5b505af1158015610836573d6000803e3d6000fd5b5050505050505050565b60015460405163c349026360e01b815260048101859052600060248201526001600160a01b039091169063c349026390604401610648565b8061089657604051631e142f8160e11b815260040160405180910390fd5b60008060006108a485610eb2565b9194509250905060006108b78385611aa9565b9050808510156108e4576040516353c02d8360e01b8152600481018690526024810182905260440161045e565b600154604051632820036560e11b8152600481018890526000916001600160a01b03169063504006ca906024016101c060405180830381865afa15801561092f573d6000803e3d6000fd5b505050506040513d601f19601f820116820180604052508101906109539190611a0b565b905060006109618388611b00565b905061098133606084015160e001516001600160a01b031690308a61113c565b606082015160e0015160015460405163095ea7b360e01b81526001600160a01b039182166004820152602481018a905291169063095ea7b3906044016020604051808303816000875af11580156109dc573d6000803e3d6000fd5b505050506040513d601f19601f82011682018060405250810190610a009190611ac1565b5060015460405163401b403360e01b8152600481018a9052602481018690526044810183905260648101889052608481018790526001600160a01b039091169063401b40339060a401600060405180830381600087803b158015610a6357600080fd5b505af1158015610a77573d6000803e3d6000fd5b505050505050505050505050565b6000918252602082815260408084206001600160a01b0393909316845291905290205460ff1690565b60006001610ac4670de0b6b3a764000084611b2d565b1015610ae657604051637759d63560e01b81526004810183905260240161045e565b612710610afb670de0b6b3a764000084611b2d565b610b059085611b41565b610b0f9190611b2d565b610b199084611aa9565b9392505050565b6000806000610b2e84610eb2565b600154604051632820036560e11b81526004810189905293965091945092506000916001600160a01b039091169063504006ca906024016101c060405180830381865afa158015610b83573d6000803e3d6000fd5b505050506040513d601f19601f82011682018060405250810190610ba79190611a0b565b9050600083858360800151610bbc9190611aa9565b610bc69190611aa9565b9050610be633606084015160e001516001600160a01b031690308461113c565b606082015160e0015160015460405163095ea7b360e01b81526001600160a01b0391821660048201526024810184905291169063095ea7b3906044016020604051808303816000875af1158015610c41573d6000803e3d6000fd5b505050506040513d601f19601f82011682018060405250810190610c659190611ac1565b50600154608083015160405163401b403360e01b81526004810189905260248101869052604481019190915260648101879052608481018690526001600160a01b039091169063401b40339060a4015b600060405180830381600087803b158015610ccf57600080fd5b505af1158015610ce3573d6000803e3d6000fd5b50505050505050505050565b600082815260208190526040902060010154610d0b8133610fef565b61033983836110d7565b6000806000610d2384610eb2565b919450925090506000610d368385611aa9565b905080610d56576040516368a72ecb60e01b815260040160405180910390fd5b600154604051632820036560e11b8152600481018790526000916001600160a01b03169063504006ca906024016101c060405180830381865afa158015610da1573d6000803e3d6000fd5b505050506040513d601f19601f82011682018060405250810190610dc59190611a0b565b9050610de533606083015160e001516001600160a01b031690308561113c565b606081015160e0015160015460405163095ea7b360e01b81526001600160a01b0391821660048201526024810185905291169063095ea7b3906044016020604051808303816000875af1158015610e40573d6000803e3d6000fd5b505050506040513d601f19601f82011682018060405250810190610e649190611ac1565b5060015460405163401b403360e01b815260048101889052602481018590526000604482015260648101879052608481018690526001600160a01b039091169063401b40339060a401610cb5565b600154604051632820036560e11b8152600481018390526000918291829182916001600160a01b039091169063504006ca906024016101c060405180830381865afa158015610f05573d6000803e3d6000fd5b505050506040513d601f19601f82011682018060405250810190610f299190611a0b565b9050600081516003811115610f4057610f40611b60565b1415610f6257604051630fd8a76760e01b81526004810186905260240161045e565b60608101516040015162ffffff1680610f9157604051636865beff60e01b81526004810182905260240161045e565b6000806000610fdd856080015186604001516001600160a01b031687606001516000015163ffffffff1687896020015162ffffff168a60600151606001516001600160a01b0316611277565b919b909a509098509650505050505050565b610ff98282610a85565b61047157611011816001600160a01b03166014611357565b61101c836020611357565b60405160200161102d929190611ba2565b60408051601f198184030181529082905262461bcd60e51b825261045e91600401611c17565b61105d8282610a85565b610471576000828152602081815260408083206001600160a01b03851684529091529020805460ff191660011790556110933390565b6001600160a01b0316816001600160a01b0316837f2f8788117e7eff1d82e926ec794901d17c78024a50270940304540a733656f0d60405160405180910390a45050565b6110e18282610a85565b15610471576000828152602081815260408083206001600160a01b0385168085529252808320805460ff1916905551339285917ff6391f5c32d9c69d2a47ea670b442974b53935d1edc7fd64eb21e047a839171b9190a45050565b604080516001600160a01b0385811660248301528416604482015260648082018490528251808303909101815260849091019091526020810180516001600160e01b03166323b872dd60e01b1790526111969085906114f3565b50505050565b60004260018268056bc75e2d63100000670de0b6b3a76400005b600a811061120657876111c98282611c4a565b146111f4578168056bc75e2d6310000014156111f4576111f181670de0b6b3a7640000611b2d565b91505b6111ff600a82611b2d565b90506111b6565b5060006112138789611b2d565b9050816112208a87611b00565b61122a9190611b41565b925060015b838361123b8385611b41565b6112459190611b41565b1161126957611255816001611aa9565b94508061126181611c5e565b91505061122f565b509298975050505050505050565b60008060008061128889898961119c565b90508086106112a25760008060009350935093505061134b565b60006112af876001611aa9565b6112b99083611b00565b9050600088620f42406112d4670de0b6b3a76400008a611b2d565b6112de9190611b41565b6112e89190611b2d565b90508161132b576000612710620f4240838f6113049190611b41565b61130e9190611b2d565b6113189190611b2d565b96506000955085945061134b9350505050565b6000806113398e84866115c5565b909850965092945061134b9350505050565b96509650969350505050565b60606000611366836002611b41565b611371906002611aa9565b67ffffffffffffffff811115611389576113896118ba565b6040519080825280601f01601f1916602001820160405280156113b3576020820181803683370190505b509050600360fc1b816000815181106113ce576113ce611c79565b60200101906001600160f81b031916908160001a905350600f60fb1b816001815181106113fd576113fd611c79565b60200101906001600160f81b031916908160001a9053506000611421846002611b41565b61142c906001611aa9565b90505b60018111156114a4576f181899199a1a9b1b9c1cb0b131b232b360811b85600f166010811061146057611460611c79565b1a60f81b82828151811061147657611476611c79565b60200101906001600160f81b031916908160001a90535060049490941c9361149d81611c8f565b905061142f565b508315610b195760405162461bcd60e51b815260206004820181905260248201527f537472696e67733a20686578206c656e67746820696e73756666696369656e74604482015260640161045e565b6000611548826040518060400160405280602081526020017f5361666545524332303a206c6f772d6c6576656c2063616c6c206661696c6564815250856001600160a01b03166116959092919063ffffffff16565b80519091501561033957808060200190518101906115669190611ac1565b6103395760405162461bcd60e51b815260206004820152602a60248201527f5361666545524332303a204552433230206f7065726174696f6e20646964206e6044820152691bdd081cdd58d8d9595960b21b606482015260840161045e565b600080808581805b86811015611658576000612710620f42406115e88b87611b41565b6115f29190611b2d565b6115fc9190611b2d565b90506116088186611aa9565b9450612710611618603286611b41565b6116229190611b2d565b61162c9084611aa9565b92506116388382611aa9565b6116429085611aa9565b935050808061165090611c5e565b9150506115cd565b50612710620f424061166a8985611b41565b6116749190611b2d565b61167e9190611b2d565b6116889084611aa9565b9890975095505050505050565b60606116a484846000856116ac565b949350505050565b60608247101561170d5760405162461bcd60e51b815260206004820152602660248201527f416464726573733a20696e73756666696369656e742062616c616e636520666f6044820152651c8818d85b1b60d21b606482015260840161045e565b843b61175b5760405162461bcd60e51b815260206004820152601d60248201527f416464726573733a2063616c6c20746f206e6f6e2d636f6e7472616374000000604482015260640161045e565b600080866001600160a01b031685876040516117779190611ca6565b60006040518083038185875af1925050503d80600081146117b4576040519150601f19603f3d011682016040523d82523d6000602084013e6117b9565b606091505b50915091506117c98282866117d4565b979650505050505050565b606083156117e3575081610b19565b8251156117f35782518084602001fd5b8160405162461bcd60e51b815260040161045e9190611c17565b60006020828403121561181f57600080fd5b81356001600160e01b031981168114610b1957600080fd5b60006020828403121561184957600080fd5b5035919050565b6001600160a01b038116811461186557600080fd5b50565b6000806040838503121561187b57600080fd5b82359150602083013561188d81611850565b809150509250929050565b600080604083850312156118ab57600080fd5b50508035926020909101359150565b634e487b7160e01b600052604160045260246000fd5b60405160e0810167ffffffffffffffff8111828210171561190157634e487b7160e01b600052604160045260246000fd5b60405290565b805162ffffff8116811461191a57600080fd5b919050565b805161191a81611850565b805163ffffffff8116811461191a57600080fd5b600061010080838503121561195257600080fd5b6040519081019067ffffffffffffffff8211818310171561198357634e487b7160e01b600052604160045260246000fd5b816040528092506119938461192a565b81526119a16020850161192a565b60208201526119b260408501611907565b6040820152606084015191506119c782611850565b816060820152608084015160808201526119e360a0850161191f565b60a082015260c084015160c08201526119fe60e0850161191f565b60e0820152505092915050565b60006101c08284031215611a1e57600080fd5b611a266118d0565b825160048110611a3557600080fd5b8152611a4360208401611907565b6020820152611a546040840161191f565b6040820152611a66846060850161193e565b6060820152610160830151608082015261018083015160a08201526101a09092015160c083015250919050565b634e487b7160e01b600052601160045260246000fd5b60008219821115611abc57611abc611a93565b500190565b600060208284031215611ad357600080fd5b81518015158114610b1957600080fd5b600060208284031215611af557600080fd5b8151610b1981611850565b600082821015611b1257611b12611a93565b500390565b634e487b7160e01b600052601260045260246000fd5b600082611b3c57611b3c611b17565b500490565b6000816000190483118215151615611b5b57611b5b611a93565b500290565b634e487b7160e01b600052602160045260246000fd5b60005b83811015611b91578181015183820152602001611b79565b838111156111965750506000910152565b7f416363657373436f6e74726f6c3a206163636f756e7420000000000000000000815260008351611bda816017850160208801611b76565b7001034b99036b4b9b9b4b733903937b6329607d1b6017918401918201528351611c0b816028840160208801611b76565b01602801949350505050565b6020815260008251806020840152611c36816040850160208701611b76565b601f01601f19169190910160400192915050565b600082611c5957611c59611b17565b500690565b6000600019821415611c7257611c72611a93565b5060010190565b634e487b7160e01b600052603260045260246000fd5b600081611c9e57611c9e611a93565b506000190190565b60008251611cb8818460208701611b76565b919091019291505056fea164736f6c634300080b000a",
  "devdoc": {
    "author": "Non-Fungible Technologies, Inc. The Repayment Controller is the entry point for all loan lifecycle operations in the Arcade.xyz lending protocol once a loan has begun. This contract allows a caller to calculate an amount due on a loan, make a payment (either in full or part, for installment loans), and claim collateral on a defaulted loan. It is this contract's responsibility to verify loan conditions before calling LoanCore.",
    "errors": {
      "FIAC_InterestRate(uint256)": [
        {
          "params": {
            "interestRate": "InterestRate with 1e18 multiplier."
          }
        }
      ],
      "RC_CannotDereference(uint256)": [
        {
          "params": {
            "target": "The loanId being checked."
          }
        }
      ],
      "RC_HasInstallments(uint256)": [
        {
          "params": {
            "numInstallments": "Number of installments returned from LoanTerms."
          }
        }
      ],
      "RC_NoInstallments(uint256)": [
        {
          "params": {
            "numInstallments": "Number of installments returned from LoanTerms."
          }
        }
      ],
      "RC_OnlyLender(address)": [
        {
          "params": {
            "caller": "Msg.sender of the function call."
          }
        }
      ],
      "RC_RepayPartLTMin(uint256,uint256)": [
        {
          "params": {
            "amount": "Amount function call parameter.",
            "minAmount": "The minimum amount due."
          }
        }
      ]
    },
    "kind": "dev",
    "methods": {
      "amountToCloseLoan(uint256)": {
        "details": "Pay off the current interest and, if applicable any late fees accrued, in addition to any      remaining principal left on the loan.",
        "params": {
          "loanId": "LoanId, used to locate terms."
        },
        "returns": {
          "_0": "amountDue                        The total amount due to close the loan, including principal, interest,                                          and late fees.",
          "_1": "numMissedPayments                The number of overdue installment periods since the last payment."
        }
      },
      "claim(uint256)": {
        "params": {
          "loanId": "The ID of the loan."
        }
      },
      "closeLoan(uint256)": {
        "details": "Pay off the current interest and, if applicable any late fees accrued, and the remaining principal      left on the loan.",
        "params": {
          "loanId": "LoanId, used to locate terms."
        }
      },
      "getFullInterestAmount(uint256,uint256)": {
        "details": "Interest and principal must be entered with 18 units of      precision from the basis point unit (e.g. 1e18 == 0.01%)",
        "params": {
          "interestRate": "Interest rate in the loan terms.",
          "principal": "Principal amount in the loan terms."
        },
        "returns": {
          "_0": "interest                  The amount of interest due."
        }
      },
      "getInstallmentMinPayment(uint256)": {
        "details": "Calls _calcAmountsDue similar to repayPart and repayPartMinimum, but does not call LoanCore.",
        "params": {
          "loanId": "LoanId, used to locate terms."
        },
        "returns": {
          "_0": "minInterestDue                   The amount of interest due, compounded over missed payments.",
          "_1": "lateFees                         The amount of late fees due, compounded over missed payments.",
          "_2": "_installmentsMissed              The number of overdue installment periods since the last payment."
        }
      },
      "getRoleAdmin(bytes32)": {
        "details": "Returns the admin role that controls `role`. See {grantRole} and {revokeRole}. To change a role's admin, use {_setRoleAdmin}."
      },
      "grantRole(bytes32,address)": {
        "details": "Grants `role` to `account`. If `account` had not been already granted `role`, emits a {RoleGranted} event. Requirements: - the caller must have ``role``'s admin role."
      },
      "hasRole(bytes32,address)": {
        "details": "Returns `true` if `account` has been granted `role`."
      },
      "renounceRole(bytes32,address)": {
        "details": "Revokes `role` from the calling account. Roles are often managed via {grantRole} and {revokeRole}: this function's purpose is to provide a mechanism for accounts to lose their privileges if they are compromised (such as when a trusted device is misplaced). If the calling account had been granted `role`, emits a {RoleRevoked} event. Requirements: - the caller must be `account`."
      },
      "repay(uint256)": {
        "params": {
          "loanId": "The ID of the loan."
        }
      },
      "repayPart(uint256,uint256)": {
        "details": "Pay off the current interest and, if applicable any late fees accrued, and an additional      amount to be deducted from the loan principal.",
        "params": {
          "amount": "Amount = minBalDue + lateFees + amountToPayOffPrincipal                                          value must be greater than minBalDue + latefees returned                                          from getInstallmentMinPayment function call.",
          "loanId": "LoanId, used to locate terms."
        }
      },
      "repayPartMinimum(uint256)": {
        "details": "Only pay off the current interest amount and, if applicable, any late fees accrued.",
        "params": {
          "loanId": "LoanId, used to locate terms."
        }
      },
      "revokeRole(bytes32,address)": {
        "details": "Revokes `role` from `account`. If `account` had been granted `role`, emits a {RoleRevoked} event. Requirements: - the caller must have ``role``'s admin role."
      },
      "supportsInterface(bytes4)": {
        "details": "See {IERC165-supportsInterface}."
      }
    },
    "title": "RepaymentController",
    "version": 1
  },
  "userdoc": {
    "errors": {
      "FIAC_InterestRate(uint256)": [
        {
          "notice": "Interest must be greater than 0.01%. (interestRate / 1e18 >= 1)"
        }
      ],
      "RC_CannotDereference(uint256)": [
        {
          "notice": "Could not dereference loan from loan ID."
        }
      ],
      "RC_HasInstallments(uint256)": [
        {
          "notice": "Loan terms have installments, use repaypart or repayPartMinimum for repayments."
        }
      ],
      "RC_NoInstallments(uint256)": [
        {
          "notice": "Loan terms do not have any installments, use repay for repayments."
        }
      ],
      "RC_NoPaymentDue()": [
        {
          "notice": "Repayment has already been completed for this loan without installments."
        }
      ],
      "RC_OnlyLender(address)": [
        {
          "notice": "Caller is not the owner of lender note."
        }
      ],
      "RC_RepayPartLTMin(uint256,uint256)": [
        {
          "notice": "Amount paramater less than the minimum amount due."
        }
      ],
      "RC_RepayPartZero()": [
        {
          "notice": "Repaid amount must be larger than zero."
        }
      ]
    },
    "kind": "user",
    "methods": {
      "amountToCloseLoan(uint256)": {
        "notice": "Called when the user wants to close an installment loan without needing to determine the         amount to pass to the repayPart function. This is done by paying the remaining principal         and any interest or late fees due."
      },
      "claim(uint256)": {
        "notice": "Claim collateral an active loan, referenced by lender note ID (equivalent to loan ID). The loan         must be passed the due date, or, in the case of an installment, the amount         overdue must be beyond the liquidation threshold. No funds are collected         from the borrower."
      },
      "closeLoan(uint256)": {
        "notice": "Called when the user wants to close an installment loan without neededing to deteremine the         amount to pass to the repayPart function. This is done by paying the remaining principal         and any interest or late fees due."
      },
      "getFullInterestAmount(uint256,uint256)": {
        "notice": "Calculate the interest due over a full term."
      },
      "getInstallmentMinPayment(uint256)": {
        "notice": "Call _calcAmountsDue publicly to determine the amount of the payable currency         must be approved for the payment. Returns minimum balance due, late fees, and number         of missed payments."
      },
      "repay(uint256)": {
        "notice": "Repay an active loan, referenced by borrower note ID (equivalent to loan ID). The interest for a loan         is calculated, and the principal plus interest is withdrawn from the borrower.         Control is passed to LoanCore to complete repayment."
      },
      "repayPart(uint256,uint256)": {
        "notice": "Called when paying back installment loan with an amount greater than the minimum amount due.         Do not call for single payment loan types."
      },
      "repayPartMinimum(uint256)": {
        "notice": "Called when paying back installment loan with the minimum amount due.         Do not call for single payment loan types. Calling this function does not         reduce the loans principal."
      }
    },
    "version": 1
  },
  "storageLayout": {
    "storage": [
      {
        "astId": 5057,
        "contract": "contracts/RepaymentController.sol:RepaymentController",
        "label": "_roles",
        "offset": 0,
        "slot": "0",
        "type": "t_mapping(t_bytes32,t_struct(RoleData)5052_storage)"
      },
      {
        "astId": 17026,
        "contract": "contracts/RepaymentController.sol:RepaymentController",
        "label": "loanCore",
        "offset": 0,
        "slot": "1",
        "type": "t_contract(ILoanCore)19081"
      },
      {
        "astId": 17029,
        "contract": "contracts/RepaymentController.sol:RepaymentController",
        "label": "borrowerNote",
        "offset": 0,
        "slot": "2",
        "type": "t_contract(IPromissoryNote)19374"
      },
      {
        "astId": 17032,
        "contract": "contracts/RepaymentController.sol:RepaymentController",
        "label": "lenderNote",
        "offset": 0,
        "slot": "3",
        "type": "t_contract(IPromissoryNote)19374"
      }
    ],
    "types": {
      "t_address": {
        "encoding": "inplace",
        "label": "address",
        "numberOfBytes": "20"
      },
      "t_bool": {
        "encoding": "inplace",
        "label": "bool",
        "numberOfBytes": "1"
      },
      "t_bytes32": {
        "encoding": "inplace",
        "label": "bytes32",
        "numberOfBytes": "32"
      },
      "t_contract(ILoanCore)19081": {
        "encoding": "inplace",
        "label": "contract ILoanCore",
        "numberOfBytes": "20"
      },
      "t_contract(IPromissoryNote)19374": {
        "encoding": "inplace",
        "label": "contract IPromissoryNote",
        "numberOfBytes": "20"
      },
      "t_mapping(t_address,t_bool)": {
        "encoding": "mapping",
        "key": "t_address",
        "label": "mapping(address => bool)",
        "numberOfBytes": "32",
        "value": "t_bool"
      },
      "t_mapping(t_bytes32,t_struct(RoleData)5052_storage)": {
        "encoding": "mapping",
        "key": "t_bytes32",
        "label": "mapping(bytes32 => struct AccessControl.RoleData)",
        "numberOfBytes": "32",
        "value": "t_struct(RoleData)5052_storage"
      },
      "t_struct(RoleData)5052_storage": {
        "encoding": "inplace",
        "label": "struct AccessControl.RoleData",
        "members": [
          {
            "astId": 5049,
            "contract": "contracts/RepaymentController.sol:RepaymentController",
            "label": "members",
            "offset": 0,
            "slot": "0",
            "type": "t_mapping(t_address,t_bool)"
          },
          {
            "astId": 5051,
            "contract": "contracts/RepaymentController.sol:RepaymentController",
            "label": "adminRole",
            "offset": 0,
            "slot": "1",
            "type": "t_bytes32"
          }
        ],
        "numberOfBytes": "64"
      }
    }
  }
}